:100000000C9421010C9449010C9449010C94490170
:100010000C9449010C9449010C9449010C940B0374
:100020000C9449010C9449010C9449010C94490128
:100030000C9449010C9449010C9449010C94490118
:100040000C94DF0A0C9449010C9449010C94490169
:100050000C9449010C9449010C9449010C944901F8
:100060000C9449010C94490107634236B79BD8A709
:100070001A39685618AEBAAB558C1D3CB7CC5763CD
:10008000BD6DEDFD753EF6177231BF000000803F7B
:1000900008000000BE922449123EABAAAA2ABECD97
:1000A000CCCC4C3E00000080BEABAAAAAA3E000009
:1000B0000000BF000000803F000000000008417801
:1000C000D3BB4387D1133D190E3CC3BD4282AD2B38
:1000D0003E68EC8276BED98FE1A93E4C80EFFFBE30
:1000E00001C4FF7F3F000000000000407A10F35A77
:1000F00000A0724E18090010A5D4E80000E8764868
:10010000170000E40B54020000CA9A3B000000E113
:10011000F505000080969800000040420F000000A6
:10012000A08601000000102700000000E803000086
:1001300000006400000000000A0000000000010050
:10014000000000002C76D888DC674F0823DFC1DF71
:10015000AE59E1B1B796E5E3E453C63AE651997674
:1001600096E8E6C28426EB898C9B62ED407C6FFCAE
:10017000EFBC9C9F40F2BAA56FA5F490055A2AF7F0
:100180005C936B6CF9676DC11BFCE0E40D47FEF5F9
:1001900020E6B500D0ED902E030094357705008061
:1001A000841E080000204E0A000000C80C333333C0
:1001B000330F986E12831141EF8D2114893BE65560
:1001C00016CFFEE6DB18D1844B381BF77C1D901D43
:1001D000A4BBE424203284725E228100C9F124ECA5
:1001E000A1E53D27000000002300260029000000B3
:1001F0000000240027002A0000000008000201007F
:1002000000030407000000000000000001020408D1
:100210001020408001020408102001020408102070
:1002200000000000250028002B000404040404043E
:100230000404020202020202030303030303020096
:10024000FE1211241FBECFEFD8E0DEBFCDBF21E0EC
:10025000AAE7B1E001C01D92A03EB207E1F711E0AC
:10026000A0E0B1E0EEE2F9E302C005900D92AA37FA
:10027000B107D9F711E0C1E2D1E004C02197FE0136
:100280000E94F617C032D107C9F70E94290B0C94BF
:10029000951C0C9400000895CF92DF92EF92FF928C
:1002A0000F931F93CF93DF936C017A018B01C0E012
:1002B000D0E0CE15DF0581F0D8016D918D01D6011A
:1002C000ED91FC910190F081E02DC6010995892BFB
:1002D00011F02196EECF7E01C701DF91CF911F91E2
:1002E0000F91FF90EF90DF90CF90089580E090E025
:1002F0000895CF93DF93EC0160E08E810E94300778
:1003000061E08E810E94300760E08E810E9430079C
:100310008BE891E00197F1F7DF91CF9108958F92EB
:100320009F92AF92BF92CF92DF92EF92FF920F9384
:100330001F93CF93DF9320918001211109C028ECF6
:1003400030E030937F0120937E0121E020938001F3
:1003500042E1489F9001499F300D1124C0919601C0
:10036000D0919701C20FD31F888580FD44C00E94A1
:10037000D30A4B015C01C0907A01D0907B01E090E0
:100380007C01F0907D01A0917E01B0917F01A701D9
:1003900096010E94EE1709851A852B853C85801AE7
:1003A000910AA20AB30A86169706A806B90618F19A
:1003B0008FEFC81AD80AE80AF80AC0927A01D092D8
:1003C0007B01E0927C01F0927D010E94190481E0A2
:1003D00098859570953089F410927A0110927B017E
:1003E00010927C0110927D0128EC30E030937F0167
:1003F00020937E0102C080E0EBCFDF91CF911F916F
:100400000F91FF90EF90DF90CF90BF90AF909F90B3
:100410008F900895FC01808191810C94311B862F6F
:10042000642F0C945F070E94801C0F931F93CF933F
:10043000DF93EC0188819981009729F02A813B8123
:100440002617370788F48B016F5F7F4F0E94BA1B16
:10045000009761F0998388831B830A832C813D81F7
:10046000232B11F4FC01108281E001C080E0DF91B8
:10047000CF911F910F910895CF93DF93FC012189B4
:1004800030E0F901E850FE4F8491F901E45FFD4F3F
:10049000D491F901E65DFD4FC491CC2379F081112F
:1004A0000E940707EC2FF0E0EE0FFF1FEC51FE4F0C
:1004B000A591B491EC91ED2381E009F480E0817085
:1004C000DF91CF910895EF92FF920F931F93CF93F7
:1004D000DF936115710511F480E01CC041155105D1
:1004E000C1F07B01EC018C819D818A01080F191FED
:1004F000B801CE010E941502882371F32881398149
:100500008C819D81B701820F931F0E948E1C1D83D9
:100510000C8381E0DF91CF911F910F91FF90EF90BD
:100520000895CF93DF93EC0188819981009711F0B2
:100530000E94311B198218821D821C821B821A8222
:10054000DF91CF910895CF93DF93EC016115710591
:1005500061F0FB0101900020E9F73197AF01461BE4
:10056000570B0E946302811103C0CE010E949102C9
:10057000CE01DF91CF910895EF92FF920F931F93D9
:10058000CF93DF93EC017B018A01BA010E9415022F
:10059000811104C0CE010E94910207C01D830C830B
:1005A000B701888199810E948E1CCE01DF91CF9185
:1005B0001F910F91FF90EF900895CF93DF93EC017F
:1005C0006115710559F0FB0101900020E9F73197A1
:1005D000AF01461B570B0E94BC0202C00E94910251
:1005E000CE01DF91CF910895CF93DF93EC01FB0112
:1005F0008617970761F0608171816115710529F097
:10060000448155810E94BC0202C00E949102CE0129
:10061000DF91CF9108951F920F920FB60F92112480
:100620002F933F934F935F936F937F938F939F93FA
:10063000AF93BF93EF93FF938091B5019091B60173
:10064000A091B701B091B801892B8A2B8B2B59F15E
:100650009091B201E091B301F091B40180818927BA
:1006600080838091B5019091B601A091B701B091BE
:10067000B801181619061A061B060CF03DC0809129
:10068000B5019091B601A091B701B091B801019761
:10069000A109B1098093B5019093B601A093B70168
:1006A000B093B80129C080910501EEE3F2E0E49136
:1006B0009FEF90930501E130B9F098F0E230C9F472
:1006C000909170009D7F9093700091E09093B000A6
:1006D0009091B100987F94609093B1001092B30014
:1006E00008C010926E0005C090916F009D7F90939E
:1006F0006F0060E00E943007FF91EF91BF91AF91D2
:100700009F918F917F916F915F914F913F912F9129
:100710000F900FBE0F901F901895CF92DF92EF921F
:10072000FF920F931F93CF93DF936C017C0187E0BF
:10073000E80EF11CC0E0D0E0062F10E0B8010C2E4E
:1007400002C0759567950A94E2F76170F70181918F
:100750007F010E9430072196C430D10579F7C60188
:10076000DF91CF911F910F91FF90EF90DF90CF908D
:100770000C947901CF92DF92EF92FF920F931F9327
:10078000CF93DF93EC01F62E642F8C810E9430070B
:100790008D818F3F19F060E00E9430078F850F2D0B
:1007A00010E084FF25C06E0187E0C80ED11CE12C4B
:1007B000F12CB8010E2C02C0759567950A94E2F7EA
:1007C0006170F60181916F010E943007FFEFEF1A0F
:1007D000FF0A88E0E816F10461F7CE01DF91CF91BE
:1007E0001F910F91FF90EF90DF90CF900C947901C3
:1007F000B80184E0759567958A95E1F7CE010E946E
:100800008D036F2DCE01DF91CF911F910F91FF903E
:10081000EF90DF90CF900C948D0341E00E94BA03DB
:1008200081E090E0089540E0682F89EB91E00C941E
:10083000BA0381E00E9413048BE39FE10197F1F773
:100840000895009769F0FC0101900020E9F73197C5
:10085000AF01481B590BBC0189EB91E00C944C0192
:1008600080E090E00895843008F083E09091CC011E
:10087000891710F08FEF890FE82FF0E0E754FE4F53
:10088000848980680C9413042F923F924F925F9258
:100890006F927F928F929F92AF92BF92CF92DF9290
:1008A000EF92FF920F931F93CF93DF93CDB7DEB7F5
:1008B000A3970FB6F894DEBF0FBECDBF4B015C010E
:1008C0009B01AC010E945F19882319F08EE691E02C
:1008D0001AC075016401E894F7F82FEF3FEF4FE776
:1008E0005FE7C701B6010E945F1981110FC02FEFAA
:1008F0003FEF4FE75FE7C701B6010E9428161816C1
:100900002CF482E791E00E9421049AC02FEF3FEF80
:100910004FE75FE4C501B4010E940A1918161CF4E0
:1009200086E791E0F0CF2FEF3FEF4FE75FECC50197
:10093000B4010E94281687FDF3CF20E030E0A90122
:10094000C501B4010E94281687FF0EC041E06DE288
:1009500089EB91E00E94BA03B7FAB094B7F8B0946B
:10096000EE24E394F12C02C0E12CF12C2DEC3CECB4
:100970004CE45DE3C501B4010E94FD174B015C012D
:100980000E94DB183B016C0119A29B01AC018E0196
:100990000F5D1F4F0AA31BA39AE0292E312C412C77
:1009A000512CCA01B901A20191010E94AD17605DED
:1009B000F80162938F01211531054105510589F731
:1009C000CF010E9421048C01FFEFEF1AFF0A41E0E2
:1009D0006EE289EB91E00E94BA03E00EF11EB301D2
:1009E000C6010E942D169B01AC01C501B4010E94F5
:1009F000FC1720E030E040E251E40E948E160E9495
:100A0000DB189B0140E050E019A20AA11BA18AE07B
:100A1000882E912CA12CB12CCA01B901A5019401F9
:100A20000E94AD17605DF80162938F0121153105B9
:100A30004105510589F7CF010E9421048E0D9F1DAC
:100A4000A3960FB6F894DEBF0FBECDBFDF91CF9156
:100A50001F910F91FF90EF90DF90CF90BF90AF90DC
:100A60009F908F907F906F905F904F903F902F90CE
:100A70000895CF93DF93EC01FB01448155816081A0
:100A800071810E946302811103C0CE010E94910214
:100A9000CE01DF91CF910895FC0111821082138263
:100AA0001282158214820C94F4020F931F93CF9339
:100AB000DF93CDB7DEB7A1970FB6F894DEBF0FBEB8
:100AC000CDBF8C01CB01BA01F801118210821382D3
:100AD0001282158214822AE0AE014F5F5F4F0E949E
:100AE000AA13BE016F5F7F4FC8010E94DD02A1966D
:100AF0000FB6F894DEBF0FBECDBFDF91CF911F912F
:100B00000F910895EF92FF920F931F93CF93DF936E
:100B1000CDB7DEB7A1970FB6F894DEBF0FBECDBF3D
:100B20007C01CB01BA01F70111821082138212827B
:100B3000158214828E010F5F1F4F21E043E00E9457
:100B40007F13BC01C7010E94DD02A1960FB6F89485
:100B5000DEBF0FBECDBFDF91CF911F910F91FF90F0
:100B6000EF900895CF92DF92EF92FF928130E1F003
:100B70005CF4811170C06091A0017091A10180911D
:100B8000A2019091A3016AC08230C9F0833009F0BC
:100B900062C06091AA017091AB018091AC0190910B
:100BA000AD010E942D162AC06091A8017091A90183
:100BB000072E000C880B990B0E942F161FC0209146
:100BC000AA013091AB014091AC015091AD0160910F
:100BD000AE017091AF018091B0019091B1010E947E
:100BE0009D17C090A001D090A101E090A201F090CB
:100BF000A3016C0D7D1D8E1D9F1D30C06B017C01FE
:100C00006091A4017091A5018091A6019091A70126
:100C10000E942D169B01AC01C701B6010E94691804
:100C20009B01AC0160E070E080E090E40E940F194D
:100C30006B017C016091A0017091A1018091A201E2
:100C40009091A3010E942D16A70196010E948E1675
:100C50000E94DB1803C060E070E0CB01FF90EF90D2
:100C6000DF90CF9008958823D1F08091AA019091D0
:100C7000AB01A091AC01B091AD01B7FD04C00196EC
:100C8000A11DB11D04C081E090E0A0E0B0E0809320
:100C9000AA019093AB01A093AC01B093AD01662380
:100CA000E9F08091AA019091AB01A091AC01B091C3
:100CB000AD0182309105A105B10524F00197A1098C
:100CC000B10904C081E090E0A0E0B0E08093AA0107
:100CD0009093AB01A093AC01B093AD018091AA01B8
:100CE0009091AB01A091AC01B091AD014897A105E5
:100CF000B10560F088E190E0A0E0B0E08093AA0147
:100D00009093AB01A093AC01B093AD0108958823FB
:100D1000D1F08091A4019091A501A091A601B0917C
:100D2000A701B7FD04C00196A11DB11D04C081E05B
:100D300090E0A0E0B0E08093A4019093A501A0937F
:100D4000A601B093A7016623E9F08091A4019091D8
:100D5000A501A091A601B091A70182309105A1053E
:100D6000B10524F00197A109B10904C081E090E028
:100D7000A0E0B0E08093A4019093A501A093A60108
:100D8000B093A7018091A4019091A501A091A60123
:100D9000B091A7014897A105B10560F088E190E006
:100DA000A0E0B0E08093A4019093A501A093A601D8
:100DB000B093A70108950F931F93CF93DF93CDB7FF
:100DC000DEB762970FB6F894DEBF0FBECDBF8C01C1
:100DD000CB01F801118210821382128215821482D3
:100DE0004AE0BE016F5F7F4F0E949F13BE016F5F9D
:100DF0007F4FC8010E94DD0262960FB6F894DEBFF5
:100E00000FBECDBFDF91CF911F910F910895833019
:100E100081F028F4813099F08230A1F00895873074
:100E2000A9F08830B9F08430D1F4809180008F7DB2
:100E300003C0809180008F7780938000089584B5EF
:100E40008F7702C084B58F7D84BD08958091B000F6
:100E50008F7703C08091B0008F7D8093B00008959C
:100E60001F93CF93DF93282F30E0F901E850FE4F16
:100E70008491F901E45FFD4FD491F901E65DFD4FE6
:100E8000C491CC23C1F0162F81110E940707EC2FCB
:100E9000F0E0EE0FFF1FE05EFD4FA591B4919FB70C
:100EA000F894111104C08C91D095D82302C0EC9114
:100EB000DE2BDC939FBFDF91CF911F910895CF93DD
:100EC000DF9390E0FC01E45FFD4F2491FC01E65DBF
:100ED000FD4F8491882361F190E0880F991FFC01F8
:100EE000E251FE4FC591D491FC01E05EFD4FA5910A
:100EF000B491611109C09FB7F8948881209582232D
:100F00008883EC912E230BC0623061F49FB7F89474
:100F10008881322F309583238883EC912E2B2C935C
:100F20009FBF06C08FB7F894E8812E2B28838FBF10
:100F3000DF91CF910895CF93DF93823028F0909185
:100F4000C80198609093C8018093CC011092CD01A4
:100F500080E48093CE0180E18093CF0180E580938F
:100F6000D00161E08091BD010E945F078091BE01C8
:100F70008F3F19F061E00E945F0761E08091BF013F
:100F80000E945F07C9EBD1E09E01295B314080914F
:100F9000C80184FD03C084E090E002C088E090E0D6
:100FA0002196281739072CF461E08E810E945F0793
:100FB000EBCF8BE39DE00197F1F760E08091BD01FD
:100FC0000E94300760E08091BF010E94300780914D
:100FD000BE018F3F19F060E00E9430078091C80188
:100FE00084FD20C063E089EB91E00E948D03CBE497
:100FF000D6E4CE010197F1F763E089EB91E00E941E
:101000008D032197F1F763E089EB91E00E948D0356
:1010100083E592E00197F1F762E089EB91E00E94AD
:101020008D0315C080620E9413048BE496E401973F
:10103000F1F78091C80180620E94130483E592E079
:101040000197F1F78091C80180620E94130480919A
:10105000C80180620E94130484E08093C9018CE07F
:101060000E9413040E94190482E08093CA0186E062
:10107000DF91CF910C9413044F925F926F927F9205
:101080008F929F92AF92BF92CF92DF92EF92FF9298
:101090000F931F93CF93DF9300D000D01F92CDB753
:1010A000DEB78C012A013B0180910501833121F0DB
:1010B0008F3F09F03DC205C0EEE3F2E024912D839D
:1010C00072C083E180930501EEE3F2E084918D83A9
:1010D0008F3F09F42DC2813009F441C038F18230CC
:1010E00009F061C01092B0001092B1008091B00080
:1010F00082608093B0008091B10081608093B100E4
:10110000EDE3F2E0E491F0E0EE0FFF1FE05EFD4F53
:10111000859194919093B4018093B301EFE1F2E053
:10112000E491E093B20122E02D83FDC114BC15BC13
:1011300084B5826084BD85B5816085BDEDE3F2E054
:10114000E491F0E0EE0FFF1FE05EFD4F859194917A
:10115000EFE1F2E0E491E093D2011D82E4C110924C
:1011600080001092810080918100886080938100CE
:1011700080918100816080938100EDE3F2E0E49151
:10118000F0E0EE0FFF1FE05EFD4F85919491EFE1DF
:10119000F2E0E491E093D10161E083E10E945F0716
:1011A00091E09D838AC08D8187FDC2C161E083E1AA
:1011B0000E945F078D818D7F09F07FC04801A12CBF
:1011C000B12C60E072E18AE790E0A50194010E94F1
:1011D000CF1729833A834B835C8369017A0191E0BD
:1011E000C91AD108E108F1082FEFC216D104E104B1
:1011F000F10409F008F44EC060E472E48FE090E07E
:10120000A50194010E94CF1769017A0181E0C81AF3
:10121000D108E108F1089D81923009F52FEFC2163F
:10122000D104E104F10409F008F444C160E970ED6F
:1012300083E090E0A50194010E94CF1769017A0133
:1012400081E0C81AD108E108F1089FEFC916D1045E
:10125000E104F10411F008F0BAC083E027C02FEFD9
:10126000C216D104E104F104B9F0B0F068E478EEFC
:1012700081E090E0A50194010E94CF1769017A01F5
:1012800081E0C81AD108E108F1089D81992309F489
:1012900013C1DCC081E001C082E09D81911106C0D4
:1012A00095B5987F892B85BD44C085E09091B100AC
:1012B000987F892B8093B1003CC04801A12CB12CB0
:1012C00060E072E18AE790E0A50194010E94CF17E7
:1012D00069017A0181E0C81AD108E108F108C11456
:1012E000D10491E0E906F10488F068E478EE81E049
:1012F00090E0A50194010E94CF1769017A0181E075
:10130000C81AD108E108F10883E001C081E09D819D
:10131000913079F490918100987F892B809381009E
:10132000411451046104710449F42FEF3FEFA90106
:101330002CC0411451046104710471F0D801AA0F4A
:10134000BB1FA30192010E944C1728EE33E040E03E
:1013500050E00E94AD1703C02FEF3FEFA9018D8130
:10136000813099F0823019F18111E2C0C7BC20931D
:10137000D7013093D8014093D9015093DA0180917D
:101380006E00826080936E00D3C0D0928900C092BC
:1013900088002093D3013093D4014093D50150931A
:1013A000D60180916F00826080936F00C1C0C092AF
:1013B000B3002093B5013093B6014093B701509329
:1013C000B80180917000826080937000B1C068E4C1
:1013D00078EE81E090E0A50194010E94CF176901A9
:1013E0007A0191E0C91AD108E108F1082FEFC2167D
:1013F000D104E104F10441F138F164E274EF80E0DA
:1014000090E0A50194010E94CF1769017A0181E063
:10141000C81AD108E108F1089FEFC916D104E10408
:10142000F10409F008F441CF62E17AE780E090E04E
:10143000A50194010E94CF1769017A0181E0C81AC1
:10144000D108E108F10819C084E030CF2FEFC216AF
:10145000D104E104F10409F008F463C062E17AE721
:1014600080E090E0A50194010E94CF1769017A0104
:1014700091E0C91AD108E108F1088FEFC816D1042C
:10148000E104F104A9F0A0F089819A81AB81BC81CB
:101490002AE0B595A795979587952A95D1F76C0180
:1014A0007D0121E0C21AD108E108F10887E0FECEF3
:1014B00086E0FCCE82E0FACE8FEFC816D104E104BC
:1014C000F10469F160F162E17AE780E090E0A50162
:1014D00094010E94CF1769017A0191E0C91AD108DD
:1014E000E108F1082FEFC216D104E104F104A9F0DC
:1014F000A0F089819A81AB81BC813AE0B595A7952E
:10150000979587953A95D1F76C017D0121E0C21A34
:10151000D108E108F10885E0C3CE84E0C1CE83E0C4
:10152000BFCE84E0BACE61E083E10E945F0746CE81
:101530000F900F900F900F900F90DF91CF911F9110
:101540000F91FF90EF90DF90CF90BF90AF909F9062
:101550008F907F906F905F904F9008953FB7F89471
:1015600080919C0190919D01A0919E01B0919F015D
:1015700026B5A89B05C02F3F19F00196A11DB11DEE
:101580003FBFBA2FA92F982F8827820F911DA11D29
:10159000B11DBC01CD0142E0660F771F881F991F66
:1015A0004A95D1F708952FB7F894609198017091FA
:1015B000990180919A0190919B012FBF08951F92EC
:1015C0000F920FB60F9211242F933F938F939F93F7
:1015D000AF93BF938091980190919901A0919A0146
:1015E000B0919B013091DB0123E0230F2D3720F4D4
:1015F0000196A11DB11D05C026E8230F0296A11D6D
:10160000B11D2093DB018093980190939901A093E1
:101610009A01B0939B0180919C0190919D01A091B2
:101620009E01B0919F010196A11DB11D80939C0167
:1016300090939D01A0939E01B0939F01BF91AF91A4
:101640009F918F913F912F910F900FBE0F901F9000
:101650001895CF93DF93CDB7DEB7E2970FB6F89426
:10166000DEBF0FBECDBF789484B5826084BD84B5E3
:10167000816084BD85B5826085BD85B5816085BD8D
:1016800080916E00816080936E0010928100809145
:1016900081008260809381008091810081608093CD
:1016A0008100809180008160809380008091B100F2
:1016B00084608093B1008091B00081608093B0001D
:1016C00080917A00846080937A0080917A008260B1
:1016D00080937A0080917A00816080937A00809173
:1016E0007A00806880937A001092C10080E1ECE07B
:1016F000F1E0DE01119601900D928A95E1F761E02B
:101700008FE00E945F0761E083E10E945F079E0116
:101710002F5F3F4F6901E12CF12C34E6A32EB12C51
:10172000D6019C9011967C91B2E0CB0ED11C009119
:101730009601109197010E0D1F1DD801ED91FC919E
:101740000280F381E02D42E050E0692DC801099547
:10175000F801918A10860190F081E02D0190F081CE
:10176000E02DC8010995882339F0D80118968C918D
:101770001897836018968C930E94D30AF8016283AD
:10178000738384839583E0919601F0919701EE0D28
:10179000FF1DB782A682F2E1EF0EF11C20E9E216EE
:1017A000F10409F0BDCF82E00E949B0780E00E9417
:1017B000330480E391E00E94210481E00E9433041D
:1017C0008DE391E00E9421040E94AE0A4B015C016E
:1017D00020EDC22E27E0D22EE12CF12C0E94AE0A81
:1017E000DC01CB0188199909AA09BB09883E9340FD
:1017F000A105B10598F331E0C31AD108E108F10859
:1018000048EE840E43E0941EA11CB11CC114D10407
:10181000E104F10419F70E94190401E090E0292E77
:1018200090E0392EC12CD12C12E0E0909601F0907E
:101830009701EC0CFD1CD70118968C9118978B7FA3
:1018400018968C931897ED91FC910190F081E02D02
:10185000C7010995B82EF701808586958170B81665
:1018600081F00E94D30AD70112966D937D938D93D8
:101870009C93159718968C911897812718968C939E
:1018800047C00E94D30AF70142805380648075806C
:10189000AB01BC0144195509660977098681978116
:1018A000A0E0B0E0481759076A077B0788F18085F8
:1018B0008170B81669F10E94D30AD70112966D9310
:1018C0007D938D939C93159718968C91B1E08B27FF
:1018D0008460F70180870E94D30AD70119968D9002
:1018E0009D90AD90BC901C97DC01CB0188199909A3
:1018F000AA09BB09F70185879687A787B08B0E9445
:10190000D30AD70119966D937D938D939C931C9761
:10191000E0909601F0909701F701EC0DFD1D808598
:10192000982F9170282F2570253009F455C69111F4
:1019300002C082FD51C6B2E1CB0ED11CE0E9CE1649
:10194000D10409F072CF40919201509193016091BE
:10195000940170919501F701EE59FF4F208121709C
:101960007297908190FD04C092FB992790F901C075
:1019700090E080919101813051F018F08230A1F017
:1019800015C0911121C6222309F420C60FC0911160
:101990001FC641505109610971094930510561055E
:1019A000710508F415C602C0211112C61092040177
:1019B00080939101813009F4B0C320F0823009F4A2
:1019C00086C5FBC560E08FE00E943007809104016E
:1019D0008823F1F021E030E040E050E02093000166
:1019E0003093010140930201509303011092920140
:1019F00010929301109294011092950110928D0112
:101A000010928E0110928F01109290010E94190481
:101A100080E00E94330487E491E00E942104209139
:101A2000960130919701F901EA57FF4F808181704B
:101A30007297908190FF04C0882331F080E007C046
:101A4000882321F081E003C082E001C083E090910F
:101A50008C01981721F080938C010E94190481E079
:101A60000E94330410918C011AA619A61CA61BA66D
:101A70001EA61DA640E050E067E671E0CE01899603
:101A80000E94BC02113009F48BC008F452C012301D
:101A900009F44BC1133009F0B4C14091A401509135
:101AA000A5016091A6017091A701CE014D960E94FB
:101AB00055054091AA015091AB016091AC01709124
:101AC000AD01CE0147960E9455056091A00170912D
:101AD000A1018091A2019091A3010E942D1620E006
:101AE00030E04AE754E40E946918AB01BC01CE0122
:101AF00001960E948205BE016F5F7F4FCE01419625
:101B00000E944C0561E571E0CE0141960E94A3025E
:101B1000BE01695E7F4F0E94390569E571E00E9450
:101B2000A302BE01635E7F4F0E94390567E571E045
:101B300051C16091A0017091A1018091A201909189
:101B4000A3010E942D1620E030E04AE754E40E94F1
:101B50006918AB01BC01CE0101960E94820589A5DE
:101B60009AA5009741F069817A816115710509F0A4
:101B700036C50E94311B89819A819AA789A78B81DA
:101B80009C819CA78BA78D819E819EA78DA71A8281
:101B900019821C821B821E821D82CE0101962FC1DA
:101BA0008091A8019091A90197FD4CC081E00E940D
:101BB000B2050E942D1620E030E04AE754E40E946E
:101BC0006918AB01BC01CE0183960E948205409149
:101BD000A4015091A5016091A6017091A701CE01C9
:101BE0004D960E9455056091A8017091A901CE0102
:101BF00047960E94DB066091A0017091A10180913F
:101C0000A2019091A3010E942D1620E030E04AE746
:101C100054E40E946918AB01BC01CE0101960E94F8
:101C20008205BE016F5F7F4FCE0141960E944C0539
:101C30006DE471E0CE0141960E94A302BE01695E8F
:101C40007F4F47C081E00E94B2050E942D1620E020
:101C500030E04AE754E40E946918AB01BC01CE01B0
:101C600083960E9482054091A4015091A501609144
:101C7000A6017091A701CE014D960E945505609175
:101C8000A8017091A901CE0147960E94DB066091E0
:101C9000A0017091A1018091A2019091A3010E94E5
:101CA0002D1620E030E04AE754E40E946918AB01A9
:101CB000BC01CE0101960E948205BE016F5F7F4F7D
:101CC000CE0141960E944C05BE01695E7F4FCE0158
:101CD00041960E9439056BE571E00E94A302BE01A6
:101CE000635E7F4F0E9439056FE471E00E94A3029A
:101CF000BE016D5D7F4F0E943905BC01CE01899602
:101D00000E94F402CE0141960E940A02CE01019681
:101D10000E940A02CE0147960E940A02CE014D9609
:101D20000E940A02CE0183966AC06091AE01709152
:101D3000AF018091B0019091B1010E942D1620E079
:101D400030E04AE754E40E946918AB01BC01CE01BF
:101D50004D960E9482054091AA015091AB0160917D
:101D6000AC017091AD01CE0147960E94550560917E
:101D7000A0017091A1018091A2019091A3010E9404
:101D80002D1620E030E04AE754E40E946918AB01C8
:101D9000BC01CE0101960E948205BE016F5F7F4F9C
:101DA000CE0141960E944C0561E571E0CE0141965D
:101DB0000E94A302BE01695E7F4F0E94390564E55F
:101DC00071E00E94A302BE01635E7F4F0E9439054D
:101DD00066E571E00E94A302BC01CE0189960E94D3
:101DE000F402CE0141960E940A02CE0101960E94A1
:101DF0000A02CE0147960E940A02CE014D960E9429
:101E00000A024DA55EA569A57AA589EB91E00E941D
:101E10004C01CE0189960E940A0280918C0181308A
:101E200009F4DEC098F0823009F407C1833009F06C
:101E3000C4C380E090E00E948F01182F81E090E001
:101E40000E948F01612F0E9487065AC180E090E0B6
:101E50000E948F01182F81E090E00E948F0188235B
:101E600001F18091A0019091A101A091A201B091F6
:101E7000A30189313CEF93073FEFA307B3072CF091
:101E800088519C4FAF4FBF4F04C081E090E0A0E06D
:101E9000B0E08093A0019093A101A093A201B09320
:101EA000A3011123F9F08091A0019091A101A091CB
:101EB000A201B091A301893E43E09407A105B105B9
:101EC0002CF0885E9340A109B10904C081E090E044
:101ED000A0E0B0E08093A0019093A101A093A201A3
:101EE000B093A3018091A0019091A101A091A201C2
:101EF000B091A3018C339648A140B10560F08CE30A
:101F000096E8A1E0B0E08093A0019093A101A09396
:101F1000A201B093A30182E090E00E948F01182FEC
:101F200083E090E00E948F018823F9F08091A00166
:101F30009091A101A091A201B091A3018D39EFEF81
:101F40009E07AE07BE072CF08C599F4FAF4FBF4F77
:101F500004C081E090E0A0E0B0E08093A001909305
:101F6000A101A093A201B093A3011123F1F08091EC
:101F7000A0019091A101A091A201B091A301853689
:101F80009105A105B1052CF084569109A109B1096B
:101F900004C081E090E0A0E0B0E08093A0019093C5
:101FA000A101A093A201B093A3018091A0019091FF
:101FB000A101A091A201B091A3018C339648A14048
:101FC000B10508F4FAC22CE336E841E050E0209372
:101FD000A0013093A1014093A2015093A301EDC24F
:101FE00080E090E00E948F01182F81E090E00E9435
:101FF0008F01612F0E94870682E090E00E948F018E
:10200000182F83E090E00E948F01882349F080918F
:10201000A8019091A90101969093A9018093A8012C
:10202000112309F4CAC28091A8019091A9010197D6
:102030009093A9018093A801C0C280E090E00E9423
:102040008F01182F81E090E00E948F018823F9F022
:102050008091AE019091AF01A091B001B091B1011A
:102060008D393FEF9307A307B3072CF08C599F4F8F
:10207000AF4FBF4F04C081E090E0A0E0B0E080939C
:10208000AE019093AF01A093B001B093B1011123C1
:10209000F1F08091AE019091AF01A091B001B091AB
:1020A000B10185369105A105B1052CF08456910941
:1020B000A109B10904C081E090E0A0E0B0E0809304
:1020C000AE019093AF01A093B001B093B1018091A4
:1020D000AE019091AF01A091B001B091B1018035F6
:1020E000934CA105B10560F080E593ECA0E0B0E071
:1020F0008093A0019093A101A093A201B093A301AA
:1021000082E090E00E948F01182F83E090E00E940F
:102110008F01612F0E94330650C261E08FE00E9460
:102120003007809104018823C1F080918C010E94C6
:10213000B205609392017093930180939401909300
:1021400095010E94D30A60938D0170938E01809354
:102150008F01909390010E941904809092019090B9
:102160009301A0909401B090950180928801909283
:102170008901A0928A01B0928B0180918C010E940A
:10218000B205C0908D01D0908E01E0908F01F0904B
:102190009001C60ED71EE81EF91E0E94D30AC61A69
:1021A000D70AE80AF90A8C149D04AE04BF0448F06B
:1021B000C0929201D0929301E0929401F092950125
:1021C00008C0109292011092930110929401109203
:1021D000950180E00E9433048DE591E00E94210486
:1021E00080918C01823020F0843008F0E6C147C035
:1021F00081E00E943304609192017091930180917B
:102200009401909195010E942D1620E030E04AE75C
:1022100054E40E9469180E944404C0900001D090C8
:102220000101E0900201F090030180908D019090F7
:102230008E01A0908F01B09090010E94D30A2B01D3
:102240003C01A8EEB3E0A70196010E944C17860E50
:10225000971EA81EB91E481459046A047B0408F48A
:102260002DC144E650E060E070E08BED93E00E9409
:102270003C089FEFC91AD90AE90AF90A1FC181E08F
:102280000E943304609192017091930180919401B6
:10229000909195010E942D1620E030E04AE754E429
:1022A0000E946918AB01BC01CE0101960E94820513
:1022B0004091AA015091AB016091AC017091AD01C8
:1022C000CE0141960E9455054091000150910101B7
:1022D0006091020170910301CE014D960E94550557
:1022E000BE01635E7F4FCE0147960E944C056BE5B1
:1022F00071E0CE0147960E94A302BE016F5E7F4F40
:102300000E94390566E671E00E94A302BE016F5F7C
:102310007F4F0E943905DC0114964D915C91159711
:102320006D917C9189EB91E00E944C01CE01479622
:102330000E940A02CE014D960E940A02CE014196E9
:102340000E940A02CE0101960E940A02C09000017A
:10235000D0900101E0900201F090030180918C0186
:102360008230D9F46091AE017091AF018091B001DB
:102370009091B101A70196010E949D178090A00144
:102380009090A101A090A201B090A301680D791DC9
:102390008A1D9B1D0E942D1631C0833009F08AC012
:1023A000C701B6010E942D164B015C016091A4018A
:1023B0007091A5018091A6019091A7010E942D1610
:1023C0009B01AC01C501B4010E9469189B01AC01DD
:1023D00060E070E080E090E40E940F194B015C0126
:1023E0006091A0017091A1018091A2019091A3013F
:1023F0000E942D16A50194010E948E164B015C01CE
:1024000020918D0130918E0140918F01509190016A
:102410002FA738AB49AB5AAB0E94D30A0E942D16A6
:102420002B013C016FA578A989A99AA96456710965
:10243000810991090E942D16A50194010E94FD17A2
:102440009B01AC01C301B2010E940A1987FD08C0BB
:102450004FE550E060E070E083E992E00E943C08C4
:102460000E94D30A0E942D162B013C016FA578A96A
:1024700089A99AA965507109810991090E942D16AF
:10248000A50194010E94FD179B01AC01C301B2019B
:102490000E940A1987FD12C044E650E060E070E037
:1024A00080E793E00E943C083FEFC31AD30AE30A97
:1024B000F30A04C0CC24CA94DC2C7601C09200013B
:1024C000D0920101E0920201F092030176C0809166
:1024D0000401882361F00E94D30A60938D017093F8
:1024E0008E0180938F01909390010E94190461E006
:1024F0008FE00E943007C0900001D0900101E09071
:102500000201F090030180908D0190908E01A090C7
:102510008F01B09090010E94D30A2B013C01A8EEDC
:10252000B3E0A70196010E944C17860E971EA81EC5
:10253000B91E481459046A047B0468F044E650E06C
:1025400060E070E08BED93E00E943C084FEFC41A0E
:10255000D40AE40AF40AC0920001D0920101E09288
:102560000201F092030180E00E94330488E691E0CA
:102570000E94210481E00E9433040E94D30AC0908B
:102580008D01D0908E01E0908F01F09090012AE0B3
:1025900030E040E050E02C193D094E095F09620F20
:1025A000731F841F951F0E942D1620E030E04AE71C
:1025B00054E40E9469180E9444042114310409F46F
:1025C00031C90E94000029C981E003C082E001C036
:1025D00080E000930401ECC90E941904ACC94BA52A
:1025E0005CA52D813E814217530708F4C2CA0E94A0
:1025F0008E1C8D819E819EA78DA7CDCA1092BC0195
:102600001092BB0188E291E09093BA018093B901E6
:1026100087E08093BD018FEF8093BE0188E08093B7
:10262000BF0189E08093C0018AE08093C1018BE003
:102630008093C2018CE08093C3011092C401109278
:10264000C5011092C6011092C7011092C80181E025
:102650000E949B0780E990E00E94991AFC019C016E
:1026600020573F4F6AE070E040E251E0128213824F
:102670001482158277836683108651834083118A82
:102680007296E217F30791F7909397018093960162
:1026900088E893E1A0E0B0E08093A0019093A101CD
:1026A000A093A201B093A30183E090E0A0E0B0E08A
:1026B0008093A4019093A501A093A601B093A701D4
:1026C00081E090E09093A9018093A80186E090E0DA
:1026D000A0E0B0E08093AA019093AB01A093AC017D
:1026E000B093AD0180ED97E0A0E0B0E08093AE0143
:1026F0009093AF01A093B001B093B1010895EF9210
:102700000F931F93CF93DF93E80147FD02C034E09E
:1027100001C034E1042E000C550B57FF03C0519546
:1027200041955109E32E022F242FAE010E94E6139A
:10273000CE01DF91CF911F910F91EF900895BB27AC
:102740004A3031F4992322F4BDE2909581959F4F50
:102750000C94CD13BB27FA01A62F621771058105D2
:102760009105330B30FB66F0AA27660F771F881F91
:10277000991FAA1FA21710F0A21B63953850A9F742
:10278000A05DAA3308F0A95DA19336F7B111B1930A
:102790001082CA010C941816BB27FB015527AA27E3
:1027A000880F991FAA1FA41710F0A41B83955051DE
:1027B000B9F7A05DAA3308F0A95DA193009779F756
:1027C000B111B1931192CB010C941816A9E0B0E0AD
:1027D000ECEEF3E10C945D176A01122FB02E2BE39F
:1027E000201720F0FF24F394F00E02C02CE3F22E09
:1027F0000F2D27E0AE014F5F5F4F0E944015BC01D7
:102800004981842F8970813031F0E1FC06C0E0FEFF
:1028100006C090E205C09DE203C09BE201C090E0CB
:102820005E2D507143FF3CC0911102C083E001C096
:1028300084E0811718F4212F281B01C020E05111DA
:102840000BC0F601822F30E2882319F031938150BA
:10285000FBCFC20ED11C20E0992329F0D6019C9316
:10286000F60131966F01C6010396E2FE0AC03EE40E
:10287000D6013C9341E411964C93119712963C93E8
:1028800006C03EE6F601308341E641833283FC0117
:10289000322F40E2332309F442C041933150FACF42
:1028A00042FF44C0911102C083E001C084E081175F
:1028B00018F4212F281B01C020E051110BC0F60194
:1028C000822F30E2882319F031938150FBCFC20E62
:1028D000D11C20E0992329F0D6019C93F601319672
:1028E0006F01C6010396E2FE0BC039E4D6013C93AA
:1028F0003EE411963C93119736E412963C9307C040
:1029000039E6F60130833EE6318336E63283FC0158
:10291000322F40E2332319F041933150FBCFFC01B9
:10292000E20FF11D10828EEF9FEFA6C021E030E094
:10293000911102C020E030E0161617061CF4FB01CE
:10294000319602C0E1E0F0E02E0F3F1FBB2021F0E6
:10295000EB2DF0E0319602C0E0E0F0E02E0F3F1FDB
:10296000E12FF0E02E173F071CF4121B212F01C0AE
:1029700020E08E2D887159F4F601822F30E28823F1
:1029800019F031938150FBCFC20ED11C20E0992366
:1029900029F0D6019C93F60131966F0151110BC0BD
:1029A000F601822F90E3882319F091938150FBCF99
:1029B000C20ED11C20E00F2D060F9A81342F3071EA
:1029C00044FF03C0913309F40150101624F4093078
:1029D00018F008E001C001E0AB0177FF02C040E061
:1029E00050E0FB01E41BF50BA1E0B0E0AC0FBD1F14
:1029F000EA0FFB1F8EE2A82E4B01801A91080B2DC7
:102A000010E01195019511094F3FBFEF5B0721F4CD
:102A1000D601AC9211966D01641775072CF08416DF
:102A2000950614F4818101C080E34150510931962B
:102A3000D60111967D014017510724F0D6018C93E1
:102A40006701E2CF6417750739F4963320F49533A4
:102A500019F4311101C081E3F6018083F701822F5F
:102A600090E2882319F091938150FBCFF701E20F98
:102A7000F11D108280E090E02996ECE00C9479172B
:102A8000283008F027E03327DA01990F311D87FD40
:102A9000916000966105710539F432602E5F3D93B7
:102AA00030E32A95E1F708959F3F30F080387105B3
:102AB000610509F03C5F3C5F3D93913008F0806810
:102AC000911DDF93CF931F930F93FF92EF92192FD6
:102AD000987F9695E92F96959695E90FFF27EC5BE1
:102AE000FE4F99273327EE24FF24A701E701059025
:102AF0000894079428F4360FE71EF81E491F511D4D
:102B0000660F771F881F991F0694A1F705900794F9
:102B100028F4E70EF81E491F561FC11D770F881FA6
:102B2000991F661F0694A1F70590079428F4F80EE4
:102B3000491F561FC71FD11D880F991F661F771F7A
:102B40000694A1F70590079420F4490F561FC71F5C
:102B5000D81F990F661F771F881F0694A9F78491C5
:102B60001095177041F0D695C79557954795F794EE
:102B7000E7941A95C1F7EAEEF0E068941590159184
:102B800035916591959105907FE27395E118F10A71
:102B9000430B560BC90BD009C0F7E10CF11E431FC4
:102BA000561FC91FD01D7EF4703311F48A95E6CFED
:102BB000E894015030F0080F0AF40027021708F4D7
:102BC000202F2395022F7A3328F079E37D932A95DD
:102BD000E9F710C07D932A9589F606949795679535
:102BE000379517951794E118F10A430B560BC90B4B
:102BF000D00998F023957E9173957A3308F070E3AD
:102C00007C932013B8F77E9170617D9330F08395AB
:102C100071E37D9370E32A95E1F71124EF90FF9023
:102C20000F911F91CF91DF91992787FD909508957E
:102C3000DC01FC01672F71917723E1F7329704C023
:102C40007C916D9370836291AE17BF07C8F30895AE
:102C50000E946A1608F481E00895E89409C097FB81
:102C60003EF490958095709561957F4F8F4F9F4F63
:102C70009923A9F0F92F96E9BB279395F6958795A7
:102C800077956795B795F111F8CFFAF4BB0F11F46A
:102C900060FF1BC06F5F7F4F8F4F9F4F16C0882311
:102CA00011F096E911C0772321F09EE8872F762F47
:102CB00005C0662371F096E8862F70E060E02AF088
:102CC0009A95660F771F881FDAF7880F9695879574
:102CD00097F90895990F0008550FAA0BE0E8FEEF49
:102CE00016161706E807F907C0F012161306E407D0
:102CF000F50798F0621B730B840B950B39F40A26C9
:102D000061F0232B242B252B21F408950A2609F4A6
:102D1000A140A6958FEF811D811D08950E94A116E7
:102D20000C9412170E94041738F00E940B1720F021
:102D3000952311F00C94FB160C94011711240C949C
:102D400046170E94231770F3959FC1F3950F50E02B
:102D5000551F629FF001729FBB27F00DB11D639F4D
:102D6000AA27F00DB11DAA1F649F6627B00DA11DF3
:102D7000661F829F2227B00DA11D621F739FB00D99
:102D8000A11D621F839FA00D611D221F749F332709
:102D9000A00D611D231F849F600D211D822F762FA2
:102DA0006A2F11249F5750409AF0F1F088234AF07F
:102DB000EE0FFF1FBB1F661F771F881F91505040EB
:102DC000A9F79E3F510580F00C94FB160C94461712
:102DD0005F3FE4F3983ED4F3869577956795B79572
:102DE000F795E7959F5FC1F7FE2B880F911D96958C
:102DF000879597F9089597F99F6780E870E060E0FC
:102E000008959FEF80EC089500240A941616170683
:102E100018060906089500240A94121613061406CB
:102E200005060895092E0394000C11F4882352F02E
:102E3000BB0F40F4BF2B11F460FF04C06F5F7F4FE6
:102E40008F4F9F4F089557FD9058440F551F59F0CD
:102E50005F3F71F04795880F97FB991F61F09F3F87
:102E600079F087950895121613061406551FF2CFB0
:102E70004695F1DF08C0161617061806991FF1CF00
:102E800086957105610508940895E894BB27662727
:102E90007727CB0197F908950E948E17A59F900D73
:102EA000B49F900DA49F800D911D112408952F9221
:102EB0003F924F925F926F927F928F929F92AF92CA
:102EC000BF92CF92DF92EF92FF920F931F93CF9317
:102ED000DF93CDB7DEB7CA1BDB0B0FB6F894DEBFAE
:102EE0000FBECDBF09942A88398848885F846E84D4
:102EF0007D848C849B84AA84B984C884DF80EE801E
:102F0000FD800C811B81AA81B981CE0FD11D0FB626
:102F1000F894DEBF0FBECDBFED010895A29FB001B2
:102F2000B39FC001A39F700D811D1124911DB29FFD
:102F3000700D811D1124911D0895DB018F939F93C6
:102F40000E944C17BF91AF91A29F800D911DA39F2E
:102F5000900DB29F900D11240895A1E21A2EAA1B84
:102F6000BB1BFD010DC0AA1FBB1FEE1FFF1FA21739
:102F7000B307E407F50720F0A21BB30BE40BF50B36
:102F8000661F771F881F991F1A9469F760957095BF
:102F9000809590959B01AC01BD01CF010895052E50
:102FA00097FB1EF400940E94E61757FD07D00E947D
:102FB000AD1707FC03D04EF40C94E61750954095DE
:102FC000309521953F4F4F4F5F4F089590958095D5
:102FD000709561957F4F8F4F9F4F0895B7FF0C9469
:102FE0004C170E944C17821B930B0895EE0FFF1F86
:102FF0000590F491E02D09945058BB27AA270E9410
:1030000014180C9412170E94041738F00E940B1722
:1030100020F039F49F3F19F426F40C9401170EF4B4
:10302000E095E7FB0C94FB16E92F0E94231758F359
:10303000BA17620773078407950720F079F4A6F59D
:103040000C9445170EF4E0950B2EBA2FA02D0B0112
:10305000B90190010C01CA01A0011124FF27591BDD
:1030600099F0593F50F4503E68F11A16F040A22FE3
:10307000232F342F4427585FF3CF46953795279554
:10308000A795F0405395C9F77EF41F16BA0B620B53
:10309000730B840BBAF09150A1F0FF0FBB1F661F9A
:1030A000771F881FC2F70EC0BA0F621F731F841FDD
:1030B00048F4879577956795B795F7959E3F08F003
:1030C000B0CF9395880F08F09927EE0F97958795C5
:1030D00008950E947D180C9412170E940B1758F047
:1030E0000E94041740F029F45F3F29F00C94FB166E
:1030F00051110C9446170C9401170E94231768F382
:103100009923B1F3552391F3951B550BBB27AA27A0
:1031100062177307840738F09F5F5F4F220F331FDA
:10312000441FAA1FA9F335D00E2E3AF0E0E832D0A2
:1031300091505040E695001CCAF72BD0FE2F29D0A5
:10314000660F771F881FBB1F261737074807AB0777
:10315000B0E809F0BB0B802DBF01FF2793585F4FEC
:103160003AF09E3F510578F00C94FB160C944617EC
:103170005F3FE4F3983ED4F3869577956795B795CE
:10318000F7959F5FC9F7880F911D9695879597F9D9
:103190000895E1E0660F771F881FBB1F6217730752
:1031A0008407BA0720F0621B730B840BBA0BEE1F67
:1031B00088F7E09508950E942B1788F09F5798F0A4
:1031C000B92F9927B751B0F0E1F0660F771F881F2C
:1031D000991F1AF0BA95C9F714C0B13091F00E9446
:1031E0004517B1E008950C944517672F782F88276D
:1031F000B85F39F0B93FCCF3869577956795B3956D
:10320000D9F73EF490958095709561957F4F8F4FDB
:103210009F4F08950E946A1608F48FEF0895FA01EF
:10322000EE0FFF1F309621053105A1F161157105E3
:1032300061F48038BFE39B0749F1689490388105B9
:1032400061F08038BFEF9B0741F099234AF5FF3FBB
:10325000E1053105210519F1E8940894E795D901B4
:10326000AA2329F4AB2FBE2FF85FD0F310C0FF5F65
:1032700070F4A695E0F7F73950F019F0FF3A38F4FA
:103280009F779F930DD00F9007FC9058089546F0BC
:103290000C94011760E070E080E89FE308954FE729
:1032A0009F775F934F933F932F930E940F1A2F9115
:1032B0003F914F915F910E948E160C946C190E9461
:1032C0006A16880B990B089529F416F00C94FB16D6
:1032D0000C9445170C9401170E942B17A8F39638ED
:1032E000A0F707F80F92E8942BE33AEA48EB5FE780
:1032F0000E94A4160F920F920F924DB75EB70F92D5
:103300000E94571AE8E6F0E00E949E194F915F91E3
:10331000EF91FF91E595EE1FFF1F49F0FE57E06822
:103320004427EE0F441FFA95E1F74195550B0E9493
:10333000D1190F9007FE0C94C5190895DF93CF9310
:103340001F930F93FF92EF92DF927B018C016894A1
:1033500006C0DA2EEF010E94A116FE01E894A591A5
:103360002591359145915591A6F3EF010E941418CE
:10337000FE019701A801DA9469F7DF90EF90FF90C2
:103380000F911F91CF91DF9108959B01AC0160E0F7
:1033900070E080E89FE30C9469180C94FB160C9481
:1033A0008B1A0E942B17D8F39923C9F3940F511D40
:1033B000A3F39150504094F059F0882332F0660FF7
:1033C000771F881F91505040C1F79E3F51052CF741
:1033D000880F911D9695879597F908955F3FACF0FA
:1033E000983E9CF0BB27869577956795B79508F42E
:1033F000B1609395C1F7BB0F58F711F460FFE8CFA8
:103400006F5F7F4F8F4F9F4FE3CF0C94461716F09F
:103410000C948B1A0C94011768940C94FB160E9460
:103420002B17A8F39923C1F3AEF3DF93CF931F9328
:103430000F93FF92C92FDD2788232AF02197660F6B
:10344000771F881FDAF720E030E040E85FEB9FE36A
:10345000883920F0803E38F021968F770E94FD1742
:10346000E0E9F0E004C00E94FD17EDEBF0E00E94FF
:103470009E198B01BE01EC01FB2E6F5771097595EA
:10348000771F880B990B0E942F1628E132E741E342
:103490005FE30E94A116AF2D9801AE01FF900F913E
:1034A0001F91CF91DF910E9414180C941217FA010A
:1034B000DC01AA0FBB1F9B01AC01BF5728F42227D8
:1034C00033274427507820C0B75190F4AB2F002405
:1034D000469537952795011CA395D2F3002071F0EE
:1034E000220F331F441FB395DAF30ED00C94FC1750
:1034F00061307105A0E88A07B94630F49B01AC0140
:103500006627772788279078309621F020833183AB
:103510004283538308959F3F31F0915020F4879563
:1035200077956795B795880F911D9695879597F92B
:1035300008950F931F93CF93DF938230910510F47A
:1035400082E090E0E091DE01F091DF0120E030E0E8
:10355000A0E0B0E0309719F14081518102811381E0
:1035600048175907C8F08417950769F4109731F088
:1035700012960C93129713961C9327C00093DE01AA
:103580001093DF0122C02115310519F042175307AE
:1035900018F49A01BD01EF01DF01F801DBCF21151D
:1035A0003105F9F0281B390B2430310580F48A816C
:1035B0009B816115710521F0FB019383828304C017
:1035C0009093DF018093DE01FE01329644C0FE013C
:1035D000E20FF31F8193919322503109398328839D
:1035E0003AC02091DC013091DD01232B41F4209180
:1035F0000801309109013093DD012093DC01209115
:103600000601309107012115310541F42DB73EB770
:1036100040910A0150910B01241B350BE091DC0114
:10362000F091DD01E217F307A0F42E1B3F0B2817E2
:10363000390778F0AC014E5F5F4F2417350748F02B
:103640004E0F5F1F5093DD014093DC0181939193F6
:1036500002C0E0E0F0E0CF01DF91CF911F910F9128
:103660000895CF93DF93009709F481C0FC0132974E
:1036700013821282A091DE01B091DF01109781F4D4
:1036800020813181820F931F2091DC013091DD0177
:103690002817390751F5F093DD01E093DC0167C08D
:1036A000ED0120E030E0CE17DF0740F44A815B8176
:1036B0009E0141155105F1F0EA01F5CFD383C28394
:1036C00040815181840F951FC817D90759F488810B
:1036D0009981840F951F0296918380838A819B81B3
:1036E000938382832115310529F4F093DF01E09360
:1036F000DE013DC0E901FB83EA8349915991C40F82
:10370000D51FEC17FD0761F480819181840F951F0F
:103710000296E90199838883828193819B838A83BE
:10372000E0E0F0E012968D919C911397009719F0CC
:10373000FD01DC01F7CF8D919C9111979D012E5FCA
:103740003F4F820F931F2091DC013091DD0128173C
:10375000390769F4309729F41092DF011092DE01E5
:1037600002C013821282B093DD01A093DC01DF91CD
:10377000CF910895A0E0B0E0E0ECFBE10C945B1782
:10378000EC01009721F4CB010E94991AB4C0FC010E
:10379000E60FF71F9C0122503109E217F30708F4E6
:1037A000A8C0D9010D911C91119706171707B0F009
:1037B0000530110508F49BC0C801049786179707C8
:1037C00008F495C002501109061B170B01931193C1
:1037D0006D937C93CF010E94311B89C05B01A01ABD
:1037E000B10A4C01800E911EA091DE01B091DF0163
:1037F000612C712CE12CF12C109709F446C08D91AD
:103800009C911197A815B905B1F56C0142E0C40E61
:10381000D11CCA14DB0478F14C018A189B0864019E
:1038200042E0C40ED11C1296BC9012971396AC9134
:10383000B5E0CB16D10440F0B282A383918280829E
:10384000D9016D937C9309C00E5F1F4F800F911FAC
:10385000F90191838083EB2DFA2FE114F10431F00B
:10386000D7011396FC93EE93129741C0F093DF01BA
:10387000E093DE013CC06816790608F43C017D0146
:1038800012960D90BC91A02DB7CF8091DC01909144
:10389000DD0188169906E1F466167706C8F4809172
:1038A000060190910701009741F48DB79EB74091B2
:1038B0000A0150910B01841B950BE817F907C8F416
:1038C000F093DD01E093DC01F901718360830FC0A7
:1038D000CB010E94991A7C01009759F0A801BE0102
:1038E0000E94851CCE010E94311BC70104C0CE017D
:1038F00002C080E090E0CDB7DEB7EEE00C94771721
:1039000081E090E0F8940C94951CFB01DC0102C06E
:1039100001900D9241505040D8F70895FB01DC0111
:0E39200001900D920020E1F70895F894FFCF7A
:10392E000100000001FF0000E00120000200030082
:10393E000500060004001000110012000000000037
:10394E003C020F02000000000D044C0176014B01F9
:10395E00412E20422E204E6F726D616C0076312EFC
:10396E00302072657641005345545550002B003D72
:10397E00002B5B002A00735D002A312F0045585042
:10398E004F53555245002000464F435553006E612C
:0A399E006E00696E66006F76660029
:00000001FF
