:100000000C94A4000C94CC000C94CC000C94CC0068
:100010000C94CC000C94CC000C94CC000C946B028F
:100020000C94CC000C94CC000C94CC000C94CC0020
:100030000C94CC000C94CC000C94CC000C94CC0010
:100040000C9421020C94CC000C946F040C94490481
:100050000C94CC000C94CC000C94CC000C94CC00F0
:100060000C94CC000C94CC0008000000BE922449F3
:10007000123EABAAAA2ABECDCCCC4C3E00000080DA
:10008000BEABAAAAAA3E00000000BF000000803F4D
:100090000000000000084178D3BB4387D1133D190D
:1000A0000E3CC3BD4282AD2B3E68EC8276BED98F3A
:1000B000E1A93E4C80EFFFBE01C4FF7F3F0000007E
:1000C000000007634236B79BD8A71A39685618AEA6
:1000D000BAAB558C1D3CB7CC5763BD6DEDFD753E7D
:1000E000F6177231BF000000803F000000002300BF
:1000F0002600290000000000240027002A0000003C
:1001000000080002010000030407000000000000D6
:1001100000000102040810204080010204081020A1
:1001200001020408102000000000250028002B0018
:10013000040404040404040402020202020203038D
:10014000030303030200861111241FBECFEFD8E082
:10015000DEBFCDBF11E0A0E0B1E0E8EFFEE202C0FB
:1001600005900D92A838B107D9F722E0A8E8B1E0D0
:1001700001C01D92A937B207E1F710E0C4EAD0E050
:1001800004C02197FE010E946F12C33AD107C9F73C
:100190000E940B0A0C947A170C940000CF92DF9205
:1001A000EF92FF920F931F93CF93DF936C017A012D
:1001B0008B01C0E0D0E0CE15DF0581F0D8016D9154
:1001C0008D01D601ED91FC910190F081E02DC601E9
:1001D0000995892B11F02196EECF7E01C701DF91A1
:1001E000CF911F910F91FF90EF90DF90CF900895E6
:1001F000FC01538D448D252F30E0842F90E0821B2D
:10020000930B541710F0CF96089501970895FC01B1
:10021000918D828D981761F0828DDF01A80FB11D3D
:100220005D968C91928D9F5F9F73928F90E0089561
:100230008FEF9FEF0895FC01918D828D981731F01B
:10024000828DE80FF11D858D90E008958FEF9FEF6F
:100250000895FC01918D228D892F90E0805C9F4F45
:10026000821B91098F739927089584EB91E00E9476
:10027000290121E0892B09F420E0822F0895FC0157
:10028000848DDF01A80FB11DA35ABF4F2C91848D1F
:1002900090E001968F739927848FA689B7892C9354
:1002A000A089B1898C91837080648C93938D848DA7
:1002B000981306C00288F389E02D80818F7D8083AA
:1002C0000895EF92FF920F931F93CF93DF93EC016A
:1002D00081E0888F9B8D8C8D981305C0E889F98902
:1002E000808185FD26C0F62E0B8D10E00F5F1F4F1D
:1002F0000F731127E02E8C8DE8120CC00FB607FC8F
:10030000FACFE889F989808185FFF5CFCE010E9477
:100310003F01F1CF8B8DFE01E80FF11DE35AFF4F36
:10032000F0829FB7F8940B8FEA89FB898081806205
:100330000AC09FB7F894EE89FF896083E889F9893C
:1003400080818370806480839FBF81E090E0DF9133
:10035000CF911F910F91FF90EF900895CF93DF936E
:10036000EC01888D8823C9F0EA89FB89808185FDAD
:1003700005C0A889B9898C9186FD0FC00FB607FC0E
:10038000F5CF808185FFF2CFA889B9898C9185FF4F
:10039000EDCFCE010E943F01E7CFDF91CF910895CD
:1003A00080E090E0892B29F00E94350181110C94A6
:1003B00000000895089580E090E00895CF93DF93C2
:1003C000EC0160E08E810E945C0661E08E810E94FB
:1003D0005C0660E08E810E945C068BE891E00197EC
:1003E000F1F7DF91CF910895862F642F0C948B063F
:1003F0000E947517CF93DF93FC01218530E0F9014E
:10040000E250FF4F8491F901EE5EFE4FD491F90165
:10041000E05DFE4FC491CC2379F081110E94330638
:10042000EC2FF0E0EE0FFF1FE651FF4FA591B491C6
:10043000EC91ED2381E009F480E08170DF91CF91B0
:1004400008951F920F920FB60F9211242F933F938E
:100450008F939F93AF93BF938091A5019091A60135
:10046000A091A701B091A8013091A40123E0230F2E
:100470002D3720F40196A11DB11D05C026E8230FDC
:100480000296A11DB11D2093A4018093A501909314
:10049000A601A093A701B093A8018091A901909112
:1004A000AA01A091AB01B091AC010196A11DB11DB3
:1004B0008093A9019093AA01A093AB01B093AC01E2
:1004C000BF91AF919F918F913F912F910F900FBE50
:1004D0000F901F9018951F920F920FB60F92112434
:1004E0002F933F934F935F936F937F938F939F933C
:1004F000AF93BF93EF93FF938091B0019091B101BF
:10050000A091B201B091B301892B8A2B8B2B59F1A9
:100510009091AD01E091AE01F091AF01808189270A
:1005200080838091B0019091B101A091B201B0910E
:10053000B301181619061A061B060CF03DC080916F
:10054000B0019091B101A091B201B091B3010197B6
:10055000A109B1098093B0019093B101A093B201B8
:10056000B093B30129C080910C01E4E4F1E0E4917F
:100570009FEF90930C01E130B9F098F0E230C9F4AC
:10058000909170009D7F9093700091E09093B000E7
:100590009091B100987F94609093B1001092B30055
:1005A00008C010926E0005C090916F009D7F9093DF
:1005B0006F0060E00E945C06FF91EF91BF91AF91E8
:1005C0009F918F917F916F915F914F913F912F916B
:1005D0000F900FBE0F901F9018956115710579F05F
:1005E000FB0101900020E9F73197AF01461B570B43
:1005F000DC01ED91FC910280F381E02D099480E013
:1006000090E008958F929F92AF92BF92EF92FF92E7
:100610000F931F93CF93DF93CDB7DEB7A1970FB69C
:10062000F894DEBF0FBECDBF7C01FA01CB0119A249
:10063000223008F42AE08E010F5D1F4F822E912C8C
:10064000A12CB12CBF01A50194010E942312F90134
:10065000CA01015011096A3014F4605D01C0695C7F
:10066000D8016C93232B242B252B61F7B801C701EC
:100670000E94ED02A1960FB6F894DEBF0FBECDBF6B
:10068000DF91CF911F910F91FF90EF90BF90AF90AE
:100690009F908F9008950C94ED024F925F926F920D
:1006A0007F928F929F92AF92BF92CF92DF92EF9202
:1006B000FF920F931F93CF93DF9322E1289FE001D6
:1006C000299FD00D112400915102109152020C0F5C
:1006D0001D1FF801808580FF29C00E94FF092B01A2
:1006E0003C01C0900001D09001010D2C000CEE08DF
:1006F000FF088090880190908901A0908A01B090B5
:100700008B01A7019601C501B4010E941312F801E3
:100710000285138524853585401A510A620A730AB9
:10072000461657066806790608F051C0912C88EEE7
:10073000C82E83E0D82EE12CF12C90E5A92EB12C07
:1007400000915102109152020C0F1D1FF80180857B
:1007500080FF13C00E94FF09F801028513852485DC
:100760003585DC01CB01801B910BA20BB30BC816A6
:10077000D906EA06FB0608F475C0F4E1AF1AB10821
:1007800088EEC80E83E0D81EE11CF11CE8E8CE1606
:10079000E3E1DE06E104F10499F6809151029091C3
:1007A0005202C80FD91F888580FD61C082FF5FC0DB
:1007B000109288011092890110928A0110928B0187
:1007C00084E690E0909301018093000150C0FFEF18
:1007D0008F1A9F0AAF0ABF0A8092880190928901FE
:1007E000A0928A01B0928B01F7FE0EC06DE284EBFD
:1007F00091E00E94610144275527BA014C195D0917
:100800006E097F092AE003C02AE0B701A60184EB44
:1008100091E00E94020364E771E084EB91E00E94A2
:100820004B0300915102109152020C0F1D1F0E94A8
:10083000FF09F8010285138524853585AB01BC01CC
:10084000401B510B620B730B2AE084EB91E00E947A
:10085000020369E471E084EB91E00E944B03992468
:10086000939465CFB0920101A092000186CF892DAB
:10087000DF91CF911F910F91FF90EF90DF90CF907C
:10088000BF90AF909F908F907F906F905F904F90B0
:1008900008951F920F920FB60F9211242F933F933A
:1008A0004F935F936F937F938F939F93AF93BF9378
:1008B000EF93FF9384EB91E00E943F01FF91EF9152
:1008C000BF91AF919F918F917F916F915F914F9168
:1008D0003F912F910F900FBE0F901F9018951F9270
:1008E0000F920FB60F9211242F938F939F93EF9334
:1008F000FF93E091C401F091C5018081E091CA01AC
:10090000F091CB0182FD12C090818091CD018F5F6B
:100910008F732091CE01821751F0E091CD01F0E06C
:10092000EC54FE4F958F8093CD0101C08081FF91E3
:10093000EF919F918F912F910F900FBE0F901F906D
:100940001895CF92DF92EF92FF920F931F93CF9360
:10095000DF936C017C0187E0E80EF11CC0E0D0E081
:10096000062F10E0B8010C2E02C0759567950A9409
:10097000E2F76170F70181917F010E945C06219688
:10098000C430D10579F7C601DF91CF911F910F9146
:10099000FF90EF90DF90CF900C94DE01CF92DF922A
:1009A000EF92FF920F931F93CF93DF93EC01F62EFC
:1009B000642F8C810E945C068D818F3F19F060E06E
:1009C0000E945C068F850F2D10E084FF25C06E010C
:1009D00087E0C80ED11CE12CF12CB8010E2C02C00E
:1009E000759567950A94E2F76170F60181916F0140
:1009F0000E945C06FFEFEF1AFF0A88E0E816F10498
:100A000061F7CE01DF91CF911F910F91FF90EF9091
:100A1000DF90CF900C94DE01B80184E07595679566
:100A20008A95E1F7CE010E94A1046F2DCE01DF91DE
:100A3000CF911F910F91FF90EF90DF90CF900C948A
:100A4000A10441E00E94CE0481E090E0089540E0DE
:100A5000682F83E592E00C94CE0481E00E94270584
:100A60008BE39FE10197F1F708958F929F92AF92E8
:100A7000BF92CF92DF92EF92FF920F931F93CF938B
:100A8000DF936B017C01142F9B01AC010E946A155E
:100A9000882319F06CE771E027C046015701E894FC
:100AA000B7F82FEF3FEF4FE75FE7C501B4010E94B2
:100AB0006A1581110DC02FEF3FEF4FE75FE7C501CA
:100AC000B4010E94F11218161CF460E871E00CC029
:100AD0002FEF3FEF4FE75FE4C701B6010E945014CC
:100AE000181694F464E871E083E592E0DF91CF9109
:100AF0001F910F91FF90EF90DF90CF90BF90AF903C
:100B00009F908F900C94ED022FEF3FEF4FE75FEC3B
:100B1000C701B6010E94F11287FDE4CF20E030E06A
:100B2000A901C701B6010E94F11287FF0DC041E083
:100B30006DE283E592E00E94CE04F7FAF094F7F8B4
:100B4000F094C1E0D0E002C0C0E0D0E000E060E09E
:100B500070E080E09FE3011740F420E030E040E2E5
:100B600051E40E94F6120F5FF6CFA70196010E9492
:100B700085126B017C010E946F134B015C012AE01E
:100B8000AB01BC0183E592E00E940203C80FD91FAC
:100B90001123C9F1C501B4010E949E139B01AC0150
:100BA000C701B6010E9484126B017C0141E06EE234
:100BB00083E592E00E94CE04219620E030E040E2FE
:100BC00051E4C701B6010E94AD144B015C010E94C3
:100BD0006F136B01E12CF12C2AE0B701A60183E52C
:100BE00092E00E940203C80FD91FC701B6010E94FC
:100BF0009E139B01AC01C501B4010E9484126B01DC
:100C00007C011150D1F6CE01DF91CF911F910F9150
:100C1000FF90EF90DF90CF90BF90AF909F908F901C
:100C20000895843008F083E090916602891710F0EF
:100C30008FEF890FE82FF0E0ED5AFD4F848980682F
:100C40000C942705482F50E060E070E02AE083E52F
:100C500092E00C940203FC019085957081E0953040
:100C600009F080E00895833081F028F4813099F014
:100C70008230A1F008958730A9F08830B9F084302F
:100C8000D1F4809180008F7D03C0809180008F77A8
:100C900080938000089584B58F7702C084B58F7DDE
:100CA00084BD08958091B0008F7703C08091B0001B
:100CB0008F7D8093B00008951F93CF93DF93282FEB
:100CC00030E0F901E250FF4F8491F901EE5EFE4FF2
:100CD000D491F901E05DFE4FC491CC23C1F0162FF1
:100CE00081110E943306EC2FF0E0EE0FFF1FEA5D4A
:100CF000FE4FA591B4919FB7F894111104C08C9147
:100D0000D095D82302C0EC91DE2BDC939FBFDF91FE
:100D1000CF911F910895CF93DF9390E0FC01EE5E99
:100D2000FE4F2491FC01E05DFE4F8491882361F128
:100D300090E0880F991FFC01EC50FF4FC591D491B2
:100D4000FC01EA5DFE4FA591B491611109C09FB706
:100D5000F8948881209582238883EC912E230BC000
:100D6000623061F49FB7F8948881322F30958323E5
:100D70008883EC912E2B2C939FBF06C08FB7F894DD
:100D8000E8812E2B28838FBFDF91CF910895CF93D9
:100D9000DF93823028F09091620298609093620213
:100DA000809366021092670280E48093680280E17B
:100DB0008093690280E580936A0261E08091570226
:100DC0000E948B06809158028F3F19F061E00E94CB
:100DD0008B0661E0809159020E948B06C3E5D2E048
:100DE0009E01235532408091620284FD03C084E05D
:100DF00090E002C088E090E02196281739072CF493
:100E000061E08E810E948B06EBCF8BE39DE0019722
:100E1000F1F760E0809157020E945C0660E08091EB
:100E200059020E945C06809158028F3F19F060E0E1
:100E30000E945C068091620284FD20C063E083E52D
:100E400092E00E94A104CBE4D6E4CE010197F1F731
:100E500063E083E592E00E94A1042197F1F763E04B
:100E600083E592E00E94A10483E592E00197F1F707
:100E700062E083E592E00E94A10415C080620E94B6
:100E800027058BE496E40197F1F780916202806276
:100E90000E94270583E592E00197F1F780916202B5
:100EA00080620E9427058091620280620E9427056D
:100EB00084E0809363028CE00E9427050E942D0548
:100EC00082E08093640286E0DF91CF910C94270545
:100ED0004F925F926F927F928F929F92AF92BF924A
:100EE000CF92DF92EF92FF920F931F93CF93DF93F6
:100EF00000D000D01F92CDB7DEB78C012A013B0194
:100F000080910C01833121F08F3F09F03DC205C073
:100F1000E4E4F1E024912D8372C083E180930C011D
:100F2000E4E4F1E084918D838F3F09F42DC2813098
:100F300009F441C038F1823009F061C01092B0006C
:100F40001092B1008091B00082608093B0008091D7
:100F5000B10081608093B100E3E4F1E0E491F0E05E
:100F6000EE0FFF1FEA5DFE4F859194919093AF01C4
:100F70008093AE01E5E2F1E0E491E093AD0122E07F
:100F80002D83FDC114BC15BC84B5826084BD85B5BC
:100F9000816085BDE3E4F1E0E491F0E0EE0FFF1F36
:100FA000EA5DFE4F85919491E5E2F1E0E491E093F2
:100FB0006C021D82E4C11092800010928100809129
:100FC000810088608093810080918100816080939E
:100FD0008100E3E4F1E0E491F0E0EE0FFF1FEA5D51
:100FE000FE4F85919491E5E2F1E0E491E0936B028C
:100FF00061E083E10E948B0691E09D838AC08D8130
:1010000087FDC2C161E083E10E948B068D818D7FE7
:1010100009F07FC04801A12CB12C60E072E18AE7A1
:1010200090E0A50194010E94451229833A834B83E5
:101030005C8369017A0191E0C91AD108E108F108DD
:101040002FEFC216D104E104F10409F008F44EC0F8
:1010500060E472E48FE090E0A50194010E944512E3
:1010600069017A0181E0C81AD108E108F1089D817F
:10107000923009F52FEFC216D104E104F10409F012
:1010800008F444C160E970ED83E090E0A5019401AB
:101090000E94451269017A0181E0C81AD108E1086D
:1010A000F1089FEFC916D104E104F10411F008F032
:1010B000BAC083E027C02FEFC216D104E104F104C7
:1010C000B9F0B0F068E478EE81E090E0A501940119
:1010D0000E94451269017A0181E0C81AD108E1082D
:1010E000F1089D81992309F413C1DCC081E001C09E
:1010F00082E09D81911106C095B5987F892B85BDB1
:1011000044C085E09091B100987F892B8093B10015
:101110003CC04801A12CB12C60E072E18AE790E06C
:10112000A50194010E94451269017A0181E0C81A63
:10113000D108E108F108C114D10491E0E906F104F5
:1011400088F068E478EE81E090E0A50194010E94C7
:10115000451269017A0181E0C81AD108E108F10855
:1011600083E001C081E09D81913079F4909181000C
:10117000987F892B8093810041145104610471048C
:1011800049F42FEF3FEFA9012CC041145104610431
:10119000710471F0D801AA0FBB1FA30192010E9434
:1011A000641228EE33E040E050E00E94231203C0B6
:1011B0002FEF3FEFA9018D81813099F0823019F135
:1011C0008111E2C0C7BC2093710230937202409338
:1011D00073025093740280916E00826080936E005F
:1011E000D3C0D0928900C092880020936D023093C2
:1011F0006E0240936F025093700280916F00826084
:1012000080936F00C1C0C092B3002093B0013093AF
:10121000B1014093B2015093B3018091700082609C
:1012200080937000B1C068E478EE81E090E0A501A1
:1012300094010E94451269017A0191E0C91AD1080E
:10124000E108F1082FEFC216D104E104F10441F1E5
:1012500038F164E274EF80E090E0A50194010E940F
:10126000451269017A0181E0C81AD108E108F10844
:101270009FEFC916D104E104F10409F008F441CF4D
:1012800062E17AE780E090E0A50194010E944512B6
:1012900069017A0181E0C81AD108E108F10819C092
:1012A00084E030CF2FEFC216D104E104F10409F03D
:1012B00008F463C062E17AE780E090E0A501940160
:1012C0000E94451269017A0191E0C91AD108E1082A
:1012D000F1088FEFC816D104E104F104A9F0A0F0E1
:1012E00089819A81AB81BC812AE0B595A7959795B4
:1012F00087952A95D1F76C017D0121E0C21AD108AA
:10130000E108F10887E0FECE86E0FCCE82E0FACE6E
:101310008FEFC816D104E104F10469F160F162E1D4
:101320007AE780E090E0A50194010E9445126901EE
:101330007A0191E0C91AD108E108F1082FEFC2162D
:10134000D104E104F104A9F0A0F089819A81AB8174
:10135000BC813AE0B595A795979587953A95D1F7D1
:101360006C017D0121E0C21AD108E108F10885E095
:10137000C3CE84E0C1CE83E0BFCE84E0BACE61E0CC
:1013800083E10E948B0646CE0F900F900F900F9036
:101390000F90DF91CF911F910F91FF90EF90DF9011
:1013A000CF90BF90AF909F908F907F906F905F9005
:1013B0004F9008953FB7F8948091A9019091AA01A8
:1013C000A091AB01B091AC0126B5A89B05C02F3F01
:1013D00019F00196A11DB11D3FBFBA2FA92F982F5B
:1013E0008827820F911DA11DB11DBC01CD0142E0D6
:1013F000660F771F881F991F4A95D1F708952FB759
:10140000F8946091A5017091A6018091A701909137
:10141000A8012FBF0895CF93DF93CDB7DEB76497B0
:101420000FB6F894DEBF0FBECDBF789484B582604E
:1014300084BD84B5816084BD85B5826085BD85B578
:10144000816085BD80916E00816080936E001092F6
:101450008100809181008260809381008091810071
:101460008160809381008091800081608093800002
:101470008091B10084608093B1008091B000816060
:101480008093B00080917A00846080937A0080918C
:101490007A00826080937A0080917A0081608093E4
:1014A0007A0080917A00806880937A001092C1005F
:1014B00080E1E3E1F1E0DE01119601900D928A9561
:1014C000E1F761E08DE00E948B0661E083E10E941C
:1014D0008B0660E085E00E948B0660E086E00E945B
:1014E0008B0660E084E00E948B0660E082E00E9450
:1014F0008B0660E083E00E948B0660E08EE00E9435
:101500008B0660E08FE00E948B0660E080E10E9425
:101510008B06CE0101967C01C12CD12C38E2A32E82
:10152000B12CD7019C9011967C91B2E0EB0EF11C8E
:1015300000915102109152020C0D1D1DD801ED9128
:10154000FC910280F381E02D40E050E0692DC8015C
:101550000995F801918610860190F081E02D0190A7
:10156000F081E02DC8010995882339F0D80118963B
:101570008C911897836018968C930E94FF09F8014C
:101580006283738384839583E0915102F0915202C8
:10159000EC0DFD1DB782A682F2E1CF0ED11C20E931
:1015A000C216D10409F0BDCF82E00E94C7066BE4E9
:1015B00071E083E592E00E944B030E94DA094B013F
:1015C0005C012CEDC22E25E0D22EE12CF12C0E94E4
:1015D000DA09DC01CB0188199909AA09BB09883EFF
:1015E0009340A105B10598F381E0C81AD108E1083C
:1015F000F10898EE890E93E0991EA11CB11CC1144C
:10160000D104E104F10419F70E942D05E091C40111
:10161000F091C50182E08083E091C001F091C101A9
:101620001082E091C201F091C3018FEC808310928F
:10163000CC01E091C801F091C90186E08083E0917E
:10164000C601F091C701808180618083E091C6016D
:10165000F091C701808188608083E091C601F0919C
:10166000C701808180688083E091C601F091C70145
:1016700080818F7D808301E092E0392EC12CD12CB6
:10168000E0905102F0905202EC0CFD1CD70118962C
:101690008C9118978B7F18968C931897ED91FC91ED
:1016A0000190F081E02DC7010995182FF701808581
:1016B00086958170181781F00E94FF09D701129654
:1016C0006D937D938D939C93159718968C91B2E0B2
:1016D0008B27F70180874CC00E94FF09D701129623
:1016E0008D909D90AD90BC901597AB01BC014819B1
:1016F00059096A097B0916968D919C911797A0E06C
:10170000B0E0481759076A077B0790F1F701808519
:101710008170181769F10E94FF09D70112966D9325
:101720007D938D939C93159718968C91B1E08B27A0
:101730008460F70180870E94FF09D7011A968D9077
:101740009D90AD90BC901D97DC01CB018819990943
:10175000AA09BB09F70186879787A08BB18B0E94E6
:10176000FF09D7011A966D937D938D939C931D97D6
:1017700080915102909152028C0D9D1D0E942B066A
:1017800081110E942D05B2E1CB0ED11CE0E9CE16ED
:10179000D10409F075CFE0915102F0915202DF01BE
:1017A000AC58BF4F8C91EA57FF4F80FD09C0808134
:1017B00080FD03C01092A3010CC03092A30109C0A8
:1017C000808180FD03C00093A30103C0F3E0F09388
:1017D000A3011091A3018091A201811711F18091C1
:1017E000A1018230F1F00E942D0510929D0110920E
:1017F0009E0110929F011092A001109299011092E7
:101800009A0110929B0110929C01109295011092E6
:10181000960110929701109298011093A2011092D4
:10182000A1018091A101813009F407C320F0823029
:1018300009F41BC3CEC360E08DE00E945C06E0901B
:101840005102F0905202C701885B9F4F0E942B0605
:10185000882319F00093A10107C0F701EE59FF4F4B
:10186000808180FD3092A1018091A101882319F12E
:101870008091910190919201A0919301B091940176
:101880000A96A11DB11D80938D0190938E01A093A6
:101890008F01B09390010E94FF09DC01CB010A96F1
:1018A000A11DB11D80939D0190939E01A0939F0166
:1018B000B093A001ABC31091A201113009F48CC008
:1018C00038F0123009F4F6C0133009F46AC1DDC1F2
:1018D0008091080190910901A0910A01B0910B013A
:1018E0008093910190939201A0939301B0939401FE
:1018F000E12CF12CC7010E944D03882309F463C039
:10190000609108017091090180910A0190910B0189
:101910000E949E134B015C0122E0E216F1049CF44C
:10192000B7016E5F7F4F072E000C880B990B0E944A
:10193000A0139B01AC0160E070E080E291E40E94A2
:101940001A1590580FC0B7010F2C000C880B990B7B
:101950000E94A0139B01AC0160E070E080E291E482
:101960000E941A159B01AC01C501B4010E948512A9
:101970004B015C0120E030E0A9010E94F11287FDDB
:1019800013C020E034E244E759E4C501B4010E94E9
:10199000501487FD0CC080EF882E83E2982E84E7D8
:1019A000A82E89E4B82E03C0812C912C5401C501C6
:1019B000B4010E946F136093080170930901809332
:1019C0000A0190930B018FEFE81AF80A94E0E916E8
:1019D000F10409F08FCF59C160918C0170E080E073
:1019E00090E00E94A0136B017C016091070170E000
:1019F00080E090E00E94A0139B01AC01C701B601FA
:101A00000E94F6129B01AC0160E070E080E090E47F
:101A10000E941A156B017C01609108017091090107
:101A200080910A0190910B010E949E13A7019601DB
:101A30000E94AD140E946F13609391017093920104
:101A4000809393019093940180E090E00E944D0375
:101A5000882369F080910701282F30E0223031057A
:101A60001CF41093070103C081508093070182E0AA
:101A700090E00E944D03882329F0809107018F5F39
:101A80008093070181E090E00E944D03882329F0B4
:101A900080918C01815080938C0183E090E00E94C2
:101AA0004D03882309F4F1C080918C018F5F8093EE
:101AB0008C01EBC0A091060120910201309103013D
:101AC0004091040150910501B0E00E946412C09061
:101AD0000801D0900901E0900A01F0900B01DC01AF
:101AE000CB018C0D9D1DAE1DBF1D80939101909368
:101AF0009201A0939301B093940180E090E00E9442
:101B00004D03882369F080910601282F30E02230B0
:101B100031051CF40093070103C081508093060136
:101B200082E090E00E944D03882329F08091060115
:101B30008F5F8093060181E090E00E944D0388232F
:101B4000A1F08091020190910301A0910401B09154
:101B5000050184569109A109B1098093020190936E
:101B60000301A0930401B093050183E090E00E947B
:101B70004D03882309F489C08091020190910301EB
:101B8000A0910401B09105018C599F4FAF4FBF4FF9
:101B90008093020190930301A0930401B093050187
:101BA00074C06091060170E080E090E00E94A01394
:101BB0006B017C016091070170E080E090E00E9481
:101BC000A0139B01AC01C701B6010E94F6129B0154
:101BD000AC0160E070E080E090E40E941A156B01B7
:101BE0007C01609108017091090180910A01909136
:101BF0000B010E949E13A70196010E94AD140E9442
:101C00006F1360939101709392018093930190936D
:101C1000940180E090E00E944D03882369F0809158
:101C20000601282F30E0223031051CF40093070113
:101C300003C081508093060182E090E00E944D0332
:101C4000882329F0809106018F5F8093060181E04F
:101C500090E00E944D03882369F080910701282FAE
:101C600030E0223031051CF40093070103C081509D
:101C70008093070183E090E00E944D03882329F0C0
:101C8000809107018F5F8093070180E00E94110619
:101C900064E571E083E592E00E944B0381E00E94DD
:101CA00011068091A201813009F445C088F182308B
:101CB00009F484C0833009F08CC1609108017091EF
:101CC000090180910A0190910B010E949E1320E06E
:101CD00030E04AE754E40E94F61241E050E00E94EE
:101CE00035056EE571E083E592E00E944B0380913B
:101CF00006010E94220666E671E083E592E00E94FA
:101D00004B03809107010E94220664E671E090C0B7
:101D10006091910170919201809193019091940151
:101D20000E949E1320E030E04AE754E40E94F6123D
:101D300041E050E040C0609108017091090180913C
:101D40000A0190910B010E949E1320E030E04AE7C7
:101D500054E40E94F61241E050E00E9435056AE525
:101D600071E083E592E00E944B0380918C010E9418
:101D7000220668E671E083E592E00E944B038091C1
:101D800007010E9422066CE571E083E592E00E9463
:101D90004B03609191017091920180919301909118
:101DA00094010E949E1320E030E04AE754E40E9430
:101DB000F61242E050E00E9435050BC16091080127
:101DC0007091090180910A0190910B010E949E136C
:101DD00020E030E04AE754E40E94F61241E050E08F
:101DE0000E9435056EE571E083E592E00E944B03A9
:101DF000809106010E94220661E671E083E592E08F
:101E00000E944B03609102017091030180910401D3
:101E1000909105010E949E1320E030E04AE754E4CF
:101E20000E94F61241E050E00E94350563E671E041
:101E300083E592E00E944B03CCC0809151029091C7
:101E40005202885B9F4F0E942B068111C5C0809172
:101E50008D0190918E01A0918F01B09190010B970F
:101E6000A105B10508F4B8C0D4C0E0915102F091C9
:101E70005202EE59FF4F808180FD1BC01092A101DC
:101E800010929D0110929E0110929F011092A0014C
:101E9000109295011092960110929701109298015C
:101EA0001092990110929A0110929B0110929C013C
:101EB000ADC061E08DE00E945C06C0909501D090BD
:101EC0009601E0909701F090980180909D0190908C
:101ED0009E01A0909F01B090A0010E94FF092B01DC
:101EE0003C01A8EEB3E0A70196010E946412860EA1
:101EF000971EA81EB91E481459046A047B0468F092
:101F000044E650E060E070E08BED93E00E946807EB
:101F1000FFEFCF1ADF0AEF0AFF0AC0929501D092B5
:101F20009601E0929701F092980180E00E941106DC
:101F300066E771E083E592E00E944B030E94FF098F
:101F40004B015C01C0909D01D0909E01E0909F01EB
:101F5000F090A0012091990130919A0140919B014C
:101F600050919C01A4E6B0E00E946412DC01CB0118
:101F70008C0D9D1DAE1DBF1D88169906AA06BB06B9
:101F800040F181E00E9411060E94FF096C197D0951
:101F90008E099F090E949E1320E030E04AE754E436
:101FA0000E94F61241E050E00E94350580919901AF
:101FB00090919A01A0919B01B0919C010196A11D65
:101FC000B11D8093990190939A01A0939B01B093C6
:101FD0009C010E94D00152CB1092A1011092950158
:101FE00010929601109297011092980110928D0113
:101FF00010928E0110928F011092900110929D010B
:1020000010929E0110929F011092A0010E942D0536
:10201000E0CF61E08DE00E945C0680919D0190918F
:102020009E01A0919F01B091A001898B9A8BAB8BEF
:10203000BC8B8090910190909201A0909301B09000
:102040009401880E991EAA1EBB1E0E94FF09861AC3
:10205000970AA80AB90A80928D0190928E01A092E7
:102060008F01B09290011091A2011230A8F58090DA
:10207000950190909601A0909701B09098010E94D0
:10208000FF092B013C01A8EEB3E0A50194010E94D9
:102090006412C988DA88EB88FC88C60ED71EE81E51
:1020A000F91E4C145D046E047F0468F044E650E0B1
:1020B00060E070E08BED93E00E946807AFEF8A1A52
:1020C0009A0AAA0ABA0A8092950190929601A09261
:1020D0009701B092980189C0143008F086C0209012
:1020E0000701C0909501D0909601E0909701F09083
:1020F0009801609108017091090180910A01909105
:102100000B010E949E134B015C01609102017091D2
:1021100003018091040190910501123009F0D5C0AE
:102120000E949E132B013C01C701B6010E949E1321
:102130009B01AC01C301B2010E94AD14A501940141
:102140000E9485124B015C010E94FF090E949E13B0
:102150002B013C0169897A898B899C896A5F7109A5
:10216000810991090E949E13A50194010E94851284
:102170009B01AC01C301B2010E94501487FD08C04D
:1021800046E950E060E070E083E992E00E94680771
:102190000E94FF090E949E132B013C0169897A89E4
:1021A0008B899C890E949E13A50194010E9485122F
:1021B0009B01AC01C301B2010E94501487FD0DC008
:1021C00046E950E060E070E080E793E00E94680735
:1021D000BFEFCB1ADB0AEB0AFB0AC0929501D09243
:1021E0009601E0929701F092980180E00E9411061A
:1021F0006AE671E083E592E00E944B0381E00E9471
:1022000011068091A2018230E8F040919501509131
:10221000960160919701709198012AE083E592E020
:102220000E94020368E671E083E592E00E944B039E
:10223000809106010E94220663E771E083E592E047
:102240000E944B0360918D0170918E0180918F01EE
:10225000909190010E949E1320E030E04AE754E400
:102260000E94F61241E050E00E94350580908D01F9
:1022700090908E01A0908F01B0909001C501B401A3
:102280000E949E130E9455146B017C01C501B4018C
:102290006C597F4F8F4F9F4F0E949E130E94551481
:1022A0004B015C01C701B6010E9468137B01EFEF8F
:1022B000EE1AFE0AC501B4010E9468136F5F7F4FDA
:1022C000E616F70609F0A2CE84CEC701B6010E9439
:1022D0009E132B013C01622D70E080E090E00E9493
:1022E000A0139B01AC01C301B2010E94F6129B0135
:1022F000AC0160E070E080E090E40E941A159B0160
:10230000AC01C501B4010E94AD141CCF1092B701FD
:102310001092B60188EE93E0A0E0B0E08093B8019F
:102320009093B901A093BA01B093BB0187E291E009
:102330009093B5018093B40185EC90E09093C10136
:102340008093C00184EC90E09093C3018093C2011C
:1023500080EC90E09093C5018093C40181EC90E003
:102360009093C7018093C60182EC90E09093C901DD
:102370008093C80186EC90E09093CB018093CA01D2
:102380001092CD011092CE011092CF011092D00187
:10239000109256021092550281E491E090935402FB
:1023A0008093530287E0809357028FEF8093580207
:1023B00088E08093590289E080935A028AE08093F2
:1023C0005B028BE080935C028CE080935D02109254
:1023D0005E0210925F0210926002109261021092EF
:1023E000620281E00E94C70680E990E00E945416D4
:1023F000FC019C0120573F4F69E371E04AE050E047
:1024000071836083128213821482158257834683FC
:10241000108611867296E217F30791F79093520295
:10242000809351020895DB018F939F930E94641261
:10243000BF91AF91A29F800D911DA39F900DB29F60
:10244000900D11240895A1E21A2EAA1BBB1BFD01B9
:102450000DC0AA1FBB1FEE1FFF1FA217B307E40783
:10246000F50720F0A21BB30BE40BF50B661F771FDB
:10247000881F991F1A9469F76095709580959095BB
:102480009B01AC01BD01CF010895052E97FB1EF401
:1024900000940E945C1257FD07D00E94231207FC93
:1024A00003D04EF40C945C125095409530952195D4
:1024B0003F4F4F4F5F4F0895909580957095619570
:1024C0007F4F8F4F9F4F08950E947512A59F900DCB
:1024D000B49F900DA49F800D911D11240895EE0FBF
:1024E000FF1F0590F491E02D0994A29FB001B39FC6
:1024F000C001A39F700D811D1124911DB29F700D0D
:10250000811D1124911D08955058BB27AA270E94B0
:102510009C120C9416140E94081438F00E940F1498
:1025200020F039F49F3F19F426F40C9405140EF4AE
:10253000E095E7FB0C94FF13E92F0E94271458F352
:10254000BA17620773078407950720F079F4A6F598
:102550000C9449140EF4E0950B2EBA2FA02D0B010C
:10256000B90190010C01CA01A0011124FF27591BD8
:1025700099F0593F50F4503E68F11A16F040A22FDE
:10258000232F342F4427585FF3CF4695379527954F
:10259000A795F0405395C9F77EF41F16BA0B620B4E
:1025A000730B840BBAF09150A1F0FF0FBB1F661F95
:1025B000771F881FC2F70EC0BA0F621F731F841FD8
:1025C00048F4879577956795B795F7959E3F08F0FE
:1025D000B0CF9395880F08F09927EE0F97958795C0
:1025E00008950E94DB1308F481E008950E940A1305
:1025F0000C9416140E940F1458F00E94081440F016
:1026000029F45F3F29F00C94FF1351110C944A14E4
:102610000C9405140E94271468F39923B1F35523F1
:1026200091F3951B550BBB27AA27621773078407E5
:1026300038F09F5F5F4F220F331F441FAA1FA9F37B
:1026400035D00E2E3AF0E0E832D091505040E69569
:10265000001CCAF72BD0FE2F29D0660F771F881FCA
:10266000BB1F261737074807AB07B0E809F0BB0BBD
:10267000802DBF01FF2793585F4F3AF09E3F5105D1
:1026800078F00C94FF130C944A145F3FE4F3983EE7
:10269000D4F3869577956795B795F7959F5FC9F7BA
:1026A000880F911D9695879597F90895E1E0660F3B
:1026B000771F881FBB1F621773078407BA0720F0B4
:1026C000621B730B840BBA0BEE1F88F7E09508951D
:1026D0000E946F136894B1110C944A1408950E94DB
:1026E0002F1488F09F5798F0B92F9927B751B0F061
:1026F000E1F0660F771F881F991F1AF0BA95C9F786
:1027000014C0B13091F00E944914B1E008950C94C6
:102710004914672F782F8827B85F39F0B93FCCF379
:10272000869577956795B395D9F73EF49095809502
:10273000709561957F4F8F4F9F4F0895E89409C022
:1027400097FB3EF490958095709561957F4F8F4FE4
:102750009F4F9923A9F0F92F96E9BB279395F695FA
:10276000879577956795B795F111F8CFFAF4BB0F78
:1027700011F460FF1BC06F5F7F4F8F4F9F4F16C0DC
:10278000882311F096E911C0772321F09EE8872F66
:10279000762F05C0662371F096E8862F70E060E022
:1027A0002AF09A95660F771F881FDAF7880F96959B
:1027B000879597F90895990F0008550FAA0BE0E83F
:1027C000FEEF16161706E807F907C0F012161306F3
:1027D000E407F50798F0621B730B840B950B39F433
:1027E0000A2661F0232B242B252B21F408950A2699
:1027F00009F4A140A6958FEF811D811D089597F9D9
:102800009F6780E870E060E008959FEF80EC089596
:1028100000240A94161617061806090608950024BF
:102820000A9412161306140605060895092E039439
:10283000000C11F4882352F0BB0F40F4BF2B11F4AD
:1028400060FF04C06F5F7F4F8F4F9F4F089557FD0C
:102850009058440F551F59F05F3F71F04795880F0E
:1028600097FB991F61F09F3F79F0879508951216A5
:1028700013061406551FF2CF4695F1DF08C0161651
:1028800017061806991FF1CF869571056105089402
:102890000895E894BB2766277727CB0197F9089519
:1028A0000E94DB1308F48FEF08950E94651429ED50
:1028B0003BE54EED5EE30C94AD1416F00C94A915B7
:1028C0000C94051468940C94FF130E942F14A8F321
:1028D0009923C1F3AEF3DF93CF931F930F93FF922E
:1028E000C92FDD2788232AF02197660F771F881FBD
:1028F000DAF720E030E040E85FEB9FE3883920F032
:10290000803E38F021968F770E948512E8E6F0E04D
:1029100004C00E948512E5E9F0E00E94B7158B0122
:10292000BE01EC01FB2E6F5771097595771F880B5F
:10293000990B0E94A01328E132E741E35FE30E9474
:10294000C014AF2D9801AE01FF900F911F91CF9150
:10295000DF910E949C120C9416140E94C0140C94D7
:1029600016140E94081438F00E940F1420F09523CA
:1029700011F00C94FF130C94051411240C944A14B8
:102980000E94271470F3959FC1F3950F50E0551FD7
:10299000629FF001729FBB27F00DB11D639FAA27B4
:1029A000F00DB11DAA1F649F6627B00DA11D661F03
:1029B000829F2227B00DA11D621F739FB00DA11D24
:1029C000621F839FA00D611D221F749F3327A00DDE
:1029D000611D231F849F600D211D822F762F6A2F7A
:1029E00011249F5750409AF0F1F088234AF0EE0FDF
:1029F000FF1FBB1F661F771F881F91505040A9F70C
:102A00009E3F510580F00C94FF130C944A145F3FD5
:102A1000E4F3983ED4F3869577956795B795F79547
:102A2000E7959F5FC1F7FE2B880F911D96958795BF
:102A300097F90895FA01EE0FFF1F30962105310531
:102A4000A1F16115710561F48038BFE39B0749F17D
:102A500068949038810561F08038BFEF9B0741F0A2
:102A600099234AF5FF3FE1053105210519F1E89465
:102A70000894E795D901AA2329F4AB2FBE2FF85F5C
:102A8000D0F310C0FF5F70F4A695E0F7F73950F06F
:102A900019F0FF3A38F49F779F930DD00F9007FC01
:102AA0009058089546F00C94051460E070E080E8BA
:102AB0009FE308954FE79F775F934F933F932F9343
:102AC0000E9465142F913F914F915F910E94AD1428
:102AD0000C9477150E94DB13880B990B089529F449
:102AE00016F00C94FF130C9449140C9405140E94D6
:102AF0002F14A8F39638A0F707F80F92E8942BE369
:102B00003AEA48EB5FE70E94C3140F920F920F92CC
:102B10004DB75EB70F920E942016E2ECF0E00E94E3
:102B2000B7154F915F91EF91FF91E595EE1FFF1F54
:102B300049F0FE57E0684427EE0F441FFA95E1F78D
:102B40004195550B0E94EA150F9007FE0C94DE1577
:102B500008959F3F31F0915020F4879577956795C0
:102B6000B795880F911D9695879597F90895DF93EE
:102B7000CF931F930F93FF92EF92DF927B018C0113
:102B8000689406C0DA2EEF010E94C014FE01E8949A
:102B9000A5912591359145915591A6F3EF010E949C
:102BA0009C12FE019701A801DA9469F7DF90EF907B
:102BB000FF900F911F91CF91DF9108959B01AC0180
:102BC00060E070E080E89FE30C94F6120C94FF1331
:102BD0000C94A9150E942F14D8F39923C9F3940FCC
:102BE000511DA3F39150504094F059F0882332F0D6
:102BF000660F771F881F91505040C1F79E3F5105C7
:102C00002CF7880F911D9695879597F908955F3F4A
:102C1000ACF0983E9CF0BB27869577956795B79565
:102C200008F4B1609395C1F7BB0F58F711F460FF3A
:102C3000E8CF6F5F7F4F8F4F9F4FE3CF0C944A14C5
:102C4000FA01DC01AA0FBB1F9B01AC01BF5728F49E
:102C5000222733274427507820C0B75190F4AB2F58
:102C60000024469537952795011CA395D2F30020A3
:102C700071F0220F331F441FB395DAF30ED00C947A
:102C8000841261307105A0E88A07B94630F49B01CF
:102C9000AC016627772788279078309621F020832B
:102CA00031834283538308950F931F93CF93DF9310
:102CB0008230910510F482E090E0E0917702F0918B
:102CC000780220E030E0A0E0B0E0309719F14081D8
:102CD00051810281138148175907C8F0841795075D
:102CE00069F4109731F012960C93129713961C9377
:102CF00027C0009377021093780222C02115310576
:102D000019F04217530718F49A01BD01EF01DF01D2
:102D1000F801DBCF21153105F9F0281B390B2430E0
:102D2000310580F48A819B816115710521F0FB01D9
:102D30009383828304C09093780280937702FE018C
:102D4000329644C0FE01E20FF31F8193919322500B
:102D50003109398328833AC0209175023091760277
:102D6000232B41F420910F01309110013093760212
:102D70002093750220910D0130910E01211531052E
:102D800041F42DB73EB74091110150911201241B1F
:102D9000350BE0917502F0917602E217F307A0F48B
:102DA0002E1B3F0B2817390778F0AC014E5F5F4FA1
:102DB0002417350748F04E0F5F1F5093760240935B
:102DC00075028193919302C0E0E0F0E0CF01DF91C2
:102DD000CF911F910F910895CF93DF93009709F43E
:102DE00081C0FC01329713821282A0917702B091C8
:102DF0007802109781F420813181820F931F2091F6
:102E00007502309176022817390751F5F093760252
:102E1000E093750267C0ED0120E030E0CE17DF07D8
:102E200040F44A815B819E0141155105F1F0EA01B0
:102E3000F5CFD383C28340815181840F951FC8177A
:102E4000D90759F488819981840F951F029691833F
:102E500080838A819B81938382832115310529F4A4
:102E6000F0937802E09377023DC0E901FB83EA83A7
:102E700049915991C40FD51FEC17FD0761F480816A
:102E80009181840F951F0296E9019983888382813D
:102E900093819B838A83E0E0F0E012968D919C9170
:102EA0001397009719F0FD01DC01F7CF8D919C91EC
:102EB00011979D012E5F3F4F820F931F2091750246
:102EC000309176022817390769F4309729F4109267
:102ED00078021092770202C013821282B0937602B7
:102EE000A0937502DF91CF91089581E090E0F8946E
:082EF0000C947A17F894FFCF4F
:102EF800640088130000060310270000FF00007913
:102F0800022000020003000500060004000E000F66
:102F1800001000000000006101CE00F800AE012999
:102F28000107011B0100000000FA01F40100000084
:102F3800002105CE00DB01DA010A006D61696E2E01
:102F4800637070005345545550002B003D002B5BB7
:102F5800002A00735D002A312F004558504F535501
:102F6800524500202000464F435553006E616E00C5
:082F7800696E66006F766600C9
:00000001FF
