:100000000C94A4000C94CC000C94CC000C94CC0068
:100010000C94CC000C94CC000C94CC000C944903B0
:100020000C94CC000C94CC000C94CC000C94CC0020
:100030000C94CC000C94CC000C94CC000C94CC0010
:100040000C94FF020C94CC000C94F1030C94CB03A1
:100050000C94CC000C94CC000C94CC000C94CC00F0
:100060000C94CC000C94CC0008000000BE922449F3
:10007000123EABAAAA2ABECDCCCC4C3E00000080DA
:10008000BEABAAAAAA3E00000000BF000000803F4D
:100090000000000000084178D3BB4387D1133D190D
:1000A0000E3CC3BD4282AD2B3E68EC8276BED98F3A
:1000B000E1A93E4C80EFFFBE01C4FF7F3F0000007E
:1000C000000007634236B79BD8A71A39685618AEA6
:1000D000BAAB558C1D3CB7CC5763BD6DEDFD753E7D
:1000E000F6177231BF000000803F000000002300BF
:1000F0002600290000000000240027002A0000003C
:1001000000080002010000030407000000000000D6
:1001100000000102040810204080010204081020A1
:1001200001020408102000000000250028002B0018
:10013000040404040404040402020202020203038D
:100140000303030302009F1011241FBECFEFD8E06A
:10015000DEBFCDBF11E0A0E0B1E0EAE1FDE202C008
:1001600005900D92AA38B107D9F722E0AAE8B1E0CC
:1001700001C01D92A737B207E1F710E0C4EAD0E052
:1001800004C02197FE010E948011C33AD107C9F72C
:100190000E94D0090C948B160C940000CF92DF9231
:1001A000EF92FF920F931F93CF93DF936C017A012D
:1001B0008B01C0E0D0E0CE15DF0581F0D8016D9154
:1001C0008D01D601ED91FC910190F081E02DC601E9
:1001D0000995892B11F02196EECF7E01C701DF91A1
:1001E000CF911F910F91FF90EF90DF90CF900895E6
:1001F000FC01538D448D252F30E0842F90E0821B2D
:10020000930B541710F0CF96089501970895FC01B1
:10021000918D828D981761F0828DDF01A80FB11D3D
:100220005D968C91928D9F5F9F73928F90E0089561
:100230008FEF9FEF0895FC01918D828D981731F01B
:10024000828DE80FF11D858D90E008958FEF9FEF6F
:100250000895FC01918D228D892F90E0805C9F4F45
:10026000821B91098F739927089582EB91E00E9478
:10027000290121E0892B09F420E0822F0895FC0157
:10028000848DDF01A80FB11DA35ABF4F2C91848D1F
:1002900090E001968F739927848FA689B7892C9354
:1002A000A089B1898C91837080648C93938D848DA7
:1002B000981306C00288F389E02D80818F7D8083AA
:1002C0000895EF92FF920F931F93CF93DF93EC016A
:1002D00081E0888F9B8D8C8D981305C0E889F98902
:1002E000808185FD26C0F62E0B8D10E00F5F1F4F1D
:1002F0000F731127E02E8C8DE8120CC00FB607FC8F
:10030000FACFE889F989808185FFF5CFCE010E9477
:100310003F01F1CF8B8DFE01E80FF11DE35AFF4F36
:10032000F0829FB7F8940B8FEA89FB898081806205
:100330000AC09FB7F894EE89FF896083E889F9893C
:1003400080818370806480839FBF81E090E0DF9133
:10035000CF911F910F91FF90EF900895CF93DF936E
:10036000EC01888D8823C9F0EA89FB89808185FDAD
:1003700005C0A889B9898C9186FD0FC00FB607FC0E
:10038000F5CF808185FFF2CFA889B9898C9185FF4F
:10039000EDCFCE010E943F01E7CFDF91CF910895CD
:1003A00080E090E0892B29F00E94350181110C94A6
:1003B00000000895089580E090E008958F929F9244
:1003C000AF92BF92CF92DF92EF92FF920F931F9363
:1003D000CF93DF9322E1289FE001299FD00D1124C4
:1003E00000914F02109150020C0F1D1FF8018085E3
:1003F00080FF23C00E94C4094B015C01C0908A01A8
:10040000D0908B01E0908C01F0908D01A0910001C3
:10041000B0910101A70196010E947811F8010285AF
:10042000138524853585801A910AA20AB30A861697
:100430009706A806B90608F050C0912C88EEC82E81
:1004400083E0D82EE12CF12C90E5A92EB12C00915F
:100450004F02109150020C0F1D1FF801808580FF84
:1004600012C00E94C409F8010285138524853585D0
:10047000DC01CB01801B910BA20BB30BC816D90674
:10048000EA06FB06D0F1F4E1AF1AB10888EEC80E17
:1004900083E0D81EE11CF11CE8E8CE16E3E1DE069D
:1004A000E104F104A1F680914F0290915002C80F2F
:1004B000D91F888580FD26C082FF24C010928A0142
:1004C00010928B0110928C0110928D0184E690E0C5
:1004D000909301018093000115C0FFEFCF1ADF0A4E
:1004E000EF0AFF0AC0928A01D0928B01E0928C0140
:1004F000F0928D0199249394A1CFB0920101A09222
:100500000001C1CF892DDF91CF911F910F91FF90F5
:10051000EF90DF90CF90BF90AF909F908F90089515
:10052000CF93C82F82E090E00E94DE01882311F073
:10053000CF5F09C080E090E00E94DE01882319F0BF
:10054000C23008F0C1508C2FCF910895CF93C82F9F
:1005500083E090E00E94DE01882311F0CF5F09C0A4
:1005600081E090E00E94DE01882319F0C23008F09B
:10057000C1508C2FCF910895CF93DF93EC0160E0B1
:100580008E810E94210661E08E810E94210660E03A
:100590008E810E9421068BE891E00197F1F7DF91AF
:1005A000CF910895862F642F0C9450060E948616D2
:1005B000CF93DF93FC01218530E0F901E250FF4F3A
:1005C0008491F901EE5EFE4FD491F901E05DFE4F9A
:1005D000C491CC2379F081110E94F805EC2FF0E052
:1005E000EE0FFF1FE651FF4FA591B491EC91ED2363
:1005F00081E009F480E08170DF91CF9108951F922E
:100600000F920FB60F9211242F933F938F939F93C6
:10061000AF93BF938091A3019091A401A091A501F4
:10062000B091A6013091A20123E0230F2D3720F4D1
:100630000196A11DB11D05C026E8230F0296A11D3C
:10064000B11D2093A2018093A3019093A401A093D4
:10065000A501B093A6018091A7019091A801A09156
:10066000A901B091AA010196A11DB11D8093A70116
:100670009093A801A093A901B093AA01BF91AF9153
:100680009F918F913F912F910F900FBE0F901F90D0
:1006900018951F920F920FB60F9211242F933F932C
:1006A0004F935F936F937F938F939F93AF93BF937A
:1006B000EF93FF938091AE019091AF01A091B001B3
:1006C000B091B101892B8A2B8B2B59F19091AB0101
:1006D000E091AC01F091AD01808189278083809108
:1006E000AE019091AF01A091B001B091B101181687
:1006F00019061A061B060CF03DC08091AE019091C0
:10070000AF01A091B001B091B1010197A109B10968
:100710008093AE019093AF01A093B001B093B1016B
:1007200029C080910D01E4E4F1E0E4919FEF909302
:100730000D01E130B9F098F0E230C9F49091700009
:100740009D7F9093700091E09093B0009091B100E4
:10075000987F94609093B1001092B30008C01092FB
:100760006E0005C090916F009D7F90936F0060E0D8
:100770000E942106FF91EF91BF91AF919F918F91C0
:100780007F916F915F914F913F912F910F900FBE8D
:100790000F901F9018951F920F920FB60F92112471
:1007A0002F933F934F935F936F937F938F939F9379
:1007B000AF93BF93EF93FF9382EB91E00E943F01D1
:1007C000FF91EF91BF91AF919F918F917F916F9129
:1007D0005F914F913F912F910F900FBE0F901F90FF
:1007E00018951F920F920FB60F9211242F938F938B
:1007F0009F93EF93FF93E091C201F091C301808139
:10080000E091C801F091C90182FD12C090818091F0
:10081000CB018F5F8F732091CC01821751F0E09153
:10082000CB01F0E0EE54FE4F958F8093CB0101C0D9
:100830008081FF91EF919F918F912F910F900FBE2B
:100840000F901F901895CF92DF92EF92FF920F9327
:100850001F93CF93DF936C017C0187E0E80EF11CBE
:10086000C0E0D0E0062F10E0B8010C2E02C0759554
:1008700067950A94E2F76170F70181917F010E9408
:1008800021062196C430D10579F7C601DF91CF91B9
:100890001F910F91FF90EF90DF90CF900C94BC02CE
:1008A000CF92DF92EF92FF920F931F93CF93DF933C
:1008B000EC01F62E642F8C810E9421068D818F3FE2
:1008C00019F060E00E9421068F850F2D10E084FF53
:1008D00025C06E0187E0C80ED11CE12CF12CB801B7
:1008E0000E2C02C0759567950A94E2F76170F601C7
:1008F00081916F010E942106FFEFEF1AFF0A88E045
:10090000E816F10461F7CE01DF91CF911F910F91AD
:10091000FF90EF90DF90CF900C94BC02B80184E080
:10092000759567958A95E1F7CE010E9423046F2D96
:10093000CE01DF91CF911F910F91FF90EF90DF904B
:10094000CF900C94230441E00E94500481E090E099
:10095000089540E0682F81E592E00C9450040097E0
:1009600069F0FC0101900020E9F73197AF01481BC5
:10097000590BBC0181E592E00C94CE0080E090E040
:10098000089581E00E94A9048BE39FE10197F1F7AC
:1009900008950C94AF048F929F92AF92BF920F93E1
:1009A0001F93CF93DF93CDB7DEB7A1970FB6F8941F
:1009B000DEBF0FBECDBF19A2423008F44AE08E015F
:1009C0000F5D1F4F842E912CA12CB12CA5019401F9
:1009D0000E942C11E62FB901CA0101501109EA3019
:1009E00014F4E05D01C0E95CD801EC93232B242BC7
:1009F000252B61F7C8010E94AF04A1960FB6F894A9
:100A0000DEBF0FBECDBFDF91CF911F910F91BF9081
:100A1000AF909F908F9008958F929F92AF92BF92C8
:100A2000CF92DF92EF92FF920F931F93CF93DF93BA
:100A30006B017C01142F9B01AC010E947B14882365
:100A400019F08EE791E027C046015701E894B7F806
:100A50002FEF3FEF4FE75FE7C501B4010E947B1422
:100A600081110DC02FEF3FEF4FE75FE7C501B401E4
:100A70000E94021218161CF482E891E00CC02FEFBD
:100A80003FEF4FE75FE4C701B6010E9461131816FC
:100A900084F486E891E0DF91CF911F910F91FF9050
:100AA000EF90DF90CF90BF90AF909F908F900C947D
:100AB000AF042FEF3FEF4FE75FECC701B6010E9495
:100AC000021287FDE6CF20E030E0A901C701B601A0
:100AD0000E94021287FF0DC041E06DE281E592E0C5
:100AE0000E945004F7FAF094F7F8F094C1E0D0E0D7
:100AF00002C0C0E0D0E000E060E070E080E09FE392
:100B0000011740F420E030E040E251E40E94071277
:100B10000F5FF6CFA70196010E9496116B017C0131
:100B20000E9480124B015C014AE00E94CB04C80F76
:100B3000D91F1123B9F1C501B4010E94AF129B0165
:100B4000AC01C701B6010E9495116B017C0141E027
:100B50006EE281E592E00E945004219620E030E0B0
:100B600040E251E4C701B6010E94BE134B015C0193
:100B70000E9480126B01E12CF12C4AE0C701B60102
:100B80000E94CB04C80FD91FC701B6010E94AF1243
:100B90009B01AC01C501B4010E9495116B017C0160
:100BA0001150E1F6CE01DF91CF911F910F91FF908F
:100BB000EF90DF90CF90BF90AF909F908F9008956F
:100BC000843008F083E090916402891710F08FEF71
:100BD000890FE82FF0E0EF5AFD4F848980680C946C
:100BE000A904682F70E080E090E04AE00C94CB0408
:100BF000833081F028F4813099F08230A1F008959B
:100C00008730A9F08830B9F08430D1F48091800029
:100C10008F7D03C0809180008F778093800008953E
:100C200084B58F7702C084B58F7D84BD089580918F
:100C3000B0008F7703C08091B0008F7D8093B000AB
:100C400008951F93CF93DF93282F30E0F901E250EE
:100C5000FF4F8491F901EE5EFE4FD491F901E05D02
:100C6000FE4FC491CC23C1F0162F81110E94F805CC
:100C7000EC2FF0E0EE0FFF1FEA5DFE4FA591B4915F
:100C80009FB7F894111104C08C91D095D82302C05D
:100C9000EC91DE2BDC939FBFDF91CF911F910895E4
:100CA000CF93DF9390E0FC01EE5EFE4F2491FC01B8
:100CB000E05DFE4F8491882361F190E0880F991FD9
:100CC000FC01EC50FF4FC591D491FC01EA5DFE4F51
:100CD000A591B491611109C09FB7F89488812095BE
:100CE00082238883EC912E230BC0623061F49FB77E
:100CF000F8948881322F309583238883EC912E2BB2
:100D00002C939FBF06C08FB7F894E8812E2B2883C1
:100D10008FBFDF91CF910895CF93DF93823028F07A
:100D200090916002986090936002809364021092A8
:100D3000650280E48093660280E18093670280E52B
:100D40008093680261E0809155020E945006809174
:100D500056028F3F19F061E00E94500661E08091D9
:100D600057020E945006C1E5D2E09E012155324053
:100D70008091600284FD03C084E090E002C088E0BE
:100D800090E02196281739072CF461E08E810E94AB
:100D90005006EBCF8BE39DE00197F1F760E0809187
:100DA00055020E94210660E0809157020E942106B0
:100DB000809156028F3F19F060E00E9421068091D9
:100DC000600284FD20C063E081E592E00E9423047C
:100DD000CBE4D6E4CE010197F1F763E081E592E040
:100DE0000E9423042197F1F763E081E592E00E94DD
:100DF000230483E592E00197F1F762E081E592E058
:100E00000E94230415C080620E94A9048BE496E42A
:100E10000197F1F78091600280620E94A90483E546
:100E200092E00197F1F78091600280620E94A9042C
:100E30008091600280620E94A90484E08093610234
:100E40008CE00E94A9040E94C10482E080936202A7
:100E500086E0DF91CF910C94A9044F925F926F923C
:100E60007F928F929F92AF92BF92CF92DF92EF923A
:100E7000FF920F931F93CF93DF9300D000D01F9268
:100E8000CDB7DEB78C012A013B0180910D01833182
:100E900021F08F3F09F03DC205C0E4E4F1E0249168
:100EA0002D8372C083E180930D01E4E4F1E084912D
:100EB0008D838F3F09F42DC2813009F441C038F190
:100EC000823009F061C01092B0001092B1008091A0
:100ED000B00082608093B0008091B1008160809307
:100EE000B100E3E4F1E0E491F0E0EE0FFF1FEA5D12
:100EF000FE4F859194919093AD018093AC01E5E212
:100F0000F1E0E491E093AB0122E02D83FDC114BC3C
:100F100015BC84B5826084BD85B5816085BDE3E480
:100F2000F1E0E491F0E0EE0FFF1FEA5DFE4F8591E6
:100F30009491E5E2F1E0E491E0936A021D82E4C15C
:100F400010928000109281008091810088608093CF
:100F5000810080918100816080938100E3E4F1E071
:100F6000E491F0E0EE0FFF1FEA5DFE4F8591949152
:100F7000E5E2F1E0E491E093690261E083E10E943F
:100F8000500691E09D838AC08D8187FDC2C161E0DA
:100F900083E10E9450068D818D7F09F07FC048015A
:100FA000A12CB12C60E072E18AE790E0A5019401E8
:100FB0000E944E1129833A834B835C8369017A0135
:100FC00091E0C91AD108E108F1082FEFC216D10447
:100FD000E104F10409F008F44EC060E472E48FE02B
:100FE00090E0A50194010E944E1169017A0181E00F
:100FF000C81AD108E108F1089D81923009F52FEF58
:10100000C216D104E104F10409F008F444C160E916
:1010100070ED83E090E0A50194010E944E116901FA
:101020007A0181E0C81AD108E108F1089FEFC916DA
:10103000D104E104F10411F008F0BAC083E027C044
:101040002FEFC216D104E104F104B9F0B0F068E466
:1010500078EE81E090E0A50194010E944E116901B3
:101060007A0181E0C81AD108E108F1089D8199232D
:1010700009F413C1DCC081E001C082E09D819111BF
:1010800006C095B5987F892B85BD44C085E09091B9
:10109000B100987F892B8093B1003CC04801A12CFE
:1010A000B12C60E072E18AE790E0A50194010E9412
:1010B0004E1169017A0181E0C81AD108E108F108EE
:1010C000C114D10491E0E906F10488F068E478EEF7
:1010D00081E090E0A50194010E944E1169017A011E
:1010E00081E0C81AD108E108F10883E001C081E07D
:1010F0009D81913079F490918100987F892B809324
:101100008100411451046104710449F42FEF3FEF51
:10111000A9012CC0411451046104710471F0D8017B
:10112000AA0FBB1FA30192010E946D1128EE33E0AC
:1011300040E050E00E942C1103C02FEF3FEFA901C7
:101140008D81813099F0823019F18111E2C0C7BCE4
:1011500020936F0230937002409371025093720299
:1011600080916E00826080936E00D3C0D09289001F
:10117000C092880020936B0230936C0240936D0202
:1011800050936E0280916F00826080936F00C1C0A7
:10119000C092B3002093AE013093AF014093B001F1
:1011A0005093B10180917000826080937000B1C053
:1011B00068E478EE81E090E0A50194010E944E1170
:1011C00069017A0191E0C91AD108E108F1082FEF0D
:1011D000C216D104E104F10441F138F164E274EF84
:1011E00080E090E0A50194010E944E1169017A010E
:1011F00081E0C81AD108E108F1089FEFC916D104AF
:10120000E104F10409F008F441CF62E17AE780E0FB
:1012100090E0A50194010E944E1169017A0181E0DC
:10122000C81AD108E108F10819C084E030CF2FEFC7
:10123000C216D104E104F10409F008F463C062E1CC
:101240007AE780E090E0A50194010E944E116901C7
:101250007A0191E0C91AD108E108F1088FEFC816A8
:10126000D104E104F104A9F0A0F089819A81AB8155
:10127000BC812AE0B595A795979587952A95D1F7D2
:101280006C017D0121E0C21AD108E108F10887E074
:10129000FECE86E0FCCE82E0FACE8FEFC816D104F7
:1012A000E104F10469F160F162E17AE780E090E045
:1012B000A50194010E944E1169017A0191E0C91AB9
:1012C000D108E108F1082FEFC216D104E104F104BE
:1012D000A9F0A0F089819A81AB81BC813AE0B595F3
:1012E000A795979587953A95D1F76C017D0121E0F7
:1012F000C21AD108E108F10885E0C3CE84E0C1CE6E
:1013000083E0BFCE84E0BACE61E083E10E94500664
:1013100046CE0F900F900F900F900F90DF91CF91CE
:101320001F910F91FF90EF90DF90CF90BF90AF9003
:101330009F908F907F906F905F904F9008953FB7F0
:10134000F8948091A7019091A801A091A901B09172
:10135000AA0126B5A89B05C02F3F19F00196A11D33
:10136000B11D3FBFBA2FA92F982F8827820F911D3B
:10137000A11DB11DBC01CD0142E0660F771F881F82
:10138000991F4A95D1F708952FB7F8946091A3015A
:101390007091A4018091A5019091A6012FBF08959D
:1013A000CF93DF93CDB7DEB764970FB6F894DEBF67
:1013B0000FBECDBF789484B5826084BD84B5816052
:1013C00084BD85B5826085BD85B5816085BD809110
:1013D0006E00816080936E00109281008091810088
:1013E0008260809381008091810081608093810080
:1013F000809180008160809380008091B100846042
:101400008093B1008091B00081608093B0008091A2
:101410007A00846080937A0080917A008260809361
:101420007A0080917A00816080937A0080917A00BE
:10143000806880937A001092C10080E1E4E1F1E0DD
:10144000DE01119601900D928A95E1F761E08DE041
:101450000E94500661E083E10E94500660E085E052
:101460000E94500660E086E00E94500660E084E042
:101470000E94500660E082E00E94500660E083E037
:101480000E94500660E08EE00E94500660E08FE00F
:101490000E94500660E080E10E945006CE01019655
:1014A0007C01C12CD12C38E2A32EB12CD7019C9009
:1014B00011967C91B2E0EB0EF11C00914F0210915D
:1014C00050020C0D1D1DD801ED91FC910280F3819D
:1014D000E02D40E050E0692DC8010995F8019186A2
:1014E00010860190F081E02D0190F081E02DC8017F
:1014F0000995882339F0D80118968C911897836044
:1015000018968C930E94C409F801628373838483C4
:101510009583E0914F02F0915002EC0DFD1DB782D2
:10152000A682F2E1CF0ED11C20E9C216D10409F047
:10153000BDCF82E00E948C068AE491E00E94C9043B
:101540000E949F094B015C0120EDC22E27E0D22EA4
:10155000E12CF12C0E949F09DC01CB01881999092B
:10156000AA09BB09883E9340A105B10598F381E023
:10157000C81AD108E108F10898EE890E93E0991E87
:10158000A11CB11CC114D104E104F10419F70E949B
:10159000C104E091C201F091C30182E08083E09137
:1015A000BE01F091BF011082E091C001F091C10134
:1015B0008FEC80831092CA01E091C601F091C701BF
:1015C00086E08083E091C401F091C5018081806153
:1015D0008083E091C401F091C5018081886080839F
:1015E000E091C401F091C501808180688083E09121
:1015F000C401F091C50180818F7D808333243394B1
:1016000002E0C12CD12CE0904F02F0905002EC0C83
:10161000FD1CD70118968C9118978B7F18968C9388
:101620001897ED91FC910190F081E02DC70109958B
:10163000B82EF701808586958170B81681F00E94DA
:10164000C409D70112966D937D938D939C93159742
:1016500018968C911897802718968C9344C00E94F6
:10166000C409F7014280538064807580AB01BC01DE
:10167000441955096609770986819781A0E0B0E091
:10168000481759076A077B0770F180858170B81683
:1016900051F10E94C409D70112966D937D938D93E9
:1016A0009C93159718968C911897832584601896AB
:1016B0008C930E94C409F70182849384A484B58426
:1016C000DC01CB0188199909AA09BB09868797878C
:1016D000A08BB18B0E94C409D7011A966D937D939C
:1016E0008D939C931D97E0914F02F0915002EC0D69
:1016F000FD1D808585708530D9F1B2E1CB0ED11CFE
:10170000E0E9CE16D10409F07ECF40919E015091C0
:101710009F016091A0017091A10120914F02309131
:101720005002F901EE59FF4F90819170729720811C
:10173000257080919D01813051F018F08230A9F020
:101740001AC0253009F475C2911175C214C0253034
:1017500009F473C2415051096109710949305105B9
:101760006105710508F469C206C0911104C065C223
:101770000E94C104C2CF10920C0180939D01813060
:10178000E1F120F0823009F4D5C150C280910C0102
:101790008823D1F01092990110929A0110929B0126
:1017A00010929C0110929E0110929F011092A00134
:1017B0001092A1011092950110929601109297013A
:1017C000109298010E94C10460E08DE00E94210601
:1017D00020914F0230915002F901EA57FF4F90815A
:1017E0009170809194017297208120FD03C0911126
:1017F0002EC298C4911191C425C280910C018823F6
:1018000089F00E94C409DC01CB010A96A11DB11D1B
:101810008093950190939601A0939701B0939801BE
:101820000E94C10461E08DE00E942106C0909501F4
:10183000D0909601E0909701F090980180918E01F0
:1018400090918F01A0919001B0919101C80ED91E85
:10185000EA1EFB1E0E94C409C61AD70AE80AF90A42
:10186000C0929E01D0929F01E092A001F092A1014E
:1018700080E00E94E0058CE691E00E94C90481E0CE
:101880000E94E00560919E0170919F018091A001EE
:101890009091A1010E94AF1220E030E04AE754E4A9
:1018A0000E94071241E050E00E940C05C0909E018A
:1018B000D0909F01E090A001F090A101C701B60176
:1018C0000E94AF120E9466134B015C01C701B60172
:1018D0006C597F4F8F4F9F4F0E94AF120E9466132B
:1018E0002B013C01C501B4010E9479127B01EFEF8D
:1018F000EE1AFE0AC301B2010E9479126F5F7F4F98
:10190000E616F70611F00E94C1048091940182301E
:1019100020F0843008F08AC139C0C0909901D0907D
:101920009A01E0909B01F0909C018090950190902D
:101930009601A0909701B09098010E94C4092B01D4
:101940003C01A8EEB3E0A70196010E946D11860E3E
:10195000971EA81EB91E481459046A047B0468F037
:1019600044E650E060E070E08BED93E00E942D07CC
:10197000FFEFCF1ADF0AEF0AFF0AC0929901D09257
:101980009A01E0929B01F0929C0150C185E791E0A1
:101990000E94C9046091990170919A0180919B0104
:1019A00090919C014AE00E94CB048AE691E00E945B
:1019B000C90480910B010E94F1054090990150905B
:1019C0009A0160909B0170909C016091020170915E
:1019D000030180910401909105010E94AF126B01F7
:1019E0007C0160910701709108018091090190913B
:1019F0000A0120919401223099F40E94AF124B0108
:101A00005C01C301B2010E94AF129B01AC01C50190
:101A1000B4010E94BE13A70196010E94961125C031
:101A200010910601233009F078C0C301B2010E9471
:101A3000AF124B015C01612F70E080E090E00E94EA
:101A4000B1129B01AC01C501B4010E9407129B01B8
:101A5000AC0160E070E080E090E40E942B149B01F8
:101A6000AC01C701B6010E94BE136B017C018090DE
:101A7000950190909601A0909701B09098010E94D6
:101A8000C4090E94AF12698B7A8B8B8B9C8BC5012A
:101A9000B4016A5F7109810991090E94AF12A7011F
:101AA00096010E9496119B01AC0169897A898B8904
:101AB0009C890E94611387FD08C046E950E060E000
:101AC00070E083E992E00E942D070E94C4090E9401
:101AD000AF12698B7A8B8B8B9C8BC501B4010E94F2
:101AE000AF12A70196010E9496119B01AC01698972
:101AF0007A898B899C890E94611387FD12C044E614
:101B000050E060E070E080E793E00E942D072FEF47
:101B1000421A520A620A720A04C044244A94542C9B
:101B200032014092990150929A0160929B01709209
:101B30009C017CC080910C01882389F00E94C4091B
:101B4000DC01CB010A96A11DB11D809395019093F4
:101B50009601A0939701B09398010E94C10461E09F
:101B60008DE00E942106C0909901D0909A01E090EA
:101B70009B01F0909C018090950190909601A0901F
:101B80009701B09098010E94C4092B013C01A8EE76
:101B9000B3E0A70196010E946D11860E971EA81E44
:101BA000B91E481459046A047B0468F044E650E006
:101BB00060E070E08BED93E00E942D078FEFC81A74
:101BC000D80AE80AF80AC0929901D0929A01E092E4
:101BD0009B01F0929C0180E00E94E00588E791E083
:101BE0000E94C90481E00E94E0050E94C409C090DF
:101BF0009501D0909601E0909701F09098016C15B6
:101C00007D058E059F0590F00E94C4096C197D0921
:101C10008E099F090E94AF1220E030E04AE754E4A9
:101C20000E94071241E050E00E940C050E94D00182
:101C3000E8CC81E003C082E001C080E091E09093B5
:101C40000C019BCD813009F446C211E004C0823002
:101C500009F450C212E00E94C10410939401A091B3
:101C60000B01B0900601C0900201D0900301E090FA
:101C70000401F0900501123071F0133041F1113080
:101C800009F04FC06091920170919301072E000CF2
:101C9000880B990B20C020910701309108014091D9
:101CA000090150910A01B0E00E946D11C60ED71EC5
:101CB000E81EF91E36C0A0910B01B0900601C0903D
:101CC0000201D0900301E0900401F09005016A2F19
:101CD00070E080E090E00E94B1122B013C016B2D7E
:101CE00070E080E090E00E94B1129B01AC01C30162
:101CF000B2010E9407129B01AC0160E070E080E03D
:101D000090E40E942B144B015C01C701B6010E94B4
:101D1000AF12A50194010E94BE130E9480126B01B4
:101D20007C01C0928E01D0928F01E0929001F092DE
:101D3000910180E00E94E00586E591E00E94C904DF
:101D400081E00E94E00580919401813009F4DAC0BD
:101D5000C8F1823009F452C1833009F067CF809115
:101D600006010E94A6028093060180910B010E9449
:101D7000900280930B0160910201709103018091A8
:101D80000401909105010E94AF1220E030E04AE783
:101D900054E40E94071241E050E00E940C0580E6E6
:101DA00091E00E94C90480910B010E94F10588E630
:101DB00091E00E94C904809106010E94F10586E627
:101DC00091E080C1409002015090030160900401B5
:101DD0007090050162017301A12CB12CC5010E9414
:101DE000DE01882309F457C0B201C3010E94AF127B
:101DF0006B017C01F2E0AF16B1049CF4B5016E5F9B
:101E00007F4F072E000C880B990B0E94B1129B018B
:101E1000AC0160E070E080E291E40E942B149058E5
:101E20000FC0B5010B2C000C880B990B0E94B1124E
:101E30009B01AC0160E070E080E291E40E942B1411
:101E40009B01AC01C701B6010E9496116B017C0198
:101E500020E030E0A9010E94021287FD13C020EFAC
:101E600033E244E759E4C701B6010E946113181632
:101E700064F490EFC92E93E2D92E94E7E92E99E409
:101E8000F92E03C0C12CD12C7601C701B6010E94E6
:101E900080126B017C012FEFA21AB20A84E0A8160F
:101EA000B10409F09BCFB601C7010E94AF120E9496
:101EB00066134B015C01B201C3010E94AF120E9484
:101EC00066132B013C01C501B4010E9479125B012C
:101ED000C301B2010E947912A616B70614F40E943B
:101EE000C104C0920201D0920301E0920401F09279
:101EF000050160918E0170918F0180919001909108
:101F0000910188CE809106010E94A602809306016D
:101F1000E0909201F090930182E090E00E94DE0157
:101F2000882321F09FEFE91AF90A09C080E090E0C8
:101F30000E94DE01882319F0A1E0EA1AF108F0926C
:101F40009301E092920160910201709103018091EE
:101F50000401909105010E94AF1220E030E04AE7B1
:101F600054E40E94071241E050E00E940C05809169
:101F700092019091930197FD04C08CE591E00E943D
:101F8000C904C0909201D09093010D2C000CEE0872
:101F9000FF08F7FE0FC041E06DE281E592E00E948C
:101FA000500466277727CB016C197D098E099F099C
:101FB0004AE003C04AE0C701B6010E94CB048AE6AA
:101FC00091E00E94C904809106010E94F1058EE50E
:101FD00091E00E94C90460918E0170918F018091FF
:101FE0009001909191010E94AF1220E030E04AE709
:101FF00054E40E94071242E050E016CEC090070160
:10200000D0900801E0900901F0900A0183E090E08F
:102010000E94DE01882331F0B4E6CB0ED11CE11C16
:10202000F11C0CC081E090E00E94DE01882331F0B9
:10203000C114D104E104F10409F047C0C0920701C2
:10204000D0920801E0920901F0920A0180910B01FF
:102050000E94900280930B01609102017091030134
:1020600080910401909105010E94AF1220E030E0C0
:102070004AE754E40E94071241E050E00E940C0538
:1020800080E691E00E94C90480910B010E94F10555
:1020900083E691E00E94C9046091070170910801F4
:1020A0008091090190910A010E94AF1220E030E076
:1020B0004AE754E40E94071241E050E00E940C05F8
:1020C00085E691E00E94C904B1CDA4E6CA1AD10800
:1020D000E108F108B3CFB0900601609192017091D0
:1020E0009301C0900201D0900301E0900401F090B0
:1020F0000501CCCDA0910B01209107013091080181
:102100004091090150910A01C0900201D090030151
:10211000E0900401F0900501C6CD833009F4CBCDE9
:1021200013E099CD882311F010E095CDC090020105
:10213000D0900301E0900401F0900501F2CD1092DF
:10214000B5011092B40188EE93E0A0E0B0E0809376
:10215000B6019093B701A093B801B093B90188E29A
:1021600091E09093B3018093B20185EC90E090935D
:10217000BF018093BE0184EC90E09093C1018093F5
:10218000C00180EC90E09093C3018093C20181EC88
:1021900090E09093C5018093C40182EC90E090930D
:1021A000C7018093C60186EC90E09093C9018093AB
:1021B000C8011092CB011092CC011092CD01109267
:1021C000CE01109254021092530282E491E0909357
:1021D00052028093510287E0809355028FEF8093E3
:1021E000560288E08093570289E0809358028AE083
:1021F000809359028BE080935A028CE080935B02BB
:1022000010925C0210925D0210925E0210925F02C8
:102210001092600281E00E948C0680E990E00E94AA
:102220006515FC019C0120573F4F6AE371E04AE0CD
:1022300050E0718360831282138214821582578367
:102240004683108611867296E217F30791F79093F2
:10225000500280934F020895A1E21A2EAA1BBB1BC5
:10226000FD010DC0AA1FBB1FEE1FFF1FA217B30762
:10227000E407F50720F0A21BB30BE40BF50B661F78
:10228000771F881F991F1A9469F76095709580953C
:1022900090959B01AC01BD01CF010895052E97FBE0
:1022A0001EF400940E94651157FD07D00E942C1166
:1022B00007FC03D04EF40C94651150954095309571
:1022C00021953F4F4F4F5F4F0895909580957095A2
:1022D00061957F4F8F4F9F4F08950E948611A59F54
:1022E000900DB49F900DA49F800D911D1124089511
:1022F000B7FF0C946D110E946D11821B930B089512
:10230000EE0FFF1F0590F491E02D0994A29FB001FC
:10231000B39FC001A39F700D811D1124911DB29F19
:10232000700D811D1124911D08955058BB27AA27B7
:102330000E94AD110C9427130E94191338F00E94CB
:10234000201320F039F49F3F19F426F40C9416134F
:102350000EF4E095E7FB0C941013E92F0E9438135C
:1023600058F3BA17620773078407950720F079F4CA
:10237000A6F50C945A130EF4E0950B2EBA2FA02D4F
:102380000B01B90190010C01CA01A0011124FF2722
:10239000591B99F0593F50F4503E68F11A16F0401D
:1023A000A22F232F342F4427585FF3CF469537951C
:1023B0002795A795F0405395C9F77EF41F16BA0BE1
:1023C000620B730B840BBAF09150A1F0FF0FBB1F8F
:1023D000661F771F881FC2F70EC0BA0F621F731FD8
:1023E000841F48F4879577956795B795F7959E3F35
:1023F00008F0B0CF9395880F08F09927EE0F9795C6
:10240000879508950E94EC1208F481E008950E94D7
:102410001B120C9427130E94201358F00E941913CA
:1024200040F029F45F3F29F00C94101351110C94E3
:102430005B130C9416130E94381368F39923B1F3BD
:10244000552391F3951B550BBB27AA2762177307DA
:10245000840738F09F5F5F4F220F331F441FAA1F6E
:10246000A9F335D00E2E3AF0E0E832D0915050402A
:10247000E695001CCAF72BD0FE2F29D0660F771FD8
:10248000881FBB1F261737074807AB07B0E809F0BE
:10249000BB0B802DBF01FF2793585F4F3AF09E3F43
:1024A000510578F00C9410130C945B135F3FE4F328
:1024B000983ED4F3869577956795B795F7959F5F86
:1024C000C9F7880F911D9695879597F90895E1E0D2
:1024D000660F771F881FBB1F621773078407BA0731
:1024E00020F0621B730B840BBA0BEE1F88F7E0958C
:1024F00008950E9480126894B1110C945B130895A2
:102500000E94401388F09F5798F0B92F9927B75130
:10251000B0F0E1F0660F771F881F991F1AF0BA9587
:10252000C9F714C0B13091F00E945A13B1E0089578
:102530000C945A13672F782F8827B85F39F0B93F6A
:10254000CCF3869577956795B395D9F73EF490953A
:102550008095709561957F4F8F4F9F4F0895E894B8
:1025600009C097FB3EF490958095709561957F4FDB
:102570008F4F9F4F9923A9F0F92F96E9BB27939589
:10258000F695879577956795B795F111F8CFFAF499
:10259000BB0F11F460FF1BC06F5F7F4F8F4F9F4FCA
:1025A00016C0882311F096E911C0772321F09EE828
:1025B000872F762F05C0662371F096E8862F70E08E
:1025C00060E02AF09A95660F771F881FDAF7880F68
:1025D0009695879597F90895990F0008550FAA0BBE
:1025E000E0E8FEEF16161706E807F907C0F0121626
:1025F0001306E407F50798F0621B730B840B950B29
:1026000039F40A2661F0232B242B252B21F408957D
:102610000A2609F4A140A6958FEF811D811D08951A
:1026200097F99F6780E870E060E008959FEF80EC85
:10263000089500240A941616170618060906089528
:1026400000240A9412161306140605060895092E8E
:102650000394000C11F4882352F0BB0F40F4BF2BFD
:1026600011F460FF04C06F5F7F4F8F4F9F4F08953D
:1026700057FD9058440F551F59F05F3F71F0479533
:10268000880F97FB991F61F09F3F79F08795089518
:10269000121613061406551FF2CF4695F1DF08C037
:1026A000161617061806991FF1CF86957105610554
:1026B00008940895E894BB2766277727CB0197F9FC
:1026C00008950E94EC1208F48FEF08950E9476138B
:1026D00029ED3BE54EED5EE30C94BE1316F00C9431
:1026E000BA140C94161368940C9410130E9440139F
:1026F000A8F39923C1F3AEF3DF93CF931F930F9306
:10270000FF92C92FDD2788232AF02197660F771FB4
:10271000881FDAF720E030E040E85FEB9FE388397C
:1027200020F0803E38F021968F770E949611E8E6DF
:10273000F0E004C00E949611E5E9F0E00E94C814A0
:102740008B01BE01EC01FB2E6F5771097595771F48
:10275000880B990B0E94B11228E132E741E35FE355
:102760000E94D113AF2D9801AE01FF900F911F91E0
:10277000CF91DF910E94AD110C9427130E94D113C9
:102780000C9427130E94191338F00E94201320F094
:10279000952311F00C9410130C94161311240C941F
:1027A0005B130E94381370F3959FC1F3950F50E0AF
:1027B000551F629FF001729FBB27F00DB11D639FF3
:1027C000AA27F00DB11DAA1F649F6627B00DA11D99
:1027D000661F829F2227B00DA11D621F739FB00D3F
:1027E000A11D621F839FA00D611D221F749F3327AF
:1027F000A00D611D231F849F600D211D822F762F48
:102800006A2F11249F5750409AF0F1F088234AF024
:10281000EE0FFF1FBB1F661F771F881F9150504090
:10282000A9F79E3F510580F00C9410130C945B1394
:102830005F3FE4F3983ED4F3869577956795B79517
:10284000F795E7959F5FC1F7FE2B880F911D969531
:10285000879597F90895FA01EE0FFF1F309621052D
:102860003105A1F16115710561F48038BFE39B0763
:1028700049F168949038810561F08038BFEF9B077B
:1028800041F099234AF5FF3FE1053105210519F192
:10289000E8940894E795D901AA2329F4AB2FBE2F19
:1028A000F85FD0F310C0FF5F70F4A695E0F7F7393A
:1028B00050F019F0FF3A38F49F779F930DD00F90A6
:1028C00007FC9058089546F00C94161360E070E0F1
:1028D00080E89FE308954FE79F775F934F933F937F
:1028E0002F930E9476132F913F914F915F910E94F9
:1028F000BE130C9488140E94EC12880B990B089557
:1029000029F416F00C9410130C945A130C9416130B
:102910000E944013A8F39638A0F707F80F92E894A6
:102920002BE33AEA48EB5FE70E94D4130F920F9231
:102930000F924DB75EB70F920E943115E2ECF0E0B6
:102940000E94C8144F915F91EF91FF91E595EE1FA2
:10295000FF1F49F0FE57E0684427EE0F441FFA9529
:10296000E1F74195550B0E94FB140F9007FE0C9464
:10297000EF1408959F3F31F0915020F4879577959B
:102980006795B795880F911D9695879597F9089546
:10299000DF93CF931F930F93FF92EF92DF927B0110
:1029A0008C01689406C0DA2EEF010E94D113FE015B
:1029B000E894A5912591359145915591A6F3EF01A4
:1029C0000E94AD11FE019701A801DA9469F7DF902A
:1029D000EF90FF900F911F91CF91DF9108959B0190
:1029E000AC0160E070E080E89FE30C9407120C9467
:1029F00010130C94BA140E944013D8F39923C9F30E
:102A0000940F511DA3F39150504094F059F0882336
:102A100032F0660F771F881F91505040C1F79E3FDC
:102A200051052CF7880F911D9695879597F9089574
:102A30005F3FACF0983E9CF0BB27869577956795F5
:102A4000B79508F4B1609395C1F7BB0F58F711F42F
:102A500060FFE8CF6F5F7F4F8F4F9F4FE3CF0C94A6
:102A60005B13FA01DC01AA0FBB1F9B01AC01BF572E
:102A700028F4222733274427507820C0B75190F4F8
:102A8000AB2F0024469537952795011CA395D2F3CB
:102A9000002071F0220F331F441FB395DAF30ED0DC
:102AA0000C94951161307105A0E88A07B94630F49D
:102AB0009B01AC016627772788279078309621F014
:102AC000208331834283538308950F931F93CF93C1
:102AD000DF938230910510F482E090E0E09175027E
:102AE000F091760220E030E0A0E0B0E0309719F1FC
:102AF000408151810281138148175907C8F084171A
:102B0000950769F4109731F012960C93129713966B
:102B10001C9327C0009375021093760222C02115E2
:102B2000310519F04217530718F49A01BD01EF015E
:102B3000DF01F801DBCF21153105F9F0281B390B36
:102B40002430310580F48A819B816115710521F063
:102B5000FB019383828304C0909376028093750275
:102B6000FE01329644C0FE01E20FF31F8193919360
:102B700022503109398328833AC020917302309161
:102B80007402232B41F420911001309111013093F4
:102B900074022093730220910E0130910F012115D0
:102BA000310541F42DB73EB7409112015091130108
:102BB000241B350BE0917302F0917402E217F307C6
:102BC000A0F42E1B3F0B2817390778F0AC014E5F9D
:102BD0005F4F2417350748F04E0F5F1F5093740264
:102BE000409373028193919302C0E0E0F0E0CF0143
:102BF000DF91CF911F910F910895CF93DF930097AD
:102C000009F481C0FC01329713821282A0917502EF
:102C1000B0917602109781F420813181820F931F49
:102C200020917302309174022817390751F5F093FF
:102C30007402E093730267C0ED0120E030E0CE172C
:102C4000DF0740F44A815B819E0141155105F1F097
:102C5000EA01F5CFD383C28340815181840F951F50
:102C6000C817D90759F488819981840F951F029656
:102C7000918380838A819B8193838283211531058F
:102C800029F4F0937602E09375023DC0E901FB83DD
:102C9000EA8349915991C40FD51FEC17FD0761F4E0
:102CA00080819181840F951F0296E9019983888321
:102CB000828193819B838A83E0E0F0E012968D917C
:102CC0009C911397009719F0FD01DC01F7CF8D91CE
:102CD0009C9111979D012E5F3F4F820F931F209172
:102CE0007302309174022817390769F4309729F478
:102CF000109276021092750202C013821282B09373
:102D00007402A0937302DF91CF91089581E090E067
:0A2D1000F8940C948B16F894FFCF92
:102D1A0064001027000003881300000601FF00006A
:102D2A0077022000020003000500060004000E00DE
:102D3A000F001000000000006101CE00F800AE0193
:102D4A00290107011B0100000000D802D20200007D
:102D5A000000A304CE00DB01DA01726574656765C1
:102D6A002076302E31005345545550002B003D003B
:102D7A002B5B002A00735D002A312F004558504F03
:102D8A005355524500202000464F435553006E616B
:0A2D9A006E00696E66006F76660039
:00000001FF
