:100000000C9421010C9449010C9449010C94490170
:100010000C9449010C9449010C9449010C945C091D
:100020000C9449010C9449010C9449010C94490128
:100030000C9449010C9449010C9449010C94490118
:100040000C94E70A0C9449010C9449010C94490161
:100050000C9449010C9449010C9449010C944901F8
:100060000C9449010C94490107634236B79BD8A709
:100070001A39685618AEBAAB558C1D3CB7CC5763CD
:10008000BD6DEDFD753EF6177231BF000000803F7B
:1000900008000000BE922449123EABAAAA2ABECD97
:1000A000CCCC4C3E00000080BEABAAAAAA3E000009
:1000B0000000BF000000803F000000000008417801
:1000C000D3BB4387D1133D190E3CC3BD4282AD2B38
:1000D0003E68EC8276BED98FE1A93E4C80EFFFBE30
:1000E00001C4FF7F3F000000000000407A10F35A77
:1000F00000A0724E18090010A5D4E80000E8764868
:10010000170000E40B54020000CA9A3B000000E113
:10011000F505000080969800000040420F000000A6
:10012000A08601000000102700000000E803000086
:1001300000006400000000000A0000000000010050
:10014000000000002C76D888DC674F0823DFC1DF71
:10015000AE59E1B1B796E5E3E453C63AE651997674
:1001600096E8E6C28426EB898C9B62ED407C6FFCAE
:10017000EFBC9C9F40F2BAA56FA5F490055A2AF7F0
:100180005C936B6CF9676DC11BFCE0E40D47FEF5F9
:1001900020E6B500D0ED902E030094357705008061
:1001A000841E080000204E0A000000C80C333333C0
:1001B000330F986E12831141EF8D2114893BE65560
:1001C00016CFFEE6DB18D1844B381BF77C1D901D43
:1001D000A4BBE424203284725E228100C9F124ECA5
:1001E000A1E53D2700000000240027002A000000B0
:1001F00000080002010000030407000000000000E6
:1002000000000102040810204080010204081020B0
:1002100001020408102000000000250028002B0027
:10022000040404040404040402020202020203039C
:10023000030303030200000000230026002900003E
:10024000101311241FBECFEFD8E0DEBFCDBF21E0D9
:10025000ACE7B1E001C01D92A23EB207E1F711E0A8
:10026000A0E0B1E0E2E5F9E302C005900D92AC3701
:10027000B107D9F711E0C1E2D1E004C02197FE0136
:100280000E940818C032D107C9F70E94310B0C94A4
:10029000A71C0C94000040E0682F8DEA91E00C94BC
:1002A0000B0A81E00E944B018BE39FE10197F1F77C
:1002B0000895009769F0FC0101900020E9F731975B
:1002C000AF01481B590BBC018DEA91E00C94180852
:1002D00080E090E00895843008F083E09091C001C0
:1002E000891710F08FEF890FE82FF0E0E355FE4FEC
:1002F000848980680C944B012F923F924F925F92B9
:100300006F927F928F929F92AF92BF92CF92DF9225
:10031000EF92FF920F931F93CF93DF93CDB7DEB78A
:10032000A3970FB6F894DEBF0FBECDBF4B015C01A3
:100330009B01AC010E947119882319F080E791E0BC
:100340001AC075016401E894F7F82FEF3FEF4FE70B
:100350005FE7C701B6010E94711981110FC02FEF2D
:100360003FEF4FE75FE7C701B6010E943A16181644
:100370002CF484E791E00E9459019AC02FEF3FEFDF
:100380004FE75FE4C501B4010E941C1918161CF464
:1003900088E791E0F0CF2FEF3FEF4FE75FECC5012B
:1003A000B4010E943A1687FDF3CF20E030E0A901A6
:1003B000C501B4010E943A1687FF0EC041E06DE20C
:1003C0008DEA91E00E940B0AB7FAB094B7F8B094A6
:1003D000EE24E394F12C02C0E12CF12C2DEC3CEC4A
:1003E0004CE45DE3C501B4010E940F184B015C01B0
:1003F0000E94ED183B016C0119A29B01AC018E011A
:100400000F5D1F4F0AA31BA39AE0292E312C412C0C
:10041000512CCA01B901A20191010E94BF17605D70
:10042000F80162938F01211531054105510589F7C6
:10043000CF010E9459018C01FFEFEF1AFF0A41E042
:100440006EE28DEA91E00E940B0AE00EF11EB3010C
:10045000C6010E943F169B01AC01C501B4010E9478
:100460000E1820E030E040E251E40E94A0160E9405
:10047000ED189B0140E050E019A20AA11BA18AE0FF
:10048000882E912CA12CB12CCA01B901A50194018F
:100490000E94BF17605DF80162938F01211531053D
:1004A0004105510589F7CF010E9459018E0D9F1D0D
:1004B000A3960FB6F894DEBF0FBECDBFDF91CF91EC
:1004C0001F910F91FF90EF90DF90CF90BF90AF9072
:1004D0009F908F907F906F905F904F903F902F9064
:1004E0000895CF93DF93EC01FB0144815581608136
:1004F00071810E94AF08811103C0CE010E94DD0806
:10050000CE01DF91CF910895FC01118210821382F8
:100510001282158214820C9440090F931F93CF937B
:10052000DF93CDB7DEB7A1970FB6F894DEBF0FBE4D
:10053000CDBF8C01CB01BA01F80111821082138268
:100540001282158214822AE0AE014F5F5F4F0E9433
:10055000BC13BE016F5F7F4FC8010E942909A1969D
:100560000FB6F894DEBF0FBECDBFDF91CF911F91C4
:100570000F910895EF92FF920F931F93CF93DF9304
:10058000CDB7DEB7A1970FB6F894DEBF0FBECDBFD3
:100590007C01CB01BA01F701118210821382128211
:1005A000158214828E010F5F1F4F21E043E00E94ED
:1005B0009113BC01C7010E942909A1960FB6F894B6
:1005C000DEBF0FBECDBFDF91CF911F910F91FF9086
:1005D000EF900895CF92DF92EF92FF928130E1F099
:1005E0005CF4811170C060919401709195018091CB
:1005F0009601909197016AC08230C9F0833009F06A
:1006000062C060919E0170919F018091A0019091C4
:10061000A1010E943F162AC060919C0170919D012A
:10062000072E000C880B990B0E9441161FC02091C9
:100630009E0130919F014091A0015091A1016091D4
:10064000A2017091A3018091A4019091A5010E9443
:10065000AF17C0909401D0909501E0909601F09072
:1006600097016C0D7D1D8E1D9F1D30C06B017C019F
:10067000609198017091990180919A0190919B01EC
:100680000E943F169B01AC01C701B6010E947B1876
:100690009B01AC0160E070E080E090E40E942119D1
:1006A0006B017C016091940170919501809196019C
:1006B000909197010E943F16A70196010E94A016F3
:1006C0000E94ED1803C060E070E0CB01FF90EF9056
:1006D000DF90CF9008958823D1F080919E01909172
:1006E0009F01A091A001B091A101B7FD04C00196A6
:1006F000A11DB11D04C081E090E0A0E0B0E08093B6
:100700009E0190939F01A093A001B093A101662345
:10071000E9F080919E0190919F01A091A001B0917C
:10072000A10182309105A105B10524F00197A1092D
:10073000B10904C081E090E0A0E0B0E080939E01A8
:1007400090939F01A093A001B093A10180919E017D
:1007500090919F01A091A001B091A1014897A1059E
:10076000B10560F088E190E0A0E0B0E080939E01E8
:1007700090939F01A093A001B093A10108958823B5
:10078000D1F08091980190919901A0919A01B09136
:100790009B01B7FD04C00196A11DB11D04C081E0FD
:1007A00090E0A0E0B0E08093980190939901A0932D
:1007B0009A01B0939B016623E9F080919801909192
:1007C0009901A0919A01B0919B0182309105A105F8
:1007D000B10524F00197A109B10904C081E090E0BE
:1007E000A0E0B0E08093980190939901A0939A01C2
:1007F000B0939B018091980190919901A0919A01E9
:10080000B0919B014897A105B10560F088E190E0A7
:10081000A0E0B0E08093980190939901A0939A0191
:10082000B0939B0108950F931F93CF93DF93CDB7A0
:10083000DEB762970FB6F894DEBF0FBECDBF8C0156
:10084000CB01F80111821082138212821582148268
:100850004AE0BE016F5F7F4F0E94B113BE016F5F20
:100860007F4FC8010E94290962960FB6F894DEBF37
:100870000FBECDBFDF91CF911F910F9108958330AF
:1008800081F028F4813099F08230A1F0089587300A
:10089000A9F08830B9F08430D1F4809180008F7D48
:1008A00003C0809180008F7780938000089584B585
:1008B0008F7702C084B58F7D84BD08958091B0008C
:1008C0008F7703C08091B0008F7D8093B000089532
:1008D0001F93CF93DF93282F30E0F901E251FE4FB1
:1008E0008491F901EE5FFD4FD491F901E05EFD4F77
:1008F000C491CC23C1F0162F81110E943F04EC2F2C
:10090000F0E0EE0FFF1FEA5EFD4FA591B4919FB797
:10091000F894111104C08C91D095D82302C0EC91A9
:10092000DE2BDC939FBFDF91CF911F910895CF9372
:10093000DF9390E0FC01EE5FFD4F2491FC01E05E4F
:10094000FD4F8491882361F190E0880F991FFC018D
:10095000EC51FE4FC591D491FC01EA5EFD4FA5918B
:10096000B491611109C09FB7F894888120958223C2
:100970008883EC912E230BC0623061F49FB7F8940A
:100980008881322F309583238883EC912E2B2C93F2
:100990009FBF06C08FB7F894E8812E2B28838FBFA6
:1009A000DF91CF910895CF93DF93823028F090911B
:1009B000BC0198609093BC018093C0011092C1016A
:1009C00080E48093C20180E18093C30180E580933D
:1009D000C40161E08091B1010E9497048091B2014D
:1009E0008F3F19F061E00E94970461E08091B301AC
:1009F0000E949704CDEAD1E09E012D5A31408091AA
:100A0000BC0184FD03C084E090E002C088E090E077
:100A10002196281739072CF461E08E810E949704F3
:100A2000EBCF8BE39DE00197F1F760E08091B1019E
:100A30000E94680460E08091B3010E946804809184
:100A4000B2018F3F19F060E00E9468048091BC0100
:100A500084FD20C063E08DEA91E00E94DE09CBE4D2
:100A6000D6E4CE010197F1F763E08DEA91E00E94B0
:100A7000DE092197F1F763E08DEA91E00E94DE093B
:100A800083E592E00197F1F762E08DEA91E00E9440
:100A9000DE0915C080620E944B018BE496E4019749
:100AA000F1F78091BC0180620E944B0183E592E0E6
:100AB0000197F1F78091BC0180620E944B01809107
:100AC000BC0180620E944B0184E08093BD018CE0F8
:100AD0000E944B010E94510182E08093BE0186E09A
:100AE000DF91CF910C944B014F925F926F927F9266
:100AF0008F929F92AF92BF92CF92DF92EF92FF922E
:100B00000F931F93CF93DF9300D000D01F92CDB7E8
:100B1000DEB78C012A013B0180910501833121F070
:100B20008F3F09F03DC205C0E4E3F2E024912D833C
:100B300072C083E180930501E4E3F2E084918D8348
:100B40008F3F09F42DC2813009F441C038F1823061
:100B500009F061C01092B0001092B1008091B00015
:100B600082608093B0008091B10081608093B10079
:100B7000E3E3F2E0E491F0E0EE0FFF1FEA5EFD4FE9
:100B8000859194919093A8018093A701E5E1F2E00B
:100B9000E491E093A60122E02D83FDC114BC15BCB5
:100BA00084B5826084BD85B5816085BDE3E3F2E0F4
:100BB000E491F0E0EE0FFF1FEA5EFD4F8591949106
:100BC000E5E1F2E0E491E093C6011D82E4C11092F8
:100BD0008000109281008091810088608093810064
:100BE00080918100816080938100E3E3F2E0E491F1
:100BF000F0E0EE0FFF1FEA5EFD4F85919491E5E175
:100C0000F2E0E491E093C50161E083E10E94970482
:100C100091E09D838AC08D8187FDC2C161E083E13F
:100C20000E9497048D818D7F09F07FC04801A12C1F
:100C3000B12C60E072E18AE790E0A50194010E9486
:100C4000E11729833A834B835C8369017A0191E040
:100C5000C91AD108E108F1082FEFC216D104E10446
:100C6000F10409F008F44EC060E472E48FE090E013
:100C7000A50194010E94E11769017A0181E0C81A77
:100C8000D108E108F1089D81923009F52FEFC216D5
:100C9000D104E104F10409F008F444C160E970ED05
:100CA00083E090E0A50194010E94E11769017A01B7
:100CB00081E0C81AD108E108F1089FEFC916D104F4
:100CC000E104F10411F008F0BAC083E027C02FEF6F
:100CD000C216D104E104F104B9F0B0F068E478EE92
:100CE00081E090E0A50194010E94E11769017A0179
:100CF00081E0C81AD108E108F1089D81992309F41F
:100D000013C1DCC081E001C082E09D81911106C069
:100D100095B5987F892B85BD44C085E09091B10041
:100D2000987F892B8093B1003CC04801A12CB12C45
:100D300060E072E18AE790E0A50194010E94E1176A
:100D400069017A0181E0C81AD108E108F108C114EB
:100D5000D10491E0E906F10488F068E478EE81E0DE
:100D600090E0A50194010E94E11769017A0181E0F8
:100D7000C81AD108E108F10883E001C081E09D8133
:100D8000913079F490918100987F892B8093810034
:100D9000411451046104710449F42FEF3FEFA9019C
:100DA0002CC0411451046104710471F0D801AA0FE0
:100DB000BB1FA30192010E945E1728EE33E040E0C2
:100DC00050E00E94BF1703C02FEF3FEFA9018D81B4
:100DD000813099F0823019F18111E2C0C7BC2093B3
:100DE000CB013093CC014093CD015093CE01809143
:100DF0006E00826080936E00D3C0D0928900C09252
:100E000088002093C7013093C8014093C9015093D3
:100E1000CA0180916F00826080936F00C1C0C09250
:100E2000B3002093A9013093AA014093AB015093E2
:100E3000AC0180917000826080937000B1C068E462
:100E400078EE81E090E0A50194010E94E11769012C
:100E50007A0191E0C91AD108E108F1082FEFC21612
:100E6000D104E104F10441F138F164E274EF80E06F
:100E700090E0A50194010E94E11769017A0181E0E7
:100E8000C81AD108E108F1089FEFC916D104E1049E
:100E9000F10409F008F441CF62E17AE780E090E0E4
:100EA000A50194010E94E11769017A0181E0C81A45
:100EB000D108E108F10819C084E030CF2FEFC21645
:100EC000D104E104F10409F008F463C062E17AE7B7
:100ED00080E090E0A50194010E94E11769017A0188
:100EE00091E0C91AD108E108F1088FEFC816D104C2
:100EF000E104F104A9F0A0F089819A81AB81BC8161
:100F00002AE0B595A795979587952A95D1F76C0115
:100F10007D0121E0C21AD108E108F10887E0FECE88
:100F200086E0FCCE82E0FACE8FEFC816D104E10451
:100F3000F10469F160F162E17AE780E090E0A501F7
:100F400094010E94E11769017A0191E0C91AD10860
:100F5000E108F1082FEFC216D104E104F104A9F071
:100F6000A0F089819A81AB81BC813AE0B595A795C3
:100F7000979587953A95D1F76C017D0121E0C21ACA
:100F8000D108E108F10885E0C3CE84E0C1CE83E05A
:100F9000BFCE84E0BACE61E083E10E94970446CEE2
:100FA0000F900F900F900F900F90DF91CF911F91A6
:100FB0000F91FF90EF90DF90CF90BF90AF909F90F8
:100FC0008F907F906F905F904F9008953FB7F89407
:100FD0008091900190919101A0919201B091930123
:100FE00026B5A89B05C02F3F19F00196A11DB11D84
:100FF0003FBFBA2FA92F982F8827820F911DA11DBF
:10100000B11DBC01CD0142E0660F771F881F991FFB
:101010004A95D1F708952FB7F89460918C0170919B
:101020008D0180918E0190918F012FBF08950895B9
:10103000CF92DF92EF92FF920F931F93CF93DF93A4
:101040006C017A018B01C0E0D0E0CE15DF0581F0A4
:10105000D8016D918D01D601ED91FC910190F08147
:10106000E02DC6010995892B11F02196EECF7E0166
:10107000C701DF91CF911F910F91FF90EF90DF900B
:10108000CF90089580E090E008950E94921C0F9305
:101090001F93CF93DF93EC0188819981009729F00A
:1010A0002A813B812617370788F48B016F5F7F4FBA
:1010B0000E94CC1B009761F0998388831B830A836D
:1010C0002C813D81232B11F4FC01108281E001C0B1
:1010D00080E0DF91CF911F910F910895CF93DF931F
:1010E000EC0160E08E810E94680461E08E810E94C4
:1010F000680460E08E810E9468048BE891E00197AB
:10110000F1F7DF91CF910895862F642F0C94970407
:10111000CF93DF93FC01218930E0F901E251FE4FCA
:101120008491F901EE5FFD4FD491F901E05EFD4F2E
:10113000C491CC2379F081110E943F04EC2FF0E0A0
:10114000EE0FFF1FEB5CFD4FA591B491EC91ED23E9
:1011500081E009F480E08170DF91CF910895EF92F2
:10116000FF920F931F93CF93DF936115710511F4D5
:1011700080E01CC041155105C1F07B01EC018C8160
:101180009D818A01080F191FB801CE010E944708EE
:10119000882371F3288139818C819D81B701820F69
:1011A000931F0E94A01C1D830C8381E0DF91CF91CF
:1011B0001F910F91FF90EF900895CF93DF93EC0173
:1011C00088819981009711F00E94431B198218822F
:1011D0001D821C821B821A82DF91CF910895CF93CA
:1011E000DF93EC016115710561F0FB0101900020B6
:1011F000E9F73197AF01461B570B0E94AF088111E9
:1012000003C0CE010E94DD08CE01DF91CF91089589
:10121000EF92FF920F931F93CF93DF93EC017B012B
:101220008A01BA010E944708811104C0CE010E94C0
:10123000DD0807C01D830C83B701888199810E9456
:10124000A01CCE01DF91CF911F910F91FF90EF90E5
:101250000895CF93DF93EC016115710559F0FB01FF
:1012600001900020E9F73197AF01461B570B0E9410
:10127000080902C00E94DD08CE01DF91CF910895D8
:10128000CF93DF93EC01FB018617970761F0608134
:1012900071816115710529F0448155810E94080909
:1012A00002C00E94DD08CE01DF91CF910895FC01BC
:1012B000808191810C94431B1F920F920FB60F9265
:1012C00011242F933F934F935F936F937F938F934B
:1012D0009F93AF93BF93EF93FF938091A901909158
:1012E000AA01A091AB01B091AC01892B8A2B8B2B69
:1012F00059F19091A601E091A701F091A801808198
:10130000892780838091A9019091AA01A091AB01C6
:10131000B091AC01181619061A061B060CF03DC058
:101320008091A9019091AA01A091AB01B091AC016B
:101330000197A109B1098093A9019093AA01A093F3
:10134000AB01B093AC0129C080910501E4E3F2E068
:10135000E4919FEF90930501E130B9F098F0E2300D
:10136000C9F4909170009D7F9093700091E09093EC
:10137000B0009091B100987F94609093B10010926A
:10138000B30008C010926E0005C090916F009D7F61
:1013900090936F0060E00E946804FF91EF91BF910D
:1013A000AF919F918F917F916F915F914F913F91FD
:1013B0002F910F900FBE0F901F901895CF92DF9234
:1013C000EF92FF920F931F93CF93DF936C017C01F9
:1013D00087E0E80EF11CC0E0D0E0062F10E0B80175
:1013E0000C2E02C0759567950A94E2F76170F701BB
:1013F00081917F010E9468042196C430D10579F75C
:10140000C601DF91CF911F910F91FF90EF90DF9078
:10141000CF900C946E08CF92DF92EF92FF920F93D1
:101420001F93CF93DF93EC01F62E642F8C810E94E3
:1014300068048D818F3F19F060E00E9468048F85F9
:101440000F2D10E084FF25C06E0187E0C80ED11C6F
:10145000E12CF12CB8010E2C02C0759567950A9409
:10146000E2F76170F60181916F010E946804FFEF5D
:10147000EF1AFF0A88E0E816F10461F7CE01DF9168
:10148000CF911F910F91FF90EF90DF90CF900C9430
:101490006E08B80184E0759567958A95E1F7CE01ED
:1014A0000E94DE096F2DCE01DF91CF911F910F9128
:1014B000FF90EF90DF90CF900C94DE0941E00E9406
:1014C0000B0A81E090E008958F929F92AF92BF92B5
:1014D000CF92DF92EF92FF920F931F93CF93DF9300
:1014E0002091D501211109C028EC30E03093D401BE
:1014F0002093D30121E02093D50122E1289FE00130
:10150000299FD00D112400917C0110917D010C0FB9
:101510001D1FF801808580FD4BC00E940B084B0108
:101520005C01C090CF01D090D001E090D101F0904B
:10153000D201A091D301B091D401A70196010E94DC
:101540000018F8010185128523853485801A910AD7
:10155000A20AB30A86169706A806B90648F1FFEF55
:10156000CF1ADF0AEF0AFF0AC092CF01D092D00152
:10157000E092D101F092D2010E94510181E02091CC
:101580007C0130917D01C20FD31F988595709530F5
:1015900089F41092CF011092D0011092D1011092D3
:1015A000D20128EC30E03093D4012093D30102C063
:1015B00080E0E5CFDF91CF911F910F91FF90EF90E9
:1015C000DF90CF90BF90AF909F908F9008951F9223
:1015D0000F920FB60F9211242F933F938F939F93E7
:1015E000AF93BF9380918C0190918D01A0918E015A
:1015F000B0918F013091DD0123E0230F2D3720F4CE
:101600000196A11DB11D05C026E8230F0296A11D5C
:10161000B11D2093DD0180938C0190938D01A093E7
:101620008E01B0938F018091900190919101A091D2
:101630009201B09193010196A11DB11D809390017B
:1016400090939101A0939201B0939301BF91AF91B8
:101650009F918F913F912F910F900FBE0F901F90F0
:101660001895CF93DF93CDB7DEB7E4970FB6F89414
:10167000DEBF0FBECDBF789484B5826084BD84B5D3
:10168000816084BD85B5826085BD85B5816085BD7D
:1016900080916E00816080936E0010928100809135
:1016A00081008260809381008091810081608093BD
:1016B0008100809180008160809380008091B100E2
:1016C00084608093B1008091B00081608093B0000D
:1016D00080917A00846080937A0080917A008260A1
:1016E00080937A0080917A00816080937A00809163
:1016F0007A00806880937A001092C10082E1ECE069
:10170000F1E0DE01119601900D928A95E1F761E01A
:101710008FE00E94970461E083E10E9497049E019C
:101720002F5F3F4F6901E12CF12C24E6A22EB12C52
:10173000D6019C9011967C91B2E0CB0ED11C009109
:101740007C0110917D010E0D1F1DD801ED91FC91C2
:101750000280F381E02D42E050E0692DC801099537
:10176000F801918A10860190F081E02D0190F081BE
:10177000E02DC8010995882339F0D80118968C917D
:101780001897836018968C930E940B08F801628367
:10179000738384839583E0917C01F0917D01EE0D4C
:1017A000FF1DB782A682F2E1EF0EF11C22EAE216DB
:1017B000F10409F0BDCF82E00E94D30480E00E94D2
:1017C0006B0182E391E00E94590181E00E946B016C
:1017D0008FE391E00E9459010E94E6074B015C01F2
:1017E00090EDC92E97E0D92EE12CF12C0E94E6074E
:1017F000DC01CB0188199909AA09BB09883E9340ED
:10180000A105B10598F331E0C31AD108E108F10848
:1018100048EE840E43E0941EA11CB11CC114D104F7
:10182000E104F10419F70E94510101E0C12CD12C0F
:1018300012E0E0907C01F0907D01EC0CFD1CD701E2
:1018400018968C9118978B7F18968C931897ED911A
:10185000FC910190F081E02DC7010995B82EF701A8
:10186000808586958170B81681F00E940B08D7019B
:1018700012966D937D938D939C93159718968C91EA
:101880001897812718968C9347C00E940B08F70180
:101890004280538064807580AB01BC0144195509B6
:1018A0006609770986819781A0E0B0E0481759075B
:1018B0006A077B0788F180858170B81669F10E94FC
:1018C0000B08D70112966D937D938D939C9315977A
:1018D00018968C91B1E08B278460F70180870E9475
:1018E0000B08D70119968D909D90AD90BC901C97D8
:1018F000DC01CB0188199909AA09BB09F701858781
:101900009687A787B08B0E940B08D70119966D9315
:101910007D938D939C931C97E0907C01F0907D01CA
:10192000F701EC0DFD1D8085982F9170282F2570F3
:10193000253009F472C6911102C082FD6EC6B2E173
:10194000CB0ED11CE2EACE16D10409F072CF409141
:1019500088015091890160918A0170918B01F70192
:10196000EE59FF4F208121707297908190FD04C045
:1019700092FB992790F901C090E080918701813016
:1019800051F018F08230A1F015C091113EC622230B
:1019900009F43DC60FC091113CC64150510961097F
:1019A0007109493051056105710508F432C602C05C
:1019B00021112FC61092040180938701813009F410
:1019C000BDC320F0823009F49CC517C660E08FE0EB
:1019D0000E946804809104018823F1F021E030E046
:1019E00040E050E020930001309301014093020158
:1019F00050930301109288011092890110928A017C
:101A000010928B0110928301109284011092850133
:101A1000109286010E94510180E00E946B0189E4CE
:101A200091E00E94590120917C0130917D01F901E2
:101A3000EA57FF4F808181707297908190FF04C0B8
:101A4000882331F080E007C0882321F081E003C0C3
:101A500082E001C083E090918201981721F0809389
:101A600082010E94510181E00E946B01109182016C
:101A70001CA61BA61EA61DA618AA1FA640E050E085
:101A800069E671E0CE018B960E940809113009F4D5
:101A900098C008F452C0123009F458C1133009F04C
:101AA000C1C1409198015091990160919A01709142
:101AB0009B01CE014F960E948D0240919E01509154
:101AC0009F016091A0017091A101CE0149960E94F1
:101AD0008D02609194017091950180919601909191
:101AE00097010E943F1620E030E04AE754E40E944C
:101AF0007B18AB01BC01CE0101960E94BA02BE0167
:101B00006F5F7F4FCE0143960E94840263E571E0D0
:101B1000CE0143960E94EF08BE01675E7F4F0E9490
:101B200071026BE571E00E94EF08BE01615E7F4FBC
:101B30000E94710269E571E05EC16091940170914B
:101B4000950180919601909197010E943F1620E0A7
:101B500030E04AE754E40E947B18AB01BC01CE019F
:101B600001960E94BA028BA59CA50097A9F06981F5
:101B70007A816115710571F04DA55EA52D813E81BB
:101B80004217530738F00E94A01C8D819E8198ABAC
:101B90008FA712C00E94431B89819A819CA78BA7A3
:101BA0008B819C819EA78DA78D819E8198AB8FA7ED
:101BB0001A8219821C821B821E821D82CE0101960E
:101BC0002FC180919C0190919D0197FD4CC081E0B7
:101BD0000E94EA020E943F1620E030E04AE754E407
:101BE0000E947B18AB01BC01CE0185960E94BA020F
:101BF000409198015091990160919A0170919B01D7
:101C0000CE014F960E948D0260919C0170919D01C2
:101C1000CE0149960E941304609194017091950140
:101C200080919601909197010E943F1620E030E04C
:101C30004AE754E40E947B18AB01BC01CE01019637
:101C40000E94BA02BE016F5F7F4FCE0143960E9491
:101C500084026FE471E0CE0143960E94EF08BE015A
:101C6000675E7F4F47C081E00E94EA020E943F16F4
:101C700020E030E04AE754E40E947B18AB01BC014D
:101C8000CE0185960E94BA02409198015091990127
:101C900060919A0170919B01CE014F960E948D0236
:101CA00060919C0170919D01CE0149960E941304A0
:101CB00060919401709195018091960190919701A6
:101CC0000E943F1620E030E04AE754E40E947B186F
:101CD000AB01BC01CE0101960E94BA02BE016F5F4A
:101CE0007F4FCE0143960E948402BE01675E7F4F04
:101CF000CE0143960E9471026DE571E00E94EF08EB
:101D0000BE01615E7F4F0E94710261E571E00E9439
:101D1000EF08BE016B5D7F4F0E947102BC01CE01D6
:101D20008B960E944009CE0143960E945709CE012E
:101D300001960E945709CE0149960E945709CE018B
:101D40004F960E945709CE0185966AC06091A20104
:101D50007091A3018091A4019091A5010E943F166A
:101D600020E030E04AE754E40E947B18AB01BC015C
:101D7000CE014F960E94BA0240919E0150919F0160
:101D80006091A0017091A101CE0149960E948D023F
:101D900060919401709195018091960190919701C5
:101DA0000E943F1620E030E04AE754E40E947B188E
:101DB000AB01BC01CE0101960E94BA02BE016F5F69
:101DC0007F4FCE0143960E94840263E571E0CE010D
:101DD00043960E94EF08BE01675E7F4F0E9471022A
:101DE00066E571E00E94EF08BE01615E7F4F0E94D0
:101DF000710268E571E00E94EF08BC01CE018B968C
:101E00000E944009CE0143960E945709CE010196D7
:101E10000E945709CE0149960E945709CE014F965C
:101E20000E9457094FA558A96BA57CA58DEA91E0A2
:101E30000E941808CE018B960E945709809182015A
:101E4000813009F4DEC098F0823009F407C1833094
:101E500009F0D3C380E090E00E94640A182F81E06B
:101E600090E00E94640A612F0E94BF035AC180E083
:101E700090E00E94640A182F81E090E00E94640ABA
:101E8000882301F18091940190919501A091960190
:101E9000B091970189313CEF93073FEFA307B30758
:101EA0002CF088519C4FAF4FBF4F04C081E090E0B1
:101EB000A0E0B0E08093940190939501A0939601E7
:101EC000B09397011123F9F08091940190919501BD
:101ED000A0919601B0919701893E43E09407A10536
:101EE000B1052CF0885E9340A109B10904C081E0DE
:101EF00090E0A0E0B0E08093940190939501A093CE
:101F00009601B09397018091940190919501A091D1
:101F10009601B09197018C339648A140B10560F0CD
:101F20008CE396E8A1E0B0E0809394019093950152
:101F3000A0939601B093970182E090E00E94640A1A
:101F4000182F83E090E00E94640A8823F9F08091C2
:101F5000940190919501A0919601B09197018D39CE
:101F6000EFEF9E07AE07BE072CF08C599F4FAF4F87
:101F7000BF4F04C081E090E0A0E0B0E08093940106
:101F800090939501A0939601B09397011123F1F0DE
:101F90008091940190919501A0919601B091970143
:101FA00085369105A105B1052CF084569109A1094A
:101FB000B10904C081E090E0A0E0B0E0809394011A
:101FC00090939501A0939601B0939701809194010D
:101FD00090919501A0919601B09197018C3396480C
:101FE000A140B10508F409C32CE336E841E050E014
:101FF000209394013093950140939601509397015B
:10200000FCC280E090E00E94640A182F81E090E01A
:102010000E94640A612F0E94BF0382E090E00E9448
:10202000640A182F83E090E00E94640A882349F034
:1020300080919C0190919D01019690939D018093C8
:102040009C01112309F4D9C280919C0190919D01BA
:10205000019790939D0180939C01CFC280E090E016
:102060000E94640A182F81E090E00E94640A88238D
:10207000F9F08091A2019091A301A091A401B091E7
:10208000A5018D393FEF9307A307B3072CF08C59B7
:102090009F4FAF4FBF4F04C081E090E0A0E0B0E0A1
:1020A0008093A2019093A301A093A401B093A501F2
:1020B0001123F1F08091A2019091A301A091A401BC
:1020C000B091A50185369105A105B1052CF0845686
:1020D0009109A109B10904C081E090E0A0E0B0E05D
:1020E0008093A2019093A301A093A401B093A501B2
:1020F0008091A2019091A301A091A401B091A501AA
:102100008035934CA105B10560F080E593ECA0E02B
:10211000B0E08093940190939501A0939601B093C1
:10212000970182E090E00E94640A182F83E090E01B
:102130000E94640A612F0E946B035FC261E08FE01E
:102140000E946804809104018823C1F0809182017B
:102150000E94EA02609388017093890180938A014A
:1021600090938B010E940B0860938301709384010C
:1021700080938501909386010E945101809088018F
:1021800090908901A0908A01B0908B0180927E018D
:1021900090927F01A0928001B09281018091820192
:1021A0000E94EA02C0908301D0908401E0908501F2
:1021B000F0908601C60ED71EE81EF91E0E940B087D
:1021C000C61AD70AE80AF90A8C149D04AE04BF04A3
:1021D00048F0C0928801D0928901E0928A01F09281
:1021E0008B0108C0109288011092890110928A0117
:1021F00010928B0180E00E946B018FE591E00E94BC
:10220000590180918201823020F0843008F0F5C1BC
:1022100050C081E00E946B0160918801709189013A
:1022200080918A0190918B010E943F1620E030E05E
:102230004AE754E40E947B180E947C01E0917C01F3
:10224000F0917D01E856FF4F7080C0900001D09062
:102250000101E0900201F0900301809083019090D1
:102260008401A0908501B09086010E940B081B019B
:102270002C01A8EEB3E0A70196010E945E17860E1E
:10228000971EA81EB91E281439044A045B0408F4DA
:102290002FC170FC08C044E650E060E070E08BEDB8
:1022A00093E00E9474059FEFC91AD90AE90AF90A56
:1022B0001FC181E00E946B016091880170918901CA
:1022C00080918A0190918B010E943F1620E030E0BE
:1022D0004AE754E40E947B18AB01BC01CE01019691
:1022E0000E94BA0240919E0150919F016091A0010D
:1022F0007091A101CE0143960E948D024091000190
:10230000509101016091020170910301CE014F963D
:102310000E948D02BE01615E7F4FCE0149960E94F0
:1023200084026DE571E0CE0149960E94EF08BE017E
:102330006D5E7F4F0E94710268E671E00E94EF08B7
:10234000BE016F5F7F4F0E947102DC0114964D91B8
:102350005C9115976D917C918DEA91E00E9418082F
:10236000CE0149960E945709CE014F960E94570907
:10237000CE0143960E945709CE0101960E9457094B
:10238000C0900001D0900101E0900201F0900301A3
:10239000809182018230D9F46091A2017091A301F1
:1023A0008091A4019091A501A70196010E94AF1709
:1023B0008090940190909501A0909601B090970123
:1023C000680D791D8A1D9B1D0E943F1631C0833008
:1023D00009F08AC0C701B6010E943F164B015C019B
:1023E000609198017091990180919A0190919B015F
:1023F0000E943F169B01AC01C501B4010E947B18ED
:102400009B01AC0160E070E080E090E40E94211943
:102410004B015C016091940170919501809196014E
:10242000909197010E943F16A50194010E94A01669
:102430004B015C0120918301309184014091850121
:102440005091860129AB3AAB4BAB5CAB0E940B08B9
:102450000E943F162B013C0169A97AA98BA99CA96E
:1024600064567109810991090E943F16A5019401E2
:102470000E940F189B01AC01C301B2010E941C19FC
:1024800087FD08C04FE550E060E070E083E992E02E
:102490000E9474050E940B080E943F162B013C010C
:1024A00069A97AA98BA99CA965507109810991092B
:1024B0000E943F16A50194010E940F189B01AC01D8
:1024C000C301B2010E941C1987FD12C044E650E00E
:1024D00060E070E080E793E00E9474053FEFC31A6C
:1024E000D30AE30AF30A04C0CC24CA94DC2C760194
:1024F000C0920001D0920101E0920201F09203012A
:102500007CC080910401882361F00E940B086093D5
:1025100083017093840180938501909386010E94CA
:10252000510161E08FE00E946804F701E856FF4F17
:102530007080C0900001D0900101E0900201F09005
:1025400003018090830190908401A0908501B09058
:1025500086010E940B081B012C01A8EEB3E0A70125
:1025600096010E945E17860E971EA81EB91E28149B
:1025700039044A045B0478F070FC08C044E650E07B
:1025800060E070E08BED93E00E9474054FEFC41A99
:10259000D40AE40AF40AC0920001D0920101E09248
:1025A0000201F092030180E00E946B018AE691E053
:1025B0000E94590181E00E946B010E940B08C090AB
:1025C0008301D0908401E0908501F09086012AE09B
:1025D00030E040E050E02C193D094E095F09620FE0
:1025E000731F841F951F0E943F1620E030E04AE7CA
:1025F00054E40E947B180E947C0140E050E0452B8F
:1026000009F414C90E94000010C981E003C082E0EF
:1026100001C080E000930401CFC90E9451018FC91D
:102620001092B0011092AF018AE291E09093AE0156
:102630008093AD0187E08093B1018FEF8093B20169
:1026400088E08093B30189E08093B4018AE08093AD
:10265000B5018BE08093B6018CE08093B7011092B6
:10266000B8011092B9011092BA011092BB011092F8
:10267000BC0181E00E94D30482EA90E00E94AB1A80
:10268000FC019C012E553F4F6AE070E042E251E0B0
:102690001282138214821582778366831086518397
:1026A0004083118A7296E217F30791F790937D01A8
:1026B00080937C0188E893E1A0E0B0E080939401EE
:1026C00090939501A0939601B093970183E090E0D9
:1026D000A0E0B0E08093980190939901A0939A01B3
:1026E000B0939B0181E090E090939D0180939C01C9
:1026F00086E090E0A0E0B0E080939E0190939F017F
:10270000A093A001B093A10180ED97E0A0E0B0E01C
:102710008093A2019093A301A093A401B093A5017B
:102720000895EF920F931F93CF93DF93E80147FD36
:1027300002C034E001C034E1042E000C550B57FFF9
:1027400003C0519541955109E32E022F242FAE016C
:102750000E94F813CE01DF91CF911F910F91EF905E
:102760000895BB274A3031F4992322F4BDE29095B5
:1027700081959F4F0C94DF13BB27FA01A62F621798
:10278000710581059105330B30FB66F0AA27660FB2
:10279000771F881F991FAA1FA21710F0A21B63950D
:1027A0003850A9F7A05DAA3308F0A95DA19336F7C8
:1027B000B111B1931082CA010C942A16BB27FB01F8
:1027C0005527AA27880F991FAA1FA41710F0A41B2A
:1027D00083955051B9F7A05DAA3308F0A95DA19384
:1027E000009779F7B111B1931192CB010C942A168D
:1027F000A9E0B0E0EEEFF3E10C946F176A01122F3D
:10280000B02E2BE3201720F0FF24F394F00E02C02B
:102810002CE3F22E0F2D27E0AE014F5F5F4F0E9499
:102820005215BC014981842F8970813031F0E1FC5F
:1028300006C0E0FE06C090E205C09DE203C09BE238
:1028400001C090E05E2D507143FF3CC0911102C069
:1028500083E001C084E0811718F4212F281B01C0F8
:1028600020E051110BC0F601822F30E2882319F0CD
:1028700031938150FBCFC20ED11C20E0992329F067
:10288000D6019C93F60131966F01C6010396E2FED4
:102890000AC03EE4D6013C9341E411964C93119753
:1028A00012963C9306C03EE6F601308341E6418332
:1028B0003283FC01322F40E2332309F442C04193BA
:1028C0003150FACF42FF44C0911102C083E001C0F1
:1028D00084E0811718F4212F281B01C020E051113A
:1028E0000BC0F601822F30E2882319F0319381501A
:1028F000FBCFC20ED11C20E0992329F0D6019C9376
:10290000F60131966F01C6010396E2FE0BC039E471
:10291000D6013C933EE411963C93119736E412960F
:102920003C9307C039E6F60130833EE6318336E654
:102930003283FC01322F40E2332319F041933150AE
:10294000FBCFFC01E20FF11D10828EEF9FEFA6C0BE
:1029500021E030E0911102C020E030E016161706A9
:102960001CF4FB01319602C0E1E0F0E02E0F3F1FA6
:10297000BB2021F0EB2DF0E0319602C0E0E0F0E06A
:102980002E0F3F1FE12FF0E02E173F071CF4121B04
:10299000212F01C020E08E2D887159F4F601822F7D
:1029A00030E2882319F031938150FBCFC20ED11C45
:1029B00020E0992329F0D6019C93F60131966F010E
:1029C00051110BC0F601822F90E3882319F09193E7
:1029D0008150FBCFC20ED11C20E00F2D060F9A8133
:1029E000342F307144FF03C0913309F401501016A5
:1029F00024F4093018F008E001C001E0AB0177FFD2
:102A000002C040E050E0FB01E41BF50BA1E0B0E0A8
:102A1000AC0FBD1FEA0FFB1F8EE2A82E4B01801AE0
:102A200091080B2D10E01195019511094F3FBFEF53
:102A30005B0721F4D601AC9211966D0164177507FE
:102A40002CF08416950614F4818101C080E3415076
:102A500051093196D60111967D014017510724F096
:102A6000D6018C936701E2CF6417750739F496336A
:102A700020F4953319F4311101C081E3F60180830C
:102A8000F701822F90E2882319F091938150FBCFB8
:102A9000F701E20FF11D108280E090E02996ECE052
:102AA0000C948B17283008F027E03327DA01990FB0
:102AB000311D87FD916000966105710539F4326022
:102AC0002E5F3D9330E32A95E1F708959F3F30F064
:102AD00080387105610509F03C5F3C5F3D939130A2
:102AE00008F08068911DDF93CF931F930F93FF929F
:102AF000EF92192F987F9695E92F96959695E90F65
:102B0000FF27EC5BFE4F99273327EE24FF24A70114
:102B1000E70105900894079428F4360FE71EF81E85
:102B2000491F511D660F771F881F991F0694A1F733
:102B30000590079428F4E70EF81E491F561FC11D83
:102B4000770F881F991F661F0694A1F705900794B9
:102B500028F4F80E491F561FC71FD11D880F991F53
:102B6000661F771F0694A1F70590079420F4490F7C
:102B7000561FC71FD81F990F661F771F881F0694FF
:102B8000A9F784911095177041F0D695C795579580
:102B90004795F794E7941A95C1F7EAEEF0E0689448
:102BA0001590159135916591959105907FE27395FA
:102BB000E118F10A430B560BC90BD009C0F7E10C21
:102BC000F11E431F561FC91FD01D7EF4703311F430
:102BD0008A95E6CFE894015030F0080F0AF40027F8
:102BE000021708F4202F2395022F7A3328F079E377
:102BF0007D932A95E9F710C07D932A9589F606946E
:102C000097956795379517951794E118F10A430B37
:102C1000560BC90BD00998F023957E9173957A33A2
:102C200008F070E37C932013B8F77E9170617D9378
:102C300030F0839571E37D9370E32A95E1F71124D9
:102C4000EF90FF900F911F91CF91DF91992787FD12
:102C500090950895DC01FC01672F71917723E1F7CE
:102C6000329704C07C916D9370836291AE17BF0759
:102C7000C8F308950E947C1608F481E00895E89452
:102C800009C097FB3EF490958095709561957F4FB4
:102C90008F4F9F4F9923A9F0F92F96E9BB27939562
:102CA000F695879577956795B795F111F8CFFAF472
:102CB000BB0F11F460FF1BC06F5F7F4F8F4F9F4FA3
:102CC00016C0882311F096E911C0772321F09EE801
:102CD000872F762F05C0662371F096E8862F70E067
:102CE00060E02AF09A95660F771F881FDAF7880F41
:102CF0009695879597F90895990F0008550FAA0B97
:102D0000E0E8FEEF16161706E807F907C0F01216FE
:102D10001306E407F50798F0621B730B840B950B01
:102D200039F40A2661F0232B242B252B21F4089556
:102D30000A2609F4A140A6958FEF811D811D0895F3
:102D40000E94B3160C9424170E94161738F00E94A4
:102D50001D1720F0952311F00C940D170C941317E8
:102D600011240C9458170E94351770F3959FC1F3E6
:102D7000950F50E0551F629FF001729FBB27F00D29
:102D8000B11D639FAA27F00DB11DAA1F649F66277E
:102D9000B00DA11D661F829F2227B00DA11D621FCD
:102DA000739FB00DA11D621F839FA00D611D221F87
:102DB000749F3327A00D611D231F849F600D211D6B
:102DC000822F762F6A2F11249F5750409AF0F1F0EE
:102DD00088234AF0EE0FFF1FBB1F661F771F881F57
:102DE00091505040A9F79E3F510580F00C940D176B
:102DF0000C9458175F3FE4F3983ED4F3869577958B
:102E00006795B795F795E7959F5FC1F7FE2B880FFC
:102E1000911D9695879597F9089597F99F6780E892
:102E200070E060E008959FEF80EC089500240A941C
:102E30001616170618060906089500240A94121695
:102E40001306140605060895092E0394000C11F4C8
:102E5000882352F0BB0F40F4BF2B11F460FF04C075
:102E60006F5F7F4F8F4F9F4F089557FD9058440FCE
:102E7000551F59F05F3F71F04795880F97FB991FD9
:102E800061F09F3F79F08795089512161306140696
:102E9000551FF2CF4695F1DF08C016161706180623
:102EA000991FF1CF86957105610508940895E894FE
:102EB000BB2766277727CB0197F908950E94A017B3
:102EC000A59F900DB49F900DA49F800D911D11247E
:102ED00008952F923F924F925F926F927F928F92BE
:102EE0009F92AF92BF92CF92DF92EF92FF920F9399
:102EF0001F93CF93DF93CDB7DEB7CA1BDB0B0FB6A3
:102F0000F894DEBF0FBECDBF09942A88398848885F
:102F10005F846E847D848C849B84AA84B984C884F5
:102F2000DF80EE80FD800C811B81AA81B981CE0FEC
:102F3000D11D0FB6F894DEBF0FBECDBFED010895D1
:102F4000A29FB001B39FC001A39F700D811D1124EA
:102F5000911DB29F700D811D1124911D0895DB01FB
:102F60008F939F930E945E17BF91AF91A29F800D98
:102F7000911DA39F900DB29F900D11240895A1E281
:102F80001A2EAA1BBB1BFD010DC0AA1FBB1FEE1FE3
:102F9000FF1FA217B307E407F50720F0A21BB30B2E
:102FA000E40BF50B661F771F881F991F1A9469F7AA
:102FB00060957095809590959B01AC01BD01CF0106
:102FC0000895052E97FB1EF400940E94F81757FDF4
:102FD00007D00E94BF1707FC03D04EF40C94F817DB
:102FE00050954095309521953F4F4F4F5F4F089535
:102FF00090958095709561957F4F8F4F9F4F089565
:10300000B7FF0C945E170E945E17821B930B089506
:10301000EE0FFF1F0590F491E02D09945058BB2747
:10302000AA270E9426180C9424170E94161738F01D
:103030000E941D1720F039F49F3F19F426F40C94D8
:1030400013170EF4E095E7FB0C940D17E92F0E947F
:10305000351758F3BA17620773078407950720F0EE
:1030600079F4A6F50C9457170EF4E0950B2EBA2FB1
:10307000A02D0B01B90190010C01CA01A00111247E
:10308000FF27591B99F0593F50F4503E68F11A162A
:10309000F040A22F232F342F4427585FF3CF4695BB
:1030A00037952795A795F0405395C9F77EF41F16DD
:1030B000BA0B620B730B840BBAF09150A1F0FF0FA7
:1030C000BB1F661F771F881FC2F70EC0BA0F621F93
:1030D000731F841F48F4879577956795B795F79583
:1030E0009E3F08F0B0CF9395880F08F09927EE0F18
:1030F0009795879508950E948F180C9424170E9425
:103100001D1758F00E94161740F029F45F3F29F070
:103110000C940D1751110C9458170C9413170E940E
:10312000351768F39923B1F3552391F3951B550B8C
:10313000BB27AA2762177307840738F09F5F5F4F8A
:10314000220F331F441FAA1FA9F335D00E2E3AF0C9
:10315000E0E832D091505040E695001CCAF72BD0E1
:10316000FE2F29D0660F771F881FBB1F2617370732
:103170004807AB07B0E809F0BB0B802DBF01FF2764
:1031800093585F4F3AF09E3F510578F00C940D171D
:103190000C9458175F3FE4F3983ED4F386957795E7
:1031A0006795B795F7959F5FC9F7880F911D96951D
:1031B000879597F90895E1E0660F771F881FBB1F79
:1031C000621773078407BA0720F0621B730B840B26
:1031D000BA0BEE1F88F7E09508950E943D1788F01E
:1031E0009F5798F0B92F9927B751B0F0E1F0660FCB
:1031F000771F881F991F1AF0BA95C9F714C0B1300C
:1032000091F00E945717B1E008950C945717672F5B
:10321000782F8827B85F39F0B93FCCF3869577953A
:103220006795B395D9F73EF4909580957095619523
:103230007F4F8F4F9F4F08950E947C1608F48FEFA9
:103240000895FA01EE0FFF1F309621053105A1F117
:103250006115710561F48038BFE39B0749F16894FB
:103260009038810561F08038BFEF9B0741F09923CA
:103270004AF5FF3FE1053105210519F1E89408946D
:10328000E795D901AA2329F4AB2FBE2FF85FD0F31D
:1032900010C0FF5F70F4A695E0F7F73950F019F011
:1032A000FF3A38F49F779F930DD00F9007FC90580A
:1032B000089546F00C94131760E070E080E89FE3F7
:1032C00008954FE79F775F934F933F932F930E940B
:1032D000211A2F913F914F915F910E94A0160C945B
:1032E0007E190E947C16880B990B089529F416F01C
:1032F0000C940D170C9457170C9413170E943D173C
:10330000A8F39638A0F707F80F92E8942BE33AEA6F
:1033100048EB5FE70E94B6160F920F920F924DB7DF
:103320005EB70F920E94691AE8E6F0E00E94B019B9
:103330004F915F91EF91FF91E595EE1FFF1F49F0CF
:10334000FE57E0684427EE0F441FFA95E1F74195D8
:10335000550B0E94E3190F9007FE0C94D71908959E
:10336000DF93CF931F930F93FF92EF92DF927B0136
:103370008C01689406C0DA2EEF010E94B316FE019C
:10338000E894A5912591359145915591A6F3EF01CA
:103390000E942618FE019701A801DA9469F7DF90D0
:1033A000EF90FF900F911F91CF91DF9108959B01B6
:1033B000AC0160E070E080E89FE30C947B180C9413
:1033C0000D170C949D1A0E943D17D8F39923C9F349
:1033D000940F511DA3F39150504094F059F088235D
:1033E00032F0660F771F881F91505040C1F79E3F03
:1033F00051052CF7880F911D9695879597F908959B
:103400005F3FACF0983E9CF0BB278695779567951B
:10341000B79508F4B1609395C1F7BB0F58F711F455
:1034200060FFE8CF6F5F7F4F8F4F9F4FE3CF0C94CC
:10343000581716F00C949D1A0C94131768940C945A
:103440000D170E943D17A8F39923C1F3AEF3DF9344
:10345000CF931F930F93FF92C92FDD2788232AF064
:103460002197660F771F881FDAF720E030E040E8E9
:103470005FEB9FE3883920F0803E38F021968F770C
:103480000E940F18E0E9F0E004C00E940F18EDEB75
:10349000F0E00E94B0198B01BE01EC01FB2E6F57CA
:1034A00071097595771F880B990B0E94411628E1C9
:1034B00032E741E35FE30E94B316AF2D9801AE01FE
:1034C000FF900F911F91CF91DF910E9426180C94CD
:1034D0002417FA01DC01AA0FBB1F9B01AC01BF57E7
:1034E00028F4222733274427507820C0B75190F47E
:1034F000AB2F0024469537952795011CA395D2F351
:10350000002071F0220F331F441FB395DAF30ED061
:103510000C940E1861307105A0E88A07B94630F4A2
:103520009B01AC016627772788279078309621F099
:10353000208331834283538308959F3F31F091501C
:1035400020F4879577956795B795880F911D969587
:10355000879597F908950F931F93CF93DF93823048
:10356000910510F482E090E0E091E001F091E1013A
:1035700020E030E0A0E0B0E0309719F140815181C7
:103580000281138148175907C8F08417950769F419
:10359000109731F012960C93129713961C9327C034
:1035A0000093E0011093E10122C02115310519F0CB
:1035B0004217530718F49A01BD01EF01DF01F8012A
:1035C000DBCF21153105F9F0281B390B24303105EB
:1035D00080F48A819B816115710521F0FB01938341
:1035E000828304C09093E1018093E001FE01329652
:1035F00044C0FE01E20FF31F8193919322503109E1
:10360000398328833AC02091DE013091DF01232BDA
:1036100041F420910801309109013093DF0120939A
:10362000DE0120910601309107012115310541F499
:103630002DB73EB740910A0150910B01241B350B69
:10364000E091DE01F091DF01E217F307A0F42E1BF9
:103650003F0B2817390778F0AC014E5F5F4F2417F6
:10366000350748F04E0F5F1F5093DF014093DE0196
:103670008193919302C0E0E0F0E0CF01DF91CF9120
:103680001F910F910895CF93DF93009709F481C0A4
:10369000FC01329713821282A091E001B091E10106
:1036A000109781F420813181820F931F2091DE01D8
:1036B0003091DF012817390751F5F093DF01E093CE
:1036C000DE0167C0ED0120E030E0CE17DF0740F4F7
:1036D0004A815B819E0141155105F1F0EA01F5CF68
:1036E000D383C28340815181840F951FC817D907A6
:1036F00059F488819981840F951F02969183808364
:103700008A819B81938382832115310529F4F0936B
:10371000E101E093E0013DC0E901FB83EA834991C7
:103720005991C40FD51FEC17FD0761F48081918179
:10373000840F951F0296E901998388838281938182
:103740009B838A83E0E0F0E012968D919C91139721
:10375000009719F0FD01DC01F7CF8D919C91119735
:103760009D012E5F3F4F820F931F2091DE0130910C
:10377000DF012817390769F4309729F41092E10125
:103780001092E00102C013821282B093DF01A09375
:10379000DE01DF91CF910895A0E0B0E0E2EDFBE122
:1037A0000C946D17EC01009721F4CB010E94AB1A29
:1037B000B4C0FC01E60FF71F9C0122503109E2174B
:1037C000F30708F4A8C0D9010D911C9111970617B1
:1037D0001707B0F00530110508F49BC0C801049725
:1037E0008617970708F495C002501109061B170B9E
:1037F000019311936D937C93CF010E94431B89C069
:103800005B01A01AB10A4C01800E911EA091E0014B
:10381000B091E101612C712CE12CF12C109709F48D
:1038200046C08D919C911197A815B905B1F56C0111
:1038300042E0C40ED11CCA14DB0478F14C018A1892
:103840009B08640142E0C40ED11C1296BC901297F2
:103850001396AC91B5E0CB16D10440F0B282A383AD
:1038600091828082D9016D937C9309C00E5F1F4FB6
:10387000800F911FF90191838083EB2DFA2FE114C2
:10388000F10431F0D7011396FC93EE93129741C0E7
:10389000F093E101E093E0013CC06816790608F47A
:1038A0003C017D0112960D90BC91A02DB7CF809167
:1038B000DE019091DF0188169906E1F4661677061D
:1038C000C8F48091060190910701009741F48DB7EB
:1038D0009EB740910A0150910B01841B950BE8178C
:1038E000F907C8F4F093DF01E093DE01F901718379
:1038F00060830FC0CB010E94AB1A7C01009759F086
:10390000A801BE010E94971CCE010E94431BC70163
:1039100004C0CE0102C080E090E0CDB7DEB7EEE09B
:103920000C94891781E090E0F8940C94A71CFB019B
:10393000DC0102C001900D9241505040D8F708952B
:10394000FB01DC0101900D920020E1F70895F8944D
:02395000FFCFA7
:103952000100000001FF0000E2012000020003005C
:103962000500060004001000110012000E00000005
:10397200000088088408000000005E0A1808420857
:103982001708412E20422E204E6F726D616C007618
:10399200312E302072657641005345545550002B2C
:1039A200003D002B5B002A00735D002A312F004589
:1039B20058504F53555245002000464F435553002F
:0C39C2006E616E00696E66006F76660034
:00000001FF
