:100000000C94A4000C94CC000C94CC000C94CC0068
:100010000C94CC000C94CC000C94CC000C946B028F
:100020000C94CC000C94CC000C94CC000C94CC0020
:100030000C94CC000C94CC000C94CC000C94CC0010
:100040000C9421020C94CC000C9457040C943104B1
:100050000C94CC000C94CC000C94CC000C94CC00F0
:100060000C94CC000C94CC0008000000BE922449F3
:10007000123EABAAAA2ABECDCCCC4C3E00000080DA
:10008000BEABAAAAAA3E00000000BF000000803F4D
:100090000000000000084178D3BB4387D1133D190D
:1000A0000E3CC3BD4282AD2B3E68EC8276BED98F3A
:1000B000E1A93E4C80EFFFBE01C4FF7F3F0000007E
:1000C000000007634236B79BD8A71A39685618AEA6
:1000D000BAAB558C1D3CB7CC5763BD6DEDFD753E7D
:1000E000F6177231BF000000803F000000002300BF
:1000F0002600290000000000240027002A0000003C
:1001000000080002010000030407000000000000D6
:1001100000000102040810204080010204081020A1
:1001200001020408102000000000250028002B0018
:10013000040404040404040402020202020203038D
:10014000030303030200921111241FBECFEFD8E076
:10015000DEBFCDBF11E0A0E0B1E0E0E0FFE202C011
:1001600005900D92AC38B107D9F722E0ACE8B1E0C8
:1001700001C01D92AD37B207E1F710E0C4EAD0E04C
:1001800004C02197FE010E947312C33AD107C9F738
:100190000E942D0A0C947E170C940000CF92DF92DF
:1001A000EF92FF920F931F93CF93DF936C017A012D
:1001B0008B01C0E0D0E0CE15DF0581F0D8016D9154
:1001C0008D01D601ED91FC910190F081E02DC601E9
:1001D0000995892B11F02196EECF7E01C701DF91A1
:1001E000CF911F910F91FF90EF90DF90CF900895E6
:1001F000FC01538D448D252F30E0842F90E0821B2D
:10020000930B541710F0CF96089501970895FC01B1
:10021000918D828D981761F0828DDF01A80FB11D3D
:100220005D968C91928D9F5F9F73928F90E0089561
:100230008FEF9FEF0895FC01918D828D981731F01B
:10024000828DE80FF11D858D90E008958FEF9FEF6F
:100250000895FC01918D228D892F90E0805C9F4F45
:10026000821B91098F739927089588EB91E00E9472
:10027000290121E0892B09F420E0822F0895FC0157
:10028000848DDF01A80FB11DA35ABF4F2C91848D1F
:1002900090E001968F739927848FA689B7892C9354
:1002A000A089B1898C91837080648C93938D848DA7
:1002B000981306C00288F389E02D80818F7D8083AA
:1002C0000895EF92FF920F931F93CF93DF93EC016A
:1002D00081E0888F9B8D8C8D981305C0E889F98902
:1002E000808185FD26C0F62E0B8D10E00F5F1F4F1D
:1002F0000F731127E02E8C8DE8120CC00FB607FC8F
:10030000FACFE889F989808185FFF5CFCE010E9477
:100310003F01F1CF8B8DFE01E80FF11DE35AFF4F36
:10032000F0829FB7F8940B8FEA89FB898081806205
:100330000AC09FB7F894EE89FF896083E889F9893C
:1003400080818370806480839FBF81E090E0DF9133
:10035000CF911F910F91FF90EF900895CF93DF936E
:10036000EC01888D8823C9F0EA89FB89808185FDAD
:1003700005C0A889B9898C9186FD0FC00FB607FC0E
:10038000F5CF808185FFF2CFA889B9898C9185FF4F
:10039000EDCFCE010E943F01E7CFDF91CF910895CD
:1003A00080E090E0892B29F00E94350181110C94A6
:1003B00000000895089580E090E00895CF93DF93C2
:1003C000EC0160E08E810E947E0661E08E810E94D9
:1003D0007E0660E08E810E947E068BE891E00197A8
:1003E000F1F7DF91CF910895862F642F0C94AD061D
:1003F0000E947917CF93DF93FC01218530E0F9014A
:10040000E250FF4F8491F901EE5EFE4FD491F90165
:10041000E05DFE4FC491CC2379F081110E94550616
:10042000EC2FF0E0EE0FFF1FE651FF4FA591B491C6
:10043000EC91ED2381E009F480E08170DF91CF91B0
:1004400008951F920F920FB60F9211242F933F938E
:100450008F939F93AF93BF938091A9019091AA012D
:10046000A091AB01B091AC013091A80123E0230F22
:100470002D3720F40196A11DB11D05C026E8230FDC
:100480000296A11DB11D2093A8018093A90190930C
:10049000AA01A093AB01B093AC018091AD01909102
:1004A000AE01A091AF01B091B0010196A11DB11DA7
:1004B0008093AD019093AE01A093AF01B093B001D2
:1004C000BF91AF919F918F913F912F910F900FBE50
:1004D0000F901F9018951F920F920FB60F92112434
:1004E0002F933F934F935F936F937F938F939F933C
:1004F000AF93BF93EF93FF938091B4019091B501B7
:10050000A091B601B091B701892B8A2B8B2B59F1A1
:100510009091B101E091B201F091B30180818927FE
:1005200080838091B4019091B501A091B601B09102
:10053000B701181619061A061B060CF03DC080916B
:10054000B4019091B501A091B601B091B7010197A6
:10055000A109B1098093B4019093B501A093B601AC
:10056000B093B70129C080910C01E4E4F1E0E4917B
:100570009FEF90930C01E130B9F098F0E230C9F4AC
:10058000909170009D7F9093700091E09093B000E7
:100590009091B100987F94609093B1001092B30055
:1005A00008C010926E0005C090916F009D7F9093DF
:1005B0006F0060E00E947E06FF91EF91BF91AF91C6
:1005C0009F918F917F916F915F914F913F912F916B
:1005D0000F900FBE0F901F9018956115710579F05F
:1005E000FB0101900020E9F73197AF01461B570B43
:1005F000DC01ED91FC910280F381E02D099480E013
:1006000090E008958F929F92AF92BF92EF92FF92E7
:100610000F931F93CF93DF93CDB7DEB7A1970FB69C
:10062000F894DEBF0FBECDBF7C01FA01CB0119A249
:10063000223008F42AE08E010F5D1F4F822E912C8C
:10064000A12CB12CBF01A50194010E941F12F90138
:10065000CA01015011096A3014F4605D01C0695C7F
:10066000D8016C93232B242B252B61F7B801C701EC
:100670000E94ED02A1960FB6F894DEBF0FBECDBF6B
:10068000DF91CF911F910F91FF90EF90BF90AF90AE
:100690009F908F9008950C94ED028F929F92AF924D
:1006A000BF92CF92DF92EF92FF920F931F93CF935F
:1006B000DF9322E1289FE001299FD00D11240091B2
:1006C0005502109156020C0F1D1FD80118968C91DF
:1006D00080FF26C00E94210A4B015C01E0910001CD
:1006E000F0910101C0908C01D0908D01E0908E01BD
:1006F000F0908F01DF01A70196010E946B12D801D3
:100700001A960D911D912D913C911D97801A910A79
:10071000A20AB30A86169706A806B90608F053C0BF
:10072000912C88EEC82E83E0D82EE12CF12C90E598
:10073000A92EB12C00915502109156020C0F1D1FCD
:10074000F801808580FF15C00E94210AD8011A9601
:100750000D911D912D913C911D97DC01CB01801BCA
:10076000910BA20BB30BC816D906EA06FB0608F4D8
:1007700065C0B4E1AB1AB108E8EECE0EE3E0DE1ED0
:10078000E11CF11CF8E8CF16F3E1DF06E104F10407
:1007900089F68091550290915602C80FD91F88851D
:1007A00080FD51C082FF4FC010928C0110928D01CC
:1007B00010928E0110928F0184E690E090930101D7
:1007C0008093000140C08FEFC81AD80AE80AF80ADF
:1007D000C0928C01D0928D01E0928E01F0928F0137
:1007E000BF0188EB91E00E941D0567E771E088EB8F
:1007F00091E00E944B0300915502109156020C0F9C
:100800001D1F0E94210AD8011A960D911D912D914C
:100810003C911D97AB01BC01401B510B620B730B4C
:100820002AE088EB91E00E94020369E471E088EB22
:1008300091E00E944B039924939473CFB0920101ED
:10084000A092000196CF892DDF91CF911F910F913A
:10085000FF90EF90DF90CF90BF90AF909F908F90E0
:1008600008951F920F920FB60F9211242F933F936A
:100870004F935F936F937F938F939F93AF93BF93A8
:10088000EF93FF9388EB91E00E943F01FF91EF917E
:10089000BF91AF919F918F917F916F915F914F9198
:1008A0003F912F910F900FBE0F901F9018951F92A0
:1008B0000F920FB60F9211242F938F939F93EF9364
:1008C000FF93E091C801F091C9018081E091CE01D0
:1008D000F091CF0182FD12C090818091D1018F5F94
:1008E0008F732091D201821751F0E091D101F0E095
:1008F000E854FE4F958F8093D10101C08081FF9114
:10090000EF919F918F912F910F900FBE0F901F909D
:100910001895CF92DF92EF92FF920F931F93CF9390
:10092000DF936C017C0187E0E80EF11CC0E0D0E0B1
:10093000062F10E0B8010C2E02C0759567950A9439
:10094000E2F76170F70181917F010E947E06219696
:10095000C430D10579F7C601DF91CF911F910F9176
:10096000FF90EF90DF90CF900C94DE01CF92DF925A
:10097000EF92FF920F931F93CF93DF93EC01F62E2C
:10098000642F8C810E947E068D818F3F19F060E07C
:100990000E947E068F850F2D10E084FF25C06E011A
:1009A00087E0C80ED11CE12CF12CB8010E2C02C03E
:1009B000759567950A94E2F76170F60181916F0170
:1009C0000E947E06FFEFEF1AFF0A88E0E816F104A6
:1009D00061F7CE01DF91CF911F910F91FF90EF90C2
:1009E000DF90CF900C94DE01B80184E07595679597
:1009F0008A95E1F7CE010E9489046F2DCE01DF9127
:100A0000CF911F910F91FF90EF90DF90CF900C94BA
:100A1000890441E00E94B60481E090E0089540E03E
:100A2000682F87E592E00C94B60481E00E940F05E0
:100A30008BE39FE10197F1F70895CF92DF92EF9258
:100A4000FF920F931F93CF93DF936B01770FEE0805
:100A5000FF08F7FE1FC0EC01E881F9810190F081E9
:100A6000E02D6DE209958C0144275527BA014C19F8
:100A70005D096E097F092AE0CE010E940203800F02
:100A8000911FDF91CF911F910F91FF90EF90DF9019
:100A9000CF9008952AE0B701A601DF91CF911F9171
:100AA0000F91FF90EF90DF90CF900C9402038F9204
:100AB0009F92AF92BF92CF92DF92EF92FF920F93ED
:100AC0001F93CF93DF936B017C01142F9B01AC012B
:100AD0000E946E15882319F06FE771E027C0460168
:100AE0005701E894B7F82FEF3FEF4FE75FE7C501F5
:100AF000B4010E946E1581110DC02FEF3FEF4FE73B
:100B00005FE7C501B4010E94F51218161CF463E8F2
:100B100071E00CC02FEF3FEF4FE75FE4C701B60174
:100B20000E945414181694F467E871E087E592E087
:100B3000DF91CF911F910F91FF90EF90DF90CF90B9
:100B4000BF90AF909F908F900C94ED022FEF3FEFEE
:100B50004FE75FECC701B6010E94F51287FDE4CFB5
:100B600020E030E0A901C701B6010E94F51287FF1D
:100B70000DC041E06DE287E592E00E94B604F7FA0D
:100B8000F094F7F8F094C1E0D0E002C0C0E0D0E00B
:100B900000E060E070E080E09FE3011740F420E0B7
:100BA00030E040E251E40E94FA120F5FF6CFA70155
:100BB00096010E9489126B017C010E9473134B0104
:100BC0005C012AE0AB01BC0187E592E00E940203D0
:100BD000C80FD91F1123C9F1C501B4010E94A21386
:100BE0009B01AC01C701B6010E9488126B017C0118
:100BF00041E06EE287E592E00E94B604219620E093
:100C000030E040E251E4C701B6010E94B1144B014B
:100C10005C010E9473136B01E12CF12C2AE0B701F7
:100C2000A60187E592E00E940203C80FD91FC70101
:100C3000B6010E94A2139B01AC01C501B4010E9440
:100C400088126B017C011150D1F6CE01DF91CF915A
:100C50001F910F91FF90EF90DF90CF90BF90AF90DA
:100C60009F908F900895843008F083E090916A02FD
:100C7000891710F08FEF890FE82FF0E0E95AFD4F48
:100C8000848980680C940F05482F50E060E070E084
:100C90002AE087E592E00C940203FC0190859570B0
:100CA00081E0953009F080E00895833081F028F4E8
:100CB000813099F08230A1F008958730A9F0883012
:100CC000B9F08430D1F4809180008F7D03C0809191
:100CD00080008F7780938000089584B58F7702C05D
:100CE00084B58F7D84BD08958091B0008F7703C057
:100CF0008091B0008F7D8093B00008951F93CF93B3
:100D0000DF93282F30E0F901E250FF4F8491F90181
:100D1000EE5EFE4FD491F901E05DFE4FC491CC230D
:100D2000C1F0162F81110E945506EC2FF0E0EE0F56
:100D3000FF1FEA5DFE4FA591B4919FB7F894111182
:100D400004C08C91D095D82302C0EC91DE2BDC93AB
:100D50009FBFDF91CF911F910895CF93DF9390E0D4
:100D6000FC01EE5EFE4F2491FC01E05DFE4F84919C
:100D7000882361F190E0880F991FFC01EC50FF4F30
:100D8000C591D491FC01EA5DFE4FA591B49161112A
:100D900009C09FB7F8948881209582238883EC91BD
:100DA0002E230BC0623061F49FB7F8948881322FF4
:100DB000309583238883EC912E2B2C939FBF06C004
:100DC0008FB7F894E8812E2B28838FBFDF91CF91C6
:100DD0000895CF93DF93823028F090916602986057
:100DE0009093660280936A0210926B0280E4809373
:100DF0006C0280E180936D0280E580936E0261E079
:100E000080915B020E94AD0680915C028F3F19F0D9
:100E100061E00E94AD0661E080915D020E94AD0636
:100E2000C7E5D2E09E01275532408091660284FDDD
:100E300003C084E090E002C088E090E0219628178B
:100E400039072CF461E08E810E94AD06EBCF8BE375
:100E50009DE00197F1F760E080915B020E947E06C1
:100E600060E080915D020E947E0680915C028F3F6F
:100E700019F060E00E947E068091660284FD20C029
:100E800063E087E592E00E948904CBE4D6E4CE01DA
:100E90000197F1F763E087E592E00E9489042197CA
:100EA000F1F763E087E592E00E94890483E592E030
:100EB0000197F1F762E087E592E00E94890415C08E
:100EC00080620E940F058BE496E40197F1F7809110
:100ED000660280620E940F0583E592E00197F1F7B8
:100EE0008091660280620E940F0580916602806296
:100EF0000E940F0584E0809367028CE00E940F053A
:100F00000E94150582E08093680286E0DF91CF9110
:100F10000C940F054F925F926F927F928F929F92E7
:100F2000AF92BF92CF92DF92EF92FF920F931F93F7
:100F3000CF93DF9300D000D01F92CDB7DEB78C01E6
:100F40002A013B0180910C01833121F08F3F09F090
:100F50003DC205C0E4E4F1E024912D8372C083E139
:100F600080930C01E4E4F1E084918D838F3F09F4D8
:100F70002DC2813009F441C038F1823009F061C0DE
:100F80001092B0001092B1008091B0008260809306
:100F9000B0008091B10081608093B100E3E4F1E0A2
:100FA000E491F0E0EE0FFF1FEA5DFE4F8591949112
:100FB0009093B3018093B201E5E2F1E0E491E09314
:100FC000B10122E02D83FDC114BC15BC84B5826043
:100FD00084BD85B5816085BDE3E4F1E0E491F0E096
:100FE000EE0FFF1FEA5DFE4F85919491E5E2F1E07F
:100FF000E491E09370021D82E4C11092800010928F
:1010000081008091810088608093810080918100BF
:10101000816080938100E3E4F1E0E491F0E0EE0F81
:10102000FF1FEA5DFE4F85919491E5E2F1E0E491C6
:10103000E0936F0261E083E10E94AD0691E09D8341
:101040008AC08D8187FDC2C161E083E10E94AD0647
:101050008D818D7F09F07FC04801A12CB12C60E00B
:1010600072E18AE790E0A50194010E944112298370
:101070003A834B835C8369017A0191E0C91AD108F4
:10108000E108F1082FEFC216D104E104F10409F0E0
:1010900008F44EC060E472E48FE090E0A501940192
:1010A0000E94411269017A0181E0C81AD108E10861
:1010B000F1089D81923009F52FEFC216D104E104A9
:1010C000F10409F008F444C160E970ED83E090E0B8
:1010D000A50194010E94411269017A0181E0C81AB8
:1010E000D108E108F1089FEFC916D104E104F10429
:1010F00011F008F0BAC083E027C02FEFC216D10468
:10110000E104F104B9F0B0F068E478EE81E090E039
:10111000A50194010E94411269017A0181E0C81A77
:10112000D108E108F1089D81992309F413C1DCC0BD
:1011300081E001C082E09D81911106C095B5987F44
:10114000892B85BD44C085E09091B100987F892BA3
:101150008093B1003CC04801A12CB12C60E072E149
:101160008AE790E0A50194010E94411269017A0189
:1011700081E0C81AD108E108F108C114D10491E056
:10118000E906F10488F068E478EE81E090E0A501DA
:1011900094010E94411269017A0181E0C81AD108C4
:1011A000E108F10883E001C081E09D81913079F48C
:1011B00090918100987F892B809381004114510484
:1011C0006104710449F42FEF3FEFA9012CC04114D1
:1011D00051046104710471F0D801AA0FBB1FA3016F
:1011E00092010E94601228EE33E040E050E00E943D
:1011F0001F1203C02FEF3FEFA9018D81813099F0BD
:10120000823019F18111E2C0C7BC2093750230937E
:101210007602409377025093780280916E0082604C
:1012200080936E00D3C0D0928900C0928800209332
:101230007102309372024093730250937402809152
:101240006F00826080936F00C1C0C092B300209392
:10125000B4013093B5014093B6015093B70180912A
:101260007000826080937000B1C068E478EE81E025
:1012700090E0A50194010E94411269017A0191E078
:10128000C91AD108E108F1082FEFC216D104E10410
:10129000F10441F138F164E274EF80E090E0A501DF
:1012A00094010E94411269017A0181E0C81AD108B3
:1012B000E108F1089FEFC916D104E104F10409F037
:1012C00008F441CF62E17AE780E090E0A501940163
:1012D0000E94411269017A0181E0C81AD108E1082F
:1012E000F10819C084E030CF2FEFC216D104E10419
:1012F000F10409F008F463C062E17AE780E090E06D
:10130000A50194010E94411269017A0191E0C91A74
:10131000D108E108F1088FEFC816D104E104F10407
:10132000A9F0A0F089819A81AB81BC812AE0B595B2
:10133000A795979587952A95D1F76C017D0121E0B6
:10134000C21AD108E108F10887E0FECE86E0FCCEA3
:1013500082E0FACE8FEFC816D104E104F10469F1FE
:1013600060F162E17AE780E090E0A50194010E94DB
:10137000411269017A0191E0C91AD108E108F10826
:101380002FEFC216D104E104F104A9F0A0F0898185
:101390009A81AB81BC813AE0B595A79597958795E1
:1013A0003A95D1F76C017D0121E0C21AD108E1081C
:1013B000F10885E0C3CE84E0C1CE83E0BFCE84E0F7
:1013C000BACE61E083E10E94AD0646CE0F900F9049
:1013D0000F900F900F90DF91CF911F910F91FF9081
:1013E000EF90DF90CF90BF90AF909F908F907F90C5
:1013F0006F905F904F9008953FB7F8948091AD0142
:101400009091AE01A091AF01B091B00126B5A89B1B
:1014100005C02F3F19F00196A11DB11D3FBFBA2F86
:10142000A92F982F8827820F911DA11DB11DBC01E6
:10143000CD0142E0660F771F881F991F4A95D1F7AB
:1014400008952FB7F8946091A9017091AA01809135
:10145000AB019091AC012FBF0895CF93DF93CDB72F
:10146000DEB764970FB6F894DEBF0FBECDBF789499
:1014700084B5826084BD84B5816084BD85B5826099
:1014800085BD85B5816085BD80916E00816080934A
:101490006E001092810080918100826080938100B3
:1014A00080918100816080938100809180008160C3
:1014B000809380008091B10084608093B10080911E
:1014C000B00081608093B00080917A008460809346
:1014D0007A0080917A00826080937A0080917A000D
:1014E000816080937A0080917A00806880937A008E
:1014F0001092C10080E1E3E1F1E0DE01119601907C
:101500000D928A95E1F761E08DE00E94AD0661E001
:1015100083E10E94AD0660E085E00E94AD0660E0D8
:1015200086E00E94AD0660E084E00E94AD0660E0C7
:1015300082E00E94AD0660E083E00E94AD0660E0BC
:101540008EE00E94AD0660E08FE00E94AD0660E094
:1015500080E10E94AD06CE0101967C01C12CD12C08
:1015600038E2A32EB12CD7019C9011967C91B2E069
:10157000EB0EF11C00915502109156020C0D1D1D31
:10158000D801ED91FC910280F381E02D40E050E024
:10159000692DC8010995F801918610860190F081A6
:1015A000E02D0190F081E02DC8010995882339F0E4
:1015B000D80118968C911897836018968C930E9486
:1015C000210AF8016283738384839583E091550235
:1015D000F0915602EC0DFD1DB782A682F2E1CF0E0E
:1015E000D11C20E9C216D10409F0BDCF82E00E94CF
:1015F000E9066BE471E087E592E00E944B030E94EC
:10160000FC094B015C0120EDC22E27E0D22EE12C1B
:10161000F12C0E94FC09DC01CB0188199909AA0967
:10162000BB09883E9340A105B10598F381E0C81A33
:10163000D108E108F10898EE890E93E0991EA11CEB
:10164000B11CC114D104E104F10419F70E9415057D
:10165000E091C801F091C90182E08083E091C4016A
:10166000F091C5011082E091C601F091C7018FECA5
:1016700080831092D001E091CC01F091CD0186E001
:101680008083E091CA01F091CB01808180618083E9
:10169000E091CA01F091CB01808188608083E09164
:1016A000CA01F091CB01808180688083E091CA01FA
:1016B000F091CB0180818F7D808392E0292E01E023
:1016C000C12CD12CE0905502F0905602EC0CFD1C80
:1016D000D70118968C9118978B7F18968C93189732
:1016E000ED91FC910190F081E02DC7010995182F33
:1016F000F701808586958170181781F00E94210A74
:10170000D70112966D937D938D939C9315971896A0
:101710008C911897822518968C9347C00E94210AB5
:10172000F70182809380A480B580AB01BC01481989
:1017300059096A097B0986819781A0E0B0E04817C2
:1017400059076A077B0788F180858170181769F14E
:101750000E94210AD70112966D937D938D939C93DD
:10176000159718968C91B1E08B278460F7018087DC
:101770000E94210AD7011A968D909D90AD90BC9041
:101780001D97DC01CB0188199909AA09BB09F7014A
:1017900086879787A08BB18B0E94210AD7011A9662
:1017A0006D937D938D939C931D978091550290919D
:1017B00056028C0D9D1D0E944D0681110E9415053B
:1017C000B2E1CB0ED11CE0E9CE16D10409F07ACFFC
:1017D0008091A701813009F43CC320F0823009F4E4
:1017E00050C303C42091550230915602F901EA57C3
:1017F000FF4F808181707297908190FD04C0882393
:1018000031F012E007C0882321F013E003C010E09C
:1018100001C011E01093A60160E08DE00E947E06F9
:10182000E0905502F0905602C701885B9F4F0E94DE
:101830004D06882319F00093A70109C0F701EE595E
:10184000FF4F808180FF03C0F2E0F093A7018091F9
:10185000A701882301F18091A2019091A301A09199
:10186000A401B091A50180939E0190939F01A09344
:10187000A001B093A1010E94210ADC01CB010A96CC
:10188000A11DB11D80939A0190939B01A0939C018F
:10189000B0939D01C7C3123009F45DC0133009F441
:1018A0007EC01130E1F08091080190910901A09172
:1018B0000A01B0910B018093A2019093A301A09320
:1018C000A401B093A501123009F451C1133009F4F9
:1018D000A2C1113009F40DC1E12CF12CE1C06091DD
:1018E000980170919901072E000C880B990B0E94AA
:1018F000A4136B017C016091070170E080E090E02F
:101900000E94A4139B01AC01C701B6010E94FA1208
:101910009B01AC0160E070E080E090E40E941E1545
:101920006B017C01609108017091090180910A01AD
:1019300090910B010E94A213A70196010E94B1147D
:101940000E9473136093A2017093A3018093A4017A
:101950009093A501CEC0A091060120910201309183
:1019600003014091040150910501B0E00E94601212
:10197000C0900801D0900901E0900A01F0900B019D
:10198000DC01CB018C0D9D1DAE1DBF1D8093A201FE
:101990009093A301A093A401B093A501E8C0609126
:1019A000060170E080E090E00E94A4136B017C01CE
:1019B0006091070170E080E090E00E94A4139B0119
:1019C000AC01C701B6010E94FA129B01AC0160E0B4
:1019D00070E080E090E40E941E156B017C01609134
:1019E00008017091090180910A0190910B010E94F8
:1019F000A213A70196010E94B1140E947313609371
:101A0000A2017093A3018093A4019093A50103C147
:101A1000609108017091090180910A0190910B0178
:101A20000E94A2134B015C0122E0E216F104F4F5DE
:101A3000B7016E5F7F4F072E000C880B990B0E9439
:101A4000A4139B01AC0160E070E080E291E40E948D
:101A50001E1590589B01AC01C501B4010E9489126A
:101A60004B015C0120E030E0A9010E94F51287FFE4
:101A70002DC0812C912C5401C501B4010E94731317
:101A8000609308017093090180930A0190930B0100
:101A90008FEFE81AF80A94E0E916F10409F4F7C0A8
:101AA000C7010E944D03882399F3B2CFB7010F2CD1
:101AB000000C880B990B0E94A4139B01AC0160E001
:101AC00070E080E291E40E941E15C4CF20E034E271
:101AD00044E759E4C501B4010E94541487FDCCCFFA
:101AE00080EF882E83E2982E84E7A82E89E4B82E12
:101AF000C3CF80E090E00E944D03882369F080917D
:101B00000701282F30E0223031051CF40093070133
:101B100003C081508093070182E090E00E944D0352
:101B2000882329F0809107018F5F8093070181E06E
:101B300090E00E944D03882349F080919801909194
:101B400099010197909399018093980183E090E027
:101B50000E944D03882309F49AC0809198019091C6
:101B600099010196909399018093980190C080E02B
:101B700090E00E944D03882369F080910601282F90
:101B800030E0223031051CF40093070103C081507E
:101B90008093060182E090E00E944D03882329F0A3
:101BA000809106018F5F8093060181E090E00E94A2
:101BB0004D038823A1F08091020190910301A0912F
:101BC0000401B091050184569109A109B1098093DE
:101BD000020190930301A0930401B093050183E0F7
:101BE00090E00E944D03882309F451C080910201C6
:101BF00090910301A0910401B09105018C599F4F70
:101C0000AF4FBF4F8093020190930301A093040153
:101C1000B09305013CC080E090E00E944D03882312
:101C200069F080910601282F30E0223031051CF444
:101C30000093070103C081508093060182E090E089
:101C40000E944D03882329F0809106018F5F8093C5
:101C5000060181E090E00E944D03882369F08091A5
:101C60000701282F30E0223031051CF400930701D2
:101C700003C081508093070183E090E00E944D03F0
:101C8000882329F0809107018F5F8093070180E00E
:101C90000E94330667E571E087E592E00E944B03FE
:101CA00081E00E9433068091A601813009F445C08D
:101CB00088F1823009F48EC0833009F096C16091BA
:101CC00008017091090180910A0190910B010E9415
:101CD000A21320E030E04AE754E40E94FA1241E007
:101CE00050E00E94570561E671E087E592E00E94AE
:101CF0004B03809106010E94440669E671E087E586
:101D000092E00E944B03809107010E94440667E61F
:101D100071E09AC06091A2017091A3018091A40129
:101D20009091A5010E94A21320E030E04AE754E41C
:101D30000E94FA1241E050E04AC06091080170919F
:101D4000090180910A0190910B010E94A21320E0E9
:101D500030E04AE754E40E94FA1241E050E00E9469
:101D60005705809198019091990197FD06C06DE506
:101D700071E087E592E00E944B03609198017091B9
:101D8000990187E592E00E941D056BE671E087E509
:101D900092E00E944B03809107010E9444066FE588
:101DA00071E087E592E00E944B036091A20170917F
:101DB000A3018091A4019091A5010E94A21320E0AB
:101DC00030E04AE754E40E94FA1242E050E00E94F8
:101DD00057050BC1609108017091090180910A01BA
:101DE00090910B010E94A21320E030E04AE754E4F6
:101DF0000E94FA1241E050E00E94570561E671E04E
:101E000087E592E00E944B03809106010E94440600
:101E100064E671E087E592E00E944B036091020165
:101E20007091030180910401909105010E94A21319
:101E300020E030E04AE754E40E94FA1241E050E02A
:101E40000E94570566E671E087E592E00E944B0329
:101E5000CCC08091550290915602885B9F4F0E94A2
:101E60004D068111C5C080919E0190919F01A09166
:101E7000A001B091A1010B97A105B10508F4B8C06C
:101E8000D4C0E0915502F0915602EE59FF4F808187
:101E900080FD1BC01092A70110929A0110929B0125
:101EA00010929C0110929D01109294011092950144
:101EB0001092960110929701109290011092910148
:101EC0001092920110929301ADC061E08DE00E94EA
:101ED0007E06C0909401D0909501E0909601F0901C
:101EE000970180909A0190909B01A0909C01B090E6
:101EF0009D010E94210A2B013C01A8EEB3E0A7013D
:101F000096010E946012860E971EA81EB91E4814E4
:101F100059046A047B0468F044E650E060E070E035
:101F20008BED93E00E948A07FFEFCF1ADF0AEF0ADA
:101F3000FF0AC0929401D0929501E0929601F0922E
:101F4000970180E00E94330669E771E087E592E03F
:101F50000E944B030E94210A4B015C01C0909A0130
:101F6000D0909B01E0909C01F0909D012091900108
:101F7000309191014091920150919301A4E6B0E01B
:101F80000E946012DC01CB018C0D9D1DAE1DBF1D9A
:101F900088169906AA06BB0640F181E00E94330626
:101FA0000E94210A6C197D098E099F090E94A213C3
:101FB00020E030E04AE754E40E94FA1241E050E0A9
:101FC0000E9457058091900190919101A0919201FA
:101FD000B09193010196A11DB11D80939001909342
:101FE0009101A0939201B09393010E94D00168CB1C
:101FF0001092A701109294011092950110929601EF
:102000001092970110929E0110929F011092A001D0
:102010001092A10110929A0110929B0110929C01C2
:1020200010929D010E941505E0CF61E08DE00E94B5
:102030007E0680919A0190919B01A0919C01B091A4
:102040009D01898B9A8BAB8BBC8B8090A201909069
:10205000A301A090A401B090A501880E991EAA1E0C
:10206000BB1E0E94210A861A970AA80AB90A809202
:102070009E0190929F01A092A001B092A1011091A7
:10208000A6011230A8F58090940190909501A0903F
:102090009601B09097010E94210A2B013C01A8EE05
:1020A000B3E0A50194010E946012C988DA88EB8828
:1020B000FC88C60ED71EE81EF91E4C145D046E0483
:1020C0007F0468F044E650E060E070E08BED93E060
:1020D0000E948A07AFEF8A1A9A0AAA0ABA0A80925D
:1020E000940190929501A0929601B092970189C0B7
:1020F000143008F086C030900701C0909401D09051
:102100009501E0909601F09097016091080170911F
:10211000090180910A0190910B010E94A2134B01C9
:102120005C01609102017091030180910401909122
:102130000501123009F0D5C00E94A2132B013C0109
:10214000C701B6010E94A2139B01AC01C301B201F9
:102150000E94B114A50194010E9489124B015C01F7
:102160000E94210A0E94A2132B013C0169897A89ED
:102170008B899C896A5F7109810991090E94A21368
:10218000A50194010E9489129B01AC01C301B20117
:102190000E94541487FD08C046E950E060E070E0FA
:1021A00083E992E00E948A070E94210A0E94A213FA
:1021B0002B013C0169897A898B899C890E94A21331
:1021C000A50194010E9489129B01AC01C301B201D7
:1021D0000E94541487FD0DC044E650E060E070E0BA
:1021E00080E793E00E948A07BFEFCB1ADB0AEB0A75
:1021F000FB0AC0929401D0929501E0929601F09270
:10220000970180E00E9433066DE671E087E592E079
:102210000E944B0381E00E9433068091A601823028
:10222000E8F0409194015091950160919601709170
:1022300097012AE087E592E00E9402036BE671E0D5
:1022400087E592E00E944B03809106010E944406BC
:1022500066E771E087E592E00E944B0360919E0182
:1022600070919F018091A0019091A1010E94A21301
:1022700020E030E04AE754E40E94FA1241E050E0E6
:102280000E94570580909E0190909F01A090A00110
:10229000B090A101C501B4010E94A2130E9459147B
:1022A0006B017C01C501B4016C597F4F8F4F9F4F6B
:1022B0000E94A2130E9459144B015C01C701B60190
:1022C0000E946C137B01EFEFEE1AFE0AC501B40108
:1022D0000E946C136F5F7F4FE616F70609F0A2CEDF
:1022E00084CEC701B6010E94A2132B013C01632DCD
:1022F00070E080E090E00E94A4139B01AC01C30158
:10230000B2010E94FA129B01AC0160E070E080E033
:1023100090E40E941E159B01AC01C501B4010E940E
:10232000B1141CCF1092BB011092BA0188EE93E059
:10233000A0E0B0E08093BC019093BD01A093BE01EA
:10234000B093BF0187E291E09093B9018093B80107
:1023500085EC90E09093C5018093C40184EC90E0FB
:102360009093C7018093C60180EC90E09093C901DF
:102370008093C80181EC90E09093CB018093CA01D7
:1023800082EC90E09093CD018093CC0186EC90E0BC
:102390009093CF018093CE011092D1011092D2017F
:1023A0001092D3011092D40110925A021092590245
:1023B00081E491E0909358028093570287E08093E4
:1023C0005B028FEF80935C0288E080935D0289E07E
:1023D00080935E028AE080935F028BE080936002CC
:1023E0008CE080936102109262021092630210925C
:1023F0006402109265021092660281E00E94E90672
:1024000080E990E00E945816FC019C0120573F4F44
:1024100069E371E04AE050E07183608312821382C5
:102420001482158257834683108611867296E217AE
:10243000F30791F790935602809355020895A1E215
:102440001A2EAA1BBB1BFD010DC0AA1FBB1FEE1F2E
:10245000FF1FA217B307E407F50720F0A21BB30B79
:10246000E40BF50B661F771F881F991F1A9469F7F5
:1024700060957095809590959B01AC01BD01CF0151
:102480000895052E97FB1EF400940E94581257FDE4
:1024900007D00E941F1207FC03D04EF40C94581270
:1024A00050954095309521953F4F4F4F5F4F089580
:1024B00090958095709561957F4F8F4F9F4F0895B0
:1024C0000E947912A59F900DB49F900DA49F800D3E
:1024D000911D11240895B7FF0C9460120E946012A0
:1024E000821B930B0895EE0FFF1F0590F491E02DD2
:1024F0000994A29FB001B39FC001A39F700D811DDD
:102500001124911DB29F700D811D1124911D0895FC
:102510005058BB27AA270E94A0120C941A140E949C
:102520000C1438F00E94131420F039F49F3F19F472
:1025300026F40C9409140EF4E095E7FB0C940314B4
:10254000E92F0E942B1458F3BA1762077307840708
:10255000950720F079F4A6F50C944D140EF4E0954F
:102560000B2EBA2FA02D0B01B90190010C01CA014D
:10257000A0011124FF27591B99F0593F50F4503EF8
:1025800068F11A16F040A22F232F342F4427585FEA
:10259000F3CF469537952795A795F0405395C9F702
:1025A0007EF41F16BA0B620B730B840BBAF09150BA
:1025B000A1F0FF0FBB1F661F771F881FC2F70EC059
:1025C000BA0F621F731F841F48F48795779567952C
:1025D000B795F7959E3F08F0B0CF9395880F08F018
:1025E0009927EE0F9795879508950E94DF1308F4B9
:1025F00081E008950E940E130C941A140E94131483
:1026000058F00E940C1440F029F45F3F29F00C941C
:10261000031451110C944E140C9409140E942B14A1
:1026200068F39923B1F3552391F3951B550BBB2701
:10263000AA2762177307840738F09F5F5F4F220F46
:10264000331F441FAA1FA9F335D00E2E3AF0E0E83D
:1026500032D091505040E695001CCAF72BD0FE2F87
:1026600029D0660F771F881FBB1F2617370748071B
:10267000AB07B0E809F0BB0B802DBF01FF279358D3
:102680005F4F3AF09E3F510578F00C9403140C9480
:102690004E145F3FE4F3983ED4F3869577956795A3
:1026A000B795F7959F5FC9F7880F911D9695879508
:1026B00097F90895E1E0660F771F881FBB1F621727
:1026C00073078407BA0720F0621B730B840BBA0BE5
:1026D000EE1F88F7E09508950E9473136894B11176
:1026E0000C944E1408950E94331488F09F5798F06C
:1026F000B92F9927B751B0F0E1F0660F771F881F07
:10270000991F1AF0BA95C9F714C0B13091F00E9420
:102710004D14B1E008950C944D14672F782F88273D
:10272000B85F39F0B93FCCF3869577956795B39547
:10273000D9F73EF490958095709561957F4F8F4FB6
:102740009F4F0895E89409C097FB3EF490958095BB
:10275000709561957F4F8F4F9F4F9923A9F0F92F67
:1027600096E9BB279395F695879577956795B795E5
:10277000F111F8CFFAF4BB0F11F460FF1BC06F5FCB
:102780007F4F8F4F9F4F16C0882311F096E911C0DD
:10279000772321F09EE8872F762F05C0662371F0FE
:1027A00096E8862F70E060E02AF09A95660F771F12
:1027B000881FDAF7880F9695879597F90895990FEE
:1027C0000008550FAA0BE0E8FEEF16161706E807FB
:1027D000F907C0F012161306E407F50798F0621B1C
:1027E000730B840B950B39F40A2661F0232B242BF1
:1027F000252B21F408950A2609F4A140A6958FEF10
:10280000811D811D089597F99F6780E870E060E061
:1028100008959FEF80EC089500240A941616170679
:1028200018060906089500240A94121613061406C1
:1028300005060895092E0394000C11F4882352F024
:10284000BB0F40F4BF2B11F460FF04C06F5F7F4FDC
:102850008F4F9F4F089557FD9058440F551F59F0C3
:102860005F3F71F04795880F97FB991F61F09F3F7D
:1028700079F087950895121613061406551FF2CFA6
:102880004695F1DF08C0161617061806991FF1CFF6
:1028900086957105610508940895E894BB2766271D
:1028A0007727CB0197F908950E94DF1308F48FEF83
:1028B00008950E94691429ED3BE54EED5EE30C940A
:1028C000B11416F00C94AD150C94091468940C9482
:1028D00003140E943314A8F39923C1F3AEF3DF93DA
:1028E000CF931F930F93FF92C92FDD2788232AF0E0
:1028F0002197660F771F881FDAF720E030E040E865
:102900005FEB9FE3883920F0803E38F021968F7787
:102910000E948912E8E6F0E004C00E948912E5E90D
:10292000F0E00E94BB158B01BE01EC01FB2E6F573E
:1029300071097595771F880B990B0E94A41328E1E4
:1029400032E741E35FE30E94C414AF2D9801AE016A
:10295000FF900F911F91CF91DF910E94A0120C94D4
:102960001A140E94C4140C941A140E940C1438F007
:102970000E94131420F0952311F00C9403140C946E
:10298000091411240C944E140E942B1470F3959F7B
:10299000C1F3950F50E0551F629FF001729FBB2756
:1029A000F00DB11D639FAA27F00DB11DAA1F649FF2
:1029B0006627B00DA11D661F829F2227B00DA11DA5
:1029C000621F739FB00DA11D621F839FA00D611D2B
:1029D000221F749F3327A00D611D231F849F600D4C
:1029E000211D822F762F6A2F11249F5750409AF075
:1029F000F1F088234AF0EE0FFF1FBB1F661F771F01
:102A0000881F91505040A9F79E3F510580F00C94CB
:102A100003140C944E145F3FE4F3983ED4F3869570
:102A200077956795B795F795E7959F5FC1F7FE2B6B
:102A3000880F911D9695879597F90895FA01EE0FE5
:102A4000FF1F309621053105A1F16115710561F473
:102A50008038BFE39B0749F168949038810561F0A5
:102A60008038BFEF9B0741F099234AF5FF3FE1050E
:102A70003105210519F1E8940894E795D901AA23B5
:102A800029F4AB2FBE2FF85FD0F310C0FF5F70F4B6
:102A9000A695E0F7F73950F019F0FF3A38F49F7730
:102AA0009F930DD00F9007FC9058089546F00C941A
:102AB000091460E070E080E89FE308954FE79F7796
:102AC0005F934F933F932F930E9469142F913F91EF
:102AD0004F915F910E94B1140C947B150E94DF13FB
:102AE000880B990B089529F416F00C9403140C9498
:102AF0004D140C9409140E943314A8F39638A0F7CF
:102B000007F80F92E8942BE33AEA48EB5FE70E945C
:102B1000C7140F920F920F924DB75EB70F920E949B
:102B20002416E2ECF0E00E94BB154F915F91EF910B
:102B3000FF91E595EE1FFF1F49F0FE57E06844271F
:102B4000EE0F441FFA95E1F74195550B0E94EE15E3
:102B50000F9007FE0C94E21508959F3F31F09150BD
:102B600020F4879577956795B795880F911D969571
:102B7000879597F90895DF93CF931F930F93FF9253
:102B8000EF92DF927B018C01689406C0DA2EEF0190
:102B90000E94C414FE01E894A591259135914591B8
:102BA0005591A6F3EF010E94A012FE019701A80122
:102BB000DA9469F7DF90EF90FF900F911F91CF911A
:102BC000DF9108959B01AC0160E070E080E89FE335
:102BD0000C94FA120C9403140C94AD150E94331447
:102BE000D8F39923C9F3940F511DA3F3915050408A
:102BF00094F059F0882332F0660F771F881F9150A8
:102C00005040C1F79E3F51052CF7880F911D9695B6
:102C1000879597F908955F3FACF0983E9CF0BB27ED
:102C2000869577956795B79508F4B1609395C1F748
:102C3000BB0F58F711F460FFE8CF6F5F7F4F8F4FE6
:102C40009F4FE3CF0C944E14FA01DC01AA0FBB1F77
:102C50009B01AC01BF5728F4222733274427507823
:102C600020C0B75190F4AB2F002446953795279597
:102C7000011CA395D2F3002071F0220F331F441FD3
:102C8000B395DAF30ED00C94881261307105A0E888
:102C90008A07B94630F49B01AC016627772788275D
:102CA0009078309621F020833183428353830895B6
:102CB0000F931F93CF93DF938230910510F482E03E
:102CC00090E0E0917B02F0917C0220E030E0A0E017
:102CD000B0E0309719F1408151810281138148178A
:102CE0005907C8F08417950769F4109731F01296C8
:102CF0000C93129713961C9327C000937B0210939A
:102D00007C0222C02115310519F04217530718F42F
:102D10009A01BD01EF01DF01F801DBCF211531057B
:102D2000F9F0281B390B2430310580F48A819B810E
:102D30006115710521F0FB019383828304C0909398
:102D40007C0280937B02FE01329644C0FE01E20FBA
:102D5000F31F8193919322503109398328833AC01C
:102D60002091790230917A02232B41F420910F01B6
:102D70003091100130937A022093790220910D0155
:102D800030910E012115310541F42DB73EB7409128
:102D9000110150911201241B350BE0917902F09141
:102DA0007A02E217F307A0F42E1B3F0B281739070E
:102DB00078F0AC014E5F5F4F2417350748F04E0F97
:102DC0005F1F50937A02409379028193919302C0DE
:102DD000E0E0F0E0CF01DF91CF911F910F910895D6
:102DE000CF93DF93009709F481C0FC0132971382DF
:102DF0001282A0917B02B0917C02109781F4208115
:102E00003181820F931F2091790230917A02281725
:102E1000390751F5F0937A02E093790267C0ED012A
:102E200020E030E0CE17DF0740F44A815B819E014D
:102E300041155105F1F0EA01F5CFD383C2834081FA
:102E40005181840F951FC817D90759F4888199813A
:102E5000840F951F0296918380838A819B8193833F
:102E600082832115310529F4F0937C02E0937B02E3
:102E70003DC0E901FB83EA8349915991C40FD51FF5
:102E8000EC17FD0761F480819181840F951F0296F4
:102E9000E90199838883828193819B838A83E0E01F
:102EA000F0E012968D919C911397009719F0FD0117
:102EB000DC01F7CF8D919C9111979D012E5F3F4FC3
:102EC000820F931F2091790230917A0228173907D7
:102ED00069F4309729F410927C0210927B0202C0B0
:102EE00013821282B0937A02A0937902DF91CF917C
:102EF000089581E090E0F8940C947E17F894FFCF49
:102F0000640088130000060310270000FF00007D06
:102F1000022000020003000500060004000E000F5E
:102F2000001000000000006101CE00F800AE012991
:102F30000107011B0100000000FA01F4010000007C
:102F4000000905CE00DB01DA010A007265746567CD
:102F5000652076302E31005345545550002B003DEE
:102F6000002B5B002A00735D002A312F004558506A
:102F70004F5355524500202000464F435553006E95
:0C2F8000616E00696E66006F76660000EE
:00000001FF
