:100000000C94A4000C94CC000C94CC000C94CC0068
:100010000C94CC000C94CC000C94CC000C94DA0220
:100020000C94CC000C94CC000C94CC000C94CC0020
:100030000C94CC000C94CC000C94CC000C94CC0010
:100040000C9490020C94CC000C9482030C945C03EE
:100050000C94CC000C94CC000C94CC000C94CC00F0
:100060000C94CC000C94CC0008000000BE922449F3
:10007000123EABAAAA2ABECDCCCC4C3E00000080DA
:10008000BEABAAAAAA3E00000000BF000000803F4D
:100090000000000000084178D3BB4387D1133D190D
:1000A0000E3CC3BD4282AD2B3E68EC8276BED98F3A
:1000B000E1A93E4C80EFFFBE01C4FF7F3F0000007E
:1000C000000007634236B79BD8A71A39685618AEA6
:1000D000BAAB558C1D3CB7CC5763BD6DEDFD753E7D
:1000E000F6177231BF000000803F000000002300BF
:1000F0002600290000000000240027002A0000003C
:1001000000080002010000030407000000000000D6
:1001100000000102040810204080010204081020A1
:1001200001020408102000000000250028002B0018
:10013000040404040404040402020202020203038D
:10014000030303030200B71011241FBECFEFD8E052
:10015000DEBFCDBF11E0A0E0B1E0EAE3FDE202C006
:1001600005900D92A438B107D9F722E0A4E8B1E0D8
:1001700001C01D92A537B207E1F710E0C4EAD0E054
:1001800004C02197FE010E949011C33AD107C9F71C
:100190000E9469090C949B160C940000CF92DF9288
:1001A000EF92FF920F931F93CF93DF936C017A012D
:1001B0008B01C0E0D0E0CE15DF0581F0D8016D9154
:1001C0008D01D601ED91FC910190F081E02DC601E9
:1001D0000995892B11F02196EECF7E01C701DF91A1
:1001E000CF911F910F91FF90EF90DF90CF900895E6
:1001F000FC01538D448D252F30E0842F90E0821B2D
:10020000930B541710F0CF96089501970895FC01B1
:10021000918D828D981761F0828DDF01A80FB11D3D
:100220005D968C91928D9F5F9F73928F90E0089561
:100230008FEF9FEF0895FC01918D828D981731F01B
:10024000828DE80FF11D858D90E008958FEF9FEF6F
:100250000895FC01918D228D892F90E0805C9F4F45
:10026000821B91098F739927089580EB91E00E947A
:10027000290121E0892B09F420E0822F0895FC0157
:10028000848DDF01A80FB11DA35ABF4F2C91848D1F
:1002900090E001968F739927848FA689B7892C9354
:1002A000A089B1898C91837080648C93938D848DA7
:1002B000981306C00288F389E02D80818F7D8083AA
:1002C0000895EF92FF920F931F93CF93DF93EC016A
:1002D00081E0888F9B8D8C8D981305C0E889F98902
:1002E000808185FD26C0F62E0B8D10E00F5F1F4F1D
:1002F0000F731127E02E8C8DE8120CC00FB607FC8F
:10030000FACFE889F989808185FFF5CFCE010E9477
:100310003F01F1CF8B8DFE01E80FF11DE35AFF4F36
:10032000F0829FB7F8940B8FEA89FB898081806205
:100330000AC09FB7F894EE89FF896083E889F9893C
:1003400080818370806480839FBF81E090E0DF9133
:10035000CF911F910F91FF90EF900895CF93DF936E
:10036000EC01888D8823C9F0EA89FB89808185FDAD
:1003700005C0A889B9898C9186FD0FC00FB607FC0E
:10038000F5CF808185FFF2CFA889B9898C9185FF4F
:10039000EDCFCE010E943F01E7CFDF91CF910895CD
:1003A00080E090E0892B29F00E94350181110C94A6
:1003B00000000895089580E090E008958F929F9244
:1003C000AF92BF92CF92DF92EF92FF920F931F9363
:1003D000CF93DF9322E1289FE001299FD00D1124C4
:1003E00000914D0210914E020C0F1D1FF8019085D7
:1003F00090FF2BC00E945D094B015C01C0908401FD
:10040000D0908501E0908601F0908701A4E6B0E0ED
:10041000A70196010E948511F801028513852485A4
:100420003585801A910AA20AB30A86169706A8068D
:10043000B906B8F480E020914D0230914E02C20F0F
:10044000D31F988590FD1CC001C080E092FF18C0AA
:1004500010928401109285011092860110928701FA
:100460000FC0FFEFCF1ADF0AEF0AFF0AC092840124
:10047000D0928501E0928601F092870181E0DBCF86
:10048000DF91CF911F910F91FF90EF90DF90CF9070
:10049000BF90AF909F908F900895CF93DF93EC0122
:1004A00060E08E810E94BA0561E08E810E94BA05EB
:1004B00060E08E810E94BA058BE891E00197F1F728
:1004C000DF91CF910895862F642F0C94E9050E9447
:1004D0009616CF93DF93FC01218530E0F901E250BD
:1004E000FF4F8491F901EE5EFE4FD491F901E05D7A
:1004F000FE4FC491CC2379F081110E949105EC2F1D
:10050000F0E0EE0FFF1FE651FF4FA591B491EC9183
:10051000ED2381E009F480E08170DF91CF910895AF
:100520001F920F920FB60F9211242F933F938F9328
:100530009F93AF93BF938091A1019091A201A0914D
:10054000A301B091A4013091A00123E0230F2D3726
:1005500020F40196A11DB11D05C026E8230F0296C7
:10056000A11DB11D2093A0018093A1019093A20130
:10057000A093A301B093A4018091A5019091A6013D
:10058000A091A701B091A8010196A11DB11D809372
:10059000A5019093A601A093A701B093A801BF91D4
:1005A000AF919F918F913F912F910F900FBE0F9020
:1005B0001F9018951F920F920FB60F9211242F9330
:1005C0003F934F935F936F937F938F939F93AF93DB
:1005D000BF93EF93FF938091AC019091AD01A091F7
:1005E000AE01B091AF01892B8A2B8B2B59F19091E1
:1005F000A901E091AA01F091AB0180818927808354
:100600008091AC019091AD01A091AE01B091AF018C
:10061000181619061A061B060CF03DC08091AC0195
:100620009091AD01A091AE01B091AF010197A109E8
:10063000B1098093AC019093AD01A093AE01B0934A
:10064000AF0129C080910A01E4E4F1E0E4919FEF59
:1006500090930A01E130B9F098F0E230C9F490913A
:1006600070009D7F9093700091E09093B000909106
:10067000B100987F94609093B1001092B30008C0CD
:1006800010926E0005C090916F009D7F90936F0057
:1006900060E00E94BA05FF91EF91BF91AF919F91E9
:1006A0008F917F916F915F914F913F912F910F901B
:1006B0000FBE0F901F9018951F920F920FB60F92BA
:1006C00011242F933F934F935F936F937F938F9357
:1006D0009F93AF93BF93EF93FF9380EB91E00E94C2
:1006E0003F01FF91EF91BF91AF919F918F917F91CA
:1006F0006F915F914F913F912F910F900FBE0F908F
:100700001F9018951F920F920FB60F9211242F93DE
:100710008F939F93EF93FF93E091C001F091C101FC
:100720008081E091C601F091C70182FD12C09081E5
:100730008091C9018F5F8F732091CA01821751F098
:10074000E091C901F0E0E055FE4F958F8093C9011B
:1007500001C08081FF91EF919F918F912F910F9018
:100760000FBE0F901F901895CF92DF92EF92FF92DD
:100770000F931F93CF93DF936C017C0187E0E80E0A
:10078000F11CC0E0D0E0062F10E0B8010C2E02C032
:10079000759567950A94E2F76170F70181917F0181
:1007A0000E94BA052196C430D10579F7C601DF91C0
:1007B000CF911F910F91FF90EF90DF90CF900C940D
:1007C0004D02CF92DF92EF92FF920F931F93CF9340
:1007D000DF93EC01F62E642F8C810E94BA058D8187
:1007E0008F3F19F060E00E94BA058F850F2D10E051
:1007F00084FF25C06E0187E0C80ED11CE12CF12CCE
:10080000B8010E2C02C0759567950A94E2F76170E5
:10081000F60181916F010E94BA05FFEFEF1AFF0AFE
:1008200088E0E816F10461F7CE01DF91CF911F91C6
:100830000F91FF90EF90DF90CF900C944D02B80194
:1008400084E0759567958A95E1F7CE010E94B4031F
:100850006F2DCE01DF91CF911F910F91FF90EF90FF
:10086000DF90CF900C94B40341E00E94E10381E05B
:1008700090E0089540E0682F8FE492E00C94E1034B
:10088000009769F0FC0101900020E9F73197AF0172
:10089000481B590BBC018FE492E00C94CE0080E021
:1008A00090E0089581E00E943A048BE39FE1019774
:1008B000F1F708950C9440048F929F92AF92BF92EB
:1008C0000F931F93CF93DF93CDB7DEB7A1970FB6EA
:1008D000F894DEBF0FBECDBF19A2423008F44AE043
:1008E0008E010F5D1F4F842E912CA12CB12CA501E0
:1008F00094010E944411E62FB901CA010150110967
:10090000EA3014F4E05D01C0E95CD801EC93232BDC
:10091000242B252B61F7C8010E944004A1960FB635
:10092000F894DEBF0FBECDBFDF91CF911F910F9125
:10093000BF90AF909F908F9008958F929F92AF92AB
:10094000BF92CF92DF92EF92FF920F931F93CF93BC
:10095000DF936B017C01142F9B01AC010E948B146F
:10096000882319F088E791E027C046015701E894F1
:10097000B7F82FEF3FEF4FE75FE7C501B4010E94E3
:100980008B1481110DC02FEF3FEF4FE75FE7C501DB
:10099000B4010E94121218161CF48CE791E00CC0EE
:1009A0002FEF3FEF4FE75FE4C701B6010E947113DD
:1009B000181684F480E891E0DF91CF911F910F9198
:1009C000FF90EF90DF90CF90BF90AF909F908F906F
:1009D0000C9440042FEF3FEF4FE75FECC701B601E7
:1009E0000E94121287FDE6CF20E030E0A901C70186
:1009F000B6010E94121287FF0DC041E06DE28FE444
:100A000092E00E94E103F7FAF094F7F8F094C1E065
:100A1000D0E002C0C0E0D0E000E060E070E080E044
:100A20009FE3011740F420E030E040E251E40E94EF
:100A300017120F5FF6CFA70196010E94A6116B0156
:100A40007C010E9490124B015C014AE00E945C0410
:100A5000C80FD91F1123B9F1C501B4010E94BF12FB
:100A60009B01AC01C701B6010E94A5116B017C017D
:100A700041E06EE28FE492E00E94E103219620E0E3
:100A800030E040E251E4C701B6010E94CE134B01B1
:100A90005C010E9490126B01E12CF12C4AE0C7012D
:100AA000B6010E945C04C80FD91FC701B6010E949D
:100AB000BF129B01AC01C501B4010E94A5116B01DD
:100AC0007C011150E1F6CE01DF91CF911F910F9182
:100AD000FF90EF90DF90CF90BF90AF909F908F905E
:100AE0000895843008F083E090916202891710F035
:100AF0008FEF890FE82FF0E0E15BFD4F848980687C
:100B00000C943A04682F70E080E090E04AE00C9486
:100B10005C04FC019085957081E0953009F080E0DF
:100B20000895833081F028F4813099F08230A1F06B
:100B300008958730A9F08830B9F08430D1F48091DD
:100B400080008F7D03C0809180008F77809380002C
:100B5000089584B58F7702C084B58F7D84BD0895D4
:100B60008091B0008F7703C08091B0008F7D80931B
:100B7000B00008951F93CF93DF93282F30E0F90141
:100B8000E250FF4F8491F901EE5EFE4FD491F901DE
:100B9000E05DFE4FC491CC23C1F0162F81110E945D
:100BA0009105EC2FF0E0EE0FFF1FEA5DFE4FA591DF
:100BB000B4919FB7F894111104C08C91D095D823AB
:100BC00002C0EC91DE2BDC939FBFDF91CF911F9190
:100BD0000895CF93DF9390E0FC01EE5EFE4F2491E9
:100BE000FC01E05DFE4F8491882361F190E0880F65
:100BF000991FFC01EC50FF4FC591D491FC01EA5DB7
:100C0000FE4FA591B491611109C09FB7F8948881F6
:100C1000209582238883EC912E230BC0623061F4EF
:100C20009FB7F8948881322F309583238883EC9185
:100C30002E2B2C939FBF06C08FB7F894E8812E2BE4
:100C400028838FBFDF91CF910895CF93DF938230B8
:100C500028F090915E02986090935E028093620209
:100C60001092630280E48093640280E180936502C5
:100C700080E58093660261E0809153020E94E9055D
:100C8000809154028F3F19F061E00E94E90561E014
:100C9000809155020E94E905CFE4D2E09E012F54D5
:100CA000324080915E0284FD03C084E090E002C087
:100CB00088E090E02196281739072CF461E08E81B6
:100CC0000E94E905EBCF8BE39DE00197F1F760E02F
:100CD000809153020E94BA0560E0809155020E9403
:100CE000BA05809154028F3F19F060E00E94BA0566
:100CF00080915E0284FD20C063E08FE492E00E9458
:100D0000B403CBE4D6E4CE010197F1F763E08FE4BE
:100D100092E00E94B4032197F1F763E08FE492E040
:100D20000E94B40383E592E00197F1F762E08FE45B
:100D300092E00E94B40315C080620E943A048BE4E2
:100D400096E40197F1F780915E0280620E943A0476
:100D500083E592E00197F1F780915E0280620E9444
:100D60003A0480915E0280620E943A0484E080939B
:100D70005F028CE00E943A040E94520482E0809359
:100D8000600286E0DF91CF910C943A044F925F921B
:100D90006F927F928F929F92AF92BF92CF92DF928B
:100DA000EF92FF920F931F93CF93DF9300D000D069
:100DB0001F92CDB7DEB78C012A013B0180910A0159
:100DC000833121F08F3F09F03DC205C0E4E4F1E03A
:100DD00024912D8372C083E180930A01E4E4F1E061
:100DE00084918D838F3F09F42DC2813009F441C075
:100DF00038F1823009F061C01092B0001092B10059
:100E00008091B00082608093B0008091B1008160D9
:100E10008093B100E3E4F1E0E491F0E0EE0FFF1F16
:100E2000EA5DFE4F859194919093AB018093AA0166
:100E3000E5E2F1E0E491E093A90122E02D83FDC118
:100E400014BC15BC84B5826084BD85B5816085BD48
:100E5000E3E4F1E0E491F0E0EE0FFF1FEA5DFE4F06
:100E600085919491E5E2F1E0E491E09368021D82BE
:100E7000E4C110928000109281008091810088600E
:100E80008093810080918100816080938100E3E400
:100E9000F1E0E491F0E0EE0FFF1FEA5DFE4F859177
:100EA0009491E5E2F1E0E491E093670261E083E18F
:100EB0000E94E90591E09D838AC08D8187FDC2C1B2
:100EC00061E083E10E94E9058D818D7F09F07FC09B
:100ED0004801A12CB12C60E072E18AE790E0A50105
:100EE00094010E94661129833A834B835C836901D4
:100EF0007A0191E0C91AD108E108F1082FEFC21672
:100F0000D104E104F10409F008F44EC060E472E495
:100F10008FE090E0A50194010E94661169017A01B9
:100F200081E0C81AD108E108F1089D81923009F5E5
:100F30002FEFC216D104E104F10409F008F444C112
:100F400060E970ED83E090E0A50194010E946611D4
:100F500069017A0181E0C81AD108E108F1089FEF20
:100F6000C916D104E104F10411F008F0BAC083E01D
:100F700027C02FEFC216D104E104F104B9F0B0F09C
:100F800068E478EE81E090E0A50194010E9466118A
:100F900069017A0181E0C81AD108E108F1089D8150
:100FA000992309F413C1DCC081E001C082E09D8176
:100FB000911106C095B5987F892B85BD44C085E009
:100FC0009091B100987F892B8093B1003CC048017B
:100FD000A12CB12C60E072E18AE790E0A5019401B8
:100FE0000E94661169017A0181E0C81AD108E108FE
:100FF000F108C114D10491E0E906F10488F068E435
:1010000078EE81E090E0A50194010E9466116901EB
:101010007A0181E0C81AD108E108F10883E001C033
:1010200081E09D81913079F490918100987F892BA6
:1010300080938100411451046104710449F42FEF3D
:101040003FEFA9012CC0411451046104710471F0F7
:10105000D801AA0FBB1FA30192010E94851128EE9F
:1010600033E040E050E00E94441103C02FEF3FEF17
:10107000A9018D81813099F0823019F18111E2C08E
:10108000C7BC20936D0230936E0240936F02509361
:10109000700280916E00826080936E00D3C0D09207
:1010A0008900C09288002093690230936A024093BD
:1010B0006B0250936C0280916F00826080936F008E
:1010C000C1C0C092B3002093AC013093AD014093F6
:1010D000AE015093AF0180917000826080937000E8
:1010E000B1C068E478EE81E090E0A50194010E942F
:1010F000661169017A0191E0C91AD108E108F10885
:101100002FEFC216D104E104F10441F138F164E299
:1011100074EF80E090E0A50194010E9466116901DE
:101120007A0181E0C81AD108E108F1089FEFC916D9
:10113000D104E104F10409F008F441CF62E17AE757
:1011400080E090E0A50194010E94661169017A0196
:1011500081E0C81AD108E108F10819C084E030CF55
:101160002FEFC216D104E104F10409F008F463C0C2
:1011700062E17AE780E090E0A50194010E946611A7
:1011800069017A0191E0C91AD108E108F1088FEFED
:10119000C816D104E104F104A9F0A0F089819A8174
:1011A000AB81BC812AE0B595A795979587952A953F
:1011B000D1F76C017D0121E0C21AD108E108F108E4
:1011C00087E0FECE86E0FCCE82E0FACE8FEFC81636
:1011D000D104E104F10469F160F162E17AE780E0B1
:1011E00090E0A50194010E94661169017A0191E0E5
:1011F000C91AD108E108F1082FEFC216D104E104A1
:10120000F104A9F0A0F089819A81AB81BC813AE018
:10121000B595A795979587953A95D1F76C017D017E
:1012200021E0C21AD108E108F10885E0C3CE84E0CC
:10123000C1CE83E0BFCE84E0BACE61E083E10E94FC
:10124000E90546CE0F900F900F900F900F90DF9111
:10125000CF911F910F91FF90EF90DF90CF90BF90B3
:10126000AF909F908F907F906F905F904F90089578
:101270003FB7F8948091A5019091A601A091A70194
:10128000B091A80126B5A89B05C02F3F19F0019683
:10129000A11DB11D3FBFBA2FA92F982F8827820FFC
:1012A000911DA11DB11DBC01CD0142E0660F771F4C
:1012B000881F991F4A95D1F708952FB7F894609128
:1012C000A1017091A2018091A3019091A4012FBF6F
:1012D0000895CF93DF93CDB7DEB764970FB6F89438
:1012E000DEBF0FBECDBF789484B5826084BD84B567
:1012F000816084BD85B5826085BD85B5816085BD11
:1013000080916E00816080936E00109281008091C8
:101310008100826080938100809181008160809350
:101320008100809180008160809380008091B10075
:1013300084608093B1008091B00081608093B000A0
:1013400080917A00846080937A0080917A00826034
:1013500080937A0080917A00816080937A008091F6
:101360007A00806880937A001092C10080E1E1E108
:10137000F1E0DE01119601900D928A95E1F761E0AE
:101380008DE00E94E90561E083E10E94E90560E0EB
:1013900085E00E94E90560E086E00E94E90560E0E2
:1013A00084E00E94E90560E082E00E94E90560E0D7
:1013B00083E00E94E90560E08EE00E94E90560E0BC
:1013C0008FE00E94E90560E080E10E94E9059E014E
:1013D0002F5F3F4F7901C12CD12C48E2A42EB12CB4
:1013E000D7019C9011967C91B2E0EB0EF11C00911C
:1013F0004D0210914E020C0D1D1DD801ED91FC9176
:101400000280F381E02D40E050E0692DC80109958C
:10141000F801918610860190F081E02D0190F08115
:10142000E02DC8010995882339F0D80118968C91D0
:101430001897836018968C930E945D09F801628367
:10144000738384839583E0914D02F0914E02EC0DFD
:10145000FD1DB782A682F2E1CF0ED11C20E9C21693
:10146000D10409F0BDCF82E00E94250687E491E017
:101470000E945A040E9438094B015C013CEDC32EC6
:1014800035E0D32EE12CF12C0E943809DC01CB0190
:1014900088199909AA09BB09883E9340A105B1059D
:1014A00098F331E0C31AD108E108F10848EE840E40
:1014B00043E0941EA11CB11CC114D104E104F10449
:1014C00019F70E945204E091C001F091C10182E03D
:1014D0008083E091BC01F091BD011082E091BE01DA
:1014E000F091BF018FEC80831092C801E091C4019C
:1014F000F091C50186E08083E091C201F091C301C3
:10150000808180618083E091C201F091C30180817C
:1015100088608083E091C201F091C301808180687E
:101520008083E091C201F091C30180818F7D80832F
:1015300001E092E0392E23E0222EC12CD12CE09044
:101540004D02F0904E02EC0CFD1CD70118968C91C8
:1015500018978B7F18968C931897ED91FC910190BA
:10156000F081E02DC7010995182FF7018085869538
:101570008170181781F00E945D09D70112966D9352
:101580007D938D939C93159718968C91B2E08B2741
:10159000F70180874CC00E945D09D70112968D909B
:1015A0009D90AD90BC901597AB01BC0148195909AD
:1015B0006A097B0916968D919C911797A0E0B0E07F
:1015C000481759076A077B0790F1F70180858170FA
:1015D000181769F10E945D09D70112966D937D93EA
:1015E0008D939C93159718968C91B1E08B2784600E
:1015F000F70180870E945D09D7011A968D909D9012
:10160000AD90BC901D97DC01CB0188199909AA09FE
:10161000BB09F70186879787A08BB18B0E945D0974
:10162000D7011A966D937D938D939C931D9780910E
:101630004D0290914E028C0D9D1D0E9489058111D5
:101640000E945204B2E1CB0ED11CE0E9CE16D104C7
:1016500009F075CFE0914D02F0914E02DF01AC58D8
:10166000BF4F8C91EA57FF4F80FD09C0808180FDFC
:1016700003C010929F010BC030929F0108C080816F
:1016800080FD03C000939F0102C020929F01109132
:101690009F0180919E01811711F180919D018230FF
:1016A000F1F00E9452041092990110929A01109246
:1016B0009B0110929C01109295011092960110923C
:1016C000970110929801109291011092920110923C
:1016D00093011092940110939E0110929D018091AC
:1016E0009D01813009F4B9C220F0823009F4CDC2E5
:1016F00080C360E08DE00E94BA05E0904D02F0905A
:101700004E02C701885B9F4F0E948905882319F00C
:1017100000939D0107C0F701EE59FF4F808180FDC6
:1017200030929D0180919D01882349F120E030E0B5
:101730004AE754E460918D0170918E0180918F0190
:10174000909190010E94CE1320E030E040E251E4FD
:101750000E94A6110E9490126093890170938A01E1
:1017600080938B0190938C010E945D096093990195
:1017700070939A0180939B0190939C0157C31091A1
:101780009E01113009F485C038F0123009F4E9C027
:10179000133009F45EC1CCC180910601909107011C
:1017A000A0910801B091090180938D0190938E0161
:1017B000A0938F01B0939001E12CF12CC7010E94FE
:1017C000DE01882309F45CC0809006019090070137
:1017D000A0900801B0900901B701F2E0EF16F10402
:1017E00094F461507109072E000C880B990B0E942C
:1017F000C1129B01AC0160E070E080E291E40E94C4
:101800003B14905810C063507109072E000C880BD0
:10181000990B0E94C1129B01AC0160E070E080E274
:1018200091E40E943B149B01AC01C501B4010E94EC
:10183000A6114B015C0120E030E0A9010E941212C8
:1018400087FD13C020E030E04AE754E4C501B4014D
:101850000E947113181664F48AE9882E89EF982E75
:1018600089E7A82E84E4B82E03C0812C912C540162
:101870008092060190920701A0920801B09209019E
:101880002FEFE21AF20A34E0E316F10409F096CFE2
:101890004FC1F0908801E0900501CE2CD12C6F2D26
:1018A00070E080E090E00E94C1124B015C01B60143
:1018B0000D2C000C880B990B0E94C1129B01AC01EE
:1018C000C501B4010E9417129B01AC0160E070E0F9
:1018D00080E090E40E943B149B01AC016091060102
:1018E0007091070180910801909109010E94CE1327
:1018F00060938D0170938E0180938F01909390017E
:1019000080E090E00E94DE01882351F042E0C4169E
:10191000D1041CF41093050103C0EA94E092050180
:1019200082E090E00E94DE01882329F08091050189
:101930008F5F8093050181E090E00E94DE018823A3
:1019400019F0FA94F092880183E090E00E94DE01A1
:10195000882309F4EDC0809188018F5F809388010E
:10196000E7C010910401E12EF12C809000019090CD
:101970000101A0900201B0900301B7010F2C000CEF
:10198000880B990B0E94C112A50194010E94CE13ED
:101990002091060130910701409108015091090101
:1019A0000E94A61160938D0170938E0180938F0128
:1019B0009093900180E090E00E94DE01882351F036
:1019C00052E0E516F1041CF40093050103C0115028
:1019D0001093040182E090E00E94DE01882329F048
:1019E000809104018F5F8093040181E090E00E9468
:1019F000DE01882381F02DEC3CEC4CEC5DE3C5016D
:101A0000B4010E94A51160930001709301018093BD
:101A100002019093030183E090E00E94DE0188239D
:101A200009F486C02DEC3CEC4CEC5DE360910001C8
:101A30007091010180910201909103010E94A61111
:101A40006093000170930101809302019093030160
:101A50006FC010910401E12EF12CB7010F2C000C86
:101A6000880B990B0E94C1124B015C01609105012A
:101A700070E080E090E00E94C1129B01AC01C501C2
:101A8000B4010E9417129B01AC0160E070E080E09D
:101A900090E40E943B149B01AC016091060170919F
:101AA000070180910801909109010E94CE13609373
:101AB0008D0170938E0180938F019093900180E04F
:101AC00090E00E94DE01882351F082E0E816F104E4
:101AD0001CF40093050103C011501093040182E02F
:101AE00090E00E94DE01882329F0809104018F5F3D
:101AF0008093040181E090E00E94DE01882369F078
:101B000080910501282F30E0223031051CF400932C
:101B1000050103C081508093050183E090E00E949D
:101B2000DE01882329F0809105018F5F80930501F4
:101B300080E00E94710580E591E00E945A0481E0F6
:101B40000E94710580919E01813089F128F18230D7
:101B500009F45AC0833009F04CC1609106017091BC
:101B60000701809108019091090141E050E00E9435
:101B70009D048AE591E00E945A04809104010E942C
:101B8000820582E691E00E945A04809105010E943C
:101B9000820580E691E05EC060918D0170918E01BA
:101BA00080918F019091900141E050E02AC06091B6
:101BB000060170910701809108019091090141E0AF
:101BC00050E00E949D0486E591E00E945A048091B5
:101BD00088010E94820584E691E00E945A04809167
:101BE00005010E94820588E591E00E945A046091F7
:101BF0008D0170918E0180918F019091900142E052
:101C000050E00E949D04F5C06091060170910701AB
:101C1000809108019091090141E050E00E949D04EB
:101C20008AE591E00E945A04809104010E94820595
:101C30008DE591E00E945A046091000170910101CC
:101C4000809102019091030141E050E00E949D04C7
:101C50008FE591E00E945A04CCC080914D02909192
:101C60004E02885B9F4F0E9489058111C5C08091FB
:101C7000890190918A01A0918B01B0918C010B9701
:101C8000A105B10508F4B8C0D4C0E0914D02F091AF
:101C90004E02EE59FF4F808180FD1BC010929D01C6
:101CA0001092990110929A0110929B0110929C013E
:101CB000109291011092920110929301109294014E
:101CC000109295011092960110929701109298012E
:101CD000ADC061E08DE00E94BA050E945D094B0134
:101CE0005C01C0909101D0909201E0909301F0903E
:101CF0009401A8EEB3E0A70196010E9485114090DF
:101D0000990150909A0160909B0170909C01DC01B8
:101D1000CB01840D951DA61DB71D88169906AA0630
:101D2000BB06A8F044E650E060E070E08BED93E085
:101D30000E94C6068FEFC81AD80AE80AF80AC092AD
:101D40009101D0929201E0929301F092940180E08F
:101D50000E94710582E791E00E945A040E945D0989
:101D60004B015C01C0909901D0909A01E0909B01D9
:101D7000F0909C012091950130919601409197013E
:101D800050919801A4E6B0E00E948511DC01CB01DE
:101D90008C0D9D1DAE1DBF1D88169906AA06BB069B
:101DA00040F181E00E9471050E945D096C197D0976
:101DB0008E099F090E94BF1220E030E04AE754E4F8
:101DC0000E94171241E050E00E949D04809195010D
:101DD00090919601A0919701B09198010196A11D53
:101DE000B11D8093950190939601A0939701B093B4
:101DF00098010E94D001A1CB10929D0110929101F7
:101E00001092920110929301109294011092890104
:101E100010928A0110928B0110928C0110929901FC
:101E200010929A0110929B0110929C010E94520400
:101E3000E0CF61E08DE00E94BA05209199013091D8
:101E40009A0140919B0150919C01298B3A8B4B8BBD
:101E50005C8B20E030E04AE754E460918D017091A2
:101E60008E0180918F01909190010E94CE136B01A1
:101E70007C0169897A898B899C890E94BF129B01A8
:101E8000AC01C701B6010E94A6116B017C010E9442
:101E90005D090E94BF129B01AC01C701B6010E94FF
:101EA000A5110E9490126093890170938A0180931A
:101EB0008B0190938C0120919E01223070F50E943D
:101EC0005D094B015C01C0909101D0909201E090BE
:101ED0009301F0909401A8EEB3E0A70196010E944F
:101EE000851129893A894B895C89260F371F481F3C
:101EF000591F82169306A406B50608F4A7C044E647
:101F000050E060E070E08BED93E00E94C6063FEF8A
:101F1000C31AD30AE30AF30A91C0243008F096C02A
:101F200010910501C0909101D0909201E090930131
:101F3000F09094018090060190900701A090080114
:101F4000B09009016091000170910101809102013E
:101F500090910301223009F0E1C020E030E04AE72F
:101F600054E40E94CE132B013C01C701B6010E942C
:101F7000BF129B01AC01C301B2010E94CE132B0121
:101F80003C0120E030E04AE754E4C501B4010E947E
:101F9000CE139B01AC01C301B2010E94A6114B01FB
:101FA0005C010E945D090E94BF122B013C016989FE
:101FB0007A898B899C8964507140810991090E94BA
:101FC000BF12A50194010E94A6119B01AC01C3019F
:101FD000B2010E94711387FD08C046E950E060E03D
:101FE00070E083E992E00E94C6060E945D090E94AB
:101FF000BF122B013C0169897A898B899C896A50BF
:102000007109810991090E94BF12A50194010E94E2
:10201000A6119B01AC01C301B2010E94711387FD9F
:102020000DC046E950E060E070E080E793E00E9478
:10203000C6064FEFC41AD40AE40AF40AC09291010A
:10204000D0929201E0929301F092940180E00E947C
:10205000710586E691E00E945A0481E00E947105B4
:1020600080919E018230B8F060919101709192014F
:1020700080919301909194014AE00E945C0484E66F
:1020800091E00E945A04809104010E9482058FE62B
:1020900091E00E945A046091890170918A018091B7
:1020A0008B0190918C010E94BF1220E030E04AE742
:1020B00054E40E94171241E050E00E949D04809079
:1020C000890190908A01A0908B01B0908C01C5018C
:1020D000B4010E94BF120E9476136B017C01C501FE
:1020E000B4016C597F4F8F4F9F4F0E94BF120E94C7
:1020F00076134B015C01C701B6010E9489127B0176
:102100005FEFE51AF50AC501B4010E9489126F5FFD
:102110007F4FE616F70609F089CE6BCEC701B601F0
:102120000E94BF122B013C01612F70E080E090E023
:102130000E94C1129B01AC01C301B2010E9417129F
:102140009B01AC0160E070E080E090E40E943B14F1
:102150002B013C0120E030E04AE754E4C501B40122
:102160000E94CE13A30192010E94CE1318CF1092A9
:10217000B3011092B20188EE93E0A0E0B0E080934A
:10218000B4019093B501A093B601B093B70185E275
:1021900091E09093B1018093B00185EC90E0909331
:1021A000BD018093BC0184EC90E09093BF018093CB
:1021B000BE0180EC90E09093C1018093C00181EC5E
:1021C00090E09093C3018093C20182EC90E09093E1
:1021D000C5018093C40186EC90E09093C701809381
:1021E000C6011092C9011092CA011092CB0110923F
:1021F000CC0110925202109251028FE391E0909321
:10220000500280934F0287E0809353028FEF8093B8
:10221000540288E08093550289E0809356028AE058
:10222000809357028BE0809358028CE08093590290
:1022300010925A0210925B0210925C0210925D02A0
:1022400010925E0281E00E94250680E990E00E94E3
:102250007515FC019C0120573F4F67E371E04AE090
:1022600050E0718360831282138214821582578337
:102270004683108611867296E217F30791F79093C2
:102280004E0280934D020895A1E21A2EAA1BBB1B99
:10229000FD010DC0AA1FBB1FEE1FFF1FA217B30732
:1022A000E407F50720F0A21BB30BE40BF50B661F48
:1022B000771F881F991F1A9469F76095709580950C
:1022C00090959B01AC01BD01CF010895052E97FBB0
:1022D0001EF400940E947D1157FD07D00E94441106
:1022E00007FC03D04EF40C947D1150954095309529
:1022F00021953F4F4F4F5F4F089590958095709572
:1023000061957F4F8F4F9F4F08950E949611A59F13
:10231000900DB49F900DA49F800D911D11240895E0
:10232000EE0FFF1F0590F491E02D0994A29FB001DC
:10233000B39FC001A39F700D811D1124911DB29FF9
:10234000700D811D1124911D08955058BB27AA2797
:102350000E94BD110C9437130E94291338F00E947B
:10236000301320F039F49F3F19F426F40C9426130F
:102370000EF4E095E7FB0C942013E92F0E9448131C
:1023800058F3BA17620773078407950720F079F4AA
:10239000A6F50C946A130EF4E0950B2EBA2FA02D1F
:1023A0000B01B90190010C01CA01A0011124FF2702
:1023B000591B99F0593F50F4503E68F11A16F040FD
:1023C000A22F232F342F4427585FF3CF46953795FC
:1023D0002795A795F0405395C9F77EF41F16BA0BC1
:1023E000620B730B840BBAF09150A1F0FF0FBB1F6F
:1023F000661F771F881FC2F70EC0BA0F621F731FB8
:10240000841F48F4879577956795B795F7959E3F14
:1024100008F0B0CF9395880F08F09927EE0F9795A5
:10242000879508950E94FC1208F481E008950E94A7
:102430002B120C9437130E94301358F00E9429136A
:1024400040F029F45F3F29F00C94201351110C94B3
:102450006B130C9426130E94481368F39923B1F36D
:10246000552391F3951B550BBB27AA2762177307BA
:10247000840738F09F5F5F4F220F331F441FAA1F4E
:10248000A9F335D00E2E3AF0E0E832D0915050400A
:10249000E695001CCAF72BD0FE2F29D0660F771FB8
:1024A000881FBB1F261737074807AB07B0E809F09E
:1024B000BB0B802DBF01FF2793585F4F3AF09E3F23
:1024C000510578F00C9420130C946B135F3FE4F3E8
:1024D000983ED4F3869577956795B795F7959F5F66
:1024E000C9F7880F911D9695879597F90895E1E0B2
:1024F000660F771F881FBB1F621773078407BA0711
:1025000020F0621B730B840BBA0BEE1F88F7E0956B
:1025100008950E9490126894B1110C946B13089561
:102520000E94501388F09F5798F0B92F9927B75100
:10253000B0F0E1F0660F771F881F991F1AF0BA9567
:10254000C9F714C0B13091F00E946A13B1E0089548
:102550000C946A13672F782F8827B85F39F0B93F3A
:10256000CCF3869577956795B395D9F73EF490951A
:102570008095709561957F4F8F4F9F4F0895E89498
:1025800009C097FB3EF490958095709561957F4FBB
:102590008F4F9F4F9923A9F0F92F96E9BB27939569
:1025A000F695879577956795B795F111F8CFFAF479
:1025B000BB0F11F460FF1BC06F5F7F4F8F4F9F4FAA
:1025C00016C0882311F096E911C0772321F09EE808
:1025D000872F762F05C0662371F096E8862F70E06E
:1025E00060E02AF09A95660F771F881FDAF7880F48
:1025F0009695879597F90895990F0008550FAA0B9E
:10260000E0E8FEEF16161706E807F907C0F0121605
:102610001306E407F50798F0621B730B840B950B08
:1026200039F40A2661F0232B242B252B21F408955D
:102630000A2609F4A140A6958FEF811D811D0895FA
:1026400097F99F6780E870E060E008959FEF80EC65
:10265000089500240A941616170618060906089508
:1026600000240A9412161306140605060895092E6E
:102670000394000C11F4882352F0BB0F40F4BF2BDD
:1026800011F460FF04C06F5F7F4F8F4F9F4F08951D
:1026900057FD9058440F551F59F05F3F71F0479513
:1026A000880F97FB991F61F09F3F79F087950895F8
:1026B000121613061406551FF2CF4695F1DF08C017
:1026C000161617061806991FF1CF86957105610534
:1026D00008940895E894BB2766277727CB0197F9DC
:1026E00008950E94FC1208F48FEF08950E9486134B
:1026F00029ED3BE54EED5EE30C94CE1316F00C9401
:10270000CA140C94261368940C9420130E9450133E
:10271000A8F39923C1F3AEF3DF93CF931F930F93E5
:10272000FF92C92FDD2788232AF02197660F771F94
:10273000881FDAF720E030E040E85FEB9FE388395C
:1027400020F0803E38F021968F770E94A611E8E6AF
:10275000F0E004C00E94A611E5E9F0E00E94D81460
:102760008B01BE01EC01FB2E6F5771097595771F28
:10277000880B990B0E94C11228E132E741E35FE325
:102780000E94E113AF2D9801AE01FF900F911F91B0
:10279000CF91DF910E94BD110C9437130E94E11379
:1027A0000C9437130E94291338F00E94301320F044
:1027B000952311F00C9420130C94261311240C94DF
:1027C0006B130E94481370F3959FC1F3950F50E06F
:1027D000551F629FF001729FBB27F00DB11D639FD3
:1027E000AA27F00DB11DAA1F649F6627B00DA11D79
:1027F000661F829F2227B00DA11D621F739FB00D1F
:10280000A11D621F839FA00D611D221F749F33278E
:10281000A00D611D231F849F600D211D822F762F27
:102820006A2F11249F5750409AF0F1F088234AF004
:10283000EE0FFF1FBB1F661F771F881F9150504070
:10284000A9F79E3F510580F00C9420130C946B1354
:102850005F3FE4F3983ED4F3869577956795B795F7
:10286000F795E7959F5FC1F7FE2B880F911D969511
:10287000879597F90895FA01EE0FFF1F309621050D
:102880003105A1F16115710561F48038BFE39B0743
:1028900049F168949038810561F08038BFEF9B075B
:1028A00041F099234AF5FF3FE1053105210519F172
:1028B000E8940894E795D901AA2329F4AB2FBE2FF9
:1028C000F85FD0F310C0FF5F70F4A695E0F7F7391A
:1028D00050F019F0FF3A38F49F779F930DD00F9086
:1028E00007FC9058089546F00C94261360E070E0C1
:1028F00080E89FE308954FE79F775F934F933F935F
:102900002F930E9486132F913F914F915F910E94C8
:10291000CE130C9498140E94FC12880B990B089506
:1029200029F416F00C9420130C946A130C942613BB
:102930000E945013A8F39638A0F707F80F92E89476
:102940002BE33AEA48EB5FE70E94E4130F920F9201
:102950000F924DB75EB70F920E944115E2ECF0E086
:102960000E94D8144F915F91EF91FF91E595EE1F72
:10297000FF1F49F0FE57E0684427EE0F441FFA9509
:10298000E1F74195550B0E940B150F9007FE0C9433
:10299000FF1408959F3F31F0915020F4879577956B
:1029A0006795B795880F911D9695879597F9089526
:1029B000DF93CF931F930F93FF92EF92DF927B01F0
:1029C0008C01689406C0DA2EEF010E94E113FE012B
:1029D000E894A5912591359145915591A6F3EF0184
:1029E0000E94BD11FE019701A801DA9469F7DF90FA
:1029F000EF90FF900F911F91CF91DF9108959B0170
:102A0000AC0160E070E080E89FE30C9417120C9436
:102A100020130C94CA140E945013D8F39923C9F3BD
:102A2000940F511DA3F39150504094F059F0882316
:102A300032F0660F771F881F91505040C1F79E3FBC
:102A400051052CF7880F911D9695879597F9089554
:102A50005F3FACF0983E9CF0BB27869577956795D5
:102A6000B79508F4B1609395C1F7BB0F58F711F40F
:102A700060FFE8CF6F5F7F4F8F4F9F4FE3CF0C9486
:102A80006B13FA01DC01AA0FBB1F9B01AC01BF57FE
:102A900028F4222733274427507820C0B75190F4D8
:102AA000AB2F0024469537952795011CA395D2F3AB
:102AB000002071F0220F331F441FB395DAF30ED0BC
:102AC0000C94A51161307105A0E88A07B94630F46D
:102AD0009B01AC016627772788279078309621F0F4
:102AE000208331834283538308950F931F93CF93A1
:102AF000DF938230910510F482E090E0E091730260
:102B0000F091740220E030E0A0E0B0E0309719F1DD
:102B1000408151810281138148175907C8F08417F9
:102B2000950769F4109731F012960C93129713964B
:102B30001C9327C0009373021093740222C02115C6
:102B4000310519F04217530718F49A01BD01EF013E
:102B5000DF01F801DBCF21153105F9F0281B390B16
:102B60002430310580F48A819B816115710521F043
:102B7000FB019383828304C0909374028093730259
:102B8000FE01329644C0FE01E20FF31F8193919340
:102B900022503109398328833AC020917102309143
:102BA0007202232B41F420910D0130910E013093DC
:102BB00072022093710220910B0130910C012115BA
:102BC000310541F42DB73EB740910F0150911001EE
:102BD000241B350BE0917102F0917202E217F307AA
:102BE000A0F42E1B3F0B2817390778F0AC014E5F7D
:102BF0005F4F2417350748F04E0F5F1F5093720246
:102C0000409371028193919302C0E0E0F0E0CF0124
:102C1000DF91CF911F910F910895CF93DF9300978C
:102C200009F481C0FC01329713821282A0917302D1
:102C3000B0917402109781F420813181820F931F2B
:102C400020917102309172022817390751F5F093E3
:102C50007202E093710267C0ED0120E030E0CE1710
:102C6000DF0740F44A815B819E0141155105F1F077
:102C7000EA01F5CFD383C28340815181840F951F30
:102C8000C817D90759F488819981840F951F029636
:102C9000918380838A819B8193838283211531056F
:102CA00029F4F0937402E09373023DC0E901FB83C1
:102CB000EA8349915991C40FD51FEC17FD0761F4C0
:102CC00080819181840F951F0296E9019983888301
:102CD000828193819B838A83E0E0F0E012968D915C
:102CE0009C911397009719F0FD01DC01F7CF8D91AE
:102CF0009C9111979D012E5F3F4F820F931F209152
:102D00007102309172022817390769F4309729F45B
:102D1000109274021092730202C013821282B09356
:102D20007202A0937102DF91CF91089581E090E04B
:0A2D3000F8940C949B16F894FFCF62
:102D3A000000A040060300002041FF0000750220A9
:102D4A0000020003000500060004000E000F001038
:102D5A0000000000006101CE00F800AE0129010761
:102D6A00011B010000000069026302000000003438
:102D7A0004CE00DB01DA016D61696E2E63707000AA
:102D8A005345545550002B003D002B5B002A00731D
:102D9A005D002A312F004558504F535552450020A7
:102DAA002000464F435553006E616E00696E6600FF
:042DBA006F766600CA
:00000001FF
