:100000000C94A4000C94CC000C94CC000C94CC0068
:100010000C94CC000C94CC000C94CC000C941D03DC
:100020000C94CC000C94CC000C94CC000C94CC0020
:100030000C94CC000C94CC000C94CC000C94CC0010
:100040000C94D3020C94CC000C9425040C94FF0364
:100050000C94CC000C94CC000C94CC000C94CC00F0
:100060000C94CC000C94CC0008000000BE922449F3
:10007000123EABAAAA2ABECDCCCC4C3E00000080DA
:10008000BEABAAAAAA3E00000000BF000000803F4D
:100090000000000000084178D3BB4387D1133D190D
:1000A0000E3CC3BD4282AD2B3E68EC8276BED98F3A
:1000B000E1A93E4C80EFFFBE01C4FF7F3F0000007E
:1000C000000007634236B79BD8A71A39685618AEA6
:1000D000BAAB558C1D3CB7CC5763BD6DEDFD753E7D
:1000E000F6177231BF000000803F000000002300BF
:1000F0002600290000000000240027002A0000003C
:1001000000080002010000030407000000000000D6
:1001100000000102040810204080010204081020A1
:1001200001020408102000000000250028002B0018
:10013000040404040404040402020202020203038D
:100140000303030302000F1111241FBECFEFD8E0F9
:10015000DEBFCDBF11E0A0E0B1E0EAEFFDE202C0FA
:1001600005900D92A83AB107D9F722E0A8EAB1E0CC
:1001700001C01D92A539B207E1F710E0C4EAD0E052
:1001800004C02197FE010E94F011C33AD107C9F7BC
:100190000E94B7090C94FB160C940000CF92DF92DA
:1001A000EF92FF920F931F93CF93DF936C017A012D
:1001B0008B01C0E0D0E0CE15DF0581F0D8016D9154
:1001C0008D01D601ED91FC910190F081E02DC601E9
:1001D0000995892B11F02196EECF7E01C701DF91A1
:1001E000CF911F910F91FF90EF90DF90CF900895E6
:1001F000FC01538D448D252F30E0842F90E0821B2D
:10020000930B541710F0CF96089501970895FC01B1
:10021000918D828D981761F0828DDF01A80FB11D3D
:100220005D968C91928D9F5F9F73928F90E0089561
:100230008FEF9FEF0895FC01918D828D981731F01B
:10024000828DE80FF11D858D90E008958FEF9FEF6F
:100250000895FC01918D228D892F90E0805C9F4F45
:10026000821B91098F739927089580ED91E00E9478
:10027000290121E0892B09F420E0822F0895FC0157
:10028000848DDF01A80FB11DA35ABF4F2C91848D1F
:1002900090E001968F739927848FA689B7892C9354
:1002A000A089B1898C91837080648C93938D848DA7
:1002B000981306C00288F389E02D80818F7D8083AA
:1002C0000895EF92FF920F931F93CF93DF93EC016A
:1002D00081E0888F9B8D8C8D981305C0E889F98902
:1002E000808185FD26C0F62E0B8D10E00F5F1F4F1D
:1002F0000F731127E02E8C8DE8120CC00FB607FC8F
:10030000FACFE889F989808185FFF5CFCE010E9477
:100310003F01F1CF8B8DFE01E80FF11DE35AFF4F36
:10032000F0829FB7F8940B8FEA89FB898081806205
:100330000AC09FB7F894EE89FF896083E889F9893C
:1003400080818370806480839FBF81E090E0DF9133
:10035000CF911F910F91FF90EF900895CF93DF936E
:10036000EC01888D8823C9F0EA89FB89808185FDAD
:1003700005C0A889B9898C9186FD0FC00FB607FC0E
:10038000F5CF808185FFF2CFA889B9898C9185FF4F
:10039000EDCFCE010E943F01E7CFDF91CF910895CD
:1003A00080E090E0892B29F00E94350181110C94A6
:1003B00000000895089580E090E008958F929F9244
:1003C000AF92BF92CF92DF92EF92FF920F931F9363
:1003D000CF93DF9322E1289FE001299FD00D1124C4
:1003E00000916D0210916E020C0F1D1FF8018085A7
:1003F00080FF23C00E94AB094B015C01C090A801A3
:10040000D090A901E090AA01F090AB01A091000169
:10041000B0910101A70196010E94E811F80102853F
:10042000138524853585801A910AA20AB30A861697
:100430009706A806B90608F050C0912C88EEC82E81
:1004400083E0D82EE12CF12C90E5A92EB12C00915F
:100450006D0210916E020C0F1D1FF801808580FF48
:1004600012C00E94AB09F8010285138524853585E9
:10047000DC01CB01801B910BA20BB30BC816D90674
:10048000EA06FB06D0F1F4E1AF1AB10888EEC80E17
:1004900083E0D81EE11CF11CE8E8CE16E3E1DE069D
:1004A000E104F104A1F680916D0290916E02C80FF3
:1004B000D91F888580FD26C082FF24C01092A80124
:1004C0001092A9011092AA011092AB0184E690E06B
:1004D000909301018093000115C0FFEFCF1ADF0A4E
:1004E000EF0AFF0AC092A801D092A901E092AA01E6
:1004F000F092AB0199249394A1CFB0920101A09204
:100500000001C1CF892DDF91CF911F910F91FF90F5
:10051000EF90DF90CF90BF90AF909F908F90089515
:10052000CF93DF93EC0160E08E810E94080661E0CA
:100530008E810E94080660E08E810E9408068BE88A
:1005400091E00197F1F7DF91CF910895862F642F05
:100550000C9437060E94F616CF93DF93FC01218599
:1005600030E0F901E250FF4F8491F901EE5EFE4F59
:10057000D491F901E05DFE4FC491CC2379F0811153
:100580000E94DF05EC2FF0E0EE0FFF1FE651FF4F5A
:10059000A591B491EC91ED2381E009F480E08170A4
:1005A000DF91CF9108951F920F920FB60F921124F1
:1005B0002F933F938F939F93AF93BF938091C101EC
:1005C0009091C201A091C301B091C4013091C001CA
:1005D00023E0230F2D3720F40196A11DB11D05C086
:1005E00026E8230F0296A11DB11D2093C001809320
:1005F000C1019093C201A093C301B093C401809143
:10060000C5019091C601A091C701B091C8010196A2
:10061000A11DB11D8093C5019093C601A093C70190
:10062000B093C801BF91AF919F918F913F912F914E
:100630000F900FBE0F901F9018951F920F920FB63C
:100640000F9211242F933F934F935F936F937F9358
:100650008F939F93AF93BF93EF93FF938091CC01C0
:100660009091CD01A091CE01B091CF01892B8A2B21
:100670008B2B59F19091C901E091CA01F091CB0106
:100680008081892780838091CC019091CD01A091B8
:10069000CE01B091CF01181619061A061B060CF0F0
:1006A0003DC08091CC019091CD01A091CE01B0913F
:1006B000CF010197A109B1098093CC019093CD019D
:1006C000A093CE01B093CF0129C080910D01E4E445
:1006D000F1E0E4919FEF90930D01E130B9F098F0D3
:1006E000E230C9F4909170009D7F9093700091E08A
:1006F0009093B0009091B100987F94609093B10076
:100700001092B30008C010926E0005C090916F0067
:100710009D7F90936F0060E00E940806FF91EF912B
:10072000BF91AF919F918F917F916F915F914F9109
:100730003F912F910F900FBE0F901F90189561154C
:10074000710579F0FB0101900020E9F73197AF01C5
:10075000461B570BDC01ED91FC910280F381E02DEB
:10076000099480E090E008958F929F92AF92BF929B
:10077000EF92FF920F931F93CF93DF93CDB7DEB726
:10078000A1970FB6F894DEBF0FBECDBF7C01FA0172
:10079000CB0119A2223008F42AE08E010F5D1F4F11
:1007A000822E912CA12CB12CBF01A50194010E9495
:1007B0009C11F901CA01015011096A3014F4605DFD
:1007C00001C0695CD8016C93232B242B252B61F786
:1007D000B801C7010E949F03A1960FB6F894DEBF2F
:1007E0000FBECDBFDF91CF911F910F91FF90EF9082
:1007F000BF90AF909F908F9008950C949F031F928D
:100800000F920FB60F9211242F933F934F935F9344
:100810006F937F938F939F93AF93BF93EF93FF93C8
:1008200080ED91E00E943F01FF91EF91BF91AF9168
:100830009F918F917F916F915F914F913F912F91F8
:100840000F900FBE0F901F9018951F920F920FB62A
:100850000F9211242F938F939F93EF93FF93E09127
:10086000E001F091E1018081E091E601F091E70182
:1008700082FD12C090818091E9018F5F8F7320917A
:10088000EA01821751F0E091E901F0E0E053FE4FF8
:10089000958F8093E90101C08081FF91EF919F9135
:1008A0008F912F910F900FBE0F901F901895CF92A0
:1008B000DF92EF92FF920F931F93CF93DF936C0120
:1008C0007C0187E0E80EF11CC0E0D0E0062F10E0CC
:1008D000B8010C2E02C0759567950A94E2F7617015
:1008E000F70181917F010E9408062196C430D1054D
:1008F00079F7C601DF91CF911F910F91FF90EF9093
:10090000DF90CF900C949002CF92DF92EF92FF9203
:100910000F931F93CF93DF93EC01F62E642F8C81FE
:100920000E9408068D818F3F19F060E00E94080642
:100930008F850F2D10E084FF25C06E0187E0C80E63
:10094000D11CE12CF12CB8010E2C02C075956795D5
:100950000A94E2F76170F60181916F010E94080626
:10096000FFEFEF1AFF0A88E0E816F10461F7CE0105
:10097000DF91CF911F910F91FF90EF90DF90CF907B
:100980000C949002B80184E0759567958A95E1F71B
:10099000CE010E9457046F2DCE01DF91CF911F91A0
:1009A0000F91FF90EF90DF90CF900C94570441E0AF
:1009B0000E94840481E090E0089540E0682F8FE673
:1009C00092E00C94840481E00E94DD048BE39FE1BB
:1009D0000197F1F708958F929F92AF92BF92CF92B5
:1009E000DF92EF92FF920F931F93CF93DF936B01F0
:1009F0007C01142F9B01AC010E94EB14882319F099
:100A00006CE971E027C046015701E894B7F82FEF71
:100A10003FEF4FE75FE7C501B4010E94EB1481117E
:100A20000DC02FEF3FEF4FE75FE7C501B4010E9414
:100A3000721218161CF460EA71E00CC02FEF3FEF41
:100A40004FE75FE4C701B6010E94D113181694F472
:100A500064EA71E08FE692E0DF91CF911F910F91F0
:100A6000FF90EF90DF90CF90BF90AF909F908F90CE
:100A70000C949F032FEF3FEF4FE75FECC701B601E8
:100A80000E94721287FDE4CF20E030E0A901C70187
:100A9000B6010E94721287FF0DC041E06DE28FE641
:100AA00092E00E948404F7FAF094F7F8F094C1E021
:100AB000D0E002C0C0E0D0E000E060E070E080E0A4
:100AC0009FE3011740F420E030E040E251E40E944F
:100AD00077120F5FF6CFA70196010E9406126B01F5
:100AE0007C010E94F0124B015C012AE0AB01BC01C9
:100AF0008FE692E00E94B403C80FD91F1123C9F1F9
:100B0000C501B4010E941F139B01AC01C701B601CE
:100B10000E9405126B017C0141E06EE28FE692E0DB
:100B20000E948404219620E030E040E251E4C701B5
:100B3000B6010E942E144B015C010E94F0126B0161
:100B4000E12CF12C2AE0B701A6018FE692E00E9489
:100B5000B403C80FD91FC701B6010E941F139B0120
:100B6000AC01C501B4010E9405126B017C0111505A
:100B7000D1F6CE01DF91CF911F910F91FF90EF90B1
:100B8000DF90CF90BF90AF909F908F90089584306A
:100B900008F083E090918202891710F08FEF890F9F
:100BA000E82FF0E0E159FD4F848980680C94DD0462
:100BB000462F50E060E070E02AE00C94B4038330EC
:100BC00081F028F4813099F08230A1F008958730C7
:100BD000A9F08830B9F08430D1F4809180008F7D05
:100BE00003C0809180008F7780938000089584B542
:100BF0008F7702C084B58F7D84BD08958091B00049
:100C00008F7703C08091B0008F7D8093B0000895EE
:100C10001F93CF93DF93282F30E0F901E250FF4F6D
:100C20008491F901EE5EFE4FD491F901E05DFE4F33
:100C3000C491CC23C1F0162F81110E94DF05EC2F47
:100C4000F0E0EE0FFF1FEA5DFE4FA591B4919FB754
:100C5000F894111104C08C91D095D82302C0EC9166
:100C6000DE2BDC939FBFDF91CF911F910895CF932F
:100C7000DF9390E0FC01EE5EFE4F2491FC01E05D0D
:100C8000FE4F8491882361F190E0880F991FFC0149
:100C9000EC50FF4FC591D491FC01EA5DFE4FA59148
:100CA000B491611109C09FB7F8948881209582237F
:100CB0008883EC912E230BC0623061F49FB7F894C7
:100CC0008881322F309583238883EC912E2B2C93AF
:100CD0009FBF06C08FB7F894E8812E2B28838FBF63
:100CE000DF91CF910895CF93DF93823028F09091D8
:100CF0007E02986090937E0280938202109283021B
:100D000080E48093840280E18093850280E5809373
:100D1000860261E0809173020E943706809174021E
:100D20008F3F19F061E00E94370661E08091750203
:100D30000E943706CFE6D2E09E012F5632408091C6
:100D40007E0284FD03C084E090E002C088E090E071
:100D50002196281739072CF461E08E810E9437060E
:100D6000EBCF8BE39DE00197F1F760E08091730298
:100D70000E94080660E0809175020E94080680913A
:100D800074028F3F19F060E00E94080680917E0295
:100D900084FD20C063E08FE692E00E945704CBE41C
:100DA000D6E4CE010197F1F763E08FE692E00E946E
:100DB00057042197F1F763E08FE692E00E94570411
:100DC00083E592E00197F1F762E08FE692E00E94FE
:100DD000570415C080620E94DD048BE496E40197FD
:100DE000F1F780917E0280620E94DD0483E592E04B
:100DF0000197F1F780917E0280620E94DD0480916C
:100E00007E0280620E94DD0484E080937F028CE099
:100E10000E94DD040E94E30482E08093800286E069
:100E2000DF91CF910C94DD044F925F926F927F928D
:100E30008F929F92AF92BF92CF92DF92EF92FF92EA
:100E40000F931F93CF93DF9300D000D01F92CDB7A5
:100E5000DEB78C012A013B0180910D01833121F025
:100E60008F3F09F03DC205C0E4E4F1E024912D83F9
:100E700072C083E180930D01E4E4F1E084918D83FD
:100E80008F3F09F42DC2813009F441C038F182301E
:100E900009F061C01092B0001092B1008091B000D2
:100EA00082608093B0008091B10081608093B10036
:100EB000E3E4F1E0E491F0E0EE0FFF1FEA5DFE4FA6
:100EC000859194919093CB018093CA01E5E2F1E082
:100ED000E491E093C90122E02D83FDC114BC15BC4F
:100EE00084B5826084BD85B5816085BDE3E4F1E0B1
:100EF000E491F0E0EE0FFF1FEA5DFE4F85919491C3
:100F0000E5E2F1E0E491E09388021D82E4C11092F1
:100F10008000109281008091810088608093810020
:100F200080918100816080938100E3E4F1E0E491AD
:100F3000F0E0EE0FFF1FEA5DFE4F85919491E5E230
:100F4000F1E0E491E093870261E083E10E943706DB
:100F500091E09D838AC08D8187FDC2C161E083E1FC
:100F60000E9437068D818D7F09F07FC04801A12C3A
:100F7000B12C60E072E18AE790E0A50194010E9443
:100F8000BE1129833A834B835C8369017A0191E026
:100F9000C91AD108E108F1082FEFC216D104E10403
:100FA000F10409F008F44EC060E472E48FE090E0D0
:100FB000A50194010E94BE1169017A0181E0C81A5D
:100FC000D108E108F1089D81923009F52FEFC21692
:100FD000D104E104F10409F008F444C160E970EDC2
:100FE00083E090E0A50194010E94BE1169017A019D
:100FF00081E0C81AD108E108F1089FEFC916D104B1
:10100000E104F10411F008F0BAC083E027C02FEF2B
:10101000C216D104E104F104B9F0B0F068E478EE4E
:1010200081E090E0A50194010E94BE1169017A015E
:1010300081E0C81AD108E108F1089D81992309F4DB
:1010400013C1DCC081E001C082E09D81911106C026
:1010500095B5987F892B85BD44C085E09091B100FE
:10106000987F892B8093B1003CC04801A12CB12C02
:1010700060E072E18AE790E0A50194010E94BE1150
:1010800069017A0181E0C81AD108E108F108C114A8
:10109000D10491E0E906F10488F068E478EE81E09B
:1010A00090E0A50194010E94BE1169017A0181E0DE
:1010B000C81AD108E108F10883E001C081E09D81F0
:1010C000913079F490918100987F892B80938100F1
:1010D000411451046104710449F42FEF3FEFA90159
:1010E0002CC0411451046104710471F0D801AA0F9D
:1010F000BB1FA30192010E94DD1128EE33E040E006
:1011000050E00E949C1103C02FEF3FEFA9018D8199
:10111000813099F0823019F18111E2C0C7BC20936F
:101120008D0230938E0240938F02509390028091F3
:101130006E00826080936E00D3C0D0928900C0920E
:1011400088002093890230938A0240938B02509347
:101150008C0280916F00826080936F00C1C0C0924A
:10116000B3002093CC013093CD014093CE01509336
:10117000CF0180917000826080937000B1C068E4FC
:1011800078EE81E090E0A50194010E94BE11690112
:101190007A0191E0C91AD108E108F1082FEFC216CF
:1011A000D104E104F10441F138F164E274EF80E02C
:1011B00090E0A50194010E94BE1169017A0181E0CD
:1011C000C81AD108E108F1089FEFC916D104E1045B
:1011D000F10409F008F441CF62E17AE780E090E0A1
:1011E000A50194010E94BE1169017A0181E0C81A2B
:1011F000D108E108F10819C084E030CF2FEFC21602
:10120000D104E104F10409F008F463C062E17AE773
:1012100080E090E0A50194010E94BE1169017A016D
:1012200091E0C91AD108E108F1088FEFC816D1047E
:10123000E104F104A9F0A0F089819A81AB81BC811D
:101240002AE0B595A795979587952A95D1F76C01D2
:101250007D0121E0C21AD108E108F10887E0FECE45
:1012600086E0FCCE82E0FACE8FEFC816D104E1040E
:10127000F10469F160F162E17AE780E090E0A501B4
:1012800094010E94BE1169017A0191E0C91AD10846
:10129000E108F1082FEFC216D104E104F104A9F02E
:1012A000A0F089819A81AB81BC813AE0B595A79580
:1012B000979587953A95D1F76C017D0121E0C21A87
:1012C000D108E108F10885E0C3CE84E0C1CE83E017
:1012D000BFCE84E0BACE61E083E10E94370646CEFD
:1012E0000F900F900F900F900F90DF91CF911F9163
:1012F0000F91FF90EF90DF90CF90BF90AF909F90B5
:101300008F907F906F905F904F9008953FB7F894C3
:101310008091C5019091C601A091C701B091C8010B
:1013200026B5A89B05C02F3F19F00196A11DB11D40
:101330003FBFBA2FA92F982F8827820F911DA11D7B
:10134000B11DBC01CD0142E0660F771F881F991FB8
:101350004A95D1F708952FB7F8946091C101709123
:10136000C2018091C3019091C4012FBF0895CF9312
:10137000DF93CDB7DEB765970FB6F894DEBF0FBE2B
:10138000CDBF789484B5826084BD84B5816084BD0E
:1013900085B5826085BD85B5816085BD80916E0013
:1013A000816080936E001092810080918100826044
:1013B0008093810080918100816080938100809181
:1013C00080008160809380008091B1008460809370
:1013D000B1008091B00081608093B00080917A006C
:1013E000846080937A0080917A00826080937A0092
:1013F00080917A00816080937A0080917A00806881
:1014000080937A001092C10080E1E4E1F1E0DE0116
:10141000119601900D928A95E1F761E08DE00E94AE
:10142000370661E083E10E94370660E085E00E94B4
:10143000370660E086E00E94370660E084E00E94A4
:10144000370660E082E00E94370660E083E00E9499
:10145000370660E08EE00E94370660E08FE00E9471
:10146000370660E080E10E943706CE0101967C01DC
:10147000C12CD12C38E2A32EB12CD7019C9011960F
:101480007C91B2E0EB0EF11C00916D0210916E02A6
:101490000C0D1D1DD801ED91FC910280F381E02D12
:1014A00040E050E0692DC8010995F8019186108649
:1014B0000190F081E02D0190F081E02DC8010995A7
:1014C000882339F0D80118968C9118978360189664
:1014D0008C930E94AB09F8016283738384839583A4
:1014E000E0916D02F0916E02EC0DFD1DB782A682B7
:1014F000F2E1CF0ED11C20E9C216D10409F0BDCF14
:1015000082E00E9473066AE471E08FE692E00E9436
:10151000FD030E9486094B015C0120EDC22E27E0ED
:10152000D22EE12CF12C0E948609DC01CB01881916
:101530009909AA09BB09883E9340A105B10598F312
:1015400081E0C81AD108E108F10898EE890E93E00D
:10155000991EA11CB11CC114D104E104F10419F7B6
:101560000E94E304E091E001F091E10182E08083D8
:10157000E091DC01F091DD011082E091DE01F0915B
:10158000DF018FEC80831092E801E091E401F0919B
:10159000E50186E08083E091E201F091E301808142
:1015A00080618083E091E201F091E30180818860B5
:1015B0008083E091E201F091E30180818068808383
:1015C000E091E201F091E30180818F7D808322240C
:1015D000239492E0392E01E0C12CD12CE0906D02D1
:1015E000F0906E02EC0CFD1CD70118968C911897A8
:1015F0008B7F18968C931897ED91FC910190F08158
:10160000E02DC7010995182FF70180858695817017
:10161000181781F00E94AB09D70112966D937D9344
:101620008D939C93159718968C91189783251896EF
:101630008C9344C00E94AB09F70182809380A48000
:10164000B580AB01BC01481959096A097B0986813B
:101650009781A0E0B0E0481759076A077B0770F14F
:1016600080858170181751F10E94AB09D70112963D
:101670006D937D938D939C93159718968C911897E5
:101680008225846018968C930E94AB09F7018284AE
:101690009384A484B584DC01CB0188199909AA0933
:1016A000BB0986879787A08BB18B0E94AB09D701B6
:1016B0001A966D937D938D939C931D97B2E1CB0EFB
:1016C000D11CE0E9CE16D10409F088CF20916D023B
:1016D00030916E02F901EE59FF4F9081917072972F
:1016E000208125708091BB01813059F018F0823043
:1016F00059F092C5253059F0992309F48DC582E03F
:1017000009C0253031F088C5911186C502C081E03D
:1017100001C080E000930C018093BB0166E571E09D
:1017200080ED91E00E94FD036091BB0180ED91E0AE
:101730000E94D8058091BB01813009F452C320F08A
:10174000823009F4E6C465C560E08DE00E940806B9
:1017500020916D0230916E02F901EA57FF4F8081AE
:1017600081709091BA017297208120FD04C0882376
:1017700031F012E007C0882321F013E003C010E02D
:1017800001C011E091130E94E3041093BA0166E6D0
:1017900071E080ED91E00E94FD036091BA0180ED5F
:1017A00091E00E94D80564E771E080ED91E00E942D
:1017B000FD0380910C018823D1F01092B6011092A4
:1017C000B7011092B8011092B9011092BC011092A9
:1017D000BD011092BE011092BF011092B201109291
:1017E000B3011092B4011092B5010E94E3048091FC
:1017F000BA01813009F452C008F43FC0823009F4C4
:1018000089C0833009F0AAC06091060170E080E0D1
:1018100090E00E9421136B017C016091070170E050
:1018200080E090E00E9421139B01AC01C701B6014A
:101830000E9477129B01AC0160E070E080E090E4D0
:101840000E949B146B017C01609108017091090159
:1018500080910A0190910B010E941F13A70196012C
:101860000E942E140E94F0126093AE017093AF019B
:101870008093B0019093B10182C180910801909151
:101880000901A0910A01B0910B018093AE019093E0
:10189000AF01A093B001B093B1016BC06091AC01F6
:1018A0007091AD01072E000C880B990B0E9421133B
:1018B0006B017C016091070170E080E090E00E9484
:1018C00021139B01AC01C701B6010E9477129B0155
:1018D000AC0160E070E080E090E40E949B146B013A
:1018E0007C01609108017091090180910A01909139
:1018F0000B010E941F13A70196010E942E140E9443
:10190000F0126093AE017093AF018093B001909399
:10191000B101A3C0A0910601209102013091030101
:101920004091040150910501B0E00E94DD11C0908A
:101930000801D0900901E0900A01F0900B01DC0150
:10194000CB018C0D9D1DAE1DBF1D8093AE019093EC
:10195000AF01A093B001B093B101BDC0813009F4D3
:101960007CC038F0823009F4B6C0833009F043C13E
:1019700006C1E12CF12CC7010E94DE01882309F485
:1019800063C0609108017091090180910A019091F2
:101990000B010E941F134B015C01F2E0EF16F104F2
:1019A0009CF4B7016E5F7F4F072E000C880B990BDC
:1019B0000E9421139B01AC0160E070E080E291E4A1
:1019C0000E949B1490580FC0B7010F2C000C880B7D
:1019D000990B0E9421139B01AC0160E070E080E252
:1019E00091E40E949B149B01AC01C501B4010E94CB
:1019F00006124B015C0120E030E0A9010E94721246
:101A000087FD13C020E034E244E759E4C501B40186
:101A10000E94D11387FD0CC080EF882E83E2982EA0
:101A200084E7A82E89E4B82E03C0812C912C5401A0
:101A3000C501B4010E94F01260930801709309017E
:101A400080930A0190930B012FEFE21AF20A84E0CF
:101A5000E816F10409F08FCFCEC080E090E00E943C
:101A6000DE01882369F080910701282F30E02230C1
:101A700031051CF40093070103C0815080930701D6
:101A800082E090E00E94DE01882329F08091070126
:101A90008F5F8093070181E090E00E94DE01882340
:101AA00049F08091AC019091AD0101979093AD0107
:101AB0008093AC0183E090E00E94DE01882309F46A
:101AC0009AC08091AC019091AD0101969093AD01C7
:101AD0008093AC0190C080E090E00E94DE018823FA
:101AE00069F080910601282F30E0223031051CF486
:101AF0000093070103C081508093060182E090E0CB
:101B00000E94DE01882329F0809106018F5F809377
:101B1000060181E090E00E94DE018823A1F080911F
:101B2000020190910301A0910401B0910501845636
:101B30009109A109B1098093020190930301A09337
:101B40000401B093050183E090E00E94DE01882348
:101B500009F451C08091020190910301A091040108
:101B6000B09105018C599F4FAF4FBF4F8093020139
:101B700090930301A0930401B09305013CC080E061
:101B800090E00E94DE01882369F080910601282FF1
:101B900030E0223031051CF40093070103C081506E
:101BA0008093060182E090E00E94DE01882329F004
:101BB000809106018F5F8093060181E090E00E9492
:101BC000DE01882369F080910701282F30E0223060
:101BD00031051CF40093070103C081508093070175
:101BE00083E090E00E94DE01882329F080910701C4
:101BF0008F5F8093070180E00E94C70566E771E070
:101C00008FE692E00E94FD0381E00E94C70580916B
:101C1000BA01813009F43FC0A8F1823009F4A0C0B4
:101C2000833009F0F6C2609108017091090180913A
:101C30000A0190910B010E941F1320E030E04AE757
:101C400054E40E94771241E050E00E94EB046EE7FA
:101C500071E08FE692E00E94FD03609106018FE63D
:101C600092E00E94D80566E871E08FE692E00E945B
:101C7000FD03609107018FE692E00E94D80564E8B9
:101C800071E0AAC06091AE017091AF018091B00186
:101C90009091B101B2C260910801709109018091E7
:101CA0000A0190910B010E941F1320E030E04AE7E7
:101CB00054E40E94771241E050E00E94EB048091CE
:101CC000AC019091AD0197FD06C06CE771E08FE625
:101CD00092E00E94FD03C090AC01D090AD010D2CAC
:101CE000000CEE08FF08F7FE0FC041E06DE28FE642
:101CF00092E00E94840444275527BA014C195D09DB
:101D00006E097F092AE003C02AE0B701A6018FE629
:101D100092E00E94B40368E871E08FE692E00E94CE
:101D2000FD03609107018FE692E00E94D80562E70B
:101D300071E08FE692E00E94FD036091AE01709128
:101D4000AF018091B0019091B1010E941F1320E07A
:101D500030E04AE754E40E94771242E050E057C274
:101D6000609108017091090180910A0190910B0125
:101D70000E941F1320E030E04AE754E40E947712EB
:101D800041E050E00E94EB046EE771E08FE692E0E4
:101D90000E94FD03609106018FE692E00E94D80543
:101DA00061E871E08FE692E00E94FD03609102011C
:101DB0007091030180910401909105010E941F130D
:101DC00020E030E04AE754E40E94771241E050E01E
:101DD0000E94EB0463E871E08FE692E00E94FD034D
:101DE00018C280910C01882389F00E94AB09DC01A4
:101DF000CB010A96A11DB11D8093B2019093B3014E
:101E0000A093B401B093B5010E94E30461E08DE0BA
:101E10000E9408068091B2019091B301A091B40193
:101E2000B091B501898B9A8BAB8BBC8B8090AE0146
:101E30009090AF01A090B001B090B101880E991EB2
:101E4000AA1EBB1E0E94AB09861A970AA80AB90AE5
:101E50008092BC019092BD01A092BE01B092BF01E0
:101E60001091BA01123020F0143008F0DEC035C0F5
:101E70008090B6019090B701A090B801B090B901E0
:101E80000E94AB092B013C01A8EEB3E0A50194012F
:101E90000E94DD11C988DA88EB88FC88C60ED71E3F
:101EA000E81EF91E4C145D046E047F0468F044E6DD
:101EB00050E060E070E08BED93E00E9414079FEF2C
:101EC000891A990AA90AB90A8092B6019092B701B3
:101ED000A092B801B092B901A8C0A0910701AD8B42
:101EE000C090B601D090B701E090B801F090B90170
:101EF000609108017091090180910A0190910B0194
:101F00000E941F134B015C0160910201709103015B
:101F10008091040190910501123099F40E941F13E1
:101F20002B013C01C701B6010E941F139B01AC01AC
:101F3000C301B2010E942E14A50194010E94061251
:101F400021C0C701B6010E941F132B013C01BD89AE
:101F50006B2F70E080E090E00E9421139B01AC01A8
:101F6000C301B2010E9477129B01AC0160E070E0F6
:101F700080E090E40E949B149B01AC01C501B40178
:101F80000E942E144B015C010E94AB090E941F139A
:101F90002B013C0169897A898B899C896A5F710967
:101FA000810991090E941F13A50194010E94061244
:101FB0009B01AC01C301B2010E94D11387FD08C08F
:101FC00046E950E060E070E083E992E00E94140787
:101FD0000E94AB090E941F132B013C0169897A8979
:101FE0008B899C890E941F13A50194010E940612EF
:101FF0009B01AC01C301B2010E94D11387FD0DC04A
:1020000044E650E060E070E080E793E00E9414074F
:10201000EFEFCE1ADE0AEE0AFE0AC092B601D092A7
:10202000B701E092B801F092B90180E00E94C705C3
:102030006AE871E08FE692E00E94FD0381E00E9471
:10204000C7058091BA018230F8F04091B6015091F5
:10205000B7016091B8017091B9012AE08FE692E072
:102060000E94B40368E871E08FE692E00E94FD03ED
:10207000609106018FE692E00E94D80563E971E065
:102080008FE692E00E94FD036091BC017091BD015A
:102090008091BE019091BF010E941F1320E030E0AB
:1020A0004AE754E40E94771241E050E00E94EB04BA
:1020B000C090BC01D090BD01E090BE01F090BF0186
:1020C000C701B6010E941F130E94D6134B015C0189
:1020D000C701B6016C597F4F8F4F9F4F0E941F134E
:1020E0000E94D6132B013C01C501B4010E94E912E4
:1020F0007B01FFEFEF1AFF0AC301B2010E94E91250
:102100006F5F7F4FE616F70609F483C00E94E30471
:1021100080C080910C01882389F00E94AB09DC010A
:10212000CB010A96A11DB11D8093B2019093B3011A
:10213000A093B401B093B5010E94E30461E08DE087
:102140000E940806C090B601D090B701E090B80197
:10215000F090B9014090B2015090B3016090B40189
:102160007090B5010E94AB094B015C01A8EEB3E091
:10217000A70196010E94DD11DC01CB01840D951DA4
:10218000A61DB71D88169906AA06BB0668F044E688
:1021900050E060E070E08BED93E00E9414072FEFB9
:1021A000C21AD20AE20AF20AC092B601D092B7016C
:1021B000E092B801F092B90180E00E94C70566E99B
:1021C00071E08FE692E00E94FD0381E00E94C70566
:1021D0000E94AB09C090B201D090B301E090B4016D
:1021E000F090B5016C157D058E059F0590F00E945D
:1021F000AB096C197D098E099F090E941F1320E00D
:1022000030E04AE754E40E94771241E050E00E9437
:10221000EB040E94D001E0C910920C017DCA10921B
:10222000D3011092D20188EE93E0A0E0B0E0809359
:10223000D4019093D501A093D601B093D70188E241
:1022400091E09093D1018093D00185EC90E0909340
:10225000DD018093DC0184EC90E09093DF018093BA
:10226000DE0180EC90E09093E1018093E00181EC4D
:1022700090E09093E3018093E20182EC90E09093F0
:10228000E5018093E40186EC90E09093E701809370
:10229000E6011092E9011092EA011092EB0110920E
:1022A000EC01109272021092710282E491E090931C
:1022B000700280936F0287E0809373028FEF8093A8
:1022C000740288E08093750289E0809376028AE048
:1022D000809377028BE0809378028CE08093790280
:1022E00010927A0210927B0210927C0210927D0270
:1022F00010927E0281E00E94730680E990E00E94C5
:10230000D515FC019C0120573F4F6AE371E04AE07C
:1023100050E0718360831282138214821582578386
:102320004683108611867296E217F30791F7909311
:102330006E0280936D020895A1E21A2EAA1BBB1BA8
:10234000FD010DC0AA1FBB1FEE1FFF1FA217B30781
:10235000E407F50720F0A21BB30BE40BF50B661F97
:10236000771F881F991F1A9469F76095709580955B
:1023700090959B01AC01BD01CF010895052E97FBFF
:102380001EF400940E94D51157FD07D00E949C11A5
:1023900007FC03D04EF40C94D51150954095309520
:1023A00021953F4F4F4F5F4F0895909580957095C1
:1023B00061957F4F8F4F9F4F08950E94F611A59F03
:1023C000900DB49F900DA49F800D911D1124089530
:1023D000B7FF0C94DD110E94DD11821B930B089551
:1023E000EE0FFF1F0590F491E02D0994A29FB0011C
:1023F000B39FC001A39F700D811D1124911DB29F39
:10240000700D811D1124911D08955058BB27AA27D6
:102410000E941D120C9497130E94891338F00E9499
:10242000901320F039F49F3F19F426F40C9486138E
:102430000EF4E095E7FB0C948013E92F0E94A8139B
:1024400058F3BA17620773078407950720F079F4E9
:10245000A6F50C94CA130EF4E0950B2EBA2FA02DFE
:102460000B01B90190010C01CA01A0011124FF2741
:10247000591B99F0593F50F4503E68F11A16F0403C
:10248000A22F232F342F4427585FF3CF469537953B
:102490002795A795F0405395C9F77EF41F16BA0B00
:1024A000620B730B840BBAF09150A1F0FF0FBB1FAE
:1024B000661F771F881FC2F70EC0BA0F621F731FF7
:1024C000841F48F4879577956795B795F7959E3F54
:1024D00008F0B0CF9395880F08F09927EE0F9795E5
:1024E000879508950E945C1308F481E008950E9486
:1024F0008B120C9497130E94901358F00E9489132A
:1025000040F029F45F3F29F00C94801351110C9492
:10251000CB130C9486130E94A81368F39923B1F38C
:10252000552391F3951B550BBB27AA2762177307F9
:10253000840738F09F5F5F4F220F331F441FAA1F8D
:10254000A9F335D00E2E3AF0E0E832D09150504049
:10255000E695001CCAF72BD0FE2F29D0660F771FF7
:10256000881FBB1F261737074807AB07B0E809F0DD
:10257000BB0B802DBF01FF2793585F4F3AF09E3F62
:10258000510578F00C9480130C94CB135F3FE4F367
:10259000983ED4F3869577956795B795F7959F5FA5
:1025A000C9F7880F911D9695879597F90895E1E0F1
:1025B000660F771F881FBB1F621773078407BA0750
:1025C00020F0621B730B840BBA0BEE1F88F7E095AB
:1025D00008950E94F0126894B1110C94CB130895E1
:1025E0000E94B01388F09F5798F0B92F9927B751E0
:1025F000B0F0E1F0660F771F881F991F1AF0BA95A7
:10260000C9F714C0B13091F00E94CA13B1E0089527
:102610000C94CA13672F782F8827B85F39F0B93F19
:10262000CCF3869577956795B395D9F73EF4909559
:102630008095709561957F4F8F4F9F4F0895E894D7
:1026400009C097FB3EF490958095709561957F4FFA
:102650008F4F9F4F9923A9F0F92F96E9BB279395A8
:10266000F695879577956795B795F111F8CFFAF4B8
:10267000BB0F11F460FF1BC06F5F7F4F8F4F9F4FE9
:1026800016C0882311F096E911C0772321F09EE847
:10269000872F762F05C0662371F096E8862F70E0AD
:1026A00060E02AF09A95660F771F881FDAF7880F87
:1026B0009695879597F90895990F0008550FAA0BDD
:1026C000E0E8FEEF16161706E807F907C0F0121645
:1026D0001306E407F50798F0621B730B840B950B48
:1026E00039F40A2661F0232B242B252B21F408959D
:1026F0000A2609F4A140A6958FEF811D811D08953A
:1027000097F99F6780E870E060E008959FEF80ECA4
:10271000089500240A941616170618060906089547
:1027200000240A9412161306140605060895092EAD
:102730000394000C11F4882352F0BB0F40F4BF2B1C
:1027400011F460FF04C06F5F7F4F8F4F9F4F08955C
:1027500057FD9058440F551F59F05F3F71F0479552
:10276000880F97FB991F61F09F3F79F08795089537
:10277000121613061406551FF2CF4695F1DF08C056
:10278000161617061806991FF1CF86957105610573
:1027900008940895E894BB2766277727CB0197F91B
:1027A00008950E945C1308F48FEF08950E94E613C9
:1027B00029ED3BE54EED5EE30C942E1416F00C94DF
:1027C0002A150C94861368940C9480130E94B013FD
:1027D000A8F39923C1F3AEF3DF93CF931F930F9325
:1027E000FF92C92FDD2788232AF02197660F771FD4
:1027F000881FDAF720E030E040E85FEB9FE388399C
:1028000020F0803E38F021968F770E940612E8E68D
:10281000F0E004C00E940612E5E9F0E00E943815DD
:102820008B01BE01EC01FB2E6F5771097595771F67
:10283000880B990B0E94211328E132E741E35FE303
:102840000E944114AF2D9801AE01FF900F911F918E
:10285000CF91DF910E941D120C9497130E94411496
:102860000C9497130E94891338F00E94901320F063
:10287000952311F00C9480130C94861311240C945E
:10288000CB130E94A81370F3959FC1F3950F50E0EE
:10289000551F629FF001729FBB27F00DB11D639F12
:1028A000AA27F00DB11DAA1F649F6627B00DA11DB8
:1028B000661F829F2227B00DA11D621F739FB00D5E
:1028C000A11D621F839FA00D611D221F749F3327CE
:1028D000A00D611D231F849F600D211D822F762F67
:1028E0006A2F11249F5750409AF0F1F088234AF044
:1028F000EE0FFF1FBB1F661F771F881F91505040B0
:10290000A9F79E3F510580F00C9480130C94CB13D3
:102910005F3FE4F3983ED4F3869577956795B79536
:10292000F795E7959F5FC1F7FE2B880F911D969550
:10293000879597F90895FA01EE0FFF1F309621054C
:102940003105A1F16115710561F48038BFE39B0782
:1029500049F168949038810561F08038BFEF9B079A
:1029600041F099234AF5FF3FE1053105210519F1B1
:10297000E8940894E795D901AA2329F4AB2FBE2F38
:10298000F85FD0F310C0FF5F70F4A695E0F7F73959
:1029900050F019F0FF3A38F49F779F930DD00F90C5
:1029A00007FC9058089546F00C94861360E070E0A0
:1029B00080E89FE308954FE79F775F934F933F939E
:1029C0002F930E94E6132F913F914F915F910E94A8
:1029D0002E140C94F8140E945C13880B990B089524
:1029E00029F416F00C9480130C94CA130C948613DB
:1029F0000E94B013A8F39638A0F707F80F92E89456
:102A00002BE33AEA48EB5FE70E9444140F920F92DF
:102A10000F924DB75EB70F920E94A115E2ECF0E065
:102A20000E9438154F915F91EF91FF91E595EE1F50
:102A3000FF1F49F0FE57E0684427EE0F441FFA9548
:102A4000E1F74195550B0E946B150F9007FE0C9412
:102A50005F1508959F3F31F0915020F48795779549
:102A60006795B795880F911D9695879597F9089565
:102A7000DF93CF931F930F93FF92EF92DF927B012F
:102A80008C01689406C0DA2EEF010E944114FE0109
:102A9000E894A5912591359145915591A6F3EF01C3
:102AA0000E941D12FE019701A801DA9469F7DF90D8
:102AB000EF90FF900F911F91CF91DF9108959B01AF
:102AC000AC0160E070E080E89FE30C9477120C9416
:102AD00080130C942A150E94B013D8F39923C9F3DC
:102AE000940F511DA3F39150504094F059F0882356
:102AF00032F0660F771F881F91505040C1F79E3FFC
:102B000051052CF7880F911D9695879597F9089593
:102B10005F3FACF0983E9CF0BB2786957795679514
:102B2000B79508F4B1609395C1F7BB0F58F711F44E
:102B300060FFE8CF6F5F7F4F8F4F9F4FE3CF0C94C5
:102B4000CB13FA01DC01AA0FBB1F9B01AC01BF57DD
:102B500028F4222733274427507820C0B75190F417
:102B6000AB2F0024469537952795011CA395D2F3EA
:102B7000002071F0220F331F441FB395DAF30ED0FB
:102B80000C94051261307105A0E88A07B94630F44B
:102B90009B01AC016627772788279078309621F033
:102BA000208331834283538308950F931F93CF93E0
:102BB000DF938230910510F482E090E0E09193027F
:102BC000F091940220E030E0A0E0B0E0309719F1FD
:102BD000408151810281138148175907C8F0841739
:102BE000950769F4109731F012960C93129713968B
:102BF0001C9327C0009393021093940222C02115C6
:102C0000310519F04217530718F49A01BD01EF017D
:102C1000DF01F801DBCF21153105F9F0281B390B55
:102C20002430310580F48A819B816115710521F082
:102C3000FB019383828304C0909394028093930258
:102C4000FE01329644C0FE01E20FF31F819391937F
:102C500022503109398328833AC020919102309162
:102C60009202232B41F420911001309111013093F5
:102C700092022093910220910E0130910F012115B3
:102C8000310541F42DB73EB7409112015091130127
:102C9000241B350BE0919102F0919202E217F307A9
:102CA000A0F42E1B3F0B2817390778F0AC014E5FBC
:102CB0005F4F2417350748F04E0F5F1F5093920265
:102CC000409391028193919302C0E0E0F0E0CF0144
:102CD000DF91CF911F910F910895CF93DF930097CC
:102CE00009F481C0FC01329713821282A0919302F1
:102CF000B0919402109781F420813181820F931F4B
:102D000020919102309192022817390751F5F093E2
:102D10009202E093910267C0ED0120E030E0CE170F
:102D2000DF0740F44A815B819E0141155105F1F0B6
:102D3000EA01F5CFD383C28340815181840F951F6F
:102D4000C817D90759F488819981840F951F029675
:102D5000918380838A819B819383828321153105AE
:102D600029F4F0939402E09393023DC0E901FB83C0
:102D7000EA8349915991C40FD51FEC17FD0761F4FF
:102D800080819181840F951F0296E9019983888340
:102D9000828193819B838A83E0E0F0E012968D919B
:102DA0009C911397009719F0FD01DC01F7CF8D91ED
:102DB0009C9111979D012E5F3F4F820F931F209191
:102DC0009102309192022817390769F4309729F45B
:102DD000109294021092930202C013821282B09356
:102DE0009202A0939102DF91CF91089581E090E04B
:0A2DF000F8940C94FB16F894FFCF42
:102DFA0064008813000006031027000001FF00008A
:102E0A0095022000020003000500060004000E00DF
:102E1A000F001000000000006101CE00F800AE01B2
:102E2A00290107011B0100000000AC02A6020000F4
:102E3A000000D704CE00DB01DA01726574656765AC
:102E4A002076302E310072756E6E696E675374612A
:102E5A00747573203D0072756E6E696E674D6F648E
:102E6A0065203D000A005345545550002B002B5B4A
:102E7A00002A00735D002A312F004558504F5355E0
:102E8A00524500202000464F435553006E616E00A4
:082E9A00696E66006F766600A8
:00000001FF
