:100000000C94A3000C94CB000C94CB000C94CB006C
:100010000C94CB000C94CB000C94CB000C94CB0034
:100020000C94CB000C94CB000C94CB000C94CB0024
:100030000C94CB000C94CB000C94CB000C94CB0014
:100040000C94F3050C94CB000C9463060C943D06C1
:100050000C94CB000C94CB000C94CB000C94CB00F4
:100060000C94CB000C94CB0007634236B79BD8A707
:100070001A39685618AEBAAB558C1D3CB7CC5763CD
:10008000BD6DEDFD753EF6177231BF000000803F7B
:1000900008000000BE922449123EABAAAA2ABECD97
:1000A000CCCC4C3E00000080BEABAAAAAA3E000009
:1000B0000000BF000000803F000000000008417801
:1000C000D3BB4387D1133D190E3CC3BD4282AD2B38
:1000D0003E68EC8276BED98FE1A93E4C80EFFFBE30
:1000E00001C4FF7F3F00000000000000000023006B
:1000F0002600290000000000240027002A0000003C
:100100000000250028002B00040404040404040457
:1001100002020202020203030303030301020408B2
:100120001020408001020408102001020408102061
:1001300000000008000201000003040700000000A6
:1001400000000000950611241FBECFEFD8E0DEBFEF
:10015000CDBF11E0A0E0B1E0E0E9FEE102C0059012
:100160000D92AC35B107D9F722E0ACE5B1E001C0A2
:100170001D92A632B207E1F710E0C3EAD0E004C056
:100180002197FE010E94590AC23AD107C9F70E947D
:1001900022070C94460F0C940000833081F028F461
:1001A000813099F08230A1F008958730A9F088302D
:1001B000B9F08430D1F4809180008F7D03C08091AC
:1001C00080008F7780938000089584B58F7702C078
:1001D00084B58F7D84BD08958091B0008F7703C072
:1001E0008091B0008F7D8093B00008951F93CF93CE
:1001F000DF93282F30E0F901E05DFE4F8491F90193
:10020000E45EFE4FD491F901E85FFE4FC491CC2328
:10021000C1F0162F81110E94CD00EC2FF0E0EE0FFF
:10022000FF1FE250FF4FA591B4919FB7F8941111B1
:1002300004C08C91D095D82302C0EC91DE2BDC93C6
:100240009FBFDF91CF911F910895CF93DF9390E0EF
:10025000FC01E45EFE4F2491FC01E85FFE4F8491B7
:10026000882361F190E0880F991FFC01EC50FF4F4B
:10027000C591D491FC01E250FF4FA591B491611159
:1002800009C09FB7F8948881209582238883EC91D8
:100290002E230BC0623061F49FB7F8948881322F0F
:1002A000309583238883EC912E2B2C939FBF06C01F
:1002B0008FB7F894E8812E2B28838FBFDF91CF91E1
:1002C00008953FB7F8948091670190916801A091DB
:1002D0006901B0916A0126B5A89B05C02F3F19F0AE
:1002E0000196A11DB11D3FBFBA2FA92F982F8827B6
:1002F000820F911DA11DB11DBC01CD0142E0660F11
:10030000771F881F991F4A95D1F708952FB7F89442
:100310006091630170916401809165019091660123
:100320002FBF0895DC01ED91FC910190F081E02D4B
:100330000994CF92DF92EF92FF920F931F93CF9386
:10034000DF936C017A018B01C0E0D0E0CE15DF05B0
:1003500081F0D8016D918D01D601ED91FC91019054
:10036000F081E02DC6010995892B11F02196EECF81
:100370007E01C701DF91CF911F910F91FF90EF9008
:10038000DF90CF900895FC01538D448D252F30E0F0
:10039000842F90E0821B930B541710F0CF96089592
:1003A00001970895FC01918D828D981761F0828DDF
:1003B000DF01A80FB11D5D968C91928D9F5F9F7399
:1003C000928F90E008958FEF9FEF0895FC01918D3B
:1003D000828D981731F0828DE80FF11D858D90E0A8
:1003E00008958FEF9FEF0895FC01918D228D892F45
:1003F00090E0805C9F4F821B91098F73992708952D
:100400008BE691E00E94F40121E0892B09F420E0C1
:10041000822F0895FC01848DDF01A80FB11DA35A1E
:10042000BF4F2C91848D90E001968F739927848F14
:10043000A689B7892C93A089B1898C918370806437
:100440008C93938D848D981306C00288F389E02DD8
:1004500080818F7D80830895EF92FF920F931F9389
:10046000CF93DF93EC0181E0888F9B8D8C8D981367
:1004700005C0E889F989808185FD26C0F62E0B8D9F
:1004800010E00F5F1F4F0F731127E02E8C8DE812C5
:100490000CC00FB607FCFACFE889F989808185FF87
:1004A000F5CFCE010E940A02F1CF8B8DFE01E80F3D
:1004B000F11DE35AFF4FF0829FB7F8940B8FEA8942
:1004C000FB89808180620AC09FB7F894EE89FF891A
:1004D0006083E889F98980818370806480839FBF0D
:1004E00081E090E0DF91CF911F910F91FF90EF900D
:1004F0000895CF93DF93EC01888D8823C9F0EA89B2
:10050000FB89808185FD05C0A889B9898C9186FD0C
:100510000FC00FB607FCF5CF808185FFF2CFA88909
:10052000B9898C9185FFEDCFCE010E940A02E7CFF9
:10053000DF91CF91089580E090E0892B29F00E940F
:10054000000281110C9400000895CF93DF93EC0119
:1005500060E08E810E94F60061E08E810E94F600CC
:1005600060E08E810E94F6008BE891E00197F1F740
:10057000DF91CF910895CF92DF92EF92FF920F9388
:100580001F93CF93DF936C017C0187E0E80EF11C91
:10059000C0E0D0E0062F10E0B8010C2E02C0759527
:1005A00067950A94E2F76170F70181917F010E94DB
:1005B000F6002196C430D10579F7C601DF91CF91BD
:1005C0001F910F91FF90EF90DF90CF900C94A502B8
:1005D000CF92DF92EF92FF920F931F93CF93DF930F
:1005E000EC01F62E642F8C810E94F6008D818F3FE6
:1005F00019F060E00E94F6008F850F2D10E084FF57
:1006000025C06E0187E0C80ED11CE12CF12CB80189
:100610000E2C02C0759567950A94E2F76170F60199
:1006200081916F010E94F600FFEFEF1AFF0A88E048
:10063000E816F10461F7CE01DF91CF911F910F9180
:10064000FF90EF90DF90CF900C94A502B80184E06A
:10065000759567958A95E1F7CE010E94BB026F2DD3
:10066000CE01DF91CF911F910F91FF90EF90DF901E
:10067000CF900C94BB0240E0682F8AE092E00C948B
:10068000E802CF93DF93823028F0909119029860AE
:100690009093190280931D0210921E0280E48093B1
:1006A0001F0280E18093200280E58093210261E0B7
:1006B00080910E020E94250180910F028F3F19F058
:1006C00061E00E94250161E0809110020E942501F5
:1006D000CAE0D2E09E012A5032408091190284FD86
:1006E00003C084E090E002C088E090E021962817E3
:1006F00039072CF461E08E810E942501EBCF8BE35A
:100700009DE00197F1F760E080910E020E94F600F3
:1007100060E0809110020E94F60080910F028F3FEE
:1007200019F060E00E94F6008091190284FD20C05B
:1007300063E08AE092E00E94BB02CBE4D6E4CE0103
:100740000197F1F763E08AE092E00E94BB022197F3
:10075000F1F763E08AE092E00E94BB0283E592E059
:100760000197F1F762E08AE092E00E94BB0215C0B7
:1007700080620E943B038BE496E40197F1F780913D
:10078000190280620E943B0383E592E00197F1F732
:100790008091190280620E943B038091190280625D
:1007A0000E943B0384E080931A028CE00E943B038A
:1007B00081E00E943B038BE39FE10197F1F782E028
:1007C00080931B0286E0DF91CF910C943B03643051
:1007D00008F063E090911D02691710F06FEF690F48
:1007E000E62FF0E0E65FFD4F9489890F80680C9456
:1007F0003B0341E00E94E80281E090E00895089503
:1008000080E090E00895862F642F0C942501CF930B
:10081000DF93FC01218530E0F901E05DFE4F84911A
:10082000F901E45EFE4FD491F901E85FFE4FC491F7
:10083000CC2379F081110E94CD00EC2FF0E0EE0F77
:10084000FF1FE651FF4FA591B491EC91ED2381E09C
:1008500009F480E08170DF91CF910895CF92DF920B
:10086000EF92FF920F931F93CF93DF9322E1AC019E
:10087000249FC001259F900D1124C0910802D091A2
:100880000902C80FD91F988590FF22C00E948601D7
:10089000E0915C01F0915D0124E62E9F80012F9F85
:1008A000100D112420E030E0CA84DB84EC84FD8448
:1008B000AB01BC014C195D096E097F0904171507CE
:1008C0002607370768F080E0988590FD11C001C0C9
:1008D00080E092FF0DC010925D0110925C0108C093
:1008E000CF01019690935D0180935C0181E0ECCF94
:1008F000DF91CF911F910F91FF90EF90DF90CF90FC
:1009000008950E94410F6115710579F0FB01019076
:100910000020E9F73197AF01461B570BDC01ED9141
:10092000FC910280F381E02D099480E090E008952D
:100930008F929F92AF92BF92EF92FF920F931F936D
:10094000CF93DF93CDB7DEB7A1970FB6F894DEBF94
:100950000FBECDBF7C01FA01CB0119A2223008F4F1
:100960002AE08E010F5D1F4F822E912CA12CB12CFD
:10097000BF01A50194010E94370AF901CA01015083
:1009800011096A3014F4605D01C0695CD8016C9390
:10099000232B242B252B61F7B801C7010E94830468
:1009A000A1960FB6F894DEBF0FBECDBFDF91CF91F9
:1009B0001F910F91FF90EF90BF90AF909F908F90FD
:1009C0000895CF92DF92EF92FF920F931F93CF93F0
:1009D000DF936B01770FEE08FF08F7FE1BC0EC01F9
:1009E0006DE20E9492018C0144275527BA014C19EF
:1009F0005D096E097F092AE0CE010E949804800FEC
:100A0000911FDF91CF911F910F91FF90EF90DF9099
:100A1000CF9008952AE0B701A601DF91CF911F91F1
:100A20000F91FF90EF90DF90CF900C9498047F92FD
:100A30008F929F92AF92BF92CF92DF92EF92FF92EE
:100A40000F931F93CF93DF938C016A017B01722E6A
:100A50009A01AB01C701B6010E94E60C882319F088
:100A600062E471E027C046015701E894B7F82FEF20
:100A70003FEF4FE75FE7C501B4010E94E60C81112B
:100A80000DC02FEF3FEF4FE75FE7C501B4010E94B4
:100A9000CC0A18161CF466E471E00CC02FEF3FEF8F
:100AA0004FE75FE4C701B6010E94240C181694F4C6
:100AB0006AE471E0C801DF91CF911F910F91FF901F
:100AC000EF90DF90CF90BF90AF909F908F907F90EE
:100AD0000C9483042FEF3FEF4FE75FECC701B601A3
:100AE0000E94CC0A87FDE4CF20E030E0A901C701D5
:100AF000B6010E94CC0A87FF0AC06DE2C8010E94BD
:100B00009201EC01F7FAF094F7F8F09402C0C0E01B
:100B1000D0E0B12C60E070E080E09FE37B1441F016
:100B200020E030E040E251E40E94D10AB394F6CFD5
:100B3000A70196010E94600A6B017C010E94430B91
:100B40004B015C012AE0AB01BC01C8010E94980482
:100B5000C80FD91F7720C1F1C501B4010E94720BE3
:100B60009B01AC01C701B6010E945F0A6B017C01C9
:100B70006EE2C8010E949201C80FD91F20E030E048
:100B800040E251E4C701B6010E94290C4B015C010F
:100B90000E94430B6B01E12CF12C2AE0B701A60166
:100BA000C8010E949804C80FD91FC701B6010E944E
:100BB000720B9B01AC01C501B4010E945F0A6B017D
:100BC0007C017A947110DACFCE01DF91CF911F9121
:100BD0000F91FF90EF90DF90CF90BF90AF909F90DC
:100BE0008F907F9008951F920F920FB60F9211244D
:100BF0002F933F938F939F93AF93BF938091630104
:100C000090916401A0916501B091660130916201FB
:100C100023E0230F2D3720F40196A11DB11D05C03F
:100C200026E8230F0296A11DB11D20936201809337
:100C3000630190936401A0936501B0936601809174
:100C4000670190916801A0916901B0916A010196D4
:100C5000A11DB11D8093670190936801A093690164
:100C6000B0936A01BF91AF919F918F913F912F9166
:100C70000F900FBE0F901F9018951F920F920FB6F6
:100C80000F9211242F933F934F935F936F937F9312
:100C90008F939F93AF93BF93EF93FF938BE691E076
:100CA0000E940A02FF91EF91BF91AF919F918F91A6
:100CB0007F916F915F914F913F912F910F900FBE58
:100CC0000F901F9018951F920F920FB60F9211243C
:100CD0002F938F939F93EF93FF93E0917B01F0917C
:100CE0007C018081E0918101F091820182FD12C03E
:100CF0009081809184018F5F8F732091850182178D
:100D000051F0E0918401F0E0E559FE4F958F80931A
:100D1000840101C08081FF91EF919F918F912F916C
:100D20000F900FBE0F901F90189510926E011092A9
:100D30006D0188EE93E0A0E0B0E080936F019093A6
:100D40007001A0937101B093720180E291E09093E1
:100D50006C0180936B0185EC90E090937801809317
:100D6000770184EC90E090937A018093790180EC94
:100D700090E090937C0180937B0181EC90E09093D4
:100D80007E0180937D0182EC90E0909380018093BE
:100D90007F0186EC90E09093820180938101109214
:100DA00084011092850110928601109287011092A1
:100DB0000D0210920C028AE391E090930B02809353
:100DC0000A0287E080930E028FEF80930F0288E083
:100DD0008093100289E0809311028AE080931202CE
:100DE0008BE0809313028CE0809314021092150222
:100DF0001092160210921702109218021092190205
:100E000081E00E94410380E990E00E94200EFC01F5
:100E10009C0120573F4F62E371E04AE050E071834C
:100E20006083128213821482158257834683108650
:100E300011867296E217F30791F790930902809357
:100E400008020895789484B5826084BD84B5816079
:100E500084BD85B5826085BD85B5816085BD809185
:100E60006E00816080936E001092810080918100FD
:100E700082608093810080918100816080938100F5
:100E8000809180008160809380008091B1008460B7
:100E90008093B1008091B00081608093B000809118
:100EA0007A00846080937A0080917A0082608093D7
:100EB0007A0080917A00816080937A0080917A0034
:100EC000806880937A001092C100E0917B01F091DC
:100ED0007C0182E08083E0917701F09178011082BB
:100EE000E0917901F0917A018FEC80831092830177
:100EF000E0917F01F091800186E08083E0917D01A7
:100F0000F0917E01808180618083E0917D01F0918C
:100F10007E01808188608083E0917D01F0917E0177
:100F2000808180688083E0917D01F0917E018081E5
:100F30008F7D80835CE0E52E51E0F52E00E010E02F
:100F400069E1C62ED12CF701B0807181F2E0EF0E7D
:100F5000F11CC0910802D0910902C00FD11FE88195
:100F6000F9810280F381E02D40E050E06B2DCE014D
:100F70000995B9861886E881F9810190F081E02D04
:100F8000CE010995882319F08885836088870E949F
:100F900086016A837B838C839D83E0910802F091B4
:100FA0000902E00FF11FD782C6820E5E1F4F003983
:100FB000110549F682E00E9441036EE471E08AE087
:100FC00092E00E9483040E9461014B015C014CEDA0
:100FD000C42E45E0D42EE12CF12C0E946101DC01ED
:100FE000CB0188199909AA09BB09883E9340A1053C
:100FF000B10598F321E0C21AD108E108F10888EEA2
:10100000880E83E0981EA11CB11CC114D104E10418
:10101000F10419F781E00E943B038BE39FE1019704
:10102000F1F793E0A92EB12C22E0E22EF12CCC2492
:10103000C394D12C00E010E0C0910802D0910902C5
:10104000C00FD11F88858B7F8887E881F981019047
:10105000F081E02DCE010995982E888586958170C6
:10106000981659F00E9486016A837B838C839D8346
:101070008885F2E08F2788873AC00E9486014A80DF
:101080005B806C807D80AB01BC0144195509660909
:1010900077098E819F81A0E0B0E0481759076A0761
:1010A0007B0728F188858170981609F10E948601D6
:1010B0006A837B838C839D83888521E0822784607B
:1010C00088870E9486014A845B846C847D84DC016D
:1010D000CB0184199509A609B7098E879F87A88B2C
:1010E000B98B0E9486016A877B878C879D870E5EFD
:1010F0001F4F0039110509F09FCFC0910802D09110
:101100000902FE01EC58FF4F8081729680FD0DC0F0
:10111000808180FD05C0109261011092600111C0B4
:10112000D0926101C09260010CC0808180FD05C039
:10113000F0926101E092600104C0B0926101A0925E
:10114000600180915E0190915F018130910509F409
:1011500039C18230910509F440C1892B09F042C19F
:1011600084E090E00E942E04882329F0D0925F0151
:10117000C0925E0109C0CE59DF4F888180FF06C052
:10118000F0925F01E0925E010E9486018091600111
:1011900090916101009731F0019709F023C1C0E0FF
:1011A000D0E086C0C0E0D0E0CE010E942E048823AB
:1011B00009F478C0BE01C230D105BCF46150710998
:1011C000072E000C880B990B0E94740B9B01AC013D
:1011D00060E070E080E291E40E94960C2B013C01FB
:1011E00077FA709477F8709412C063507109072EE3
:1011F000000C880B990B0E94740B9B01AC0160E002
:1012000070E080E291E40E94960C2B013C01BE014B
:101210008BE691E00E94E10467E571E08BE691E0E6
:101220000E94830422E0B301A2018BE691E00E94B8
:10123000170569E571E08BE691E00E948304209137
:101240000201309103014091040150910501C30155
:10125000B2010E94600A2B013C0120E030E0A901AC
:101260000E94CC0A87FD13C020E030E04AE754E436
:10127000C301B2010E94240C181664F48AE9482EB6
:1012800089EF582E89E7682E84E4782E03C0412C1C
:10129000512C3201409202015092030160920401EC
:1012A000709205012196C430D10509F07DCF9AC016
:1012B000CE010E942E04882371F08091000190914C
:1012C00001018C0F9D1F8130910509F001979093CA
:1012D0000101809300012296C430D10549F701E055
:1012E00010E0C8010E942E04882309F465C0809094
:1012F000000190900101B4018BE691E00E94E104AD
:1013000067E571E08BE691E00E948304E801229793
:10131000BE018BE691E00E94E104B401990C880BB8
:10132000990B0E94740B9B01AC0160E070E080E8B7
:101330009FE30E94D10A2091020130910301409164
:101340000401509105010E94290C1B012C01BE01D2
:10135000DD0F880B990B0E94740B9B01AC01C2013D
:10136000B1010E94290C1B012C0167E571E08BE69D
:1013700091E00E94830422E0B201A1018BE691E09A
:101380000E94170569E571E08BE691E00E948304F5
:10139000A201910160910201709103018091040109
:1013A000909105010E94600A60930201709303010D
:1013B00080930401909305010E5F1F4F05301105C6
:1013C00089F08FCF84E090E00E942E04882351F0B2
:1013D00010925F0110925E0105C0CE59DF4F8881E7
:1013E00080FFF6CF60E080E00E94E703609160013B
:1013F000709161018AE092E00E94E10460E082E085
:101400000E94E70360915E0170915F018AE092E0C3
:101410000E94E10461E080E00E94E70361E070E087
:101420008AE092E00E94E10461E082E00E94E7032A
:10143000409100015091010160E070E02AE08AE0F3
:1014400092E00E94980461E085E00E94E7034091E9
:10145000020150910301609104017091050122E0A5
:101460008AE092E00E9417050E949B02E3CDA1E270
:101470001A2EAA1BBB1BFD010DC0AA1FBB1FEE1F0E
:10148000FF1FA217B307E407F50720F0A21BB30B59
:10149000E40BF50B661F771F881F991F1A9469F7D5
:1014A00060957095809590959B01AC01BD01CF0131
:1014B0000895EE0FFF1F0590F491E02D0994505808
:1014C000BB27AA270E94770A0C94EA0B0E94DC0B28
:1014D00038F00E94E30B20F039F49F3F19F426F412
:1014E0000C94D90B0EF4E095E7FB0C94D30BE92F89
:1014F0000E94FB0B58F3BA1762077307840795071E
:1015000020F079F4A6F50C941D0C0EF4E0950B2E4A
:10151000BA2FA02D0B01B90190010C01CA01A00145
:101520001124FF27591B99F0593F50F4503E68F1A0
:101530001A16F040A22F232F342F4427585FF3CFE1
:10154000469537952795A795F0405395C9F77EF4B2
:101550001F16BA0B620B730B840BBAF09150A1F0FB
:10156000FF0FBB1F661F771F881FC2F70EC0BA0F81
:10157000621F731F841F48F4879577956795B79509
:10158000F7959E3F08F0B0CF9395880F08F0992704
:10159000EE0F9795879508950E94AF0B08F481E0B0
:1015A00008950E94E50A0C94EA0B0E94E30B58F0A0
:1015B0000E94DC0B40F029F45F3F29F00C94D30B20
:1015C00051110C941E0C0C94D90B0E94FB0B68F368
:1015D0009923B1F3552391F3951B550BBB27AA27EC
:1015E00062177307840738F09F5F5F4F220F331F26
:1015F000441FAA1FA9F335D00E2E3AF0E0E832D0EE
:1016000091505040E695001CCAF72BD0FE2F29D0F0
:10161000660F771F881FBB1F261737074807AB07C2
:10162000B0E809F0BB0B802DBF01FF2793585F4F37
:101630003AF09E3F510578F00C94D30B0C941E0C9D
:101640005F3FE4F3983ED4F3869577956795B79519
:10165000F7959F5FC9F7880F911D9695879597F924
:101660000895E1E0660F771F881FBB1F621773079D
:101670008407BA0720F0621B730B840BBA0BEE1FB2
:1016800088F7E09508950E94030C88F09F5798F022
:10169000B92F9927B751B0F0E1F0660F771F881F77
:1016A000991F1AF0BA95C9F714C0B13091F00E9491
:1016B0001D0CB1E008950C941D0C672F782F88271E
:1016C000B85F39F0B93FCCF3869577956795B395B8
:1016D000D9F73EF490958095709561957F4F8F4F27
:1016E0009F4F0895E89409C097FB3EF4909580952C
:1016F000709561957F4F8F4F9F4F9923A9F0F92FD8
:1017000096E9BB279395F695879577956795B79555
:10171000F111F8CFFAF4BB0F11F460FF1BC06F5F3B
:101720007F4F8F4F9F4F16C0882311F096E911C04D
:10173000772321F09EE8872F762F05C0662371F06E
:1017400096E8862F70E060E02AF09A95660F771F82
:10175000881FDAF7880F9695879597F90895990F5E
:101760000008550FAA0BE0E8FEEF16161706E8076B
:10177000F907C0F012161306E407F50798F0621B8C
:10178000730B840B950B39F40A2661F0232B242B61
:10179000252B21F408950A2609F4A140A6958FEF80
:1017A000811D811D089597F99F6780E870E060E0D2
:1017B00008959FEF80EC089500240A9416161706EA
:1017C00018060906089500240A9412161306140632
:1017D00005060895092E0394000C11F4882352F095
:1017E000BB0F40F4BF2B11F460FF04C06F5F7F4F4D
:1017F0008F4F9F4F089557FD9058440F551F59F034
:101800005F3F71F04795880F97FB991F61F09F3FED
:1018100079F087950895121613061406551FF2CF16
:101820004695F1DF08C0161617061806991FF1CF66
:1018300086957105610508940895E894BB2766278D
:101840007727CB0197F908950E94AF0B08F48FEF2B
:1018500008950E943C0C0C94EA0B0E94DC0B38F0BB
:101860000E94E30B20F0952311F00C94D30B0C9401
:10187000D90B11240C941E0C0E94FB0B70F3959F46
:10188000C1F3950F50E0551F629FF001729FBB2777
:10189000F00DB11D639FAA27F00DB11DAA1F649F13
:1018A0006627B00DA11D661F829F2227B00DA11DC6
:1018B000621F739FB00DA11D621F839FA00D611D4C
:1018C000221F749F3327A00D611D231F849F600D6D
:1018D000211D822F762F6A2F11249F5750409AF096
:1018E000F1F088234AF0EE0FFF1FBB1F661F771F22
:1018F000881F91505040A9F79E3F510580F00C94ED
:10190000D30B0C941E0C5F3FE4F3983ED4F3869502
:1019100077956795B795F795E7959F5FC1F7FE2B8C
:10192000880F911D9695879597F90895FA01EE0F06
:10193000FF1F309621053105A1F16115710561F494
:101940008038BFE39B0749F168949038810561F0C6
:101950008038BFEF9B0741F099234AF5FF3FE1052F
:101960003105210519F1E8940894E795D901AA23D6
:1019700029F4AB2FBE2FF85FD0F310C0FF5F70F4D7
:10198000A695E0F7F73950F019F0FF3A38F49F7751
:101990009F930DD00F9007FC9058089546F00C943B
:1019A000D90B60E070E080E89FE308954FE79F77F0
:1019B0005F934F933F932F930E94960D2F913F91EA
:1019C0004F915F910E94290C0C94F30C0E94AF0B75
:1019D000880B990B089529F416F00C94D30B0C94F2
:1019E0001D0C0C94D90B0E94030CA8F39638A0F799
:1019F00007F80F92E8942BE33AEA48EB5FE70E947E
:101A00003F0C0F920F920F924DB75EB70F920E944C
:101A1000DE0DE8E6F0E00E94250D4F915F91EF9119
:101A2000FF91E595EE1FFF1F49F0FE57E068442740
:101A3000EE0F441FFA95E1F74195550B0E94580DA2
:101A40000F9007FE0C944C0D0895DF93CF931F93D6
:101A50000F93FF92EF92DF927B018C01689406C096
:101A6000DA2EEF010E943C0CFE01E894A59125912D
:101A7000359145915591A6F3EF010E94770AFE0139
:101A80009701A801DA9469F7DF90EF90FF900F912A
:101A90001F91CF91DF9108959B01AC0160E070E050
:101AA00080E89FE30C94D10A0C94D30B0C94120E93
:101AB0000E94030CD8F39923C9F3940F511DA3F38B
:101AC0009150504094F059F0882332F0660F771F00
:101AD000881F91505040C1F79E3F51052CF7880F49
:101AE000911D9695879597F908955F3FACF0983EC4
:101AF0009CF0BB27869577956795B79508F4B160FC
:101B00009395C1F7BB0F58F711F460FFE8CF6F5FF3
:101B10007F4F8F4F9F4FE3CF0C941E0C16F00C9409
:101B2000120E0C94D90B68940C94D30B0E94030CE6
:101B3000A8F39923C1F3AEF3DF93CF931F930F93D1
:101B4000FF92C92FDD2788232AF02197660F771F80
:101B5000881FDAF720E030E040E85FEB9FE3883948
:101B600020F0803E38F021968F770E94600AE0E9ED
:101B7000F0E004C00E94600AEDEBF0E00E94250D49
:101B80008B01BE01EC01FB2E6F5771097595771F14
:101B9000880B990B0E94740B28E132E741E35FE365
:101BA0000E943C0CAF2D9801AE01FF900F911F9148
:101BB000CF91DF910E94770A0C94EA0BFA01DC01C5
:101BC000AA0FBB1F9B01AC01BF5728F42227332764
:101BD0004427507820C0B75190F4AB2F002446958D
:101BE00037952795011CA395D2F3002071F0220FA1
:101BF000331F441FB395DAF30ED00C945F0A6130A3
:101C00007105A0E88A07B94630F49B01AC0166274C
:101C1000772788279078309621F02083318342837C
:101C2000538308959F3F31F0915020F48795779525
:101C30006795B795880F911D9695879597F90895A3
:101C40000F931F93CF93DF938230910510F482E0BE
:101C500090E0E0912402F091250220E030E0A0E045
:101C6000B0E0309719F1408151810281138148170A
:101C70005907C8F08417950769F4109731F0129648
:101C80000C93129713961C9327C000932402109371
:101C9000250222C02115310519F04217530718F407
:101CA0009A01BD01EF01DF01F801DBCF21153105FC
:101CB000F9F0281B390B2430310580F48A819B818F
:101CC0006115710521F0FB019383828304C0909319
:101CD000250280932402FE01329644C0FE01E20FE9
:101CE000F31F8193919322503109398328833AC09D
:101CF0002091220230912302232B41F420910801EC
:101D00003091090130932302209322022091060191
:101D1000309107012115310541F42DB73EB74091AF
:101D20000A0150910B01241B350BE0912202F09126
:101D30002302E217F307A0F42E1B3F0B28173907E5
:101D400078F0AC014E5F5F4F2417350748F04E0F17
:101D50005F1F50932302409322028193919302C00C
:101D6000E0E0F0E0CF01DF91CF911F910F91089556
:101D7000CF93DF93009709F481C0FC01329713825F
:101D80001282A0912402B0912502109781F4208143
:101D90003181820F931F2091220230912302281754
:101DA000390751F5F0932302E093220267C0ED0159
:101DB00020E030E0CE17DF0740F44A815B819E01CE
:101DC00041155105F1F0EA01F5CFD383C28340817B
:101DD0005181840F951FC817D90759F488819981BB
:101DE000840F951F0296918380838A819B819383C0
:101DF00082832115310529F4F0932502E093240212
:101E00003DC0E901FB83EA8349915991C40FD51F75
:101E1000EC17FD0761F480819181840F951F029674
:101E2000E90199838883828193819B838A83E0E09F
:101E3000F0E012968D919C911397009719F0FD0197
:101E4000DC01F7CF8D919C9111979D012E5F3F4F43
:101E5000820F931F20912202309123022817390705
:101E600069F4309729F4109225021092240202C0DE
:101E700013821282B0932302A0932202DF91CF91AA
:101E8000089581E090E0F8940C94460FF894FFCF09
:101E90000100000020410000260220000200030093
:101EA0000500060004000E000F00100000000000F6
:101EB0002C029901C3017902F401D201E60100006C
:101EC00000000704030400000000F9039901000466
:101ED000FF036E616E00696E66006F7666006D616D
:0C1EE000696E2E6370700020000A000084
:00000001FF
