:100000000C94A4000C94CC000C94CC000C94CC0068
:100010000C94CC000C94CC000C94CC000C941D03DC
:100020000C94CC000C94CC000C94CC000C94CC0020
:100030000C94CC000C94CC000C94CC000C94CC0010
:100040000C94D3020C94CC000C94C5030C949F0325
:100050000C94CC000C94CC000C94CC000C94CC00F0
:100060000C94CC000C94CC0008000000BE922449F3
:10007000123EABAAAA2ABECDCCCC4C3E00000080DA
:10008000BEABAAAAAA3E00000000BF000000803F4D
:100090000000000000084178D3BB4387D1133D190D
:1000A0000E3CC3BD4282AD2B3E68EC8276BED98F3A
:1000B000E1A93E4C80EFFFBE01C4FF7F3F0000007E
:1000C000000007634236B79BD8A71A39685618AEA6
:1000D000BAAB558C1D3CB7CC5763BD6DEDFD753E7D
:1000E000F6177231BF000000803F000000002300BF
:1000F0002600290000000000240027002A0000003C
:1001000000080002010000030407000000000000D6
:1001100000000102040810204080010204081020A1
:1001200001020408102000000000250028002B0018
:10013000040404040404040402020202020203038D
:10014000030303030200BC1011241FBECFEFD8E04D
:10015000DEBFCDBF11E0A0E0B1E0E4E5FDE202C00A
:1001600005900D92AA38B107D9F722E0AAE8B1E0CC
:1001700001C01D92A837B207E1F710E0C4EAD0E051
:1001800004C02197FE010E949D11C33AD107C9F70F
:100190000E94A4090C94A8160C940000CF92DF9240
:1001A000EF92FF920F931F93CF93DF936C017A012D
:1001B0008B01C0E0D0E0CE15DF0581F0D8016D9154
:1001C0008D01D601ED91FC910190F081E02DC601E9
:1001D0000995892B11F02196EECF7E01C701DF91A1
:1001E000CF911F910F91FF90EF90DF90CF900895E6
:1001F000FC01538D448D252F30E0842F90E0821B2D
:10020000930B541710F0CF96089501970895FC01B1
:10021000918D828D981761F0828DDF01A80FB11D3D
:100220005D968C91928D9F5F9F73928F90E0089561
:100230008FEF9FEF0895FC01918D828D981731F01B
:10024000828DE80FF11D858D90E008958FEF9FEF6F
:100250000895FC01918D228D892F90E0805C9F4F45
:10026000821B91098F739927089583EB91E00E9477
:10027000290121E0892B09F420E0822F0895FC0157
:10028000848DDF01A80FB11DA35ABF4F2C91848D1F
:1002900090E001968F739927848FA689B7892C9354
:1002A000A089B1898C91837080648C93938D848DA7
:1002B000981306C00288F389E02D80818F7D8083AA
:1002C0000895EF92FF920F931F93CF93DF93EC016A
:1002D00081E0888F9B8D8C8D981305C0E889F98902
:1002E000808185FD26C0F62E0B8D10E00F5F1F4F1D
:1002F0000F731127E02E8C8DE8120CC00FB607FC8F
:10030000FACFE889F989808185FFF5CFCE010E9477
:100310003F01F1CF8B8DFE01E80FF11DE35AFF4F36
:10032000F0829FB7F8940B8FEA89FB898081806205
:100330000AC09FB7F894EE89FF896083E889F9893C
:1003400080818370806480839FBF81E090E0DF9133
:10035000CF911F910F91FF90EF900895CF93DF936E
:10036000EC01888D8823C9F0EA89FB89808185FDAD
:1003700005C0A889B9898C9186FD0FC00FB607FC0E
:10038000F5CF808185FFF2CFA889B9898C9185FF4F
:10039000EDCFCE010E943F01E7CFDF91CF910895CD
:1003A00080E090E0892B29F00E94350181110C94A6
:1003B00000000895089580E090E008958F929F9244
:1003C000AF92BF92CF92DF92EF92FF920F931F9363
:1003D000CF93DF9322E1289FE001299FD00D1124C4
:1003E00000915002109151020C0F1D1FF8018085E1
:1003F00080FF23C00E9498094B015C01C0908A01D4
:10040000D0908B01E0908C01F0908D01A0910001C3
:10041000B0910101A70196010E949511F801028592
:10042000138524853585801A910AA20AB30A861697
:100430009706A806B90608F050C0912C88EEC82E81
:1004400083E0D82EE12CF12C90E5A92EB12C00915F
:100450005002109151020C0F1D1FF801808580FF82
:1004600012C00E949809F8010285138524853585FC
:10047000DC01CB01801B910BA20BB30BC816D90674
:10048000EA06FB06D0F1F4E1AF1AB10888EEC80E17
:1004900083E0D81EE11CF11CE8E8CE16E3E1DE069D
:1004A000E104F104A1F68091500290915102C80F2D
:1004B000D91F888580FD26C082FF24C010928A0142
:1004C00010928B0110928C0110928D0184E690E0C5
:1004D000909301018093000115C0FFEFCF1ADF0A4E
:1004E000EF0AFF0AC0928A01D0928B01E0928C0140
:1004F000F0928D0199249394A1CFB0920101A09222
:100500000001C1CF892DDF91CF911F910F91FF90F5
:10051000EF90DF90CF90BF90AF909F908F90089515
:10052000CF93DF93EC0160E08E810E94F50561E0DE
:100530008E810E94F50560E08E810E94F5058BE8B2
:1005400091E00197F1F7DF91CF910895862F642F05
:100550000C9424060E94A316CF93DF93FC012185FF
:1005600030E0F901E250FF4F8491F901EE5EFE4F59
:10057000D491F901E05DFE4FC491CC2379F0811153
:100580000E94CC05EC2FF0E0EE0FFF1FE651FF4F6D
:10059000A591B491EC91ED2381E009F480E08170A4
:1005A000DF91CF9108951F920F920FB60F921124F1
:1005B0002F933F938F939F93AF93BF938091A40109
:1005C0009091A501A091A601B091A7013091A3013E
:1005D00023E0230F2D3720F40196A11DB11D05C086
:1005E00026E8230F0296A11DB11D2093A30180933D
:1005F000A4019093A501A093A601B093A7018091B7
:10060000A8019091A901A091AA01B091AB01019616
:10061000A11DB11D8093A8019093A901A093AA01E7
:10062000B093AB01BF91AF919F918F913F912F916B
:100630000F900FBE0F901F9018951F920F920FB63C
:100640000F9211242F933F934F935F936F937F9358
:100650008F939F93AF93BF93EF93FF938091AF01DD
:100660009091B001A091B101B091B201892B8A2B78
:100670008B2B59F19091AC01E091AD01F091AE015D
:100680008081892780838091AF019091B001A091F2
:10069000B101B091B201181619061A061B060CF02A
:1006A0003DC08091AF019091B001A091B101B09196
:1006B000B2010197A109B1098093AF019093B001F4
:1006C000A093B101B093B20129C080910C01E4E480
:1006D000F1E0E4919FEF90930C01E130B9F098F0D4
:1006E000E230C9F4909170009D7F9093700091E08A
:1006F0009093B0009091B100987F94609093B10076
:100700001092B30008C010926E0005C090916F0067
:100710009D7F90936F0060E00E94F505FF91EF913F
:10072000BF91AF919F918F917F916F915F914F9109
:100730003F912F910F900FBE0F901F9018951F9211
:100740000F920FB60F9211242F933F934F935F9305
:100750006F937F938F939F93AF93BF93EF93FF9389
:1007600083EB91E00E943F01FF91EF91BF91AF9128
:100770009F918F917F916F915F914F913F912F91B9
:100780000F900FBE0F901F9018951F920F920FB6EB
:100790000F9211242F938F939F93EF93FF93E091E8
:1007A000C301F091C4018081E091C901F091CA01B7
:1007B00082FD12C090818091CC018F5F8F73209158
:1007C000CD01821751F0E091CC01F0E0ED54FE4FE5
:1007D000958F8093CC0101C08081FF91EF919F9113
:1007E0008F912F910F900FBE0F901F901895CF9261
:1007F000DF92EF92FF920F931F93CF93DF936C01E1
:100800007C0187E0E80EF11CC0E0D0E0062F10E08C
:10081000B8010C2E02C0759567950A94E2F76170D5
:10082000F70181917F010E94F5052196C430D10521
:1008300079F7C601DF91CF911F910F91FF90EF9053
:10084000DF90CF900C949002CF92DF92EF92FF92C4
:100850000F931F93CF93DF93EC01F62E642F8C81BF
:100860000E94F5058D818F3F19F060E00E94F5052B
:100870008F850F2D10E084FF25C06E0187E0C80E24
:10088000D11CE12CF12CB8010E2C02C07595679596
:100890000A94E2F76170F60181916F010E94F505FB
:1008A000FFEFEF1AFF0A88E0E816F10461F7CE01C6
:1008B000DF91CF911F910F91FF90EF90DF90CF903C
:1008C0000C949002B80184E0759567958A95E1F7DC
:1008D000CE010E94F7036F2DCE01DF91CF911F91C2
:1008E0000F91FF90EF90DF90CF900C94F70341E0D1
:1008F0000E94240481E090E0089540E0682F82E5A2
:1009000092E00C942404009769F0FC01019000200F
:10091000E9F73197AF01481B590BBC0182E592E022
:100920000C94CE0080E090E0089581E00E947D0468
:100930008BE39FE10197F1F708950C9483048F9264
:100940009F92AF92BF920F931F93CF93DF93CDB738
:10095000DEB7A1970FB6F894DEBF0FBECDBF19A2C8
:10096000423008F44AE08E010F5D1F4F842E912C17
:10097000A12CB12CA50194010E944911E62FB901C7
:10098000CA0101501109EA3014F4E05D01C0E95CCC
:10099000D801EC93232B242B252B61F7C8010E944F
:1009A0008304A1960FB6F894DEBF0FBECDBFDF91D2
:1009B000CF911F910F91BF90AF909F908F9008950E
:1009C0008F929F92AF92BF92CF92DF92EF92FF925F
:1009D0000F931F93CF93DF936B017C01142F9B0127
:1009E000AC010E949814882319F08DE791E027C08C
:1009F00046015701E894B7F82FEF3FEF4FE75FE765
:100A0000C501B4010E94981481110DC02FEF3FEF72
:100A10004FE75FE7C501B4010E941F1218161CF4CE
:100A200081E891E00CC02FEF3FEF4FE75FE4C70193
:100A3000B6010E947E13181684F485E891E0DF91D8
:100A4000CF911F910F91FF90EF90DF90CF90BF90CB
:100A5000AF909F908F900C9483042FEF3FEF4FE760
:100A60005FECC701B6010E941F1287FDE6CF20E0B0
:100A700030E0A901C701B6010E941F1287FF0DC017
:100A800041E06DE282E592E00E942404F7FAF094DE
:100A9000F7F8F094C1E0D0E002C0C0E0D0E000E0A0
:100AA00060E070E080E09FE3011740F420E030E078
:100AB00040E251E40E9424120F5FF6CFA701960195
:100AC0000E94B3116B017C010E949D124B015C01DD
:100AD0004AE00E949F04C80FD91F1123B9F1C50134
:100AE000B4010E94CC129B01AC01C701B6010E9467
:100AF000B2116B017C0141E06EE282E592E00E945E
:100B00002404219620E030E040E251E4C701B60120
:100B10000E94DB134B015C010E949D126B01E12CD2
:100B2000F12C4AE0C701B6010E949F04C80FD91FEB
:100B3000C701B6010E94CC129B01AC01C501B401F2
:100B40000E94B2116B017C011150E1F6CE01DF91E0
:100B5000CF911F910F91FF90EF90DF90CF90BF90BA
:100B6000AF909F908F900895843008F083E090912B
:100B70006502891710F08FEF890FE82FF0E0EE5A29
:100B8000FD4F848980680C947D04682F70E080E0BC
:100B900090E04AE00C949F04833081F028F4813087
:100BA00099F08230A1F008958730A9F08830B9F02B
:100BB0008430D1F4809180008F7D03C080918000CB
:100BC0008F7780938000089584B58F7702C084B5B5
:100BD0008F7D84BD08958091B0008F7703C0809190
:100BE000B0008F7D8093B00008951F93CF93DF9363
:100BF000282F30E0F901E250FF4F8491F901EE5EB9
:100C0000FE4FD491F901E05DFE4FC491CC23C1F0B9
:100C1000162F81110E94CC05EC2FF0E0EE0FFF1F84
:100C2000EA5DFE4FA591B4919FB7F894111104C0ED
:100C30008C91D095D82302C0EC91DE2BDC939FBF22
:100C4000DF91CF911F910895CF93DF9390E0FC0146
:100C5000EE5EFE4F2491FC01E05DFE4F84918823FF
:100C600061F190E0880F991FFC01EC50FF4FC59196
:100C7000D491FC01EA5DFE4FA591B491611109C0C8
:100C80009FB7F8948881209582238883EC912E2346
:100C90000BC0623061F49FB7F8948881322F309591
:100CA00083238883EC912E2B2C939FBF06C08FB794
:100CB000F894E8812E2B28838FBFDF91CF91089580
:100CC000CF93DF93823028F09091610298609093E7
:100CD0006102809365021092660280E4809367024D
:100CE00080E18093680280E58093690261E08091F1
:100CF00056020E942406809157028F3F19F061E04E
:100D00000E94240661E0809158020E942406C2E5F8
:100D1000D2E09E01225532408091610284FD03C0E1
:100D200084E090E002C088E090E02196281739071F
:100D30002CF461E08E810E942406EBCF8BE39DE0D2
:100D40000197F1F760E0809156020E94F50560E09E
:100D5000809158020E94F505809157028F3F19F04B
:100D600060E00E94F5058091610284FD20C063E08F
:100D700082E592E00E94F703CBE4D6E4CE0101972E
:100D8000F1F763E082E592E00E94F7032197F1F723
:100D900063E082E592E00E94F70383E592E0019729
:100DA000F1F762E082E592E00E94F70315C08062ED
:100DB0000E947D048BE496E40197F1F78091610233
:100DC00080620E947D0483E592E00197F1F78091B3
:100DD000610280620E947D048091610280620E94B3
:100DE0007D0484E0809362028CE00E947D040E9476
:100DF000950482E08093630286E0DF91CF910C94AA
:100E00007D044F925F926F927F928F929F92AF92EA
:100E1000BF92CF92DF92EF92FF920F931F93CF93E7
:100E2000DF9300D000D01F92CDB7DEB78C012A012E
:100E30003B0180910C01833121F08F3F09F03DC2CD
:100E400005C0E4E4F1E024912D8372C083E1809336
:100E50000C01E4E4F1E084918D838F3F09F42DC20D
:100E6000813009F441C038F1823009F061C010923C
:100E7000B0001092B1008091B00082608093B00009
:100E80008091B10081608093B100E3E4F1E0E491EE
:100E9000F0E0EE0FFF1FEA5DFE4F85919491909375
:100EA000AE018093AD01E5E2F1E0E491E093AC01A5
:100EB00022E02D83FDC114BC15BC84B5826084BDC5
:100EC00085B5816085BDE3E4F1E0E491F0E0EE0FEB
:100ED000FF1FEA5DFE4F85919491E5E2F1E0E49118
:100EE000E0936B021D82E4C1109280001092810099
:100EF0008091810088608093810080918100816071
:100F000080938100E3E4F1E0E491F0E0EE0FFF1F55
:100F1000EA5DFE4F85919491E5E2F1E0E491E09382
:100F20006A0261E083E10E94240691E09D838AC009
:100F30008D8187FDC2C161E083E10E9424068D811D
:100F40008D7F09F07FC04801A12CB12C60E072E1D7
:100F50008AE790E0A50194010E946B1129833A83EE
:100F60004B835C8369017A0191E0C91AD108E108D9
:100F7000F1082FEFC216D104E104F10409F008F4DE
:100F80004EC060E472E48FE090E0A50194010E94FD
:100F90006B1169017A0181E0C81AD108E108F108F2
:100FA0009D81923009F52FEFC216D104E104F104BE
:100FB00009F008F444C160E970ED83E090E0A50118
:100FC00094010E946B1169017A0181E0C81AD1086D
:100FD000E108F1089FEFC916D104E104F10411F012
:100FE00008F0BAC083E027C02FEFC216D104E10495
:100FF000F104B9F0B0F068E478EE81E090E0A5018A
:1010000094010E946B1169017A0181E0C81AD1082C
:10101000E108F1089D81992309F413C1DCC081E046
:1010200001C082E09D81911106C095B5987F892B02
:1010300085BD44C085E09091B100987F892B809355
:10104000B1003CC04801A12CB12C60E072E18AE7FC
:1010500090E0A50194010E946B1169017A0181E081
:10106000C81AD108E108F108C114D10491E0E906D9
:10107000F10488F068E478EE81E090E0A501940145
:101080000E946B1169017A0181E0C81AD108E10858
:10109000F10883E001C081E09D81913079F4909165
:1010A0008100987F892B8093810041145104610451
:1010B000710449F42FEF3FEFA9012CC041145104F2
:1010C0006104710471F0D801AA0FBB1FA301920142
:1010D0000E948A1128EE33E040E050E00E9449115E
:1010E00003C02FEF3FEFA9018D81813099F082304D
:1010F00019F18111E2C0C7BC2093700230937102D4
:10110000409372025093730280916E0082608093CC
:101110006E00D3C0D0928900C092880020936C02E8
:1011200030936D0240936E0250936F0280916F0076
:10113000826080936F00C1C0C092B3002093AF0162
:101140003093B0014093B1015093B201809170008F
:10115000826080937000B1C068E478EE81E090E036
:10116000A50194010E946B1169017A0191E0C91AED
:10117000D108E108F1082FEFC216D104E104F1040F
:1011800041F138F164E274EF80E090E0A501940150
:101190000E946B1169017A0181E0C81AD108E10847
:1011A000F1089FEFC916D104E104F10409F008F435
:1011B00041CF62E17AE780E090E0A50194010E94CE
:1011C0006B1169017A0181E0C81AD108E108F108C0
:1011D00019C084E030CF2FEFC216D104E104F1042E
:1011E00009F008F463C062E17AE780E090E0A501CD
:1011F00094010E946B1169017A0191E0C91AD1082A
:10120000E108F1088FEFC816D104E104F104A9F058
:10121000A0F089819A81AB81BC812AE0B595A79520
:10122000979587952A95D1F76C017D0121E0C21A27
:10123000D108E108F10887E0FECE86E0FCCE82E02E
:10124000FACE8FEFC816D104E104F10469F160F120
:1012500062E17AE780E090E0A50194010E946B11C1
:1012600069017A0191E0C91AD108E108F1082FEF6C
:10127000C216D104E104F104A9F0A0F089819A8199
:10128000AB81BC813AE0B595A795979587953A953E
:10129000D1F76C017D0121E0C21AD108E108F10803
:1012A00085E0C3CE84E0C1CE83E0BFCE84E0BACE79
:1012B00061E083E10E94240646CE0F900F900F90CC
:1012C0000F900F90DF91CF911F910F91FF90EF90B2
:1012D000DF90CF90BF90AF909F908F907F906F9056
:1012E0005F904F9008953FB7F8948091A801909136
:1012F000A901A091AA01B091AB0126B5A89B05C098
:101300002F3F19F00196A11DB11D3FBFBA2FA92F84
:10131000982F8827820F911DA11DB11DBC01CD0101
:1013200042E0660F771F881F991F4A95D1F70895ED
:101330002FB7F8946091A4017091A5018091A60146
:101340009091A7012FBF0895CF93DF93CDB7DEB75C
:1013500065970FB6F894DEBF0FBECDBF789484B505
:10136000826084BD84B5816084BD85B5826085BDA1
:1013700085B5816085BD80916E00816080936E002F
:101380001092810080918100826080938100809121
:1013900081008160809381008091800081608093D2
:1013A00080008091B10084608093B1008091B00092
:1013B00081608093B00080917A00846080937A008D
:1013C00080917A00826080937A0080917A008160B7
:1013D00080937A0080917A00806880937A001092DE
:1013E000C10080E1E3E1F1E0DE01119601900D9290
:1013F0008A95E1F761E08DE00E94240661E083E1D7
:101400000E94240660E085E00E94240660E086E0F9
:101410000E94240660E084E00E94240660E082E0EE
:101420000E94240660E083E00E94240660E08EE0D3
:101430000E94240660E08FE00E94240660E080E1C4
:101440000E942406CE0101967C01C12CD12C38E2E9
:10145000A32EB12CD7019C9011967C91B2E0EB0E9B
:10146000F11C00915002109151020C0D1D1DD8016C
:10147000ED91FC910280F381E02D40E050E0692D78
:10148000C8010995F801918610860190F081E02D40
:101490000190F081E02DC8010995882339F0D80129
:1014A00018968C911897836018968C930E949809CF
:1014B000F8016283738384839583E0915002F091F5
:1014C0005102EC0DFD1DB782A682F2E1CF0ED11CB8
:1014D00020E9C216D10409F0BDCF82E00E94600667
:1014E00089E491E00E949D040E9473094B015C0114
:1014F00020EDC22E27E0D22EE12CF12C0E947309A0
:10150000DC01CB0188199909AA09BB09883E9340DF
:10151000A105B10598F381E0C81AD108E108F108E6
:1015200098EE890E93E0991EA11CB11CC114D10440
:10153000E104F10419F70E949504E091C301F091D0
:10154000C40182E08083E091BF01F091C00110826C
:10155000E091C101F091C2018FEC80831092CB0128
:10156000E091C701F091C80186E08083E091C50158
:10157000F091C601808180618083E091C501F09186
:10158000C601808188608083E091C501F091C60129
:10159000808180688083E091C501F091C6018081DF
:1015A0008F7D80832224239401E0C12CD12CE090F4
:1015B0005002F0905102EC0CFD1CD70118968C9152
:1015C00018978B7F18968C931897ED91FC9101904A
:1015D000F081E02DC7010995182FF70180858695C8
:1015E0008170181781F00E949809D70112966D93A7
:1015F0007D938D939C93159718968C91B2E08B27D1
:10160000F701808749C00E949809D70112968D90F2
:101610009D90AD90BC901597AB01BC01481959093C
:101620006A097B0916968D919C911797A0E0B0E00E
:10163000481759076A077B0778F1F70180858170A1
:10164000181751F10E949809D70112966D937D9356
:101650008D939C93159718968C911897822584608A
:1016600018968C930E949809F70182849384A4842D
:10167000B584DC01CB0188199909AA09BB098687C1
:101680009787A08BB18B0E949809D7011A966D930A
:101690007D938D939C931D97B2E1CB0ED11CE0E915
:1016A000CE16D10409F083CF40919F015091A00143
:1016B0006091A1017091A2012091500230915102DC
:1016C000F901EE59FF4F90819170729720818091BE
:1016D0009E01823021F4911117C0312C17C0823045
:1016E00098F42570253019F4382E32240DC041505D
:1016F000510961097109493051056105710518F0F9
:10170000911137C501C0312C831521F000939D0143
:10171000832D02C010929D0180939E01813009F4B7
:101720001BC320F0823009F4A5C420C560E08DE021
:101730000E94F5052091500230915102F901EA57BB
:10174000FF4F8081817090919C017297208120FDD4
:1017500004C0882331F012E007C0882321F013E091
:1017600003C010E001C011E091130E949504109392
:101770009C0180919D018823D1F0109298011092D4
:10178000990110929A0110929B0110929F01109260
:10179000A0011092A1011092A20110929401109246
:1017A000950110929601109297010E9495041230B3
:1017B00009F45DC0133009F47EC01130E1F080916E
:1017C000080190910901A0910A01B0910B01809349
:1017D000900190939101A0939201B09393011230E4
:1017E00009F451C1133009F4A2C1113009F40DC13B
:1017F000E12CF12CE1C060918E0170918F01072ED8
:10180000000C880B990B0E94CE126B017C01609139
:10181000070170E080E090E00E94CE129B01AC01D5
:10182000C701B6010E9424129B01AC0160E070E088
:1018300080E090E40E9448146B017C0160910801F3
:101840007091090180910A0190910B010E94CC12C4
:10185000A70196010E94DB130E949D1260939001E4
:10186000709391018093920190939301CEC0A091C7
:101870000601209102013091030140910401509131
:101880000501B0E00E948A11C0900801D0900901C2
:10189000E0900A01F0900B01DC01CB018C0D9D1D45
:1018A000AE1DBF1D8093900190939101A093920172
:1018B000B0939301E8C06091060170E080E090E091
:1018C0000E94CE126B017C016091070170E080E004
:1018D00090E00E94CE129B01AC01C701B6010E94AC
:1018E00024129B01AC0160E070E080E090E40E9473
:1018F00048146B017C01609108017091090180918D
:101900000A0190910B010E94CC12A70196010E943E
:10191000DB130E949D12609390017093910180935C
:1019200092019093930103C16091080170910901A4
:1019300080910A0190910B010E94CC124B015C0135
:10194000F2E0EF16F104F4F5B7016E5F7F4F072E5A
:10195000000C880B990B0E94CE129B01AC0160E039
:1019600070E080E291E40E94481490589B01AC0121
:10197000C501B4010E94B3114B015C0120E030E0CD
:10198000A9010E941F1287FF2DC0812C912C5401A8
:10199000C501B4010E949D12609308017093090172
:1019A00080930A0190930B012FEFE21AF20A84E070
:1019B000E816F10409F4F7C0C7010E94DE0188238C
:1019C00099F3B2CFB7010F2C000C880B990B0E9432
:1019D000CE129B01AC0160E070E080E291E40E94D5
:1019E0004814C4CF20E034E244E759E4C501B4010F
:1019F0000E947E1387FDCCCF90EF892E93E2992E23
:101A000094E7A92E99E4B92EC3CF80E090E00E941C
:101A1000DE01882369F080910701282F30E0223011
:101A200031051CF40093070103C081508093070126
:101A300082E090E00E94DE01882329F08091070176
:101A40008F5F8093070181E090E00E94DE01882390
:101A500049F080918E0190918F01019790938F01B1
:101A600080938E0183E090E00E94DE01882309F4D8
:101A70009AC080918E0190918F01019690938F0171
:101A800080938E0190C080E090E00E94DE01882368
:101A900069F080910601282F30E0223031051CF4D6
:101AA0000093070103C081508093060182E090E01B
:101AB0000E94DE01882329F0809106018F5F8093C8
:101AC000060181E090E00E94DE018823A1F0809170
:101AD000020190910301A0910401B0910501845687
:101AE0009109A109B1098093020190930301A09388
:101AF0000401B093050183E090E00E94DE01882399
:101B000009F451C08091020190910301A091040158
:101B1000B09105018C599F4FAF4FBF4F8093020189
:101B200090930301A0930401B09305013CC080E0B1
:101B300090E00E94DE01882369F080910601282F41
:101B400030E0223031051CF40093070103C08150BE
:101B50008093060182E090E00E94DE01882329F054
:101B6000809106018F5F8093060181E090E00E94E2
:101B7000DE01882369F080910701282F30E02230B0
:101B800031051CF40093070103C0815080930701C5
:101B900083E090E00E94DE01882329F08091070114
:101BA0008F5F8093070180E00E94B40585E591E096
:101BB0000E949D0481E00E94B40580919C018130C7
:101BC000B9F168F1823009F48EC0833009F0CEC2D9
:101BD000609108017091090180910A0190910B01B7
:101BE0000E94CC1220E030E04AE754E40E94241224
:101BF00041E050E00E94E0048FE591E00E949D04E6
:101C0000809106010E94C50587E691E00E949D042F
:101C1000809107010E94C50585E691E09AC0609118
:101C2000900170919101809192019091930192C2E3
:101C3000609108017091090180910A0190910B0156
:101C40000E94CC1220E030E04AE754E40E942412C3
:101C500041E050E00E94E00480918E0190918F015C
:101C600097FD04C08BE591E00E949D04C0908E0119
:101C7000D0908F010D2C000CEE08FF08F7FE0FC06E
:101C800041E06DE282E592E00E9424046627772716
:101C9000CB016C197D098E099F094AE003C04AE017
:101CA000C701B6010E949F0489E691E00E949D044D
:101CB000809107010E94C5058DE591E00E949D0479
:101CC00060919001709191018091920190919301A6
:101CD0000E94CC1220E030E04AE754E40E94241233
:101CE00042E050E041C26091080170910901809189
:101CF0000A0190910B010E94CC1220E030E04AE7EB
:101D000054E40E94241241E050E00E94E0048FE578
:101D100091E00E949D04809106010E94C50582E623
:101D200091E00E949D0460910201709103018091F5
:101D30000401909105010E94CC1220E030E04AE7B6
:101D400054E40E94241241E050E00E94E00484E642
:101D500091E00E949D040AC280919D01882389F030
:101D60000E949809DC01CB010A96A11DB11D809348
:101D7000940190939501A0939601B09397010E94CE
:101D8000950461E08DE00E94F505809194019091A9
:101D90009501A0919601B0919701898B9A8BAB8B9D
:101DA000BC8B8090900190909101A0909201B09096
:101DB0009301880E991EAA1EBB1E0E949809861ABE
:101DC000970AA80AB90A80929F019092A001A09256
:101DD000A101B092A20110919C01123020F01430A8
:101DE00008F0DEC035C08090980190909901A090D5
:101DF0009A01B0909B010E9498092B013C01A8EE2A
:101E0000B3E0A50194010E948A11C988DA88EB88A1
:101E1000FC88C60ED71EE81EF91E4C145D046E0425
:101E20007F0468F044E650E060E070E08BED93E002
:101E30000E9401079FEF891A990AA90AB90A80929C
:101E4000980190929901A0929A01B0929B01A8C02A
:101E5000A0910701AD8BC0909801D0909901E090BE
:101E60009A01F0909B0160910801709109018091A5
:101E70000A0190910B010E94CC124B015C01609110
:101E800002017091030180910401909105011230CB
:101E900099F40E94CC122B013C01C701B6010E94AB
:101EA000CC129B01AC01C301B2010E94DB13A5015E
:101EB00094010E94B31121C0C701B6010E94CC1247
:101EC0002B013C01BD896B2F70E080E090E00E9407
:101ED000CE129B01AC01C301B2010E9424129B01EE
:101EE000AC0160E070E080E090E40E9448149B0147
:101EF000AC01C501B4010E94DB134B015C010E94DF
:101F000098090E94CC122B013C0169897A898B893E
:101F10009C896A5F7109810991090E94CC12A5010F
:101F200094010E94B3119B01AC01C301B2010E9454
:101F30007E1387FD08C046E950E060E070E083E969
:101F400092E00E9401070E9498090E94CC122B0186
:101F50003C0169897A898B899C890E94CC12A501F0
:101F600094010E94B3119B01AC01C301B2010E9414
:101F70007E1387FD0DC044E650E060E070E080E72E
:101F800093E00E940107EFEFCE1ADE0AEE0AFE0A86
:101F9000C0929801D0929901E0929A01F0929B012F
:101FA00080E00E94B4058BE691E00E949D0481E0F0
:101FB0000E94B40580919C018230B8F06091980134
:101FC0007091990180919A0190919B014AE00E9441
:101FD0009F0489E691E00E949D04809106010E9481
:101FE000C50584E791E00E949D0460919F01709176
:101FF000A0018091A1019091A2010E94CC1220E049
:1020000030E04AE754E40E94241241E050E00E948C
:10201000E00480909F019090A001A090A101B09059
:10202000A201C501B4010E94CC120E9483136B016E
:102030007C01C501B4016C597F4F8F4F9F4F0E94A7
:10204000CC120E9483134B015C01C701B6010E94B0
:1020500096127B01FFEFEF1AFF0AC501B4010E943F
:1020600096126F5F7F4FE616F70609F47FC00E9455
:1020700095047CC080919D01882389F00E94980975
:10208000DC01CB010A96A11DB11D809394019093B0
:102090009501A0939601B09397010E94950461E089
:1020A0008DE00E94F505C0909801D0909901E090D4
:1020B0009A01F0909B018090940190909501A090DE
:1020C0009601B09097010E9498092B013C01A8EE5F
:1020D000B3E0A70196010E948A11860E971EA81EE2
:1020E000B91E481459046A047B0468F044E650E0C1
:1020F00060E070E08BED93E00E9401072FEFC21AC1
:10210000D20AE20AF20AC0929801D0929901E092B2
:102110009A01F0929B0180E00E94B40587E791E06C
:102120000E949D0481E00E94B4050E949809C0901D
:102130009401D0909501E0909601F09097016C1574
:102140007D058E059F0590F00E9498096C197D0908
:102150008E099F090E94CC1220E030E04AE754E447
:102160000E94241241E050E00E94E0040E94D0014D
:102170001CCA82E0382ECACA1092B6011092B5016C
:1021800088EE93E0A0E0B0E08093B7019093B801AF
:10219000A093B901B093BA0187E291E09093B401A2
:1021A0008093B30185EC90E09093C0018093BF01D0
:1021B00084EC90E09093C2018093C10180EC90E0A8
:1021C0009093C4018093C30181EC90E09093C60189
:1021D0008093C50182EC90E09093C8018093C70181
:1021E00086EC90E09093CA018093C9011092CC01D3
:1021F0001092CD011092CE011092CF011092550293
:102200001092540281E491E0909353028093520221
:1022100087E0809356028FEF8093570288E0809387
:10222000580289E0809359028AE080935A028BE039
:1022300080935B028CE080935C0210925D021092AE
:102240005E0210925F02109260021092610281E0C1
:102250000E94600680E990E00E948215FC019C01CA
:1022600020573F4F69E371E04AE050E0718360839B
:102270001282138214821582578346831086118638
:102280007296E217F30791F79093510280935002F0
:102290000895A1E21A2EAA1BBB1BFD010DC0AA1FA7
:1022A000BB1FEE1FFF1FA217B307E407F50720F0BF
:1022B000A21BB30BE40BF50B661F771F881F991F3A
:1022C0001A9469F760957095809590959B01AC0183
:1022D000BD01CF010895052E97FB1EF400940E94C6
:1022E000821157FD07D00E94491107FC03D04EF41C
:1022F0000C94821150954095309521953F4F4F4F4A
:102300005F4F089590958095709561957F4F8F4FA1
:102310009F4F08950E94A311A59F900DB49F900D0B
:10232000A49F800D911D11240895B7FF0C948A116C
:102330000E948A11821B930B0895EE0FFF1F0590D8
:10234000F491E02D0994A29FB001B39FC001A39F17
:10235000700D811D1124911DB29F700D811D1124DE
:10236000911D08955058BB27AA270E94CA110C94AA
:1023700044130E94361338F00E943D1320F039F4C4
:102380009F3F19F426F40C9433130EF4E095E7FB09
:102390000C942D13E92F0E94551358F3BA176207B6
:1023A00073078407950720F079F4A6F50C9477134A
:1023B0000EF4E0950B2EBA2FA02D0B01B901900160
:1023C0000C01CA01A0011124FF27591B99F0593FA4
:1023D00050F4503E68F11A16F040A22F232F342FEC
:1023E0004427585FF3CF469537952795A795F0403A
:1023F0005395C9F77EF41F16BA0B620B730B840B4F
:10240000BAF09150A1F0FF0FBB1F661F771F881F06
:10241000C2F70EC0BA0F621F731F841F48F487955E
:1024200077956795B795F7959E3F08F0B0CF939550
:10243000880F08F09927EE0F9795879508950E94C9
:10244000091308F481E008950E9438120C94441393
:102450000E943D1358F00E94361340F029F45F3F6C
:1024600029F00C942D1351110C9478130C94331300
:102470000E94551368F39923B1F3552391F3951BEB
:10248000550BBB27AA2762177307840738F09F5F95
:102490005F4F220F331F441FAA1FA9F335D00E2E02
:1024A0003AF0E0E832D091505040E695001CCAF76F
:1024B0002BD0FE2F29D0660F771F881FBB1F261732
:1024C00037074807AB07B0E809F0BB0B802DBF0109
:1024D000FF2793585F4F3AF09E3F510578F00C94D8
:1024E0002D130C9478135F3FE4F3983ED4F3869554
:1024F00077956795B795F7959F5FC9F7880F911DF9
:102500009695879597F90895E1E0660F771F881FE4
:10251000BB1F621773078407BA0720F0621B730B97
:10252000840BBA0BEE1F88F7E09508950E949D1268
:102530006894B1110C94781308950E945D1388F08B
:102540009F5798F0B92F9927B751B0F0E1F0660F77
:10255000771F881F991F1AF0BA95C9F714C0B130B8
:1025600091F00E947713B1E008950C947713672FD0
:10257000782F8827B85F39F0B93FCCF386957795E7
:102580006795B395D9F73EF49095809570956195D0
:102590007F4F8F4F9F4F0895E89409C097FB3EF4FB
:1025A00090958095709561957F4F8F4F9F4F9923A0
:1025B000A9F0F92F96E9BB279395F695879577951E
:1025C0006795B795F111F8CFFAF4BB0F11F460FFDE
:1025D0001BC06F5F7F4F8F4F9F4F16C0882311F036
:1025E00096E911C0772321F09EE8872F762F05C04A
:1025F000662371F096E8862F70E060E02AF09A95E5
:10260000660F771F881FDAF7880F9695879597F9D9
:102610000895990F0008550FAA0BE0E8FEEF161673
:102620001706E807F907C0F012161306E407F507C6
:1026300098F0621B730B840B950B39F40A2661F03A
:10264000232B242B252B21F408950A2609F4A140DD
:10265000A6958FEF811D811D089597F99F6780E8EA
:1026600070E060E008959FEF80EC089500240A94E4
:102670001616170618060906089500240A9412165D
:102680001306140605060895092E0394000C11F490
:10269000882352F0BB0F40F4BF2B11F460FF04C03D
:1026A0006F5F7F4F8F4F9F4F089557FD9058440F96
:1026B000551F59F05F3F71F04795880F97FB991FA1
:1026C00061F09F3F79F0879508951216130614065E
:1026D000551FF2CF4695F1DF08C0161617061806EB
:1026E000991FF1CF86957105610508940895E894C6
:1026F000BB2766277727CB0197F908950E94091316
:1027000008F48FEF08950E94931329ED3BE54EEDF9
:102710005EE30C94DB1316F00C94D7140C94331373
:1027200068940C942D130E945D13A8F39923C1F3B0
:10273000AEF3DF93CF931F930F93FF92C92FDD2743
:1027400088232AF02197660F771F881FDAF720E089
:1027500030E040E85FEB9FE3883920F0803E38F0BE
:1027600021968F770E94B311E8E6F0E004C00E9442
:10277000B311E5E9F0E00E94E5148B01BE01EC0124
:10278000FB2E6F5771097595771F880B990B0E9467
:10279000CE1228E132E741E35FE30E94EE13AF2D52
:1027A0009801AE01FF900F911F91CF91DF910E9490
:1027B000CA110C9444130E94EE130C9444130E940B
:1027C000361338F00E943D1320F0952311F00C943D
:1027D0002D130C94331311240C9478130E94551369
:1027E00070F3959FC1F3950F50E0551F629FF00164
:1027F000729FBB27F00DB11D639FAA27F00DB11D7D
:10280000AA1F649F6627B00DA11D661F829F222705
:10281000B00DA11D621F739FB00DA11D621F839F8C
:10282000A00D611D221F749F3327A00D611D231F62
:10283000849F600D211D822F762F6A2F11249F57B0
:1028400050409AF0F1F088234AF0EE0FFF1FBB1FB3
:10285000661F771F881F91505040A9F79E3F510572
:1028600080F00C942D130C9478135F3FE4F3983EA2
:10287000D4F3869577956795B795F795E7959F5F1C
:10288000C1F7FE2B880F911D9695879597F90895AE
:10289000FA01EE0FFF1F309621053105A1F16115F8
:1028A000710561F48038BFE39B0749F16894903863
:1028B000810561F08038BFEF9B0741F099234AF50D
:1028C000FF3FE1053105210519F1E8940894E795EA
:1028D000D901AA2329F4AB2FBE2FF85FD0F310C083
:1028E000FF5F70F4A695E0F7F73950F019F0FF3A62
:1028F00038F49F779F930DD00F9007FC9058089560
:1029000046F00C94331360E070E080E89FE3089594
:102910004FE79F775F934F933F932F930E949313BB
:102920002F913F914F915F910E94DB130C94A5145E
:102930000E940913880B990B089529F416F00C9442
:102940002D130C9477130C9433130E945D13A8F38A
:102950009638A0F707F80F92E8942BE33AEA48EB91
:102960005FE70E94F1130F920F920F924DB75EB77F
:102970000F920E944E15E2ECF0E00E94E5144F9198
:102980005F91EF91FF91E595EE1FFF1F49F0FE5714
:10299000E0684427EE0F441FFA95E1F74195550B87
:1029A0000E9418150F9007FE0C940C1508959F3F78
:1029B00031F0915020F4879577956795B795880FFA
:1029C000911D9695879597F90895DF93CF931F935F
:1029D0000F93FF92EF92DF927B018C01689406C007
:1029E000DA2EEF010E94EE13FE01E894A5912591E5
:1029F000359145915591A6F3EF010E94CA11FE0150
:102A00009701A801DA9469F7DF90EF90FF900F919A
:102A10001F91CF91DF9108959B01AC0160E070E0C0
:102A200080E89FE30C9424120C942D130C94D7147B
:102A30000E945D13D8F39923C9F3940F511DA3F39A
:102A40009150504094F059F0882332F0660F771F70
:102A5000881F91505040C1F79E3F51052CF7880FB9
:102A6000911D9695879597F908955F3FACF0983E34
:102A70009CF0BB27869577956795B79508F4B1606C
:102A80009395C1F7BB0F58F711F460FFE8CF6F5F64
:102A90007F4F8F4F9F4FE3CF0C947813FA01DC01E7
:102AA000AA0FBB1F9B01AC01BF5728F42227332775
:102AB0004427507820C0B75190F4AB2F002446959E
:102AC00037952795011CA395D2F3002071F0220FB2
:102AD000331F441FB395DAF30ED00C94B21161305A
:102AE0007105A0E88A07B94630F49B01AC0166275E
:102AF000772788279078309621F02083318342838E
:102B0000538308950F931F93CF93DF9382309105E2
:102B100010F482E090E0E0917602F091770220E0FC
:102B200030E0A0E0B0E0309719F14081518102819E
:102B3000138148175907C8F08417950769F410974F
:102B400031F012960C93129713961C9327C00093A2
:102B500076021093770222C02115310519F0421731
:102B6000530718F49A01BD01EF01DF01F801DBCF33
:102B700021153105F9F0281B390B2430310580F47B
:102B80008A819B816115710521F0FB01938382830A
:102B900004C09093770280937602FE01329644C07F
:102BA000FE01E20FF31F8193919322503109398383
:102BB00028833AC02091740230917502232B41F48E
:102BC00020910F013091100130937502209374020F
:102BD00020910D0130910E012115310541F42DB7E1
:102BE0003EB74091110150911201241B350BE09129
:102BF0007402F0917502E217F307A0F42E1B3F0B4D
:102C00002817390778F0AC014E5F5F4F241735075E
:102C100048F04E0F5F1F50937502409374028193EA
:102C2000919302C0E0E0F0E0CF01DF91CF911F91DE
:102C30000F910895CF93DF93009709F481C0FC01B1
:102C4000329713821282A0917602B0917702109788
:102C500081F420813181820F931F20917402309181
:102C600075022817390751F5F0937502E093740245
:102C700067C0ED0120E030E0CE17DF0740F44A8165
:102C80005B819E0141155105F1F0EA01F5CFD38337
:102C9000C28340815181840F951FC817D90759F409
:102CA00088819981840F951F0296918380838A8100
:102CB0009B81938382832115310529F4F093770258
:102CC000E09376023DC0E901FB83EA834991599183
:102CD000C40FD51FEC17FD0761F480819181840F2B
:102CE000951F0296E90199838883828193819B8352
:102CF0008A83E0E0F0E012968D919C911397009703
:102D000019F0FD01DC01F7CF8D919C9111979D0188
:102D10002E5F3F4F820F931F2091740230917502F6
:102D20002817390769F4309729F410927702109226
:102D3000760202C013821282B0937502A0937402CD
:102D4000DF91CF91089581E090E0F8940C94A8165B
:042D5000F894FFCF25
:102D5400640088130000060310270000FF000078B9
:102D6400022000020003000500060004000E000F0C
:102D7400001000000000006101CE00F800AE01293F
:102D84000107011B0100000000AC02A602000000C4
:102D9400007704CE00DB01DA017265746567652093
:102DA40076302E31005345545550002B003D002BF6
:102DB4005B002A00735D002A312F004558504F53A1
:102DC40055524500202000464F435553006E616E16
:0A2DD40000696E66006F766600006D
:00000001FF
