:100000000C9462000C948A000C948A000C948A0070
:100010000C948A000C948A000C948A000C948A0038
:100020000C948A000C948A000C948A000C948A0028
:100030000C948A000C948A000C948A000C948A0018
:100040000C94F7020C948A000C948A000C948A0099
:100050000C948A000C948A000C948A000C948A00F8
:100060000C948A000C948A000000000023002600F3
:10007000290000000000240027002A0000000000E2
:10008000250028002B0004040404040404040202D4
:100090000202020203030303030301020408102007
:1000A0004080010204081020010204081020000012
:1000B0000008000201000003040700000000000027
:1000C0000000110411241FBECFEFD8E0DEBFCDBF6A
:1000D00011E0A0E0B1E0E4E1FBE002C005900D9288
:1000E000A433B107D9F721E0A4E3B1E001C01D9228
:1000F000AB35B207E1F710E0C2E6D0E004C02197CB
:10010000FE010E945C04C136D107C9F70E94410379
:100110000C9488050C940000833081F028F4813021
:1001200099F08230A1F008958730A9F08830B9F0B5
:100130008430D1F4809180008F7D03C08091800055
:100140008F7780938000089584B58F7702C084B53F
:100150008F7D84BD08958091B0008F7703C080911A
:10016000B0008F7D8093B00008951F93CF93DF93ED
:10017000282F30E0F901E255FF4F8491F901E6564E
:10018000FF4FD491F901EA57FF4FC491CC23C1F03E
:10019000162F81110E948C00EC2FF0E0EE0FFF1F54
:1001A000E458FF4FA591B4919FB7F894111104C082
:1001B0008C91D095D82302C0EC91DE2BDC939FBFAD
:1001C000DF91CF911F910895CF93DF9390E0FC01D1
:1001D000E656FF4F2491FC01EA57FF4F8491882394
:1001E00061F190E0880F991FFC01EE58FF4FC59117
:1001F000D491FC01E458FF4FA591B491611109C05D
:100200009FB7F8948881209582238883EC912E23D0
:100210000BC0623061F49FB7F8948881322F30951B
:1002200083238883EC912E2B2C939FBF06C08FB71E
:10023000F894E8812E2B28838FBFDF91CF9108950A
:100240003FB7F89480913B0190913C01A0913D0112
:10025000B0913E0126B5A89B05C02F3F19F001962D
:10026000A11DB11D3FBFBA2FA92F982F8827820F3C
:10027000911DA11DB11DBC01CD0142E0660F771F8C
:10028000881F991F4A95D1F70895CF92DF92EF9278
:10029000FF920F931F93CF93DF936C017A018B0131
:1002A000C0E0D0E0CE15DF0581F0D8016D918D0161
:1002B000D601ED91FC910190F081E02DC6010995E8
:1002C000892B11F02196EECF7E01C701DF91CF91EE
:1002D0001F910F91FF90EF90DF90CF900895CF93F3
:1002E000DF93EC0160E08E810E94B50061E08E81B9
:1002F0000E94B50060E08E810E94B5008BE891E01D
:100300000197F1F7DF91CF910895CF92DF92EF92AD
:10031000FF920F931F93CF93DF936C017C0187E0D3
:10032000E80EF11CC0E0D0E0062F10E0B8010C2E62
:1003300002C0759567950A94E2F76170F7018191A3
:100340007F010E94B5002196C430D10579F7C6011E
:10035000DF91CF911F910F91FF90EF90DF90CF90A1
:100360000C946F01CF92DF92EF92FF920F931F9345
:10037000CF93DF93EC01F62E642F8C810E94B500A1
:100380008D818F3F19F060E00E94B5008F850F2DA1
:1003900010E084FF25C06E0187E0C80ED11CE12C5F
:1003A000F12CB8010E2C02C0759567950A94E2F7FE
:1003B0006170F60181916F010E94B500FFEFEF1AA5
:1003C000FF0A88E0E816F10461F7CE01DF91CF91D2
:1003D0001F910F91FF90EF90DF90CF900C946F01E1
:1003E000B80184E0759567958A95E1F7CE010E9482
:1003F00085016F2DCE01DF91CF911F910F91FF905D
:10040000EF90DF90CF900C948501CF93DF938230F3
:1004100028F090914E01986090934E018093520184
:100420001092530180E48093540180E18093550140
:1004300080E58093560161E0809143010E94E400D1
:10044000809144018F3F19F061E00E94E40061E077
:10045000809145010E94E400CFE3D1E09E012F533B
:10046000314080914E0184FD03C084E090E002C0E1
:1004700088E090E02196281739072CF461E08E81FE
:100480000E94E400EBCF8BE39DE00197F1F760E081
:10049000809143010E94B50060E0809145010E9477
:1004A000B500809144018F3F19F060E00E94B500D3
:1004B00060914E0164FD20C063E08FE391E00E94F3
:1004C0008501CBE4D6E4CE010197F1F763E08FE339
:1004D00091E00E9485012197F1F763E08FE391E0BD
:1004E0000E94850183E592E00197F1F762E08FE3D6
:1004F00091E00E9485011EC0606240E08FE391E0C0
:100500000E94B2018BE496E40197F1F760914E01ED
:10051000606240E08FE391E00E94B20183E592E0E7
:100520000197F1F760914E01606240E08FE391E046
:100530000E94B20160914E01606240E08FE391E061
:100540000E94B20184E080934F0140E06CE08FE3B1
:1005500091E00E94B20140E061E08FE391E00E94EF
:10056000B2018BE39FE10197F1F782E080935001A4
:1005700040E066E08FE391E0DF91CF910C94B2010F
:1005800041E00E94B20181E090E00895089580E08A
:1005900090E00895862F642F0C94E400CF93DF93AE
:1005A000FC01218530E0F901E255FF4F8491F9010A
:1005B000E656FF4FD491F901EA57FF4FC491CC237F
:1005C00079F081110E948C00EC2FF0E0EE0FFF1FFC
:1005D000E859FF4FA591B491EC91ED2381E009F426
:1005E00080E08170DF91CF9108950E9483051F9272
:1005F0000F920FB60F9211242F933F938F939F93D7
:10060000AF93BF938091370190913801A091390148
:10061000B0913A013091360123E0230F2D3720F4B9
:100620000196A11DB11D05C026E8230F0296A11D4C
:10063000B11D209336018093370190933801A09328
:100640003901B0933A0180913B0190913C01A09116
:100650003D01B0913E010196A11DB11D80933B016A
:1006600090933C01A0933D01B0933E01BF91AF91A7
:100670009F918F913F912F910F900FBE0F901F90E0
:100680001895789484B5826084BD84B5816084BDFA
:1006900085B5826085BD85B5816085BD80916E0020
:1006A000816080936E001092810080918100826051
:1006B000809381008091810081608093810080918E
:1006C00080008160809380008091B100846080937D
:1006D000B1008091B00081608093B00080917A0079
:1006E000846080937A0080917A00826080937A009F
:1006F00080917A00816080937A0080917A0080688E
:1007000080937A001092C1009AE1E92E91E0F92ECF
:1007100000E010E029E1C22ED12CF701B0807181F8
:10072000F2E0EF0EF11CC0913401D0913501C00F01
:10073000D11FE881F9810280F381E02D40E050E093
:100740006B2DCE010995B9861886E881F981019053
:10075000F081E02DCE010995882319F0888583600A
:1007600088872FB7F8948091370190913801A09134
:100770003901B0913A012FBF8A839B83AC83BD833B
:10078000E0913401F0913501E00FF11FD782C6826C
:100790000E5E1F4F0039110509F0BFCF82E00E94A5
:1007A000050248E050E06AE271E08FE391E00E94C8
:1007B00045010E9420016B017C0188EE882E83E0B8
:1007C000982EA12CB12C0E942001DC01CB018C19A8
:1007D0009D09AE09BF09883E9340A105B10598F374
:1007E00021E0821A9108A108B10888EEC80E83E0C2
:1007F000D81EE11CF11C81149104A104B10419F765
:1008000040E061E08FE391E00E94B2018BE39FE161
:100810000197F1F7C0E0D0E02097F1F30E940000CB
:10082000FBCF109242011092410182E191E090933E
:10083000400180933F0187E0809343018FEF8093D5
:10084000440188E08093450189E0809346018AE075
:10085000809347018BE0809348018CE080934901AD
:1008600010924A0110924B0110924C0110924D01CE
:1008700010924E0181E00E94050280E990E00E9402
:100880006204FC019C0120573F4F6AE071E04AE09E
:1008900050E0718360831282138214821582578321
:1008A0004683108611867296E217F30791F79093AC
:1008B0003501809334010895EE0FFF1F0590F491E8
:1008C000E02D09940F931F93CF93DF93823091050E
:1008D00010F482E090E0E0915901F0915A0120E09B
:1008E00030E0A0E0B0E0309719F140815181028101
:1008F000138148175907C8F08417950769F41097B2
:1009000031F012960C93129713961C9327C0009304
:10091000590110935A0122C02115310519F04217CF
:10092000530718F49A01BD01EF01DF01F801DBCF95
:1009300021153105F9F0281B390B2430310580F4DD
:100940008A819B816115710521F0FB01938382836C
:1009500004C090935A0180935901FE01329644C01D
:10096000FE01E20FF31F81939193225031093983E5
:1009700028833AC02091570130915801232B41F42C
:1009800020910201309103013093580120935701C7
:1009900020910001309101012115310541F42DB75D
:1009A0003EB74091040150910501241B350BE091A5
:1009B0005701F0915801E217F307A0F42E1B3F0BEB
:1009C0002817390778F0AC014E5F5F4F24173507C1
:1009D00048F04E0F5F1F5093580140935701819389
:1009E000919302C0E0E0F0E0CF01DF91CF911F9141
:1009F0000F910895CF93DF93009709F481C0FC0114
:100A0000329713821282A0915901B0915A01109726
:100A100081F420813181820F931F20915701309101
:100A200058012817390751F5F0935801E093570101
:100A300067C0ED0120E030E0CE17DF0740F44A81C7
:100A40005B819E0141155105F1F0EA01F5CFD38399
:100A5000C28340815181840F951FC817D90759F46B
:100A600088819981840F951F0296918380838A8162
:100A70009B81938382832115310529F4F0935A01D8
:100A8000E09359013DC0E901FB83EA834991599103
:100A9000C40FD51FEC17FD0761F480819181840F8D
:100AA000951F0296E90199838883828193819B83B4
:100AB0008A83E0E0F0E012968D919C911397009765
:100AC00019F0FD01DC01F7CF8D919C9111979D01EB
:100AD0002E5F3F4F820F931F209157013091580195
:100AE0002817390769F4309729F410925A011092A7
:100AF000590102C013821282B0935801A09357018A
:100B0000DF91CF91089581E090E0F8940C948805EE
:040B1000F894FFCF87
:100B140000005B01200000000000CE02CA020000B9
:100B24000000C0024501C702C6020500060002001B
:100B3400030004000E000F0010006D61696E2E6347
:040B440070700000CD
:00000001FF
