:100000000C9421010C9449010C9449010C94490170
:100010000C9449010C9449010C9449010C94390346
:100020000C9449010C9449010C9449010C94490128
:100030000C9449010C9449010C9449010C94490118
:100040000C94DD0A0C9449010C9449010C9449016B
:100050000C9449010C9449010C9449010C944901F8
:100060000C9449010C94490107634236B79BD8A709
:100070001A39685618AEBAAB558C1D3CB7CC5763CD
:10008000BD6DEDFD753EF6177231BF000000803F7B
:1000900008000000BE922449123EABAAAA2ABECD97
:1000A000CCCC4C3E00000080BEABAAAAAA3E000009
:1000B0000000BF000000803F000000000008417801
:1000C000D3BB4387D1133D190E3CC3BD4282AD2B38
:1000D0003E68EC8276BED98FE1A93E4C80EFFFBE30
:1000E00001C4FF7F3F000000000000407A10F35A77
:1000F00000A0724E18090010A5D4E80000E8764868
:10010000170000E40B54020000CA9A3B000000E113
:10011000F505000080969800000040420F000000A6
:10012000A08601000000102700000000E803000086
:1001300000006400000000000A0000000000010050
:10014000000000002C76D888DC674F0823DFC1DF71
:10015000AE59E1B1B796E5E3E453C63AE651997674
:1001600096E8E6C28426EB898C9B62ED407C6FFCAE
:10017000EFBC9C9F40F2BAA56FA5F490055A2AF7F0
:100180005C936B6CF9676DC11BFCE0E40D47FEF5F9
:1001900020E6B500D0ED902E030094357705008061
:1001A000841E080000204E0A000000C80C333333C0
:1001B000330F986E12831141EF8D2114893BE65560
:1001C00016CFFEE6DB18D1844B381BF77C1D901D43
:1001D000A4BBE424203284725E228100C9F124ECA5
:1001E000A1E53D27000000002300260029000000B3
:1001F0000000240027002A0000000008000201007F
:1002000000030407000000000000000001020408D1
:100210001020408001020408102001020408102070
:1002200000000000250028002B000404040404043E
:100230000404020202020202030303030303020096
:100240008F1211241FBECFEFD8E0DEBFCDBF21E05B
:10025000A2E7B1E001C01D92AE3CB207E1F711E0A8
:10026000A0E0B1E0E0E5F8E302C005900D92A2370E
:10027000B107D9F711E0C1E2D1E004C02197FE0136
:100280000E948717C032D107C9F70E94270B0C9430
:10029000261C0C9400000895CF92DF92EF92FF92FB
:1002A0000F931F93CF93DF936C017A018B01C0E012
:1002B000D0E0CE15DF0581F0D8016D918D01D6011A
:1002C000ED91FC910190F081E02DC6010995892BFB
:1002D00011F02196EECF7E01C701DF91CF911F91E2
:1002E0000F91FF90EF90DF90CF90089580E090E025
:1002F00008954F925F926F927F928F929F92AF92EA
:10030000BF92CF92DF92EF92FF920F931F93CF9302
:10031000DF9322E1AC01249FC001259F900D1124A1
:10032000C0918401D0918501C80FD91F888580FFB5
:1003300022C00E94D10A4B015C01C0907201D09092
:100340007301E0907401F0907501A0910001B091EB
:100350000101A70196010E947F1709851A852B8547
:100360003C85801A910AA20AB30A86169706A80647
:10037000B90608F040C0B12C88EEC82E83E0D82E14
:10038000E12CF12C00E510E0888580FF11C00E946F
:10039000D10A49845A846B847C84DC01CB018419A2
:1003A0009509A609B709C816D906EA06FB0698F109
:1003B0000451110958EEC50E53E0D51EE11CF11C85
:1003C00088E8C81683E1D806E104F104E9F68885D7
:1003D00080FD26C082FF24C010927201109273012A
:1003E000109274011092750184E690E090930101DF
:1003F0008093000115C04FEFC41AD40AE40AF40A2E
:10040000C0927201D0927301E0927401F092750172
:10041000BB24B394B1CF1093010100930001C8CF66
:100420008B2DDF91CF911F910F91FF90EF90DF9077
:10043000CF90BF90AF909F908F907F906F905F9084
:100440004F900895CF93DF93EC0160E08E810E947E
:100450002E0761E08E810E942E0760E08E810E944F
:100460002E078BE891E00197F1F7DF91CF91089586
:10047000FC01808191810C94C21A862F642F0C9408
:100480005D070E94111C0F931F93CF93DF93EC0124
:1004900088819981009729F02A813B8126173707A7
:1004A00088F48B016F5F7F4F0E944B1B009761F0B8
:1004B000998388831B830A832C813D81232B11F42C
:1004C000FC01108281E001C080E0DF91CF911F919B
:1004D0000F910895CF93DF93FC01218930E0F9015A
:1004E000E850FE4F8491F901E45FFD4FD491F9018A
:1004F000E65DFD4FC491CC2379F081110E94050780
:10050000EC2FF0E0EE0FFF1FEC51FE4FA591B491E0
:10051000EC91ED2381E009F480E08170DF91CF91CF
:100520000895EF92FF920F931F93CF93DF9361157E
:10053000710511F480E01CC041155105C1F07B012B
:10054000EC018C819D818A01080F191FB801CE0131
:100550000E944302882371F3288139818C819D8117
:10056000B701820F931F0E941F1C1D830C8381E023
:10057000DF91CF911F910F91FF90EF900895CF934E
:10058000DF93EC0188819981009711F00E94C21AD3
:10059000198218821D821C821B821A82DF91CF91E0
:1005A0000895CF93DF93EC016115710561F0FB01B4
:1005B00001900020E9F73197AF01461B570B0E94CD
:1005C0009102811103C0CE010E94BF02CE01DF91D2
:1005D000CF910895EF92FF920F931F93CF93DF93E4
:1005E000EC017B018A01BA010E944302811104C01F
:1005F000CE010E94BF0207C01D830C83B701888112
:1006000099810E941F1CCE01DF91CF911F910F9104
:10061000FF90EF900895CF93DF93EC016115710582
:1006200059F0FB0101900020E9F73197AF01461B1B
:10063000570B0E94EA0202C00E94BF02CE01DF9166
:10064000CF910895CF93DF93EC01FB0186179707B5
:1006500061F0608171816115710529F044815581D6
:100660000E94EA0202C00E94BF02CE01DF91CF9138
:1006700008951F920F920FB60F9211242F933F935C
:100680004F935F936F937F938F939F93AF93BF939A
:10069000EF93FF938091A3019091A401A091A501F4
:1006A000B091A601892B8A2B8B2B59F19091A00137
:1006B000E091A101F091A20180818927808380913E
:1006C000A3019091A401A091A501B091A6011816D3
:1006D00019061A061B060CF03DC08091A3019091EB
:1006E000A401A091A501B091A6010197A109B109AA
:1006F0008093A3019093A401A093A501B093A601B8
:1007000029C080910701EEE3F2E0E4919FEF90931E
:100710000701E130B9F098F0E230C9F4909170002F
:100720009D7F9093700091E09093B0009091B10004
:10073000987F94609093B1001092B30008C010921B
:100740006E0005C090916F009D7F90936F0060E0F8
:100750000E942E07FF91EF91BF91AF919F918F91D2
:100760007F916F915F914F913F912F910F900FBEAD
:100770000F901F901895CF92DF92EF92FF920F93F8
:100780001F93CF93DF936C017C0187E0E80EF11C8F
:10079000C0E0D0E0062F10E0B8010C2E02C0759525
:1007A00067950A94E2F76170F70181917F010E94D9
:1007B0002E072196C430D10579F7C601DF91CF917C
:1007C0001F910F91FF90EF90DF90CF900C94220239
:1007D000CF92DF92EF92FF920F931F93CF93DF930D
:1007E000EC01F62E642F8C810E942E078D818F3FA5
:1007F00019F060E00E942E078F850F2D10E084FF16
:1008000025C06E0187E0C80ED11CE12CF12CB80187
:100810000E2C02C0759567950A94E2F76170F60197
:1008200081916F010E942E07FFEFEF1AFF0A88E007
:10083000E816F10461F7CE01DF91CF911F910F917E
:10084000FF90EF90DF90CF900C942202B80184E0EB
:10085000759567958A95E1F7CE010E94BB036F2DD0
:10086000CE01DF91CF911F910F91FF90EF90DF901C
:10087000CF900C94BB0341E00E94E80381E090E03C
:10088000089540E0682F87EA91E00C94E80381E046
:100890000E9441048BE39FE10197F1F708950097CF
:1008A00069F0FC0101900020E9F73197AF01481B86
:1008B000590BBC0187EA91E00C944C0180E090E078
:1008C00008952F923F924F925F926F927F928F92F4
:1008D0009F92AF92BF92CF92DF92EF92FF920F93CF
:1008E0001F93CF93DF93CDB7DEB7A3970FB6F894DE
:1008F000DEBF0FBECDBF4B015C019B01AC010E946E
:10090000F018882319F085E691E01AC0750164019A
:10091000E894F7F82FEF3FEF4FE75FE7C701B60125
:100920000E94F01881110FC02FEF3FEF4FE75FE7F4
:10093000C701B6010E94B91518162CF489E691E09A
:100940000E944F049AC02FEF3FEF4FE75FE4C501CD
:10095000B4010E949B1818161CF48DE691E0F0CFAC
:100960002FEF3FEF4FE75FECC501B4010E94B915CF
:1009700087FDF3CF20E030E0A901C501B4010E945A
:10098000B91587FF0EC041E06DE287EA91E00E9451
:10099000E803B7FAB094B7F8B094EE24E394F12CDE
:1009A00002C0E12CF12C2DEC3CEC4CE45DE3C501E4
:1009B000B4010E948E174B015C010E946C183B0130
:1009C0006C0119A29B01AC018E010F5D1F4F0AA3A0
:1009D0001BA39AE0292E312C412C512CCA01B901BC
:1009E000A20191010E943E17605DF80162938F01A0
:1009F000211531054105510589F7CF010E944F04AA
:100A00008C01FFEFEF1AFF0A41E06EE287EA91E006
:100A10000E94E803E00EF11EB301C6010E94BE155C
:100A20009B01AC01C501B4010E948D1720E030E0AC
:100A300040E251E40E941F160E946C189B0140E0A6
:100A400050E019A20AA11BA18AE0882E912CA12CAA
:100A5000B12CCA01B901A50194010E943E17605D45
:100A6000F80162938F01211531054105510589F780
:100A7000CF010E944F048E0D9F1DA3960FB6F894D0
:100A8000DEBF0FBECDBFDF91CF911F910F91FF90C1
:100A9000EF90DF90CF90BF90AF909F908F907F901E
:100AA0006F905F904F903F902F900895843008F0A2
:100AB00083E09091BA01891710F08FEF890FE82F2A
:100AC000F0E0E955FE4F848980680C944104CF938F
:100AD000DF93EC01FB0144815581608171810E94AB
:100AE0009102811103C0CE010E94BF02CE01DF91AD
:100AF000CF910895FC011182108213821282158217
:100B000014820C9422030F931F93CF93DF93CDB7DE
:100B1000DEB7A1970FB6F894DEBF0FBECDBF8C0134
:100B2000CB01BA01F8011182108213821282158260
:100B300014822AE0AE014F5F5F4F0E943B13BE015B
:100B40006F5F7F4FC8010E940B03A1960FB6F89408
:100B5000DEBF0FBECDBFDF91CF911F910F910895E2
:100B6000CF92DF92EF92FF928130E1F05CF481113D
:100B700070C060918E0170918F0180919001909171
:100B800091016AC08230C9F0833009F062C060917F
:100B900098017091990180919A0190919B010E9416
:100BA000BE152AC06091960170919701072E000C26
:100BB000880B990B0E94C0151FC02091980130919D
:100BC000990140919A0150919B0160919C01709113
:100BD0009D0180919E0190919F010E942E17C090CF
:100BE0008E01D0908F01E0909001F09091016C0DFA
:100BF0007D1D8E1D9F1D30C06B017C016091920197
:100C00007091930180919401909195010E94BE157D
:100C10009B01AC01C701B6010E94FA179B01AC0110
:100C200060E070E080E090E40E94A0186B017C011D
:100C300060918E0170918F0180919001909191014E
:100C40000E94BE15A70196010E941F160E946C18F3
:100C500003C060E070E0CB01FF90EF90DF90CF9099
:100C600008958823D1F08091980190919901A091E5
:100C70009A01B0919B01B7FD04C00196A11DB11D61
:100C800004C081E090E0A0E0B0E0809398019093F0
:100C90009901A0939A01B0939B016623E9F080919A
:100CA000980190919901A0919A01B0919B01823095
:100CB0009105A105B10524F00197A109B10904C06E
:100CC00081E090E0A0E0B0E08093980190939901DA
:100CD000A0939A01B0939B0108958823D1F080914D
:100CE000920190919301A0919401B0919501B7FD6B
:100CF00004C00196A11DB11D04C081E090E0A0E0F8
:100D0000B0E08093920190939301A0939401B093EB
:100D100095016623E9F08091920190919301A09151
:100D20009401B091950182309105A105B10524F09F
:100D30000197A109B10904C081E090E0A0E0B0E012
:100D40008093920190939301A0939401B0939501A5
:100D50000895EF92FF920F931F93CF93DF93CDB738
:100D6000DEB7A1970FB6F894DEBF0FBECDBF7C01F2
:100D7000CB01BA01F701118210821382128215820F
:100D800014828E010F5F1F4F21E043E00E94101379
:100D9000BC01C7010E940B03A1960FB6F894DEBFF9
:100DA0000FBECDBFDF91CF911F910F91FF90EF90BC
:100DB00008950F931F93CF93DF93CDB7DEB762975C
:100DC0000FB6F894DEBF0FBECDBF8C01CB01F8018A
:100DD0001182108213821282158214824AE0BE01AF
:100DE0006F5F7F4F0E943013BE016F5F7F4FC8015E
:100DF0000E940B0362960FB6F894DEBF0FBECDBF04
:100E0000DF91CF911F910F910895833081F028F4E5
:100E1000813099F08230A1F008958730A9F08830B0
:100E2000B9F08430D1F4809180008F7D03C080912F
:100E300080008F7780938000089584B58F7702C0FB
:100E400084B58F7D84BD08958091B0008F7703C0F5
:100E50008091B0008F7D8093B00008951F93CF9351
:100E6000DF93282F30E0F901E850FE4F8491F9011B
:100E7000E45FFD4FD491F901E65DFD4FC491CC23B1
:100E8000C1F0162F81110E940507EC2FF0E0EE0F44
:100E9000FF1FE05EFD4FA591B4919FB7F89411112B
:100EA00004C08C91D095D82302C0EC91DE2BDC934A
:100EB0009FBFDF91CF911F910895CF93DF9390E073
:100EC000FC01E45FFD4F2491FC01E65DFD4F849140
:100ED000882361F190E0880F991FFC01E251FE4FD9
:100EE000C591D491FC01E05EFD4FA591B4916111D3
:100EF00009C09FB7F8948881209582238883EC915C
:100F00002E230BC0623061F49FB7F8948881322F92
:100F1000309583238883EC912E2B2C939FBF06C0A2
:100F20008FB7F894E8812E2B28838FBFDF91CF9164
:100F30000895CF93DF93823028F09091B6019860A6
:100F40009093B6018093BA011092BB0180E4809324
:100F5000BC0180E18093BD0180E58093BE0161E02A
:100F60008091AB010E945D078091AC018F3F19F029
:100F700061E00E945D0761E08091AD010E945D0724
:100F8000C7EAD1E09E01275A31408091B60184FD25
:100F900003C084E090E002C088E090E0219628172A
:100FA00039072CF461E08E810E945D07EBCF8BE363
:100FB0009DE00197F1F760E08091AB010E942E0760
:100FC00060E08091AD010E942E078091AC018F3FBF
:100FD00019F060E00E942E078091B60184FD20C0C8
:100FE00063E087EA91E00E94BB03CBE4D6E4CE0144
:100FF0000197F1F763E087EA91E00E94BB03219734
:10100000F1F763E087EA91E00E94BB0383E592E099
:101010000197F1F762E087EA91E00E94BB0315C0F7
:1010200080620E9441048BE496E40197F1F780917D
:10103000B60180620E94410483E592E00197F1F7D6
:101040008091B60180620E9441048091B601806265
:101050000E94410484E08093B7018CE00E94410427
:101060000E94470482E08093B80186E0DF91CF912F
:101070000C9441044F925F926F927F928F929F9255
:10108000AF92BF92CF92DF92EF92FF920F931F9396
:10109000CF93DF9300D000D01F92CDB7DEB78C0185
:1010A0002A013B0180910701833121F08F3F09F034
:1010B0003DC205C0EEE3F2E024912D8372C083E1CE
:1010C00080930701EEE3F2E084918D838F3F09F472
:1010D0002DC2813009F441C038F1823009F061C07D
:1010E0001092B0001092B1008091B00082608093A5
:1010F000B0008091B10081608093B100EDE3F2E037
:10110000E491F0E0EE0FFF1FE05EFD4F85919491BA
:101110009093A2018093A101EFE1F2E0E491E093CA
:10112000A00122E02D83FDC114BC15BC84B58260F2
:1011300084BD85B5816085BDEDE3F2E0E491F0E02A
:10114000EE0FFF1FE05EFD4F85919491EFE1F2E01D
:10115000E491E093C0011D82E4C1109280001092DE
:10116000810080918100886080938100809181005E
:10117000816080938100EDE3F2E0E491F0E0EE0F16
:10118000FF1FE05EFD4F85919491EFE1F2E0E49165
:10119000E093BF0161E083E10E945D0791E09D83E0
:1011A0008AC08D8187FDC2C161E083E10E945D0735
:1011B0008D818D7F09F07FC04801A12CB12C60E0AA
:1011C00072E18AE790E0A50194010E9460172983EB
:1011D0003A834B835C8369017A0191E0C91AD10893
:1011E000E108F1082FEFC216D104E104F10409F07F
:1011F00008F44EC060E472E48FE090E0A501940131
:101200000E94601769017A0181E0C81AD108E108DB
:10121000F1089D81923009F52FEFC216D104E10447
:10122000F10409F008F444C160E970ED83E090E056
:10123000A50194010E94601769017A0181E0C81A32
:10124000D108E108F1089FEFC916D104E104F104C7
:1012500011F008F0BAC083E027C02FEFC216D10406
:10126000E104F104B9F0B0F068E478EE81E090E0D8
:10127000A50194010E94601769017A0181E0C81AF2
:10128000D108E108F1089D81992309F413C1DCC05C
:1012900081E001C082E09D81911106C095B5987FE3
:1012A000892B85BD44C085E09091B100987F892B42
:1012B0008093B1003CC04801A12CB12C60E072E1E8
:1012C0008AE790E0A50194010E94601769017A0104
:1012D00081E0C81AD108E108F108C114D10491E0F5
:1012E000E906F10488F068E478EE81E090E0A50179
:1012F00094010E94601769017A0181E0C81AD1083F
:10130000E108F10883E001C081E09D81913079F42A
:1013100090918100987F892B809381004114510422
:101320006104710449F42FEF3FEFA9012CC041146F
:1013300051046104710471F0D801AA0FBB1FA3010D
:1013400092010E94DD1628EE33E040E050E00E945A
:101350003E1703C02FEF3FEFA9018D81813099F037
:10136000823019F18111E2C0C7BC2093C5013093CE
:10137000C6014093C7015093C80180916E008260FE
:1013800080936E00D3C0D0928900C09288002093D1
:10139000C1013093C2014093C3015093C4018091B5
:1013A0006F00826080936F00C1C0C092B300209331
:1013B000A3013093A4014093A5015093A60180910D
:1013C0007000826080937000B1C068E478EE81E0C4
:1013D00090E0A50194010E94601769017A0191E0F3
:1013E000C91AD108E108F1082FEFC216D104E104AF
:1013F000F10441F138F164E274EF80E090E0A5017E
:1014000094010E94601769017A0181E0C81AD1082D
:10141000E108F1089FEFC916D104E104F10409F0D5
:1014200008F441CF62E17AE780E090E0A501940101
:101430000E94601769017A0181E0C81AD108E108A9
:10144000F10819C084E030CF2FEFC216D104E104B7
:10145000F10409F008F463C062E17AE780E090E00B
:10146000A50194010E94601769017A0191E0C91AEF
:10147000D108E108F1088FEFC816D104E104F104A6
:10148000A9F0A0F089819A81AB81BC812AE0B59551
:10149000A795979587952A95D1F76C017D0121E055
:1014A000C21AD108E108F10887E0FECE86E0FCCE42
:1014B00082E0FACE8FEFC816D104E104F10469F19D
:1014C00060F162E17AE780E090E0A50194010E947A
:1014D000601769017A0191E0C91AD108E108F108A1
:1014E0002FEFC216D104E104F104A9F0A0F0898124
:1014F0009A81AB81BC813AE0B595A7959795879580
:101500003A95D1F76C017D0121E0C21AD108E108BA
:10151000F10885E0C3CE84E0C1CE83E0BFCE84E095
:10152000BACE61E083E10E945D0746CE0F900F9036
:101530000F900F900F90DF91CF911F910F91FF901F
:10154000EF90DF90CF90BF90AF909F908F907F9063
:101550006F905F904F9008953FB7F89480918A0103
:1015600090918B01A0918C01B0918D0126B5A89B23
:1015700005C02F3F19F00196A11DB11D3FBFBA2F25
:10158000A92F982F8827820F911DA11DB11DBC0185
:10159000CD0142E0660F771F881F991F4A95D1F74A
:1015A00008952FB7F894609186017091870180911A
:1015B0008801909189012FBF08951F920F920FB655
:1015C0000F9211242F933F938F939F93AF93BF93C9
:1015D0008091860190918701A0918801B091890145
:1015E0003091C90123E0230F2D3720F40196A11D6E
:1015F000B11D05C026E8230F0296A11DB11D209341
:10160000C9018093860190938701A0938801B093CC
:10161000890180918A0190918B01A0918C01B091F8
:101620008D010196A11DB11D80938A0190938B01BC
:10163000A0938C01B0938D01BF91AF919F918F9139
:101640003F912F910F900FBE0F901F901895CF9341
:10165000DF93CDB7DEB7E2970FB6F894DEBF0FBECB
:10166000CDBF789484B5826084BD84B5816084BD2B
:1016700085B5826085BD85B5816085BD80916E0030
:10168000816080936E001092810080918100826061
:10169000809381008091810081608093810080919E
:1016A00080008160809380008091B100846080938D
:1016B000B1008091B00081608093B00080917A0089
:1016C000846080937A0080917A00826080937A00AF
:1016D00080917A00816080937A0080917A0080689E
:1016E00080937A001092C10080E1EEE0F1E0DE012B
:1016F000119601900D928A95E1F761E08DE00E94CC
:101700005D0761E083E10E945D079E012F5F3F4F0F
:101710006901E12CF12C39E1A32EB12CD6019C906A
:1017200011967C91B2E0CB0ED11C009184011091F6
:1017300085010E0D1F1DD801ED91FC910280F381F2
:10174000E02D40E050E0692DC8010995F801918A2B
:1017500010860190F081E02D0190F081E02DC8010C
:101760000995882339F0D80118968C9118978360D1
:1017700018968C930E94D10AF80162837383848344
:101780009583E0918401F0918501EE0DFF1DB782F4
:10179000A682F2E1EF0EF11C20E9E216F10409F055
:1017A000BDCF82E00E94990782E391E00E944F043E
:1017B0000E94AC0A4B015C0120EDC22E27E0D22E24
:1017C000E12CF12C0E94AC0ADC01CB0188199909AB
:1017D000AA09BB09883E9340A105B10598F331E001
:1017E000C31AD108E108F10848EE840E43E0941EC4
:1017F000A11CB11CC114D104E104F10419F70E9429
:10180000470402E090E0292E90E0392EC12CD12C23
:10181000E0908401F0908501EC0CFD1CD701189636
:101820008C9118978B7F18968C931897ED91FC915B
:101830000190F081E02DC7010995B82EF701808550
:1018400086958170B81681F00E94D10AD701129650
:101850006D937D938D939C93159718968C91189703
:10186000802718968C9347C00E94D10AF7014280C6
:10187000538064807580AB01BC0144195509660929
:10188000770986819781A0E0B0E0481759076A0779
:101890007B0788F180858170B81669F10E94D10AB2
:1018A000D70112966D937D938D939C9315971896FF
:1018B0008C91B1E08B278460F70180870E94D10A68
:1018C000D70119968D909D90AD90BC901C97DC012E
:1018D000CB0188199909AA09BB09F7018587968761
:1018E000A787B08B0E94D10AD70119966D937D937B
:1018F0008D939C931C97E0908401F0908501F701F3
:10190000EC0DFD1D808580FD02C082FD03C0857049
:10191000853011F40E944704B2E1CB0ED11CE0E9FE
:10192000CE16D10409F074CF40918001509181010D
:101930006091820170918301F701EE59FF4F908110
:10194000917072972081257080917F01813051F0D4
:1019500018F08230A9F017C0253009F4C8C59111DC
:10196000C8C511C0253009F4C6C5415051096109E7
:101970007109493051056105710508F4BCC503C002
:10198000992309F4B8C51092060180937F01813034
:1019900009F463C320F0823009F42CC5A1C560E0CE
:1019A0008DE00E942E07809106018823F1F021E04E
:1019B00030E040E050E02093020130930301409377
:1019C0000401509305011092800110928101109240
:1019D00082011092830110927B0110927C0110927F
:1019E0007D0110927E010E94470480E00E9456050E
:1019F0008EE391E00E944F04209184013091850193
:101A0000F901EA57FF4F808181707297908190FDB4
:101A100004C0882339F082E005C0811102C081E052
:101A200001C083E090917A01981721F080937A01A8
:101A30000E94470481E00E94560510917A011AA67F
:101A400019A61CA61BA61EA61DA640E050E06EE52A
:101A500071E0CE0189960E94EA02113009F48BC030
:101A600008F452C0123009F44BC1133009F0B4C16C
:101A70004091920150919301609194017091950170
:101A8000CE014D960E948305409198015091990195
:101A900060919A0170919B01CE0147960E94830547
:101AA00060918E0170918F018091900190919101D0
:101AB0000E94BE1520E030E04AE754E40E94FA1785
:101AC000AB01BC01CE0101960E94A906BE016F5F69
:101AD0007F4FCE0141960E947A0568E471E0CE0105
:101AE00041960E94D102BE01695E7F4F0E94670548
:101AF00060E571E00E94D102BE01635E7F4F0E94EB
:101B000067056EE471E051C160918E0170918F01A3
:101B100080919001909191010E94BE1520E030E0EB
:101B20004AE754E40E94FA17AB01BC01CE010196CA
:101B30000E94A90689A59AA5009741F069817A813A
:101B40006115710509F0DCC40E94C21A89819A816D
:101B50009AA789A78B819C819CA78BA78D819E8149
:101B60009EA78DA71A8219821C821B821E821D824B
:101B7000CE0101962FC1809196019091970197FD1A
:101B80004CC081E00E94B0050E94BE1520E030E00C
:101B90004AE754E40E94FA17AB01BC01CE018396D8
:101BA0000E94A90640919201509193016091940185
:101BB00070919501CE014D960E948305609196012A
:101BC00070919701CE0147960E94D90660918E01CF
:101BD00070918F0180919001909191010E94BE15AA
:101BE00020E030E04AE754E40E94FA17AB01BC0160
:101BF000CE0101960E94A906BE016F5F7F4FCE0104
:101C000041960E947A0564E471E0CE0141960E94FB
:101C1000D102BE01695E7F4F47C081E00E94B005DE
:101C20000E94BE1520E030E04AE754E40E94FA1713
:101C3000AB01BC01CE0183960E94A906409192019E
:101C4000509193016091940170919501CE014D9650
:101C50000E9483056091960170919701CE0147968D
:101C60000E94D90660918E0170918F018091900140
:101C7000909191010E94BE1520E030E04AE754E4C3
:101C80000E94FA17AB01BC01CE0101960E94A90681
:101C9000BE016F5F7F4FCE0141960E947A05BE0163
:101CA000695E7F4FCE0141960E94670562E571E053
:101CB0000E94D102BE01635E7F4F0E94670566E409
:101CC00071E00E94D102BE016D5D7F4F0E946705E9
:101CD000BC01CE0189960E942203CE0141960E944A
:101CE0003802CE0101960E943802CE0147960E942A
:101CF0003802CE014D960E943802CE0183966AC00A
:101D000060919C0170919D0180919E0190919F0135
:101D10000E94BE1520E030E04AE754E40E94FA1722
:101D2000AB01BC01CE014D960E94A90640919801DD
:101D30005091990160919A0170919B01CE01479653
:101D40000E94830560918E0170918F0180919001B6
:101D5000909191010E94BE1520E030E04AE754E4E2
:101D60000E94FA17AB01BC01CE0101960E94A906A0
:101D7000BE016F5F7F4FCE0141960E947A0568E4F5
:101D800071E0CE0141960E94D102BE01695E7F4F93
:101D90000E9467056BE471E00E94D102BE01635EA0
:101DA0007F4F0E9467056DE471E00E94D102BC0183
:101DB000CE0189960E942203CE0141960E943802EC
:101DC000CE0101960E943802CE0147960E94380249
:101DD000CE014D960E9438024DA55EA569A57AA553
:101DE00087EA91E00E944C01CE0189960E94380258
:101DF00080917A01813009F4ACC098F0823009F406
:101E0000D5C0833009F06CC380E090E00E94790176
:101E1000F82E81E090E00E9479016F2D0E946D06FE
:101E20000FC180E090E00E947901F82E81E090E0FF
:101E30000E947901882301F180918E0190918F0198
:101E4000A0919001B091910189313CEF93073FEF50
:101E5000A307B3072CF088519C4FAF4FBF4F04C06E
:101E600081E090E0A0E0B0E080938E0190938F013C
:101E7000A0939001B0939101FF20F9F080918E0121
:101E800090918F01A0919001B0919101893E43E022
:101E90009407A105B1052CF0885E9340A109B10912
:101EA00004C081E090E0A0E0B0E080938E019093C8
:101EB0008F01A0939001B093910182E090E00E9485
:101EC0007901F82E83E090E00E9479018823F9F0EF
:101ED00080918E0190918F01A0919001B09191011C
:101EE0008D395FEF9507A507B5072CF08C599F4FEB
:101EF000AF4FBF4F04C081E090E0A0E0B0E080931E
:101F00008E0190938F01A0939001B0939101FF20D7
:101F100009F4E6C280918E0190918F01A091900109
:101F2000B091910185369105A105B1052CF084563B
:101F30009109A109B10904C081E090E0A0E0B0E0FE
:101F400080938E0190938F01A0939001B0939101A3
:101F5000C7C280E090E00E947901F82E81E090E015
:101F60000E9479016F2D0E946D0682E090E00E9430
:101F70007901F82E83E090E00E947901882349F0EE
:101F8000809196019091970101969093970180938B
:101F90009601FF2009F4A4C28091960190919701C7
:101FA000019790939701809396019AC280E090E008
:101FB0000E947901F82E81E090E00E947901882347
:101FC000F9F080919C0190919D01A0919E01B091AA
:101FD0009F018D39EFEF9E07AE07BE072CF08C599D
:101FE0009F4FAF4FBF4F04C081E090E0A0E0B0E052
:101FF00080939C0190939D01A0939E01B0939F01BB
:10200000FF20F1F080919C0190919D01A0919E0193
:10201000B0919F0185369105A105B1052CF084563C
:102020009109A109B10904C081E090E0A0E0B0E00D
:1020300080939C0190939D01A0939E01B0939F017A
:1020400082E090E00E947901F82E83E090E00E9407
:1020500079016F2D0E94310643C261E08DE00E943C
:102060002E07809106018823C1F080917A010E9499
:10207000B0056093800170938101809382019093F9
:1020800083010E94D10A60937B0170937C0180934D
:102090007D0190937E010E94470480908001909082
:1020A0008101A0908201B09083018092760190928C
:1020B0007701A0927801B092790180917A010E9413
:1020C000B005C0907B01D0907C01E0907D01F09044
:1020D0007E01C60ED71EE81EF91E0E94D10AC61A3E
:1020E000D70AE80AF90A8C149D04AE04BF0448F02C
:1020F000C0928001D0928101E0928201F09283012E
:1021000008C01092800110928101109282011092F9
:10211000830180E00E94560584E591E00E944F040F
:1021200080917A01823020F0843008F0D9C147C014
:1021300081E00E945605609180017091810180913B
:102140008201909183010E94BE1520E030E04AE7B1
:1021500054E40E94FA170E946104C0900201D090DA
:102160000301E0900401F090050180907B019090C4
:102170007C01A0907D01B0907E010E94D10A2B01CC
:102180003C01A8EEB3E0A70196010E94DD16860E81
:10219000971EA81EB91E481459046A047B0408F44B
:1021A00020C144E650E060E070E08BED93E00E94D7
:1021B0003A08FFEFCF1ADF0AEF0AFF0A12C181E0E7
:1021C0000E945605409198015091990160919A01A1
:1021D00070919B01CE0101960E94830540910201FE
:1021E000509103016091040170910501CE01479661
:1021F0000E948305BE01695E7F4FCE0141960E9419
:102200007A0562E571E0CE0141960E94D102BE01DD
:102210006F5F7F4F0E9467056DE571E00E94D102FC
:10222000DC0114964D915C9115976D917C9187EA34
:1022300091E00E944C01CE0141960E943802CE01ED
:1022400047960E943802CE0101960E9438026091A2
:1022500080017091810180918201909183010E949F
:10226000BE1520E030E04AE754E40E94FA170E94CD
:102270006104C0900201D0900301E0900401F0904D
:10228000050180917A018230D9F460919C017091AE
:102290009D0180919E0190919F01A70196010E944E
:1022A0002E1780908E0190908F01A0909001B09099
:1022B0009101680D791D8A1D9B1D0E94BE1531C0BC
:1022C000833009F08AC0C701B6010E94BE154B01D8
:1022D0005C016091920170919301809194019091C1
:1022E00095010E94BE159B01AC01C501B4010E947D
:1022F000FA179B01AC0160E070E080E090E40E947E
:10230000A0184B015C0160918E0170918F0180914A
:102310009001909191010E94BE15A50194010E9427
:102320001F164B015C0120917B0130917C01409193
:102330007D0150917E012FA738AB49AB5AAB0E946B
:10234000D10A0E94BE152B013C016FA578A989A96D
:102350009AA964567109810991090E94BE15A501C7
:1023600094010E948E179B01AC01C301B2010E942F
:102370009B1887FD08C04FE550E060E070E083E9FE
:1023800092E00E943A080E94D10A0E94BE152B01D9
:102390003C016FA578A989A99AA96550710981099D
:1023A00091090E94BE15A50194010E948E179B0100
:1023B000AC01C301B2010E949B1887FD12C044E624
:1023C00050E060E070E080E793E00E943A083FEF61
:1023D000C31AD30AE30AF30A04C0CC24CA94DC2C3F
:1023E0007601C0920201D0920301E0920401F092C2
:1023F000050176C080910601882361F00E94D10A10
:1024000060937B0170937C0180937D0190937E01AA
:102410000E94470461E08DE00E942E07C0900201F7
:10242000D0900301E0900401F090050180907B01C1
:1024300090907C01A0907D01B0907E010E94D10A15
:102440002B013C01A8EEB3E0A70196010E94DD1626
:10245000860E971EA81EB91E481459046A047B04F0
:1024600068F044E650E060E070E08BED93E00E949D
:102470003A084FEFC41AD40AE40AF40AC0920201DF
:10248000D0920301E0920401F092050180E00E94E5
:1024900056058FE591E00E944F0481E00E945605A9
:1024A0000E94D10AC0907B01D0907C01E0907D0118
:1024B000F0907E012AE030E040E050E02C193D0928
:1024C0004E095F09620F731F841F951F0E94BE157E
:1024D00020E030E04AE754E40E94FA170E946104C9
:1024E0002114310409F492C90E9400008AC981E0D4
:1024F00003C082E001C080E031E03093060145CAAC
:102500004BA55CA52D813E814217530708F41CCBD7
:102510000E941F1C8D819E819EA78DA727CB1092A4
:10252000AA011092A9018AE291E09093A8018093F8
:10253000A70187E08093AB018FEF8093AC0188E027
:102540008093AD0189E08093AE018AE08093AF0172
:102550008BE08093B0018CE08093B1011092B201C6
:102560001092B3011092B4011092B5011092B6010D
:1025700081E00E94990780E990E00E942A1AFC01FC
:102580009C0120573F4F6AE070E042E251E0128226
:102590001382148215827783668310865183408369
:1025A000118A7296E217F30791F790938501809351
:1025B000840188E893E1A0E0B0E080938E019093DD
:1025C0008F01A0939001B093910183E090E0A0E08F
:1025D000B0E08093920190939301A0939401B09303
:1025E000950181E090E0909397018093960186E0B9
:1025F00090E0A0E0B0E08093980190939901A093BF
:102600009A01B0939B0180ED97E0A0E0B0E0809349
:102610009C0190939D01A0939E01B0939F0108950A
:10262000EF920F931F93CF93DF93E80147FD02C012
:1026300034E001C034E1042E000C550B57FF03C0F9
:10264000519541955109E32E022F242FAE010E948E
:102650007713CE01DF91CF911F910F91EF900895E5
:10266000BB274A3031F4992322F4BDE2909581953D
:102670009F4F0C945E13BB27FA01A62F62177105BA
:1026800081059105330B30FB66F0AA27660F771F93
:10269000881F991FAA1FA21710F0A21B639538501C
:1026A000A9F7A05DAA3308F0A95DA19336F7B1118F
:1026B000B1931082CA010C94A915BB27FB015527C1
:1026C000AA27880F991FAA1FA41710F0A41B83958F
:1026D0005051B9F7A05DAA3308F0A95DA193009706
:1026E00079F7B111B1931192CB010C94A915A9E01E
:1026F000B0E0EDE7F3E10C94EE166A01122FB02E74
:102700002BE3201720F0FF24F394F00E02C02CE3FB
:10271000F22E0F2D27E0AE014F5F5F4F0E94D114C4
:10272000BC014981842F8970813031F0E1FC06C001
:10273000E0FE06C090E205C09DE203C09BE201C03E
:1027400090E05E2D507143FF3CC0911102C083E0C8
:1027500001C084E0811718F4212F281B01C020E05C
:1027600051110BC0F601822F30E2882319F031930A
:102770008150FBCFC20ED11C20E0992329F0D60155
:102780009C93F60131966F01C6010396E2FE0AC0E2
:102790003EE4D6013C9341E411964C931197129676
:1027A0003C9306C03EE6F601308341E64183328326
:1027B000FC01322F40E2332309F442C041933150EF
:1027C000FACF42FF44C0911102C083E001C084E00F
:1027D000811718F4212F281B01C020E051110BC0D4
:1027E000F601822F30E2882319F031938150FBCF1C
:1027F000C20ED11C20E0992329F0D6019C93F6014A
:1028000031966F01C6010396E2FE0BC039E4D60192
:102810003C933EE411963C93119736E412963C9318
:1028200007C039E6F60130833EE6318336E632836F
:10283000FC01322F40E2332319F041933150FBCF9A
:10284000FC01E20FF11D10828EEF9FEFA6C021E088
:1028500030E0911102C020E030E0161617061CF49B
:10286000FB01319602C0E1E0F0E02E0F3F1FBB20DC
:1028700021F0EB2DF0E0319602C0E0E0F0E02E0F09
:102880003F1FE12FF0E02E173F071CF4121B212FF2
:1028900001C020E08E2D887159F4F601822F30E2BC
:1028A000882319F031938150FBCFC20ED11C20E058
:1028B000992329F0D6019C93F60131966F015111AD
:1028C0000BC0F601822F90E3882319F09193815079
:1028D000FBCFC20ED11C20E00F2D060F9A81342FA2
:1028E000307144FF03C0913309F40150101624F4F1
:1028F000093018F008E001C001E0AB0177FF02C029
:1029000040E050E0FB01E41BF50BA1E0B0E0AC0FB0
:10291000BD1FEA0FFB1F8EE2A82E4B01801A910803
:102920000B2D10E01195019511094F3FBFEF5B078B
:1029300021F4D601AC9211966D01641775072CF045
:102940008416950614F4818101C080E34150510939
:102950003196D60111967D014017510724F0D6011A
:102960008C936701E2CF6417750739F4963320F42E
:10297000953319F4311101C081E3F6018083F70129
:10298000822F90E2882319F091938150FBCFF701B9
:10299000E20FF11D108280E090E02996ECE00C94AB
:1029A0000A17283008F027E03327DA01990F311D84
:1029B00087FD916000966105710539F432602E5FE4
:1029C0003D9330E32A95E1F708959F3F30F080383A
:1029D0007105610509F03C5F3C5F3D93913008F063
:1029E0008068911DDF93CF931F930F93FF92EF9217
:1029F000192F987F9695E92F96959695E90FFF27C1
:102A0000EC5BFE4F99273327EE24FF24A701E70153
:102A100005900894079428F4360FE71EF81E491F06
:102A2000511D660F771F881F991F0694A1F7059007
:102A3000079428F4E70EF81E491F561FC11D770F93
:102A4000881F991F661F0694A1F70590079428F424
:102A5000F80E491F561FC71FD11D880F991F661FEB
:102A6000771F0694A1F70590079420F4490F561F8D
:102A7000C71FD81F990F661F771F881F0694A9F7D5
:102A800084911095177041F0D695C7955795479545
:102A9000F794E7941A95C1F7EAEEF0E06894159080
:102AA000159135916591959105907FE27395E118A7
:102AB000F10A430B560BC90BD009C0F7E10CF11E0C
:102AC000431F561FC91FD01D7EF4703311F48A9521
:102AD000E6CFE894015030F0080F0AF400270217FF
:102AE00008F4202F2395022F7A3328F079E37D9381
:102AF0002A95E9F710C07D932A9589F60694979553
:102B00006795379517951794E118F10A430B560B03
:102B1000C90BD00998F023957E9173957A3308F00C
:102B200070E37C932013B8F77E9170617D9330F051
:102B3000839571E37D9370E32A95E1F71124EF907B
:102B4000FF900F911F91CF91DF91992787FD90956D
:102B50000895DC01FC01672F71917723E1F732972B
:102B600004C07C916D9370836291AE17BF07C8F368
:102B700008950E94FB1508F481E00895E89409C0C7
:102B800097FB3EF490958095709561957F4F8F4FA0
:102B90009F4F9923A9F0F92F96E9BB279395F695B6
:102BA000879577956795B795F111F8CFFAF4BB0F34
:102BB00011F460FF1BC06F5F7F4F8F4F9F4F16C098
:102BC000882311F096E911C0772321F09EE8872F22
:102BD000762F05C0662371F096E8862F70E060E0DE
:102BE0002AF09A95660F771F881FDAF7880F969557
:102BF000879597F90895990F0008550FAA0BE0E8FB
:102C0000FEEF16161706E807F907C0F012161306AE
:102C1000E407F50798F0621B730B840B950B39F4EE
:102C20000A2661F0232B242B252B21F408950A2654
:102C300009F4A140A6958FEF811D811D08950E9482
:102C400032160C94A3160E94951638F00E949C161A
:102C500020F0952311F00C948C160C9492161124EC
:102C60000C94D7160E94B41670F3959FC1F3950F7C
:102C700050E0551F629FF001729FBB27F00DB11D00
:102C8000639FAA27F00DB11DAA1F649F6627B00D90
:102C9000A11D661F829F2227B00DA11D621F739F79
:102CA000B00DA11D621F839FA00D611D221F749F87
:102CB0003327A00D611D231F849F600D211D822FCE
:102CC000762F6A2F11249F5750409AF0F1F08823F5
:102CD0004AF0EE0FFF1FBB1F661F771F881F915022
:102CE0005040A9F79E3F510580F00C948C160C942F
:102CF000D7165F3FE4F3983ED4F3869577956795B2
:102D0000B795F795E7959F5FC1F7FE2B880F911D4B
:102D10009695879597F9089597F99F6780E870E0F1
:102D200060E008959FEF80EC089500240A94161641
:102D3000170618060906089500240A9412161306A9
:102D4000140605060895092E0394000C11F4882337
:102D500052F0BB0F40F4BF2B11F460FF04C06F5F53
:102D60007F4F8F4F9F4F089557FD9058440F551F29
:102D700059F05F3F71F04795880F97FB991F61F0FD
:102D80009F3F79F087950895121613061406551F74
:102D9000F2CF4695F1DF08C0161617061806991FE0
:102DA000F1CF86957105610508940895E894BB27D5
:102DB00066277727CB0197F908950E941F17A59FD3
:102DC000900DB49F900DA49F800D911D1124089526
:102DD0002F923F924F925F926F927F928F929F922B
:102DE000AF92BF92CF92DF92EF92FF920F931F9319
:102DF000CF93DF93CDB7DEB7CA1BDB0B0FB6F894CA
:102E0000DEBF0FBECDBF09942A88398848885F8409
:102E10006E847D848C849B84AA84B984C884DF807A
:102E2000EE80FD800C811B81AA81B981CE0FD11D5E
:102E30000FB6F894DEBF0FBECDBFED010895A29F7F
:102E4000B001B39FC001A39F700D811D1124911D7E
:102E5000B29F700D811D1124911D0895DB018F9388
:102E60009F930E94DD16BF91AF91A29F800D911D8F
:102E7000A39F900DB29F900D11240895A1E21A2EE8
:102E8000AA1BBB1BFD010DC0AA1FBB1FEE1FFF1F0E
:102E9000A217B307E407F50720F0A21BB30BE40B5E
:102EA000F50B661F771F881F991F1A9469F76095A5
:102EB0007095809590959B01AC01BD01CF0108955F
:102EC000052E97FB1EF400940E94771757FD07D03C
:102ED0000E943E1707FC03D04EF40C9477175095D0
:102EE0004095309521953F4F4F4F5F4F08959095F6
:102EF0008095709561957F4F8F4F9F4F0895B7FFD5
:102F00000C94DD160E94DD16821B930B0895EE0FC4
:102F1000FF1F0590F491E02D09945058BB27AA2774
:102F20000E94A5170C94A3160E94951638F00E94D3
:102F30009C1620F039F49F3F19F426F40C94921655
:102F40000EF4E095E7FB0C948C16E92F0E94B41662
:102F500058F3BA17620773078407950720F079F4CE
:102F6000A6F50C94D6160EF4E0950B2EBA2FA02DD4
:102F70000B01B90190010C01CA01A0011124FF2726
:102F8000591B99F0593F50F4503E68F11A16F04021
:102F9000A22F232F342F4427585FF3CF4695379520
:102FA0002795A795F0405395C9F77EF41F16BA0BE5
:102FB000620B730B840BBAF09150A1F0FF0FBB1F93
:102FC000661F771F881FC2F70EC0BA0F621F731FDC
:102FD000841F48F4879577956795B795F7959E3F39
:102FE00008F0B0CF9395880F08F09927EE0F9795CA
:102FF000879508950E940E180C94A3160E949C16A3
:1030000058F00E94951640F029F45F3F29F00C9487
:103010008C1651110C94D7160C9492160E94B4166B
:1030200068F39923B1F3552391F3951B550BBB27F7
:10303000AA2762177307840738F09F5F5F4F220F3C
:10304000331F441FAA1FA9F335D00E2E3AF0E0E833
:1030500032D091505040E695001CCAF72BD0FE2F7D
:1030600029D0660F771F881FBB1F26173707480711
:10307000AB07B0E809F0BB0B802DBF01FF279358C9
:103080005F4F3AF09E3F510578F00C948C160C94EB
:10309000D7165F3FE4F3983ED4F38695779567950E
:1030A000B795F7959F5FC9F7880F911D96958795FE
:1030B00097F90895E1E0660F771F881FBB1F62171D
:1030C00073078407BA0720F0621B730B840BBA0BDB
:1030D000EE1F88F7E09508950E94BC1688F09F5770
:1030E00098F0B92F9927B751B0F0E1F0660F771F2C
:1030F000881F991F1AF0BA95C9F714C0B13091F022
:103100000E94D616B1E008950C94D616672F782F3A
:103110008827B85F39F0B93FCCF3869577956795E6
:10312000B395D9F73EF490958095709561957F4F52
:103130008F4F9F4F08950E94FB1508F48FEF08955D
:10314000FA01EE0FFF1F309621053105A1F161153F
:10315000710561F48038BFE39B0749F168949038AA
:10316000810561F08038BFEF9B0741F099234AF554
:10317000FF3FE1053105210519F1E8940894E79531
:10318000D901AA2329F4AB2FBE2FF85FD0F310C0CA
:10319000FF5F70F4A695E0F7F73950F019F0FF3AA9
:1031A00038F49F779F930DD00F9007FC90580895A7
:1031B00046F00C94921660E070E080E89FE308957A
:1031C0004FE79F775F934F933F932F930E94A019F0
:1031D0002F913F914F915F910E941F160C94FD1803
:1031E0000E94FB15880B990B089529F416F00C9496
:1031F0008C160C94D6160C9492160E94BC16A8F34A
:103200009638A0F707F80F92E8942BE33AEA48EBD8
:103210005FE70E9435160F920F920F924DB75EB77F
:103220000F920E94E819E8E6F0E00E942F194F91F2
:103230005F91EF91FF91E595EE1FFF1F49F0FE575B
:10324000E0684427EE0F441FFA95E1F74195550BCE
:103250000E9462190F9007FE0C9456190895DF938F
:10326000CF931F930F93FF92EF92DF927B018C011C
:10327000689406C0DA2EEF010E943216FE01E8942F
:10328000A5912591359145915591A6F3EF010E94A5
:10329000A517FE019701A801DA9469F7DF90EF9076
:1032A000FF900F911F91CF91DF9108959B01AC0189
:1032B00060E070E080E89FE30C94FA170C948C16A1
:1032C0000C941C1A0E94BC16D8F39923C9F3940FCE
:1032D000511DA3F39150504094F059F0882332F0DF
:1032E000660F771F881F91505040C1F79E3F5105D0
:1032F0002CF7880F911D9695879597F908955F3F54
:10330000ACF0983E9CF0BB27869577956795B7956E
:1033100008F4B1609395C1F7BB0F58F711F460FF43
:10332000E8CF6F5F7F4F8F4F9F4FE3CF0C94D7163F
:1033300016F00C941C1A0C94921668940C948C162B
:103340000E94BC16A8F39923C1F3AEF3DF93CF9389
:103350001F930F93FF92C92FDD2788232AF021970F
:10336000660F771F881FDAF720E030E040E85FEB58
:103370009FE3883920F0803E38F021968F770E94B5
:103380008E17E0E9F0E004C00E948E17EDEBF0E04C
:103390000E942F198B01BE01EC01FB2E6F577109A2
:1033A0007595771F880B990B0E94C01528E132E7AD
:1033B00041E35FE30E943216AF2D9801AE01FF900A
:1033C0000F911F91CF91DF910E94A5170C94A31626
:1033D000FA01DC01AA0FBB1F9B01AC01BF5728F407
:1033E000222733274427507820C0B75190F4AB2FC1
:1033F0000024469537952795011CA395D2F300200C
:1034000071F0220F331F441FB395DAF30ED00C94E2
:103410008D1761307105A0E88A07B94630F49B0129
:10342000AC016627772788279078309621F0208393
:1034300031834283538308959F3F31F0915020F4AC
:10344000879577956795B795880F911D9695879580
:1034500097F908950F931F93CF93DF9382309105CF
:1034600010F482E090E0E091CC01F091CD0120E0F9
:1034700030E0A0E0B0E0309719F140815181028145
:10348000138148175907C8F08417950769F41097F6
:1034900031F012960C93129713961C9327C0009349
:1034A000CC011093CD0122C02115310519F042172E
:1034B000530718F49A01BD01EF01DF01F801DBCFDA
:1034C00021153105F9F0281B390B2430310580F422
:1034D0008A819B816115710521F0FB0193838283B1
:1034E00004C09093CD018093CC01FE01329644C07C
:1034F000FE01E20FF31F819391932250310939832A
:1035000028833AC02091CA013091CB01232B41F48A
:1035100020910A0130910B013093CB012093CA0115
:1035200020910801309109012115310541F42DB791
:103530003EB740910C0150910D01241B350BE091D9
:10354000CA01F091CB01E217F307A0F42E1B3F0B49
:103550002817390778F0AC014E5F5F4F2417350705
:1035600048F04E0F5F1F5093CB014093CA018193E7
:10357000919302C0E0E0F0E0CF01DF91CF911F9185
:103580000F910895CF93DF93009709F481C0FC0158
:10359000329713821282A091CC01B091CD01109785
:1035A00081F420813181820F931F2091CA013091D3
:1035B000CB012817390751F5F093CB01E093CA01ED
:1035C00067C0ED0120E030E0CE17DF0740F44A810C
:1035D0005B819E0141155105F1F0EA01F5CFD383DE
:1035E000C28340815181840F951FC817D90759F4B0
:1035F00088819981840F951F0296918380838A81A7
:103600009B81938382832115310529F4F093CD01A9
:10361000E093CC013DC0E901FB83EA8349915991D4
:10362000C40FD51FEC17FD0761F480819181840FD1
:10363000951F0296E90199838883828193819B83F8
:103640008A83E0E0F0E012968D919C9113970097A9
:1036500019F0FD01DC01F7CF8D919C9111979D012F
:103660002E5F3F4F820F931F2091CA013091CB01F3
:103670002817390769F4309729F41092CD01109278
:10368000CC0102C013821282B093CB01A093CA0175
:10369000DF91CF910895A0E0B0E0E1E5FBE10C946B
:1036A000EC16EC01009721F4CB010E942A1AB4C059
:1036B000FC01E60FF71F9C0122503109E217F307C6
:1036C00008F4A8C0D9010D911C911197061717078E
:1036D000B0F00530110508F49BC0C80104978617A7
:1036E000970708F495C002501109061B170B0193A8
:1036F00011936D937C93CF010E94C21A89C05B0124
:10370000A01AB10A4C01800E911EA091CC01B0917B
:10371000CD01612C712CE12CF12C109709F446C0DD
:103720008D919C911197A815B905B1F56C0142E0F6
:10373000C40ED11CCA14DB0478F14C018A189B0812
:10374000640142E0C40ED11C1296BC9012971396ED
:10375000AC91B5E0CB16D10440F0B282A383918244
:103760008082D9016D937C9309C00E5F1F4F800F3B
:10377000911FF90191838083EB2DFA2FE114F1045D
:1037800031F0D7011396FC93EE93129741C0F0935A
:10379000CD01E093CC013CC06816790608F43C01E9
:1037A0007D0112960D90BC91A02DB7CF8091CA01DA
:1037B0009091CB0188169906E1F466167706C8F455
:1037C0008091080190910901009741F48DB79EB74F
:1037D00040910C0150910D01841B950BE817F907DE
:1037E000C8F4F093CB01E093CA01F90171836083BF
:1037F0000FC0CB010E942A1A7C01009759F0A80142
:10380000BE010E94161CCE010E94C21AC70104C04C
:10381000CE0102C080E090E0CDB7DEB7EEE00C94C0
:10382000081781E090E0F8940C94261CFB01DC0161
:1038300002C001900D9241505040D8F70895FB010D
:10384000DC0101900D920020E1F70895F894FFCF7C
:1038500064000100000001FF0000CE012000020012
:1038600003000500060004000E000F001000000019
:1038700000006A023D02000000003B044C0176019A
:103880004B017265746567652076302E33005345B1
:10389000545550002B003D002B5B002A00735D0047
:1038A0002A312F004558504F5355524500200046AD
:1038B0004F435553006E616E00696E66006F766609
:0238C000000006
:00000001FF
