:100000000C94A4000C94CC000C94CC000C94CC0068
:100010000C94CC000C94CC000C94CC000C945E029C
:100020000C94CC000C94CC000C94CC000C94CC0020
:100030000C94CC000C94CC000C94CC000C94CC0010
:100040000C9414020C94CC000C94CC000C94CC00B6
:100050000C94CC000C94CC000C94CC000C94CC00F0
:100060000C94CC000C94CC0008000000BE922449F3
:10007000123EABAAAA2ABECDCCCC4C3E00000080DA
:10008000BEABAAAAAA3E00000000BF000000803F4D
:100090000000000000084178D3BB4387D1133D190D
:1000A0000E3CC3BD4282AD2B3E68EC8276BED98F3A
:1000B000E1A93E4C80EFFFBE01C4FF7F3F0000007E
:1000C000000007634236B79BD8A71A39685618AEA6
:1000D000BAAB558C1D3CB7CC5763BD6DEDFD753E7D
:1000E000F6177231BF000000803F000000002300BF
:1000F0002600290000000000240027002A0000003C
:1001000000080002010000030407000000000000D6
:1001100000000102040810204080010204081020A1
:1001200001020408102000000000250028002B0018
:10013000040404040404040402020202020203038D
:10014000030303030200C10E11241FBECFEFD8E04A
:10015000DEBFCDBF11E0A0E0B1E0EAEDF8E202C001
:1001600005900D92AC37B107D9F721E0ACE7B1E0CB
:1001700001C01D92AC3CB207E1F710E0C4EAD0E048
:1001800004C02197FE010E946F0FC33AD107C9F73F
:100190000E944C080C946B140C940000CF92DF92D8
:1001A000EF92FF920F931F93CF93DF936C017A012D
:1001B0008B01C0E0D0E0CE15DF0581F0D8016D9154
:1001C0008D01D601ED91FC910190F081E02DC601E9
:1001D0000995892B11F02196EECF7E01C701DF91A1
:1001E000CF911F910F91FF90EF90DF90CF900895E6
:1001F000089580E090E008954F925F926F927F9211
:100200008F929F92AF92BF92CF92DF92EF92FF9226
:100210000F931F93CF93DF9322E1AC01249FC00182
:10022000259F900D1124C0919401D0919501C80F84
:10023000D91F888580FF22C00E9440084B015C01C5
:10024000C0907C01D0907D01E0907E01F0907F0114
:10025000A0910001B0910101A70196010E94670FD2
:1002600009851A852B853C85801A910AA20AB30A52
:1002700086169706A806B90608F040C0B12C88EE8D
:10028000C82E83E0D82EE12CF12C00E510E0888503
:1002900080FF11C00E94400849845A846B847C848A
:1002A000DC01CB0184199509A609B709C816D9063E
:1002B000EA06FB0698F10451110958EEC50E53E009
:1002C000D51EE11CF11C88E8C81683E1D806E104BC
:1002D000F104E9F6888580FD26C082FF24C01092D3
:1002E0007C0110927D0110927E0110927F0184E6C4
:1002F00090E0909301018093000115C04FEFC41A64
:10030000D40AE40AF40AC0927C01D0927D01E09202
:100310007E01F0927F01BB24B394B1CF1093010111
:1003200000930001C8CF8B2DDF91CF911F910F91CA
:10033000FF90EF90DF90CF90BF90AF909F908F9005
:100340007F906F905F904F900895CF93C82F83E078
:1003500090E00E94FC00882311F0CF5F09C082E08A
:1003600090E00E94FC00882319F0C23008F0C150D0
:100370008C2FCF910895CF93C82F81E090E00E94F9
:10038000FC00882311F0CF5F09C080E090E00E945C
:10039000FC00882319F0C23008F0C1508C2FCF9197
:1003A0000895CF93DF93EC0160E08E810E94DE041C
:1003B00061E08E810E94DE0460E08E810E94DE0496
:1003C0008BE891E00197F1F7DF91CF910895862FA7
:1003D000642F0C940D050E946614CF93DF93FC01EB
:1003E000218930E0F901E250FF4F8491F901EE5E7E
:1003F000FE4FD491F901E05DFE4FC491CC2379F01A
:1004000081110E94B504EC2FF0E0EE0FFF1FE651C2
:10041000FF4FA591B491EC91ED2381E009F480E0C8
:100420008170DF91CF9108951F920F920FB60F92B6
:1004300011242F933F938F939F93AF93BF938091FA
:10044000970190919801A0919901B0919A013091F2
:10045000960123E0230F2D3720F40196A11DB11D35
:1004600005C026E8230F0296A11DB11D2093960119
:100470008093970190939801A0939901B0939A016A
:1004800080919B0190919C01A0919D01B0919E0152
:100490000196A11DB11D80939B0190939C01A09397
:1004A0009D01B0939E01BF91AF919F918F913F911C
:1004B0002F910F900FBE0F901F9018951F920F92C3
:1004C0000FB60F9211242F933F934F935F936F9327
:1004D0007F938F939F93AF93BF93EF93FF938091FD
:1004E000A2019091A301A091A401B091A501892B33
:1004F0008A2B8B2B59F190919F01E091A001F091F3
:10050000A1018081892780838091A2019091A3011C
:10051000A091A401B091A501181619061A061B0690
:100520000CF03DC08091A2019091A301A091A40183
:10053000B091A5010197A109B1098093A2019093FF
:10054000A301A093A401B093A50129C0809111013A
:10055000E4E4F1E0E4919FEF90931101E130B9F010
:1005600098F0E230C9F4909170009D7F90937000F4
:1005700091E09093B0009091B100987F9460909337
:10058000B1001092B30008C010926E0005C09091A7
:100590006F009D7F90936F0060E00E94DE04FF91EA
:1005A000EF91BF91AF919F918F917F916F915F91EB
:1005B0004F913F912F910F900FBE0F901F90189564
:1005C000CF92DF92EF92FF920F931F93CF93DF931F
:1005D0006C017C0187E0E80EF11CC0E0D0E0062F42
:1005E00010E0B8010C2E02C0759567950A94E2F7E9
:1005F0006170F70181917F010E94DE042196C43071
:10060000D10579F7C601DF91CF911F910F91FF902E
:10061000EF90DF90CF900C94D101CF92DF92EF92C8
:10062000FF920F931F93CF93DF93EC01F62E642F6D
:100630008C810E94DE048D818F3F19F060E00E9462
:10064000DE048F850F2D10E084FF25C06E0187E04A
:10065000C80ED11CE12CF12CB8010E2C02C07595EE
:1006600067950A94E2F76170F60181916F010E942B
:10067000DE04FFEFEF1AFF0A88E0E816F10461F7E5
:10068000CE01DF91CF911F910F91FF90EF90DF90FE
:10069000CF900C94D101B80184E0759567958A9547
:1006A000E1F7CE010E94E0026F2DCE01DF91CF91E4
:1006B0001F910F91FF90EF90DF90CF900C94E0028C
:1006C00041E00E940D0381E090E0089540E0682F32
:1006D00086EA91E00C940D03009769F0FC0101900B
:1006E0000020E9F73197AF01481B590BBC0186EA9E
:1006F00091E00C94CE0080E090E0089581E00E94AB
:1007000066038BE39FE10197F1F708950C946C0366
:100710008F929F92AF92BF920F931F93CF93DF93CD
:10072000CDB7DEB7A1970FB6F894DEBF0FBECDBF31
:1007300019A2423008F44AE08E010F5D1F4F842E4B
:10074000912CA12CB12CA50194010E940C0FE62F35
:10075000B901CA0101501109EA3014F4E05D01C089
:10076000E95CD801EC93232B242B252B61F7C801DE
:100770000E946C03A1960FB6F894DEBF0FBECDBFEA
:10078000DF91CF911F910F91BF90AF909F908F906D
:1007900008958F929F92AF92BF92CF92DF92EF9285
:1007A000FF920F931F93CF93DF936B017C01142F64
:1007B0009B01AC010E945B12882319F080E791E055
:1007C00027C046015701E894B7F82FEF3FEF4FE7F6
:1007D0005FE7C501B4010E945B1281110DC02FEFCC
:1007E0003FEF4FE75FE7C501B4010E94E20F181623
:1007F0001CF484E791E00CC02FEF3FEF4FE75FE47C
:10080000C701B6010E944111181684F488E791E0EF
:10081000DF91CF911F910F91FF90EF90DF90CF90DC
:10082000BF90AF909F908F900C946C032FEF3FEF91
:100830004FE75FECC701B6010E94E20F87FDE6CFEC
:1008400020E030E0A901C701B6010E94E20F87FF56
:100850000DC041E06DE286EA91E00E940D03F7FAD7
:10086000F094F7F8F094C1E0D0E002C0C0E0D0E02E
:1008700000E060E070E080E09FE3011740F420E0DA
:1008800030E040E251E40E94E70F0F5FF6CFA7018E
:1008900096010E94760F6B017C010E9460104B0153
:1008A0005C014AE00E948803C80FD91F1123B9F1E7
:1008B000C501B4010E948F109B01AC01C701B601B4
:1008C0000E94750F6B017C0141E06EE286EA91E0C7
:1008D0000E940D03219620E030E040E251E4C70180
:1008E000B6010E949E114B015C010E9460106B01D9
:1008F000E12CF12C4AE0C701B6010E948803C80F21
:10090000D91FC701B6010E948F109B01AC01C50120
:10091000B4010E94750F6B017C011150E1F6CE010C
:10092000DF91CF911F910F91FF90EF90DF90CF90CB
:10093000BF90AF909F908F900895843008F083E02F
:100940009091B901891710F08FEF890FE82FF0E02F
:10095000EA55FE4F848980680C946603682F70E026
:1009600080E090E04AE00C948803833081F028F422
:10097000813099F08230A1F008958730A9F0883055
:10098000B9F08430D1F4809180008F7D03C08091D4
:1009900080008F7780938000089584B58F7702C0A0
:1009A00084B58F7D84BD08958091B0008F7703C09A
:1009B0008091B0008F7D8093B00008951F93CF93F6
:1009C000DF93282F30E0F901E250FF4F8491F901C5
:1009D000EE5EFE4FD491F901E05DFE4FC491CC2351
:1009E000C1F0162F81110E94B504EC2FF0E0EE0F3C
:1009F000FF1FEA5DFE4FA591B4919FB7F8941111C6
:100A000004C08C91D095D82302C0EC91DE2BDC93EE
:100A10009FBFDF91CF911F910895CF93DF9390E017
:100A2000FC01EE5EFE4F2491FC01E05DFE4F8491DF
:100A3000882361F190E0880F991FFC01EC50FF4F73
:100A4000C591D491FC01EA5DFE4FA591B49161116D
:100A500009C09FB7F8948881209582238883EC9100
:100A60002E230BC0623061F49FB7F8948881322F37
:100A7000309583238883EC912E2B2C939FBF06C047
:100A80008FB7F894E8812E2B28838FBFDF91CF9109
:100A90000895CF93DF93823028F09091B50198604C
:100AA0009093B5018093B9011092BA0180E48093CC
:100AB000BB0180E18093BC0180E58093BD0161E0D2
:100AC0008091AA010E940D058091AB018F3F19F022
:100AD00061E00E940D0561E08091AC010E940D056E
:100AE000C6EAD1E09E01265A31408091B50184FDCD
:100AF00003C084E090E002C088E090E021962817CF
:100B000039072CF461E08E810E940D05EBCF8BE359
:100B10009DE00197F1F760E08091AA010E94DE0458
:100B200060E08091AC010E94DE048091AB018F3FB8
:100B300019F060E00E94DE048091B50184FD20C0C0
:100B400063E086EA91E00E94E002CBE4D6E4CE01C5
:100B50000197F1F763E086EA91E00E94E0022197B5
:100B6000F1F763E086EA91E00E94E00283E592E01B
:100B70000197F1F762E086EA91E00E94E00215C079
:100B800080620E9466038BE496E40197F1F78091FE
:100B9000B50180620E94660383E592E00197F1F758
:100BA0008091B50180620E9466038091B5018062E8
:100BB0000E94660384E08093B6018CE00E94660385
:100BC0000E947E0382E08093B70186E0DF91CF919F
:100BD0000C9466034F925F926F927F928F929F92D6
:100BE000AF92BF92CF92DF92EF92FF921F93CF937B
:100BF000DF93EC0180911101833121F08F3F09F0E7
:100C00000AC204C0E4E4F1E014916FC083E1809370
:100C10001101E4E4F1E014911F3F09F4FCC111302B
:100C200009F440C030F1123009F05FC01092B000FA
:100C30001092B1008091B00082608093B0008091EA
:100C4000B10081608093B100E3E4F1E0E491F0E071
:100C5000EE0FFF1FEA5DFE4F859194919093A101E5
:100C60008093A001E5E2F1E0E491E0939F0112E0BE
:100C7000CDC114BC15BC84B5826084BD85B58160CE
:100C800085BDE3E4F1E0E491F0E0EE0FFF1FEA5DE3
:100C9000FE4F85919491E5E2F1E0E491E093BF018C
:100CA00010E0B4C110928000109281008091810008
:100CB00088608093810080918100816080938100B1
:100CC000E3E4F1E0E491F0E0EE0FFF1FEA5DFE4F98
:100CD00085919491E5E2F1E0E491E093BE0161E059
:100CE00083E10E940D0511E0B1C017FD94C161E0E0
:100CF00083E10E940D05812F8D7F09F0A7C04E0171
:100D0000A12CB12C60E072E18AE790E0A50194018A
:100D10000E942E0F29013A0169017A0121E0C21ACD
:100D2000D108E108F1088FEFC816D104E104F104FD
:100D300009F008F44BC060E472E48FE090E0A50194
:100D400094010E942E0F69017A0181E0C81AD1082E
:100D5000E108F108123001F52FEFC216D104E104C9
:100D6000F10409F008F4EAC060E970ED83E090E076
:100D7000A50194010E942E0F69017A0181E0C81A31
:100D8000D108E108F1082FEFC216D104E104F10403
:100D900009F030F583E053C08FEFC816D104E104A9
:100DA000F104B1F0A8F068E478EE81E090E0A501EC
:100DB00094010E942E0F69017A0181E0C81AD108BE
:100DC000E108F108112309F4EEC0E4C081E001C09C
:100DD00082E0111134C095B5987F892B85BD68C01C
:100DE00068E478EE81E090E0A50194010E942E0F66
:100DF00069017A0181E0C81AD108E108F1082FEFF2
:100E0000C216D104E104F10409F008F495C064E2CB
:100E100074EF80E090E0A50194010E942E0F69011B
:100E20007A0181E0C81AD108E108F1082FEFC21653
:100E3000D104E104F10411F008F082C085E0909142
:100E4000B100987F892B8093B10032C04E01A12C54
:100E5000B12C60E072E18AE790E0A50194010E9464
:100E60002E0F69017A0181E0C81AD108E108F10862
:100E7000C114D10421E0E206F10488F068E478EEC0
:100E800081E090E0A50194010E942E0F69017A0192
:100E900081E0C81AD108E108F10883E001C081E0CF
:100EA000113031F490918100987F892B80938100DB
:100EB0009E01220F331FA4E6B0E00E944D0F28EEE2
:100EC00033E040E050E00E940C0F113099F01230F6
:100ED00019F11111A0C0C7BC2093C4013093C50102
:100EE0004093C6015093C70180916E008260809349
:100EF0006E0091C0D0928900C09288002093C001FA
:100F00003093C1014093C2015093C30180916F009F
:100F1000826080936F007FC0C092B3002093A201D3
:100F20003093A3014093A4015093A50180917000D8
:100F30008260809370006FC084E081CF82E07FCFB9
:100F400062E17AE780E090E0A50194010E942E0F13
:100F500069017A0181E0C81AD108E108F1088FEF30
:100F6000C816D104E104F10499F090F0D301C20154
:100F70002AE0B595A795979587952A95D1F76C01A5
:100F80007D0121E0C21AD108E108F10887E057CFBE
:100F900086E055CF2FEFC216D104E104F10409F029
:100FA00078F684E016CF8FEFC816D104E104F1047F
:100FB00059F150F162E17AE780E090E0A5019401F7
:100FC0000E942E0F69017A0181E0C81AD108E10858
:100FD000F1082FEFC216D104E104F10499F090F06A
:100FE000D301C2013AE0B595A795979587953A95B3
:100FF000D1F76C017D0121E0C21AD108E108F108A6
:1010000085E0E9CE84E0E7CE83E0E5CE61E083E1F0
:101010000E940D0574CEDF91CF911F91FF90EF904C
:10102000DF90CF90BF90AF909F908F907F906F9008
:101030005F904F9008953FB7F89480919B019091F5
:101040009C01A0919D01B0919E0126B5A89B05C071
:101050002F3F19F00196A11DB11D3FBFBA2FA92F37
:10106000982F8827820F911DA11DB11DBC01CD01B4
:1010700042E0660F771F881F991F4A95D1F70895A0
:101080002FB7F89460919701709198018091990120
:1010900090919A012FBF0895CF93DF93CDB7DEB71C
:1010A00064970FB6F894DEBF0FBECDBF789484B5B9
:1010B000826084BD84B5816084BD85B5826085BD54
:1010C00085B5816085BD80916E00816080936E00E2
:1010D00010928100809181008260809381008091D4
:1010E0008100816080938100809180008160809385
:1010F00080008091B10084608093B1008091B00045
:1011000081608093B00080917A00846080937A003F
:1011100080917A00826080937A0080917A00816069
:1011200080937A0080917A00806880937A00109290
:10113000C10080E1E8E1F1E0DE01119601900D923D
:101140008A95E1F761E08DE00E940D0561E083E1A1
:101150000E940D059E012F5F3F4F7901C12CD12CBC
:1011600048E2A42EB12CD7019C9011967C91B2E05C
:10117000EB0EF11C00919401109195010C0D1D1DB9
:10118000D801ED91FC910280F381E02D40E050E028
:10119000692DC8010995F801918A10860190F081A6
:1011A000E02D0190F081E02DC8010995882339F0E8
:1011B000D80118968C911897836018968C930E948A
:1011C0004008F8016283738384839583E0919401DE
:1011D000F0919501EC0DFD1DB782A682F2E1CF0ED4
:1011E000D11C20E9C216D10409F0BDCF82E00E94D3
:1011F00049058CE391E00E9486030E941B084B0185
:101200005C0130EDC32E37E0D32EE12CF12C0E948F
:101210001B08DC01CB0188199909AA09BB09883E82
:101220009340A105B10598F331E0C31AD108E10854
:10123000F10848EE840E43E0941EA11CB11CC114B9
:10124000D104E104F10419F70E947E0302E020E0DA
:10125000222E20E0322EC12CD12CE0909401F0906F
:101260009501EC0CFD1CD70118968C9118978B7F7B
:1012700018968C931897ED91FC910190F081E02DD8
:10128000C7010995B82EF701808586958170B8163B
:1012900081F00E944008D70112966D937D938D9343
:1012A0009C93159718968C911897802718968C9375
:1012B00047C00E944008F7014280538064807580D7
:1012C000AB01BC01441955096609770986819781EC
:1012D000A0E0B0E0481759076A077B0788F18085CE
:1012E0008170B81669F10E944008D70112966D937B
:1012F0007D938D939C93159718968C91B1E08B27D5
:101300008460F70180870E944008D70119968D906C
:101310009D90AD90BC901C97DC01CB018819990978
:10132000AA09BB09F70185879687A787B08B0E941A
:101330004008D70119966D937D938D939C931C97CC
:10134000E0909401F0909501F701EC0DFD1D808572
:1013500080FD02C082FD03C08570853011F40E94BB
:101360007E03B2E1CB0ED11CE0E9CE16D10409F028
:1013700074CF4091900150919101609192017091D0
:101380009301F701EE59FF4F908191707297208180
:10139000257080918F01813051F018F08230A9F0D2
:1013A00017C0253009F48BC291118BC211C02530B2
:1013B00009F489C241505109610971094930510547
:1013C0006105710508F47FC203C0992309F47BC24B
:1013D0001092100180938F018130E1F120F0823072
:1013E00009F4F2C165C2809110018823F1F021E077
:1013F00030E040E050E020930C0130930D01409329
:101400000E0150930F0110929001109291011092D1
:1014100092011092930110928B0110928C01109204
:101420008D0110928E010E947E0360E08DE00E948B
:10143000DE04F701EA57FF4F9081917080918A0195
:101440007297208120FD03C0911147C28DC4911174
:1014500086C43EC2809110018823E1F0809184010E
:1014600090918501A0918601B091870180939001B0
:1014700090939101A0939201B09393010E94400830
:1014800060938B0170938C0180938D0190938E01FA
:101490000E947E0361E08DE00E94DE048090900156
:1014A00090909101A0909201B09093018092800160
:1014B00090928101A0928201B0928301C0908B0131
:1014C000D0908C01E0908D01F0908E01809184018C
:1014D00090918501A0918601B0918701C80ED91E17
:1014E000EA1EFB1E0E944008C61AD70AE80AF90A3B
:1014F0008C149D04AE04BF0448F0C0929001D092B9
:101500009101E0929201F092930108C01092900133
:1015100010929101109292011092930180E00E942A
:101520009D048EE591E00E94860381E00E949D0467
:10153000609190017091910180919201909193013D
:101540000E948F1020E030E04AE754E40E94E70F49
:1015500041E050E00E94C903809090019090910179
:10156000A0909201B0909301C501B4010E948F1028
:101570000E9446116B017C01C501B4016C597F4F7B
:101580008F4F9F4F0E948F100E9446114B015C01AC
:10159000C701B6010E9459107B01AFEFEA1AFA0A9F
:1015A000C501B4010E9459106F5F7F4FE616F70620
:1015B00011F00E947E0380918A01823020F08430F5
:1015C00008F076C135C0C0900C01D0900D01E090BC
:1015D0000E01F0900F0180908B0190908C01A090F3
:1015E0008D01B0908E010E9440082B013C01A8EEB5
:1015F000B3E0A70196010E945C0F860E971EA81EFD
:10160000B91E481459046A047B0448F08BED93E03A
:101610000E94EA05BFEFCB1ADB0AEB0AFB0AC09275
:101620000C01D0920D01E0920E01F0920F0140C129
:1016300087E691E00E94860360910C0170910D0194
:1016400080910E0190910F014AE00E9488038CE581
:1016500091E00E94860380910B010E94AE044090AD
:101660000C0150900D0160900E0170900F0160917F
:1016700002017091030180910401909105010E9483
:101680008F106B017C0160910701709108018091BE
:10169000090190910A0120918A01223099F40E9457
:1016A0008F104B015C01C301B2010E948F109B019E
:1016B000AC01C501B4010E949E11A70196010E94D0
:1016C000760F25C010910601233009F070C0C301C8
:1016D000B2010E948F104B015C01612F70E080E02D
:1016E00090E00E9491109B01AC01C501B4010E94E1
:1016F000E70F9B01AC0160E070E080E090E40E94A5
:101700000B129B01AC01C701B6010E949E116B0137
:101710007C0180908B0190908C01A0908D01B09005
:101720008E010E9440080E948F10698B7A8B8B8BF0
:101730009C8BC501B40164567109810991090E940D
:101740008F10A70196010E94760F9B01AC01698959
:101750007A898B899C890E94411187FD04C083E9A5
:1017600092E00E94EA050E9440080E948F10698B57
:101770007A8B8B8B9C8BC501B4010E948F10A701C3
:1017800096010E94760F9B01AC0169897A898B8949
:101790009C890E94411187FD0EC080E793E00E9462
:1017A000EA05EFEF4E1A5E0A6E0A7E0A04C0442470
:1017B0004A94542C320140920C0150920D016092D7
:1017C0000E0170920F0174C080911001882361F0A6
:1017D0000E94400860938B0170938C0180938D016F
:1017E00090938E010E947E0361E08DE00E94DE04F2
:1017F000C0900C01D0900D01E0900E01F0900F010F
:1018000080908B0190908C01A0908D01B0908E0102
:101810000E9440082B013C01A8EEB3E0A70196010D
:101820000E945C0F860E971EA81EB91E481459040C
:101830006A047B0448F08BED93E00E94EA05FFEF19
:10184000CF1ADF0AEF0AFF0AC0920C01D0920D01F5
:10185000E0920E01F0920F0180E00E949D048AE662
:1018600091E00E94860381E00E949D040E9440084E
:10187000C0908B01D0908C01E0908D01F0908E0192
:101880002AE030E040E050E02C193D094E095F09A4
:10189000620F731F841F951F0E948F1020E030E09D
:1018A0004AE754E40E94E70F41E050E00E94C90378
:1018B0002114310409F4CFCC0E940000C8CC81E08F
:1018C00003C082E001C080E031E03093100182CD9E
:1018D000813009F422C211E004C0823009F42CC224
:1018E00012E00E947E0310938A01A0910B01709078
:1018F0000601C0900201D0900301E0900401F09035
:101900000501123081F0133051F1113009F051C04E
:101910006091880170918901072E000C880B990B4A
:101920000E94911022C0209107013091080140913E
:10193000090150910A01B0E00E945C0FC60ED71E4B
:10194000E81EF91E36C0A0910B0170900601C090F0
:101950000201D0900301E0900401F09005016A2F8C
:1019600070E080E090E00E948F104B015C01672DD9
:1019700070E080E090E00E948F109B01AC01C501F7
:10198000B4010E94E70F9B01AC0160E070E080E0D1
:1019900090E40E940B124B015C01C701B6010E944A
:1019A0008F10A50194010E949E110E9460106B018E
:1019B0007C01C0928401D0928501E0928601F09270
:1019C000870180E00E949D0488E491E00E948603E4
:1019D00081E00E949D0480918A01813009F4B4C0A5
:1019E000C8F1823009F42CC1833009F061CF8091B5
:1019F00006010E94BB018093060180910B010E94A9
:101A0000A50180930B016091020170910301809107
:101A10000401909105010E948F1020E030E04AE718
:101A200054E40E94E70F41E050E00E94C90382E5C0
:101A300091E00E94860380910B010E94AE048AE52A
:101A400091E00E948603809106010E94AE0488E521
:101A500091E05AC18090020190900301A09004018E
:101A6000B090050183E090E00E94FC00811115C058
:101A700082E090E00E94FC00811112C081E090E0C1
:101A80000E94FC0081110FC080E090E00E94FC00E9
:101A900081110CC080E090E00BC084E690E008C0AB
:101AA0008CE99FEF05C088EE93E002C088E19CEFCF
:101AB0006C01990FEE08FF08C80CD91CEA1CFB1C2E
:101AC000F7FC10C03DEDC31631E4D3063FE0E3065A
:101AD000F10458F09CEDC92E91E4D92E9FE0E92E37
:101AE000F12C03C0C12CD12C7601C501B4010E9498
:101AF0008F100E9446114B015C01C701B6010E9484
:101B00008F100E9446112B013C01C501B4010E94B7
:101B100059105B01C301B2010E945910A616B70605
:101B200014F40E947E03C0920201D0920301E0925D
:101B30000401F0920501609184017091850180910A
:101B4000860190918701A8CE809106010E94BB0179
:101B500080930601E0908801F090890183E090E095
:101B60000E94FC00882321F04FEFE41AF40A09C018
:101B700082E090E00E94FC00882319F051E0E51A11
:101B8000F108F0928901E092880160910201709160
:101B9000030180910401909105010E948F1020E0C3
:101BA00030E04AE754E40E94E70F41E050E00E9431
:101BB000C903809188019091890197FD04C08EE44A
:101BC00091E00E948603C0908801D09089010D2C7D
:101BD000000CEE08FF08F7FE0FC041E06DE286EA58
:101BE00091E00E940D0366277727CB016C197D09D0
:101BF0008E099F094AE003C04AE0C701B6010E946E
:101C000088038CE591E00E948603809106010E9482
:101C1000AE0480E591E00E9486036091840170919A
:101C2000850180918601909187010E948F1020E0AC
:101C300030E04AE754E40E94E70F42E050E036CE3D
:101C4000C0900701D0900801E0900901F0900A01CE
:101C500081E090E00E94FC00882331F084E6C80E09
:101C6000D11CE11CF11C0CC080E090E00E94FC0043
:101C7000882331F0C114D104E104F10409F047C014
:101C8000C0920701D0920801E0920901F0920A0186
:101C900080910B010E94A50180930B0160910201CC
:101CA0007091030180910401909105010E948F10B1
:101CB00020E030E04AE754E40E94E70F41E050E0C2
:101CC0000E94C90382E591E00E94860380910B0186
:101CD0000E94AE0485E591E00E94860360910701B1
:101CE000709108018091090190910A010E948F1062
:101CF00020E030E04AE754E40E94E70F41E050E082
:101D00000E94C90387E591E00E948603D1CD44E695
:101D1000C41AD108E108F108B3CF709006016091B0
:101D2000880170918901C0900201D0900301E09078
:101D30000401F0900501F0CDA0910B012091070165
:101D4000309108014091090150910A01C0900201AF
:101D5000D0900301E0900401F0900501ECCD8330B8
:101D600009F4F1CD13E0BDCD882311F010E0B9CD19
:101D7000C0900201D0900301E0900401F0900501B1
:101D800018CE1092A9011092A80184E391E09093DB
:101D9000A7018093A60187E08093AA018FEF80932B
:101DA000AB0188E08093AC0189E08093AD018AE0CB
:101DB0008093AE018BE08093AF018CE08093B00103
:101DC0001092B1011092B2011092B3011092B401BD
:101DD0001092B50181E00E94490580E990E00E94DF
:101DE0004513FC019C0120573F4F6AE070E04CE234
:101DF00051E01282138214821582778366831086E3
:101E000051834083118A7296E217F30791F79093FA
:101E10009501809394010895A1E21A2EAA1BBB1B81
:101E2000FD010DC0AA1FBB1FEE1FFF1FA217B307A6
:101E3000E407F50720F0A21BB30BE40BF50B661FBC
:101E4000771F881F991F1A9469F760957095809580
:101E500090959B01AC01BD01CF010895052E97FB24
:101E60001EF400940E94450F57FD07D00E940C0FEE
:101E700007FC03D04EF40C94450F509540953095D7
:101E800021953F4F4F4F5F4F0895909580957095E6
:101E900061957F4F8F4F9F4F0895A29FB001B39FD1
:101EA000C001A39F700D811D1124911DB29F700D63
:101EB000811D1124911D08950E944D0FA59F900D25
:101EC000B49F900DA49F800D911D11240895B7FF1C
:101ED0000C945C0F0E945C0F821B930B0895EE0F15
:101EE000FF1F0590F491E02D09945058BB27AA27B5
:101EF0000E948D0F0C9407110E94F91038F00E9477
:101F0000001120F039F49F3F19F426F40C94F610D8
:101F10000EF4E095E7FB0C94F010E92F0E941811E5
:101F200058F3BA17620773078407950720F079F40E
:101F3000A6F50C943A110EF4E0950B2EBA2FA02DB5
:101F40000B01B90190010C01CA01A0011124FF2766
:101F5000591B99F0593F50F4503E68F11A16F04061
:101F6000A22F232F342F4427585FF3CF4695379560
:101F70002795A795F0405395C9F77EF41F16BA0B25
:101F8000620B730B840BBAF09150A1F0FF0FBB1FD3
:101F9000661F771F881FC2F70EC0BA0F621F731F1C
:101FA000841F48F4879577956795B795F7959E3F79
:101FB00008F0B0CF9395880F08F09927EE0F97950A
:101FC000879508950E94CC1008F481E008950E943E
:101FD000FB0F0C9407110E94001158F00E94F91099
:101FE00040F029F45F3F29F00C94F01051110C944B
:101FF0003B110C94F6100E94181168F39923B1F369
:10200000552391F3951B550BBB27AA27621773071E
:10201000840738F09F5F5F4F220F331F441FAA1FB2
:10202000A9F335D00E2E3AF0E0E832D0915050406E
:10203000E695001CCAF72BD0FE2F29D0660F771F1C
:10204000881FBB1F261737074807AB07B0E809F002
:10205000BB0B802DBF01FF2793585F4F3AF09E3F87
:10206000510578F00C94F0100C943B115F3FE4F3B1
:10207000983ED4F3869577956795B795F7959F5FCA
:10208000C9F7880F911D9695879597F90895E1E016
:10209000660F771F881FBB1F621773078407BA0775
:1020A00020F0621B730B840BBA0BEE1F88F7E095D0
:1020B00008950E9460106894B1110C943B1108952A
:1020C0000E94201188F09F5798F0B92F9927B75197
:1020D000B0F0E1F0660F771F881F991F1AF0BA95CC
:1020E000C9F714C0B13091F00E943A11B1E00895DF
:1020F0000C943A11672F782F8827B85F39F0B93FD1
:10210000CCF3869577956795B395D9F73EF490957E
:102110008095709561957F4F8F4F9F4F0895E894FC
:1021200009C097FB3EF490958095709561957F4F1F
:102130008F4F9F4F9923A9F0F92F96E9BB279395CD
:10214000F695879577956795B795F111F8CFFAF4DD
:10215000BB0F11F460FF1BC06F5F7F4F8F4F9F4F0E
:1021600016C0882311F096E911C0772321F09EE86C
:10217000872F762F05C0662371F096E8862F70E0D2
:1021800060E02AF09A95660F771F881FDAF7880FAC
:102190009695879597F90895990F0008550FAA0B02
:1021A000E0E8FEEF16161706E807F907C0F012166A
:1021B0001306E407F50798F0621B730B840B950B6D
:1021C00039F40A2661F0232B242B252B21F40895C2
:1021D0000A2609F4A140A6958FEF811D811D08955F
:1021E00097F99F6780E870E060E008959FEF80ECCA
:1021F000089500240A94161617061806090608956D
:1022000000240A9412161306140605060895092ED2
:102210000394000C11F4882352F0BB0F40F4BF2B41
:1022200011F460FF04C06F5F7F4F8F4F9F4F089581
:1022300057FD9058440F551F59F05F3F71F0479577
:10224000880F97FB991F61F09F3F79F0879508955C
:10225000121613061406551FF2CF4695F1DF08C07B
:10226000161617061806991FF1CF86957105610598
:1022700008940895E894BB2766277727CB0197F940
:1022800008950E94CC1008F48FEF08950E94561113
:1022900029ED3BE54EED5EE30C949E1116F00C9497
:1022A0009A120C94F61068940C94F0100E9420116D
:1022B000A8F39923C1F3AEF3DF93CF931F930F934A
:1022C000FF92C92FDD2788232AF02197660F771FF9
:1022D000881FDAF720E030E040E85FEB9FE38839C1
:1022E00020F0803E38F021968F770E94760FE8E646
:1022F000F0E004C00E94760FE5E9F0E00E94A81229
:102300008B01BE01EC01FB2E6F5771097595771F8C
:10231000880B990B0E94911028E132E741E35FE3BB
:102320000E94B111AF2D9801AE01FF900F911F9146
:10233000CF91DF910E948D0F0C9407110E94B11173
:102340000C9407110E94F91038F00E94001120F03F
:10235000952311F00C94F0100C94F61011240C94A9
:102360003B110E94181170F3959FC1F3950F50E037
:10237000551F629FF001729FBB27F00DB11D639F37
:10238000AA27F00DB11DAA1F649F6627B00DA11DDD
:10239000661F829F2227B00DA11D621F739FB00D83
:1023A000A11D621F839FA00D611D221F749F3327F3
:1023B000A00D611D231F849F600D211D822F762F8C
:1023C0006A2F11249F5750409AF0F1F088234AF069
:1023D000EE0FFF1FBB1F661F771F881F91505040D5
:1023E000A9F79E3F510580F00C94F0100C943B111E
:1023F0005F3FE4F3983ED4F3869577956795B7955C
:10240000F795E7959F5FC1F7FE2B880F911D969575
:10241000879597F90895FA01EE0FFF1F3096210571
:102420003105A1F16115710561F48038BFE39B07A7
:1024300049F168949038810561F08038BFEF9B07BF
:1024400041F099234AF5FF3FE1053105210519F1D6
:10245000E8940894E795D901AA2329F4AB2FBE2F5D
:10246000F85FD0F310C0FF5F70F4A695E0F7F7397E
:1024700050F019F0FF3A38F49F779F930DD00F90EA
:1024800007FC9058089546F00C94F61060E070E058
:1024900080E89FE308954FE79F775F934F933F93C3
:1024A0002F930E9456112F913F914F915F910E945F
:1024B0009E110C9468120E94CC10880B990B089501
:1024C00029F416F00C94F0100C943A110C94F610B8
:1024D0000E942011A8F39638A0F707F80F92E8940D
:1024E0002BE33AEA48EB5FE70E94B4110F920F9298
:1024F0000F924DB75EB70F920E941113E2ECF0E01D
:102500000E94A8124F915F91EF91FF91E595EE1F08
:10251000FF1F49F0FE57E0684427EE0F441FFA956D
:10252000E1F74195550B0E94DB120F9007FE0C94CA
:10253000CF1208959F3F31F0915020F48795779501
:102540006795B795880F911D9695879597F908958A
:10255000DF93CF931F930F93FF92EF92DF927B0154
:102560008C01689406C0DA2EEF010E94B111FE01C1
:10257000E894A5912591359145915591A6F3EF01E8
:102580000E948D0FFE019701A801DA9469F7DF9090
:10259000EF90FF900F911F91CF91DF9108959B01D4
:1025A000AC0160E070E080E89FE30C94E70F0C94CE
:1025B000F0100C949A120E942011D8F39923C9F3B9
:1025C000940F511DA3F39150504094F059F088237B
:1025D00032F0660F771F881F91505040C1F79E3F21
:1025E00051052CF7880F911D9695879597F90895B9
:1025F0005F3FACF0983E9CF0BB278695779567953A
:10260000B79508F4B1609395C1F7BB0F58F711F473
:1026100060FFE8CF6F5F7F4F8F4F9F4FE3CF0C94EA
:102620003B11FA01DC01AA0FBB1F9B01AC01BF5794
:1026300028F4222733274427507820C0B75190F43C
:10264000AB2F0024469537952795011CA395D2F30F
:10265000002071F0220F331F441FB395DAF30ED020
:102660000C94750F61307105A0E88A07B94630F403
:102670009B01AC016627772788279078309621F058
:10268000208331834283538308950F931F93CF9305
:10269000DF938230910510F482E090E0E091CA016E
:1026A000F091CB0120E030E0A0E0B0E0309719F1EC
:1026B000408151810281138148175907C8F084175E
:1026C000950769F4109731F012960C9312971396B0
:1026D0001C9327C00093CA011093CB0122C021157F
:1026E000310519F04217530718F49A01BD01EF01A3
:1026F000DF01F801DBCF21153105F9F0281B390B7B
:102700002430310580F48A819B816115710521F0A7
:10271000FB019383828304C09093CB018093CA0111
:10272000FE01329644C0FE01E20FF31F81939193A4
:1027300022503109398328833AC02091C801309151
:10274000C901232B41F420911401309115013093DC
:10275000C9012093C8012091120130911301211564
:10276000310541F42DB73EB7409116015091170144
:10277000241B350BE091C801F091C901E217F30762
:10278000A0F42E1B3F0B2817390778F0AC014E5FE1
:102790005F4F2417350748F04E0F5F1F5093C90154
:1027A0004093C8018193919302C0E0E0F0E0CF0133
:1027B000DF91CF911F910F910895CF93DF930097F1
:1027C00009F481C0FC01329713821282A091CA01E0
:1027D000B091CB01109781F420813181820F931F3A
:1027E0002091C8013091C9012817390751F5F0939C
:1027F000C901E093C80167C0ED0120E030E0CE17C9
:10280000DF0740F44A815B819E0141155105F1F0DB
:10281000EA01F5CFD383C28340815181840F951F94
:10282000C817D90759F488819981840F951F02969A
:10283000918380838A819B819383828321153105D3
:1028400029F4F093CB01E093CA013DC0E901FB8379
:10285000EA8349915991C40FD51FEC17FD0761F424
:1028600080819181840F951F0296E9019983888365
:10287000828193819B838A83E0E0F0E012968D91C0
:102880009C911397009719F0FD01DC01F7CF8D9112
:102890009C9111979D012E5F3F4F820F931F2091B6
:1028A000C8013091C9012817390769F4309729F414
:1028B0001092CB011092CA0102C013821282B0930F
:1028C000C901A093C801DF91CF91089581E090E004
:0A28D000F8940C946B14F894FFCFF9
:1028DA0064008813000003D00700000A010000000A
:1028EA0001FF0000CC0120000200030005000600E1
:1028FA0004000E000F00100000000000ED01E701C7
:10290A00000000006003CE00F900F80072657465EB
:10291A0067652076302E32005345545550002B00FF
:10292A003D002B5B002A00735D002A312F004558B9
:10293A00504F5355524500202000464F43555300EF
:0C294A006E616E00696E66006F766600BC
:00000001FF
