:100000000C94A4000C94CC000C94CC000C94CC0068
:100010000C94CC000C94CC000C94CC000C946B028F
:100020000C94CC000C94CC000C94CC000C94CC0020
:100030000C94CC000C94CC000C94CC000C94CC0010
:100040000C9421020C94CC000C9495040C946F0435
:100050000C94CC000C94CC000C94CC000C94CC00F0
:100060000C94CC000C94CC0008000000BE922449F3
:10007000123EABAAAA2ABECDCCCC4C3E00000080DA
:10008000BEABAAAAAA3E00000000BF000000803F4D
:100090000000000000084178D3BB4387D1133D190D
:1000A0000E3CC3BD4282AD2B3E68EC8276BED98F3A
:1000B000E1A93E4C80EFFFBE01C4FF7F3F0000007E
:1000C000000007634236B79BD8A71A39685618AEA6
:1000D000BAAB558C1D3CB7CC5763BD6DEDFD753E7D
:1000E000F6177231BF000000803F000000002300BF
:1000F0002600290000000000240027002A0000003C
:1001000000080002010000030407000000000000D6
:1001100000000102040810204080010204081020A1
:1001200001020408102000000000250028002B0018
:10013000040404040404040402020202020203038D
:10014000030303030200BD1111241FBECFEFD8E04B
:10015000DEBFCDBF11E0A0E0B1E0E6E6FFE202C005
:1001600005900D92A638B107D9F722E0A6E8B1E0D4
:1001700001C01D92A737B207E1F710E0C4EAD0E052
:1001800004C02197FE010E94A612C33AD107C9F705
:100190000E94310A0C94B1170C940000CF92DF92A8
:1001A000EF92FF920F931F93CF93DF936C017A012D
:1001B0008B01C0E0D0E0CE15DF0581F0D8016D9154
:1001C0008D01D601ED91FC910190F081E02DC601E9
:1001D0000995892B11F02196EECF7E01C701DF91A1
:1001E000CF911F910F91FF90EF90DF90CF900895E6
:1001F000FC01538D448D252F30E0842F90E0821B2D
:10020000930B541710F0CF96089501970895FC01B1
:10021000918D828D981761F0828DDF01A80FB11D3D
:100220005D968C91928D9F5F9F73928F90E0089561
:100230008FEF9FEF0895FC01918D828D981731F01B
:10024000828DE80FF11D858D90E008958FEF9FEF6F
:100250000895FC01918D228D892F90E0805C9F4F45
:10026000821B91098F739927089582EB91E00E9478
:10027000290121E0892B09F420E0822F0895FC0157
:10028000848DDF01A80FB11DA35ABF4F2C91848D1F
:1002900090E001968F739927848FA689B7892C9354
:1002A000A089B1898C91837080648C93938D848DA7
:1002B000981306C00288F389E02D80818F7D8083AA
:1002C0000895EF92FF920F931F93CF93DF93EC016A
:1002D00081E0888F9B8D8C8D981305C0E889F98902
:1002E000808185FD26C0F62E0B8D10E00F5F1F4F1D
:1002F0000F731127E02E8C8DE8120CC00FB607FC8F
:10030000FACFE889F989808185FFF5CFCE010E9477
:100310003F01F1CF8B8DFE01E80FF11DE35AFF4F36
:10032000F0829FB7F8940B8FEA89FB898081806205
:100330000AC09FB7F894EE89FF896083E889F9893C
:1003400080818370806480839FBF81E090E0DF9133
:10035000CF911F910F91FF90EF900895CF93DF936E
:10036000EC01888D8823C9F0EA89FB89808185FDAD
:1003700005C0A889B9898C9186FD0FC00FB607FC0E
:10038000F5CF808185FFF2CFA889B9898C9185FF4F
:10039000EDCFCE010E943F01E7CFDF91CF910895CD
:1003A00080E090E0892B29F00E94350181110C94A6
:1003B00000000895089580E090E00895CF93DF93C2
:1003C000EC0160E08E810E94820661E08E810E94D5
:1003D000820660E08E810E9482068BE891E00197A0
:1003E000F1F7DF91CF910895862F642F0C94B10619
:1003F0000E94AC17CF93DF93FC01218530E0F90117
:10040000E250FF4F8491F901EE5EFE4FD491F90165
:10041000E05DFE4FC491CC2379F081110E94590612
:10042000EC2FF0E0EE0FFF1FE651FF4FA591B491C6
:10043000EC91ED2381E009F480E08170DF91CF91B0
:1004400008951F920F920FB60F9211242F933F938E
:100450008F939F93AF93BF938091A3019091A40139
:10046000A091A501B091A6013091A20123E0230F34
:100470002D3720F40196A11DB11D05C026E8230FDC
:100480000296A11DB11D2093A2018093A301909318
:10049000A401A093A501B093A6018091A70190911A
:1004A000A801A091A901B091AA010196A11DB11DB9
:1004B0008093A7019093A801A093A901B093AA01EA
:1004C000BF91AF919F918F913F912F910F900FBE50
:1004D0000F901F9018951F920F920FB60F92112434
:1004E0002F933F934F935F936F937F938F939F933C
:1004F000AF93BF93EF93FF938091AE019091AF01C3
:10050000A091B001B091B101892B8A2B8B2B59F1AD
:100510009091AB01E091AC01F091AD018081892710
:1005200080838091AE019091AF01A091B001B09114
:10053000B101181619061A061B060CF03DC0809171
:10054000AE019091AF01A091B001B091B1010197BE
:10055000A109B1098093AE019093AF01A093B001BE
:10056000B093B10129C080910C01E4E4F1E0E49181
:100570009FEF90930C01E130B9F098F0E230C9F4AC
:10058000909170009D7F9093700091E09093B000E7
:100590009091B100987F94609093B1001092B30055
:1005A00008C010926E0005C090916F009D7F9093DF
:1005B0006F0060E00E948206FF91EF91BF91AF91C2
:1005C0009F918F917F916F915F914F913F912F916B
:1005D0000F900FBE0F901F9018956115710579F05F
:1005E000FB0101900020E9F73197AF01461B570B43
:1005F000DC01ED91FC910280F381E02D099480E013
:1006000090E008958F929F92AF92BF92EF92FF92E7
:100610000F931F93CF93DF93CDB7DEB7A1970FB69C
:10062000F894DEBF0FBECDBF7C01FA01CB0119A249
:10063000223008F42AE08E010F5D1F4F822E912C8C
:10064000A12CB12CBF01A50194010E945A12F901FD
:10065000CA01015011096A3014F4605D01C0695C7F
:10066000D8016C93232B242B252B61F7B801C701EC
:100670000E94ED02A1960FB6F894DEBF0FBECDBF6B
:10068000DF91CF911F910F91FF90EF90BF90AF90AE
:100690009F908F9008950C94ED024F925F926F920D
:1006A0007F928F929F92AF92BF92CF92DF92EF9202
:1006B000FF920F931F93CF93DF9322E1289FE001D6
:1006C000299FD00D112400914F02109150020C0F60
:1006D0001D1FF801808580FF28C00E94250A2B017C
:1006E0003C01C0900001D09001010D2C000CEE08DF
:1006F000FF088090860190908701A0908801B090BB
:100700008901A7019601C501B4010E944A12F801AE
:100710000285138524853585401A510A620A730AB9
:10072000461657066806790600F5D12C00914F024F
:10073000109150020C0F1D1FF801808580FF42C0F0
:100740000E94250AF8010285138524853585DC0180
:10075000CB01801B910BA20BB30B81349F41A105F0
:10076000B10580F184E190E0A3C02FEF821A920AD4
:10077000A20AB20A8092860190928701A092880113
:10078000B0928901F7FE0EC06DE282EB91E00E940B
:10079000610144275527BA014C195D096E097F098B
:1007A0002AE003C02AE0B701A60182EB91E00E9493
:1007B000020362E771E082EB91E00E944B03DD24CB
:1007C000D394B4CFE0904F02F0905002EC0EFD1E97
:1007D000F701808580FF15C00E94250AF701028578
:1007E000138524853585DC01CB01801B910BA20B81
:1007F000B30B813A9F40A105B10518F088E290E063
:1008000057C0E0904F02F0905002EC0EFD1EF70131
:10081000808580FF15C00E94250AF7010285138597
:1008200024853585DC01CB01801B910BA20BB30B1A
:10083000813D9740A105B10518F08CE390E038C0E8
:10084000E0904F02F0905002EC0EFD1EF701808503
:1008500080FF1BC00E94250AF701028513852485AD
:100860003585DC01CB01801B910BA20BB30B893EBC
:100870009340A105B105D0F480914F0290915002B0
:10088000C80FD91F888580FD18C082FF16C010923E
:10089000860110928701109288011092890184E6E6
:1008A00090E0909301018093000107C080E590E003
:1008B0009093010180930001DFCF8D2DDF91CF91C7
:1008C0001F910F91FF90EF90DF90CF90BF90AF906E
:1008D0009F908F907F906F905F904F9008951F92A0
:1008E0000F920FB60F9211242F933F934F935F9364
:1008F0006F937F938F939F93AF93BF93EF93FF93E8
:1009000082EB91E00E943F01FF91EF91BF91AF9187
:100910009F918F917F916F915F914F913F912F9117
:100920000F900FBE0F901F9018951F920F920FB649
:100930000F9211242F938F939F93EF93FF93E09146
:10094000C201F091C3018081E091C801F091C90119
:1009500082FD12C090818091CB018F5F8F732091B7
:10096000CC01821751F0E091CB01F0E0EE54FE4F44
:10097000958F8093CB0101C08081FF91EF919F9172
:100980008F912F910F900FBE0F901F901895CF92BF
:10099000DF92EF92FF920F931F93CF93DF936C013F
:1009A0007C0187E0E80EF11CC0E0D0E0062F10E0EB
:1009B000B8010C2E02C0759567950A94E2F7617034
:1009C000F70181917F010E9482062196C430D105F2
:1009D00079F7C601DF91CF911F910F91FF90EF90B2
:1009E000DF90CF900C94DE01CF92DF92EF92FF92D6
:1009F0000F931F93CF93DF93EC01F62E642F8C811E
:100A00000E9482068D818F3F19F060E00E9482066D
:100A10008F850F2D10E084FF25C06E0187E0C80E82
:100A2000D11CE12CF12CB8010E2C02C075956795F4
:100A30000A94E2F76170F60181916F010E948206CB
:100A4000FFEFEF1AFF0A88E0E816F10461F7CE0124
:100A5000DF91CF911F910F91FF90EF90DF90CF909A
:100A60000C94DE01B80184E0759567958A95E1F7ED
:100A7000CE010E94C7046F2DCE01DF91CF911F914F
:100A80000F91FF90EF90DF90CF900C94C70441E05E
:100A90000E94F40481E090E0089540E0682F81E531
:100AA00092E00C94F40481E00E944D058BE39FE1F9
:100AB0000197F1F708958F929F92AF92BF92CF92D4
:100AC000DF92EF92FF920F931F93CF93DF936B010F
:100AD0007C01142F9B01AC010E94A115882319F001
:100AE0006AE771E027C046015701E894B7F82FEF95
:100AF0003FEF4FE75FE7C501B4010E94A1158111E7
:100B00000DC02FEF3FEF4FE75FE7C501B4010E9433
:100B1000281318161CF46EE771E00CC02FEF3FEF9E
:100B20004FE75FE4C701B6010E948714181694F4DA
:100B300062E871E081E592E0DF91CF911F910F9122
:100B4000FF90EF90DF90CF90BF90AF909F908F90ED
:100B50000C94ED022FEF3FEF4FE75FECC701B601BA
:100B60000E94281387FDE4CF20E030E0A901C701EF
:100B7000B6010E94281387FF0DC041E06DE281E5B8
:100B800092E00E94F404F7FAF094F7F8F094C1E0D0
:100B9000D0E002C0C0E0D0E000E060E070E080E0C3
:100BA0009FE3011740F420E030E040E251E40E946E
:100BB0002D130F5FF6CFA70196010E94BC126B01A7
:100BC0007C010E94A6134B015C012AE0AB01BC0131
:100BD00081E592E00E940203C80FD91F1123C9F1D9
:100BE000C501B4010E94D5139B01AC01C701B60138
:100BF0000E94BB126B017C0141E06EE281E592E054
:100C00000E94F404219620E030E040E251E4C70164
:100C1000B6010E94E4144B015C010E94A6136B0113
:100C2000E12CF12C2AE0B701A60181E592E00E94B7
:100C30000203C80FD91FC701B6010E94D5139B013B
:100C4000AC01C501B4010E94BB126B017C011150C3
:100C5000D1F6CE01DF91CF911F910F91FF90EF90D0
:100C6000DF90CF90BF90AF909F908F900895843089
:100C700008F083E090916402891710F08FEF890FDC
:100C8000E82FF0E0EF5AFD4F848980680C944D0501
:100C9000482F50E060E070E02AE081E592E00C949B
:100CA0000203FC019085957081E0953009F080E0A9
:100CB0000895833081F028F4813099F08230A1F0DA
:100CC00008958730A9F08830B9F08430D1F480914C
:100CD00080008F7D03C0809180008F77809380009B
:100CE000089584B58F7702C084B58F7D84BD089543
:100CF0008091B0008F7703C08091B0008F7D80938A
:100D0000B00008951F93CF93DF93282F30E0F901AF
:100D1000E250FF4F8491F901EE5EFE4FD491F9014C
:100D2000E05DFE4FC491CC23C1F0162F81110E94CB
:100D30005906EC2FF0E0EE0FFF1FEA5DFE4FA59184
:100D4000B4919FB7F894111104C08C91D095D82319
:100D500002C0EC91DE2BDC939FBFDF91CF911F91FE
:100D60000895CF93DF9390E0FC01EE5EFE4F249157
:100D7000FC01E05DFE4F8491882361F190E0880FD3
:100D8000991FFC01EC50FF4FC591D491FC01EA5D25
:100D9000FE4FA591B491611109C09FB7F894888165
:100DA000209582238883EC912E230BC0623061F45E
:100DB0009FB7F8948881322F309583238883EC91F4
:100DC0002E2B2C939FBF06C08FB7F894E8812E2B53
:100DD00028838FBFDF91CF910895CF93DF93823027
:100DE00028F0909160029860909360028093640272
:100DF0001092650280E48093660280E1809367022E
:100E000080E58093680261E0809155020E94B106FE
:100E1000809156028F3F19F061E00E94B10661E0B7
:100E2000809157020E94B106C1E5D2E09E01215592
:100E300032408091600284FD03C084E090E002C0F3
:100E400088E090E02196281739072CF461E08E8124
:100E50000E94B106EBCF8BE39DE00197F1F760E0D4
:100E6000809155020E94820660E0809157020E94A4
:100E70008206809156028F3F19F060E00E94820640
:100E80008091600284FD20C063E081E592E00E94D1
:100E9000C704CBE4D6E4CE010197F1F763E081E526
:100EA00092E00E94C7042197F1F763E081E592E0A8
:100EB0000E94C70483E592E00197F1F762E081E5C3
:100EC00092E00E94C70415C080620E944D058BE429
:100ED00096E40197F1F78091600280620E944D05CF
:100EE00083E592E00197F1F78091600280620E94B1
:100EF0004D058091600280620E944D0584E08093E0
:100F000061028CE00E944D050E94530582E08093AF
:100F1000620286E0DF91CF910C944D054F925F9273
:100F20006F927F928F929F92AF92BF92CF92DF92F9
:100F3000EF92FF920F931F93CF93DF9300D000D0D7
:100F40001F92CDB7DEB78C012A013B0180910C01C5
:100F5000833121F08F3F09F03DC205C0E4E4F1E0A8
:100F600024912D8372C083E180930C01E4E4F1E0CD
:100F700084918D838F3F09F42DC2813009F441C0E3
:100F800038F1823009F061C01092B0001092B100C7
:100F90008091B00082608093B0008091B100816048
:100FA0008093B100E3E4F1E0E491F0E0EE0FFF1F85
:100FB000EA5DFE4F859194919093AD018093AC01D1
:100FC000E5E2F1E0E491E093AB0122E02D83FDC185
:100FD00014BC15BC84B5826084BD85B5816085BDB7
:100FE000E3E4F1E0E491F0E0EE0FFF1FEA5DFE4F75
:100FF00085919491E5E2F1E0E491E0936A021D822B
:10100000E4C110928000109281008091810088607C
:101010008093810080918100816080938100E3E46E
:10102000F1E0E491F0E0EE0FFF1FEA5DFE4F8591E5
:101030009491E5E2F1E0E491E093690261E083E1FB
:101040000E94B10691E09D838AC08D8187FDC2C157
:1010500061E083E10E94B1068D818D7F09F07FC040
:101060004801A12CB12C60E072E18AE790E0A50173
:1010700094010E947C1229833A834B835C8369012B
:101080007A0191E0C91AD108E108F1082FEFC216E0
:10109000D104E104F10409F008F44EC060E472E404
:1010A0008FE090E0A50194010E947C1269017A0111
:1010B00081E0C81AD108E108F1089D81923009F554
:1010C0002FEFC216D104E104F10409F008F444C181
:1010D00060E970ED83E090E0A50194010E947C122C
:1010E00069017A0181E0C81AD108E108F1089FEF8F
:1010F000C916D104E104F10411F008F0BAC083E08C
:1011000027C02FEFC216D104E104F104B9F0B0F00A
:1011100068E478EE81E090E0A50194010E947C12E1
:1011200069017A0181E0C81AD108E108F1089D81BE
:10113000992309F413C1DCC081E001C082E09D81E4
:10114000911106C095B5987F892B85BD44C085E077
:101150009091B100987F892B8093B1003CC04801E9
:10116000A12CB12C60E072E18AE790E0A501940126
:101170000E947C1269017A0181E0C81AD108E10855
:10118000F108C114D10491E0E906F10488F068E4A3
:1011900078EE81E090E0A50194010E947C12690143
:1011A0007A0181E0C81AD108E108F10883E001C0A2
:1011B00081E09D81913079F490918100987F892B15
:1011C00080938100411451046104710449F42FEFAC
:1011D0003FEFA9012CC0411451046104710471F066
:1011E000D801AA0FBB1FA30192010E949B1228EEF7
:1011F00033E040E050E00E945A1203C02FEF3FEF6F
:10120000A9018D81813099F0823019F18111E2C0FC
:10121000C7BC20936F0230937002409371025093C9
:10122000720280916E00826080936E00D3C0D09273
:101230008900C092880020936B0230936C02409327
:101240006D0250936E0280916F00826080936F00F8
:10125000C1C0C092B3002093AE013093AF01409360
:10126000B0015093B1018091700082608093700052
:10127000B1C068E478EE81E090E0A50194010E949D
:101280007C1269017A0191E0C91AD108E108F108DC
:101290002FEFC216D104E104F10441F138F164E208
:1012A00074EF80E090E0A50194010E947C12690136
:1012B0007A0181E0C81AD108E108F1089FEFC91648
:1012C000D104E104F10409F008F441CF62E17AE7C6
:1012D00080E090E0A50194010E947C1269017A01EE
:1012E00081E0C81AD108E108F10819C084E030CFC4
:1012F0002FEFC216D104E104F10409F008F463C031
:1013000062E17AE780E090E0A50194010E947C12FE
:1013100069017A0191E0C91AD108E108F1088FEF5B
:10132000C816D104E104F104A9F0A0F089819A81E2
:10133000AB81BC812AE0B595A795979587952A95AD
:10134000D1F76C017D0121E0C21AD108E108F10852
:1013500087E0FECE86E0FCCE82E0FACE8FEFC816A4
:10136000D104E104F10469F160F162E17AE780E01F
:1013700090E0A50194010E947C1269017A0191E03C
:10138000C91AD108E108F1082FEFC216D104E1040F
:10139000F104A9F0A0F089819A81AB81BC813AE087
:1013A000B595A795979587953A95D1F76C017D01ED
:1013B00021E0C21AD108E108F10885E0C3CE84E03B
:1013C000C1CE83E0BFCE84E0BACE61E083E10E946B
:1013D000B10646CE0F900F900F900F900F90DF91B7
:1013E000CF911F910F91FF90EF90DF90CF90BF9022
:1013F000AF909F908F907F906F905F904F900895E7
:101400003FB7F8948091A7019091A801A091A901FC
:10141000B091AA0126B5A89B05C02F3F19F00196EF
:10142000A11DB11D3FBFBA2FA92F982F8827820F6A
:10143000911DA11DB11DBC01CD0142E0660F771FBA
:10144000881F991F4A95D1F708952FB7F894609196
:10145000A3017091A4018091A5019091A6012FBFD5
:101460000895CF93DF93CDB7DEB764970FB6F894A6
:10147000DEBF0FBECDBF789484B5826084BD84B5D5
:10148000816084BD85B5826085BD85B5816085BD7F
:1014900080916E00816080936E0010928100809137
:1014A00081008260809381008091810081608093BF
:1014B0008100809180008160809380008091B100E4
:1014C00084608093B1008091B00081608093B0000F
:1014D00080917A00846080937A0080917A008260A3
:1014E00080937A0080917A00816080937A00809165
:1014F0007A00806880937A001092C10080E1E3E175
:10150000F1E0DE01119601900D928A95E1F761E01C
:101510008DE00E94B10661E083E10E94B10660E0C7
:1015200085E00E94B10660E086E00E94B10660E0BE
:1015300084E00E94B10660E082E00E94B10660E0B3
:1015400083E00E94B10660E08EE00E94B10660E098
:101550008FE00E94B10660E080E10E94B106CE01FA
:1015600001967C01C12CD12C38E2A32EB12CD701DD
:101570009C9011967C91B2E0EB0EF11C00914F0211
:10158000109150020C0D1D1DD801ED91FC910280AF
:10159000F381E02D40E050E0692DC8010995F80184
:1015A000918610860190F081E02D0190F081E02D70
:1015B000C8010995882339F0D80118968C9118979D
:1015C000836018968C930E94250AF80162837383C6
:1015D00084839583E0914F02F0915002EC0DFD1D44
:1015E000B782A682F2E1CF0ED11C20E9C216D10447
:1015F00009F0BDCF82E00E94ED0669E471E081E56B
:1016000092E00E944B030E94000A4B015C012CED0A
:10161000C22E25E0D22EE12CF12C0E94000ADC0122
:10162000CB0188199909AA09BB09883E9340A105F5
:10163000B10598F381E0C81AD108E108F10898EEE5
:10164000890E93E0991EA11CB11CC114D104E104C0
:10165000F10419F70E945305E091C201F091C30112
:1016600082E08083E091BE01F091BF011082E091A1
:10167000C001F091C1018FEC80831092CA01E0910A
:10168000C601F091C70186E08083E091C401F0912A
:10169000C501808180618083E091C401F091C50122
:1016A000808188608083E091C401F091C5018081D0
:1016B00080688083E091C401F091C50180818F7DB5
:1016C000808301E092E0392EC12CD12CE0904F02B2
:1016D000F0905002EC0CFD1CD70118968C911897D5
:1016E0008B7F18968C931897ED91FC910190F08167
:1016F000E02DC7010995182FF70180858695817027
:10170000181781F00E94250AD70112966D937D93D8
:101710008D939C93159718968C91B2E08B27F701C7
:1017200080874CC00E94250AD70112968D909D900B
:10173000AD90BC901597AB01BC01481959096A09D5
:101740007B0916968D919C911797A0E0B0E0481701
:1017500059076A077B0790F1F70180858170181798
:1017600069F10E94250AD70112966D937D938D939E
:101770009C93159718968C91B1E08B278460F701A4
:1017800080870E94250AD7011A968D909D90AD9072
:10179000BC901D97DC01CB0188199909AA09BB09E6
:1017A000F70186879787A08BB18B0E94250AD70106
:1017B0001A966D937D938D939C931D9780914F0204
:1017C000909150028C0D9D1D0E94510681110E9426
:1017D0005305B2E1CB0ED11CE0E9CE16D10409F0DD
:1017E00075CFE0914F02F0915002DF01AC58BF4F2E
:1017F0008C91EA57FF4F80FD09C0808180FD03C0B6
:101800001092A1010CC03092A10109C0808180FD1D
:1018100003C00093A10103C0F3E0F093A101109174
:10182000A1018091A001811711F180919F01823067
:10183000F1F00E94530510929B0110929C011092AE
:101840009D0110929E0110929701109298011092A2
:10185000990110929A0110929301109294011092A2
:101860009501109296011093A00110929F01809112
:101870009F01813009F402C320F0823009F416C3BD
:10188000CBC360E08DE00E948206E0904F02F090B2
:101890005002C701885B9F4F0E945106882319F0B0
:1018A00000939F0107C0F701EE59FF4F808180FD33
:1018B00030929F0180919F018823F1F080918F01E8
:1018C00090919001A0919101B09192010A96A11D71
:1018D000B11D80938B0190938C01A0938D01B093E7
:1018E0008E010E94250A60939B0170939C01809356
:1018F0009D0190939E01ADC31091A001113009F498
:101900008CC038F0123009F4F6C0133009F46AC103
:10191000DDC18091080190910901A0910A01B09167
:101920000B0180938F0190939001A0939101B0934C
:101930009201E12CF12CC7010E944D03882309F488
:1019400063C0609108017091090180910A01909132
:101950000B010E94D5134B015C0122E0E216F10459
:101960009CF4B7016E5F7F4F072E000C880B990B1C
:101970000E94D7139B01AC0160E070E080E291E42B
:101980000E94511590580FC0B7010F2C000C880B06
:10199000990B0E94D7139B01AC0160E070E080E2DC
:1019A00091E40E9451159B01AC01C501B4010E9454
:1019B000BC124B015C0120E030E0A9010E94281319
:1019C00087FD13C020E034E244E759E4C501B401C7
:1019D0000E94871487FD0CC080EF882E83E2982E2A
:1019E00084E7A82E89E4B82E03C0812C912C5401E1
:1019F000C501B4010E94A613609308017093090108
:101A000080930A0190930B018FEFE81AF80A94E093
:101A1000E916F10409F08FCF59C160918A0170E095
:101A200080E090E00E94D7136B017C016091070178
:101A300070E080E090E00E94D7139B01AC01C701E9
:101A4000B6010E942D139B01AC0160E070E080E0C4
:101A500090E40E9451156B017C0160910801709126
:101A6000090180910A0190910B010E94D513A701F1
:101A700096010E94E4140E94A61360938F01709354
:101A80009001809391019093920180E090E00E94F8
:101A90004D03882369F080910701282F30E0223020
:101AA00031051CF41093070103C081508093070196
:101AB00082E090E00E944D03882329F08091070185
:101AC0008F5F8093070181E090E00E944D0388239F
:101AD00029F080918A01815080938A0183E090E00F
:101AE0000E944D03882309F4F1C080918A018F5F21
:101AF00080938A01EBC0A0910601209102013091F0
:101B000003014091040150910501B0E00E949B1235
:101B1000C0900801D0900901E0900A01F0900B01FB
:101B2000DC01CB018C0D9D1DAE1DBF1D80938F016F
:101B300090939001A0939101B093920180E090E086
:101B40000E944D03882369F080910601282F30E020
:101B5000223031051CF40093070103C081508093AB
:101B6000060182E090E00E944D03882329F08091D5
:101B700006018F5F8093060181E090E00E944D0393
:101B80008823A1F08091020190910301A0910401AA
:101B9000B091050184569109A109B1098093020110
:101BA00090930301A0930401B093050183E090E0BA
:101BB0000E944D03882309F489C08091020190910D
:101BC0000301A0910401B09105018C599F4FAF4FC3
:101BD000BF4F8093020190930301A0930401B0933F
:101BE000050174C06091060170E080E090E00E9401
:101BF000D7136B017C016091070170E080E090E0F9
:101C00000E94D7139B01AC01C701B6010E942D139E
:101C10009B01AC0160E070E080E090E40E9451150F
:101C20006B017C01609108017091090180910A01AA
:101C300090910B010E94D513A70196010E94E41414
:101C40000E94A61360938F0170939001809391017D
:101C50009093920180E090E00E944D03882369F008
:101C600080910601282F30E0223031051CF40093CA
:101C7000070103C081508093060182E090E00E943A
:101C80004D03882329F0809106018F5F8093060120
:101C900081E090E00E944D03882369F08091070164
:101CA000282F30E0223031051CF40093070103C0D7
:101CB00081508093070183E090E00E944D038823C8
:101CC00029F0809107018F5F8093070180E00E94D7
:101CD000370662E571E081E592E00E944B0381E006
:101CE0000E9437068091A001813009F445C088F137
:101CF000823009F484C0833009F08EC160910801FC
:101D00007091090180910A0190910B010E94D513F5
:101D100020E030E04AE754E40E942D1341E050E017
:101D20000E945B056CE571E081E592E00E944B0347
:101D3000809106010E94480664E671E081E592E028
:101D40000E944B03809107010E94480662E671E001
:101D500090C060918F01709190018091910190915C
:101D600092010E94D51320E030E04AE754E40E943B
:101D70002D1341E050E040C06091080170910901CD
:101D800080910A0190910B010E94D51320E030E070
:101D90004AE754E40E942D1341E050E00E945B05A5
:101DA00068E571E081E592E00E944B0380918A0131
:101DB0000E94480666E671E081E592E00E944B03CE
:101DC000809107010E9448066AE571E081E592E092
:101DD0000E944B0360918F0170919001809191015D
:101DE000909192010E94D51320E030E04AE754E43C
:101DF0000E942D1342E050E00E945B050DC16091EE
:101E000008017091090180910A0190910B010E94D3
:101E1000D51320E030E04AE754E40E942D1341E05E
:101E200050E00E945B056CE571E081E592E00E9464
:101E30004B03809106010E9448066FE571E081E541
:101E400092E00E944B036091020170910301809126
:101E50000401909105010E94D51320E030E04AE78B
:101E600054E40E942D1341E050E00E945B0561E6BE
:101E700071E081E592E00E944B03CEC080914F0259
:101E800090915002885B9F4F0E9451068111C7C0FC
:101E900080918B0190918C01A0918D01B0918E0168
:101EA0000B97A105B10508F4BAC0D6C0E0914F0266
:101EB000F0915002EE59FF4F808180FD1BC01092BF
:101EC0009F0110929B0110929C0110929D01109213
:101ED0009E0110929301109294011092950110921C
:101EE0009601109297011092980110929901109208
:101EF0009A01AFC061E08DE00E9482060E94250A2F
:101F00004B015C01C0909301D0909401E090950149
:101F1000F0909601A8EEB3E0A70196010E949B12F3
:101F200040909B0150909C0160909D0170909E019B
:101F3000DC01CB01840D951DA61DB71D88169906E1
:101F4000AA06BB06A8F044E650E060E070E08BED26
:101F500093E00E948E07D701C6010196A11DB11D15
:101F60008093930190939401A0939501B09396016F
:101F700080E00E94370664E771E081E592E00E940C
:101F80004B030E94250A4B015C01C0909B01D0903D
:101F90009C01E0909D01F0909E012091970130916D
:101FA00098014091990150919A01A4E6B0E00E94F5
:101FB0009B12DC01CB018C0D9D1DAE1DBF1D881633
:101FC0009906AA06BB0640F181E00E9437060E94EE
:101FD000250A6C197D098E099F090E94D51320E0FE
:101FE00030E04AE754E40E942D1341E050E00E94A3
:101FF0005B058091970190919801A0919901B09112
:102000009A010196A11DB11D8093970190939801AB
:10201000A0939901B0939A010E94D00155CB1092E0
:102020009F011092930110929401109295011092C9
:10203000960110928B0110928C0110928D011092DA
:102040008E0110929B0110929C0110929D011092A2
:102050009E010E945305E0CF61E08DE00E94820660
:1020600080919B0190919C01A0919D01B0919E0156
:10207000898B9A8BAB8BBC8B80908F019090900159
:10208000A0909101B0909201880E991EAA1EBB1ECD
:102090000E94250A861A970AA80AB90A80928B011B
:1020A00090928C01A0928D01B0928E011091A001AE
:1020B000123008F044C00E94250AC0909301D090CD
:1020C0009401E0909501F09096010E94D5134B0188
:1020D0005C01C701B6010E94D51320E030E04AE759
:1020E00054E40E94E4142B013C0169897A898B89AC
:1020F0009C890E94D5139B01AC01C301B2010E94CF
:10210000BC129B01AC01C501B4010E94871487FD7C
:10211000A3C044E650E060E070E08BED93E00E94E5
:102120008E07D701C6010196A11DB11D80939301B1
:1021300090939401A0939501B09396018DC01430B3
:1021400008F08AC020900701C0909301D0909401BC
:10215000E0909501F090960160910801709109015D
:1021600080910A0190910B010E94D5134B015C01F3
:102170006091020170910301809104019091050129
:10218000123009F0D9C00E94D5132B013C01C701C0
:10219000B6010E94D5139B01AC01C301B2010E949C
:1021A000E414A50194010E94BC124B015C010E9441
:1021B000250A0E94D5132B013C0169897A898B89F4
:1021C0009C8964507140810991090E94D513A50131
:1021D00094010E94BC129B01AC01C301B2010E9498
:1021E000871487FD08C046E950E060E070E083E9AD
:1021F00092E00E948E070E94250A0E94D5132B01AF
:102200003C0169897A898B899C896A5071098109A5
:1022100091090E94D513A50194010E94BC129B0153
:10222000AC01C301B2010E94871487FD0DC046E9CD
:1022300050E060E070E080E793E00E948E07AFEF2F
:10224000CA1ADA0AEA0AFA0AC0929301D0929401F1
:10225000E0929501F092960180E00E94370668E6D0
:1022600071E081E592E00E944B0381E00E94370615
:102270008091A0018230E8F0409193015091940147
:1022800060919501709196012AE081E592E00E94AB
:10229000020366E671E081E592E00E944B038091C3
:1022A00006010E94480661E771E081E592E00E9424
:1022B0004B0360918B0170918C0180918D01909105
:1022C0008E010E94D51320E030E04AE754E40E94DA
:1022D0002D1341E050E00E945B0580908B019090AF
:1022E0008C01A0908D01B0908E01C501B4010E94B7
:1022F000D5130E948C146B017C01C501B4016C598B
:102300007F4F8F4F9F4F0E94D5130E948C144B011B
:102310005C01C701B6010E949F137B01BFEFEB1A5E
:10232000FB0AC501B4010E949F136F5F7F4FE61641
:10233000F70609F08ECE70CEC701B6010E94D51304
:102340002B013C01622D70E080E090E00E94D713E9
:102350009B01AC01C301B2010E942D139B01AC0192
:1023600060E070E080E090E40E9451159B01AC01B8
:10237000C501B4010E94E41418CF1092B501109267
:10238000B40188EE93E0A0E0B0E08093B6019093B2
:10239000B701A093B801B093B90187E291E090939F
:1023A000B3018093B20185EC90E09093BF018093DC
:1023B000BE0184EC90E09093C1018093C00180EC59
:1023C00090E09093C3018093C20181EC90E09093E0
:1023D000C5018093C40182EC90E09093C701809383
:1023E000C60186EC90E09093C9018093C8011092D9
:1023F000CB011092CC011092CD011092CE0110921F
:1024000054021092530281E491E09093520280931F
:10241000510287E0809355028FEF8093560288E047
:102420008093570289E0809358028AE08093590292
:102430008BE080935A028CE080935B0210925C02E6
:1024400010925D0210925E0210925F021092600282
:1024500081E00E94ED0680E990E00E948B16FC016D
:102460009C0120573F4F69E371E04AE050E07183DF
:1024700060831282138214821582578346831086EA
:1024800011867296E217F30791F7909350028093AA
:102490004F020895DB018F939F930E949B12BF917F
:1024A000AF91A29F800D911DA39F900DB29F900DA3
:1024B00011240895A1E21A2EAA1BBB1BFD010DC019
:1024C000AA1FBB1FEE1FFF1FA217B307E407F507E4
:1024D00020F0A21BB30BE40BF50B661F771F881FC0
:1024E000991F1A9469F760957095809590959B0156
:1024F000AC01BD01CF010895052E97FB1EF4009499
:102500000E94931257FD07D00E945A1207FC03D075
:102510004EF40C94931250954095309521953F4F71
:102520004F4F5F4F089590958095709561957F4FBF
:102530008F4F9F4F08950E94AC12A59F900DB49F9E
:10254000900DA49F800D911D11240895EE0FFF1F83
:102550000590F491E02D0994A29FB001B39FC001B2
:10256000A39F700D811D1124911DB29F700D811DBF
:102570001124911D08955058BB27AA270E94D312F9
:102580000C944D140E943F1438F00E94461420F021
:1025900039F49F3F19F426F40C943C140EF4E095A2
:1025A000E7FB0C943614E92F0E945E1458F3BA1717
:1025B000620773078407950720F079F4A6F50C9459
:1025C00080140EF4E0950B2EBA2FA02D0B01B9014B
:1025D00090010C01CA01A0011124FF27591B99F099
:1025E000593F50F4503E68F11A16F040A22F232FA5
:1025F000342F4427585FF3CF469537952795A795F5
:10260000F0405395C9F77EF41F16BA0B620B730B9B
:10261000840BBAF09150A1F0FF0FBB1F661F771F0C
:10262000881FC2F70EC0BA0F621F731F841F48F4C1
:10263000879577956795B795F7959E3F08F0B0CF4A
:102640009395880F08F09927EE0F97958795089531
:102650000E94121408F481E008950E9441130C9422
:102660004D140E94461458F00E943F1440F029F483
:102670005F3F29F00C94361451110C9481140C9482
:102680003C140E945E1468F39923B1F3552391F32F
:10269000951B550BBB27AA2762177307840738F0D1
:1026A0009F5F5F4F220F331F441FAA1FA9F335D02E
:1026B0000E2E3AF0E0E832D091505040E695001CE2
:1026C000CAF72BD0FE2F29D0660F771F881FBB1F9C
:1026D000261737074807AB07B0E809F0BB0B802D7A
:1026E000BF01FF2793585F4F3AF09E3F510578F0A6
:1026F0000C9436140C9481145F3FE4F3983ED4F3A9
:10270000869577956795B795F7959F5FC9F7880F79
:10271000911D9695879597F90895E1E0660F771FCB
:10272000881FBB1F621773078407BA0720F0621B5C
:10273000730B840BBA0BEE1F88F7E09508950E9487
:10274000A6136894B1110C94811408950E94661424
:1027500088F09F5798F0B92F9927B751B0F0E1F062
:10276000660F771F881F991F1AF0BA95C9F714C012
:10277000B13091F00E948014B1E008950C9480145F
:10278000672F782F8827B85F39F0B93FCCF386954B
:1027900077956795B395D9F73EF4909580957095A8
:1027A00061957F4F8F4F9F4F0895E89409C097FB25
:1027B0003EF490958095709561957F4F8F4F9F4F18
:1027C0009923A9F0F92F96E9BB279395F69587955C
:1027D00077956795B795F111F8CFFAF4BB0F11F41F
:1027E00060FF1BC06F5F7F4F8F4F9F4F16C08823C6
:1027F00011F096E911C0772321F09EE8872F762FFC
:1028000005C0662371F096E8862F70E060E02AF03C
:102810009A95660F771F881FDAF7880F9695879528
:1028200097F90895990F0008550FAA0BE0E8FEEFFD
:1028300016161706E807F907C0F012161306E40784
:10284000F50798F0621B730B840B950B39F40A267D
:1028500061F0232B242B252B21F408950A2609F45B
:10286000A140A6958FEF811D811D089597F99F675F
:1028700080E870E060E008959FEF80EC0895002408
:102880000A941616170618060906089500240A94D5
:1028900012161306140605060895092E0394000C5B
:1028A00011F4882352F0BB0F40F4BF2B11F460FFEA
:1028B00004C06F5F7F4F8F4F9F4F089557FD905813
:1028C000440F551F59F05F3F71F04795880F97FBF4
:1028D000991F61F09F3F79F08795089512161306AE
:1028E0001406551FF2CF4695F1DF08C016161706DD
:1028F0001806991FF1CF8695710561050894089512
:10290000E894BB2766277727CB0197F908950E94A3
:10291000121408F48FEF08950E949C1429ED3BE5F2
:102920004EED5EE30C94E41416F00C94E0150C9458
:102930003C1468940C9436140E946614A8F39923EE
:10294000C1F3AEF3DF93CF931F930F93FF92C92F81
:10295000DD2788232AF02197660F771F881FDAF773
:1029600020E030E040E85FEB9FE3883920F0803ED4
:1029700038F021968F770E94BC12E8E6F0E004C0A0
:102980000E94BC12E5E9F0E00E94EE158B01BE0149
:10299000EC01FB2E6F5771097595771F880B990B0A
:1029A0000E94D71328E132E741E35FE30E94F71466
:1029B000AF2D9801AE01FF900F911F91CF91DF9144
:1029C0000E94D3120C944D140E94F7140C944D14D1
:1029D0000E943F1438F00E94461420F0952311F015
:1029E0000C9436140C943C1411240C9481140E9401
:1029F0005E1470F3959FC1F3950F50E0551F629FD1
:102A0000F001729FBB27F00DB11D639FAA27F00D47
:102A1000B11DAA1F649F6627B00DA11D661F829F6E
:102A20002227B00DA11D621F739FB00DA11D621F53
:102A3000839FA00D611D221F749F3327A00D611D70
:102A4000231F849F600D211D822F762F6A2F112452
:102A50009F5750409AF0F1F088234AF0EE0FFF1F85
:102A6000BB1F661F771F881F91505040A9F79E3FDC
:102A7000510580F00C9436140C9481145F3FE4F3FC
:102A8000983ED4F3869577956795B795F795E79532
:102A90009F5FC1F7FE2B880F911D9695879597F93B
:102AA0000895FA01EE0FFF1F309621053105A1F1BF
:102AB0006115710561F48038BFE39B0749F16894A3
:102AC0009038810561F08038BFEF9B0741F0992372
:102AD0004AF5FF3FE1053105210519F1E894089415
:102AE000E795D901AA2329F4AB2FBE2FF85FD0F3C5
:102AF00010C0FF5F70F4A695E0F7F73950F019F0B9
:102B0000FF3A38F49F779F930DD00F9007FC9058B1
:102B1000089546F00C943C1460E070E080E89FE378
:102B200008954FE79F775F934F933F932F930E94B2
:102B30009C142F913F914F915F910E94E4140C944B
:102B4000AE150E941214880B990B089529F416F003
:102B50000C9436140C9480140C943C140E9466144B
:102B6000A8F39638A0F707F80F92E8942BE33AEA17
:102B700048EB5FE70E94FA140F920F920F924DB745
:102B80005EB70F920E945716E2ECF0E00E94EE153D
:102B90004F915F91EF91FF91E595EE1FFF1F49F077
:102BA000FE57E0684427EE0F441FFA95E1F7419580
:102BB000550B0E9421160F9007FE0C9415160895D0
:102BC0009F3F31F0915020F4879577956795B795A1
:102BD000880F911D9695879597F90895DF93CF9368
:102BE0001F930F93FF92EF92DF927B018C01689409
:102BF00006C0DA2EEF010E94F714FE01E894A591B9
:102C00002591359145915591A6F3EF010E94D3127C
:102C1000FE019701A801DA9469F7DF90EF90FF9029
:102C20000F911F91CF91DF9108959B01AC0160E05E
:102C300070E080E89FE30C942D130C9436140C94F0
:102C4000E0150E946614D8F39923C9F3940F511D1F
:102C5000A3F39150504094F059F0882332F0660F5E
:102C6000771F881F91505040C1F79E3F51052CF7A8
:102C7000880F911D9695879597F908955F3FACF061
:102C8000983E9CF0BB27869577956795B79508F495
:102C9000B1609395C1F7BB0F58F711F460FFE8CF0F
:102CA0006F5F7F4F8F4F9F4FE3CF0C948114FA01DA
:102CB000DC01AA0FBB1F9B01AC01BF5728F42227E0
:102CC00033274427507820C0B75190F4AB2F00240D
:102CD000469537952795011CA395D2F3002071F0F6
:102CE000220F331F441FB395DAF30ED00C94BB129E
:102CF00061307105A0E88A07B94630F49B01AC0148
:102D00006627772788279078309621F020833183B3
:102D10004283538308950F931F93CF93DF938230A1
:102D2000910510F482E090E0E0917502F091760256
:102D300020E030E0A0E0B0E0309719F1408151810F
:102D40000281138148175907C8F08417950769F461
:102D5000109731F012960C93129713961C9327C07C
:102D6000009375021093760222C02115310519F0E7
:102D70004217530718F49A01BD01EF01DF01F80172
:102D8000DBCF21153105F9F0281B390B2430310533
:102D900080F48A819B816115710521F0FB01938389
:102DA000828304C09093760280937502FE0132966E
:102DB00044C0FE01E20FF31F819391932250310929
:102DC000398328833AC02091730230917402232BF7
:102DD00041F420910F01309110013093740220933F
:102DE000730220910D0130910E012115310541F43E
:102DF0002DB73EB74091110150911201241B350BA4
:102E0000E0917302F0917402E217F307A0F42E1B15
:102E10003F0B2817390778F0AC014E5F5F4F24173E
:102E2000350748F04E0F5F1F5093740240937302B2
:102E30008193919302C0E0E0F0E0CF01DF91CF9168
:102E40001F910F910895CF93DF93009709F481C0EC
:102E5000FC01329713821282A0917502B091760222
:102E6000109781F420813181820F931F209173028A
:102E7000309174022817390751F5F0937402E093EA
:102E8000730267C0ED0120E030E0CE17DF0740F4A9
:102E90004A815B819E0141155105F1F0EA01F5CFB0
:102EA000D383C28340815181840F951FC817D907EE
:102EB00059F488819981840F951F029691838083AC
:102EC0008A819B81938382832115310529F4F093B4
:102ED0007602E09375023DC0E901FB83EA834991E4
:102EE0005991C40FD51FEC17FD0761F480819181C2
:102EF000840F951F0296E9019983888382819381CB
:102F00009B838A83E0E0F0E012968D919C91139769
:102F1000009719F0FD01DC01F7CF8D919C9111977D
:102F20009D012E5F3F4F820F931F209173023091BE
:102F300074022817390769F4309729F41092760241
:102F40001092750202C013821282B0937402A09391
:102F50007302DF91CF91089581E090E0F8940C9492
:062F6000B117F894FFCF49
:102F6600640088130000060310270000FF000077A6
:102F7600022000020003000500060004000E000FF8
:102F8600001000000000006101CE00F800AE01292B
:102F96000107011B0100000000FA01F40100000016
:102FA600004705CE00DB01DA016D61696E2E6370A4
:102FB60070005345545550002B003D002B5B002AF2
:102FC60000735D002A312F004558504F5355524526
:102FD60000202000464F435553006E616E00696E17
:062FE60066006F76660034
:00000001FF
