:100000000C94A3000C94CB000C94CB000C94CB006C
:100010000C94CB000C94CB000C94CB000C94CB0034
:100020000C94CB000C94CB000C94CB000C94CB0024
:100030000C94CB000C94CB000C94CB000C94CB0014
:100040000C94F3050C94CB000C9463060C943D06C1
:100050000C94CB000C94CB000C94CB000C94CB00F4
:100060000C94CB000C94CB0007634236B79BD8A707
:100070001A39685618AEBAAB558C1D3CB7CC5763CD
:10008000BD6DEDFD753EF6177231BF000000803F7B
:1000900008000000BE922449123EABAAAA2ABECD97
:1000A000CCCC4C3E00000080BEABAAAAAA3E000009
:1000B0000000BF000000803F000000000008417801
:1000C000D3BB4387D1133D190E3CC3BD4282AD2B38
:1000D0003E68EC8276BED98FE1A93E4C80EFFFBE30
:1000E00001C4FF7F3F00000000000000000023006B
:1000F0002600290000000000240027002A0000003C
:100100000000250028002B00040404040404040457
:1001100002020202020203030303030301020408B2
:100120001020408001020408102001020408102061
:1001300000000008000201000003040700000000A6
:1001400000000000950611241FBECFEFD8E0DEBFEF
:10015000CDBF11E0A0E0B1E0ECE8FFE102C0059006
:100160000D92A236B107D9F722E0A2E6B1E001C0B4
:100170001D92AE32B207E1F710E0C3EAD0E004C04E
:100180002197FE010E94D70AC23AD107C9F70E94FF
:1001900022070C94C40F0C940000833081F028F4E3
:1001A000813099F08230A1F008958730A9F088302D
:1001B000B9F08430D1F4809180008F7D03C08091AC
:1001C00080008F7780938000089584B58F7702C078
:1001D00084B58F7D84BD08958091B0008F7703C072
:1001E0008091B0008F7D8093B00008951F93CF93CE
:1001F000DF93282F30E0F901E05DFE4F8491F90193
:10020000E45EFE4FD491F901E85FFE4FC491CC2328
:10021000C1F0162F81110E94CD00EC2FF0E0EE0FFF
:10022000FF1FE250FF4FA591B4919FB7F8941111B1
:1002300004C08C91D095D82302C0EC91DE2BDC93C6
:100240009FBFDF91CF911F910895CF93DF9390E0EF
:10025000FC01E45EFE4F2491FC01E85FFE4F8491B7
:10026000882361F190E0880F991FFC01EC50FF4F4B
:10027000C591D491FC01E250FF4FA591B491611159
:1002800009C09FB7F8948881209582238883EC91D8
:100290002E230BC0623061F49FB7F8948881322F0F
:1002A000309583238883EC912E2B2C939FBF06C01F
:1002B0008FB7F894E8812E2B28838FBFDF91CF91E1
:1002C00008953FB7F89480916F0190917001A091CB
:1002D0007101B091720126B5A89B05C02F3F19F09E
:1002E0000196A11DB11D3FBFBA2FA92F982F8827B6
:1002F000820F911DA11DB11DBC01CD0142E0660F11
:10030000771F881F991F4A95D1F708952FB7F89442
:1003100060916B0170916C0180916D0190916E0103
:100320002FBF0895DC01ED91FC910190F081E02D4B
:100330000994CF92DF92EF92FF920F931F93CF9386
:10034000DF936C017A018B01C0E0D0E0CE15DF05B0
:1003500081F0D8016D918D01D601ED91FC91019054
:10036000F081E02DC6010995892B11F02196EECF81
:100370007E01C701DF91CF911F910F91FF90EF9008
:10038000DF90CF900895FC01538D448D252F30E0F0
:10039000842F90E0821B930B541710F0CF96089592
:1003A00001970895FC01918D828D981761F0828DDF
:1003B000DF01A80FB11D5D968C91928D9F5F9F7399
:1003C000928F90E008958FEF9FEF0895FC01918D3B
:1003D000828D981731F0828DE80FF11D858D90E0A8
:1003E00008958FEF9FEF0895FC01918D228D892F45
:1003F00090E0805C9F4F821B91098F73992708952D
:1004000083E791E00E94F40121E0892B09F420E0C8
:10041000822F0895FC01848DDF01A80FB11DA35A1E
:10042000BF4F2C91848D90E001968F739927848F14
:10043000A689B7892C93A089B1898C918370806437
:100440008C93938D848D981306C00288F389E02DD8
:1004500080818F7D80830895EF92FF920F931F9389
:10046000CF93DF93EC0181E0888F9B8D8C8D981367
:1004700005C0E889F989808185FD26C0F62E0B8D9F
:1004800010E00F5F1F4F0F731127E02E8C8DE812C5
:100490000CC00FB607FCFACFE889F989808185FF87
:1004A000F5CFCE010E940A02F1CF8B8DFE01E80F3D
:1004B000F11DE35AFF4FF0829FB7F8940B8FEA8942
:1004C000FB89808180620AC09FB7F894EE89FF891A
:1004D0006083E889F98980818370806480839FBF0D
:1004E00081E090E0DF91CF911F910F91FF90EF900D
:1004F0000895CF93DF93EC01888D8823C9F0EA89B2
:10050000FB89808185FD05C0A889B9898C9186FD0C
:100510000FC00FB607FCF5CF808185FFF2CFA88909
:10052000B9898C9185FFEDCFCE010E940A02E7CFF9
:10053000DF91CF91089580E090E0892B29F00E940F
:10054000000281110C9400000895CF93DF93EC0119
:1005500060E08E810E94F60061E08E810E94F600CC
:1005600060E08E810E94F6008BE891E00197F1F740
:10057000DF91CF910895CF92DF92EF92FF920F9388
:100580001F93CF93DF936C017C0187E0E80EF11C91
:10059000C0E0D0E0062F10E0B8010C2E02C0759527
:1005A00067950A94E2F76170F70181917F010E94DB
:1005B000F6002196C430D10579F7C601DF91CF91BD
:1005C0001F910F91FF90EF90DF90CF900C94A502B8
:1005D000CF92DF92EF92FF920F931F93CF93DF930F
:1005E000EC01F62E642F8C810E94F6008D818F3FE6
:1005F00019F060E00E94F6008F850F2D10E084FF57
:1006000025C06E0187E0C80ED11CE12CF12CB80189
:100610000E2C02C0759567950A94E2F76170F60199
:1006200081916F010E94F600FFEFEF1AFF0A88E048
:10063000E816F10461F7CE01DF91CF911F910F9180
:10064000FF90EF90DF90CF900C94A502B80184E06A
:10065000759567958A95E1F7CE010E94BB026F2DD3
:10066000CE01DF91CF911F910F91FF90EF90DF901E
:10067000CF900C94BB0240E0682F82E192E00C9492
:10068000E802CF93DF93823028F0909121029860A6
:1006900090932102809325021092260280E4809399
:1006A000270280E18093280280E58093290261E09F
:1006B000809116020E942501809117028F3F19F048
:1006C00061E00E94250161E0809118020E942501ED
:1006D000C2E1D2E09E01225132408091210284FD8C
:1006E00003C084E090E002C088E090E021962817E3
:1006F00039072CF461E08E810E942501EBCF8BE35A
:100700009DE00197F1F760E0809116020E94F600EB
:1007100060E0809118020E94F600809117028F3FDE
:1007200019F060E00E94F6008091210284FD20C053
:1007300063E082E192E00E94BB02CBE4D6E4CE010A
:100740000197F1F763E082E192E00E94BB022197FA
:10075000F1F763E082E192E00E94BB0283E592E060
:100760000197F1F762E082E192E00E94BB0215C0BE
:1007700080620E943B038BE496E40197F1F780913D
:10078000210280620E943B0383E592E00197F1F72A
:100790008091210280620E943B038091210280624D
:1007A0000E943B0384E0809322028CE00E943B0382
:1007B00081E00E943B038BE39FE10197F1F782E028
:1007C0008093230286E0DF91CF910C943B03643049
:1007D00008F063E090912502691710F06FEF690F40
:1007E000E62FF0E0EE5EFD4F9489890F80680C944F
:1007F0003B0341E00E94E80281E090E00895089503
:1008000080E090E00895862F642F0C942501CF930B
:10081000DF93FC01218530E0F901E05DFE4F84911A
:10082000F901E45EFE4FD491F901E85FFE4FC491F7
:10083000CC2379F081110E94CD00EC2FF0E0EE0F77
:10084000FF1FE651FF4FA591B491EC91ED2381E09C
:1008500009F480E08170DF91CF910895CF92DF920B
:10086000EF92FF920F931F93CF93DF9322E1AC019E
:10087000249FC001259F900D1124C0911002D0919A
:100880001102C80FD91F988590FF22C00E948601CF
:10089000E0916201F091630124E62E9F80012F9F79
:1008A000100D112420E030E0CA84DB84EC84FD8448
:1008B000AB01BC014C195D096E097F0904171507CE
:1008C0002607370768F080E0988590FD11C001C0C9
:1008D00080E092FF0DC0109263011092620108C087
:1008E000CF010196909363018093620181E0ECCF88
:1008F000DF91CF911F910F91FF90EF90DF90CF90FC
:1009000008950E94BF0F6115710579F0FB010190F8
:100910000020E9F73197AF01461B570BDC01ED9141
:10092000FC910280F381E02D099480E090E008952D
:100930008F929F92AF92BF92EF92FF920F931F936D
:10094000CF93DF93CDB7DEB7A1970FB6F894DEBF94
:100950000FBECDBF7C01FA01CB0119A2223008F4F1
:100960002AE08E010F5D1F4F822E912CA12CB12CFD
:10097000BF01A50194010E94B50AF901CA01015005
:1009800011096A3014F4605D01C0695CD8016C9390
:10099000232B242B252B61F7B801C7010E94830468
:1009A000A1960FB6F894DEBF0FBECDBFDF91CF91F9
:1009B0001F910F91FF90EF90BF90AF909F908F90FD
:1009C0000895CF92DF92EF92FF920F931F93CF93F0
:1009D000DF936B01770FEE08FF08F7FE1BC0EC01F9
:1009E0006DE20E9492018C0144275527BA014C19EF
:1009F0005D096E097F092AE0CE010E949804800FEC
:100A0000911FDF91CF911F910F91FF90EF90DF9099
:100A1000CF9008952AE0B701A601DF91CF911F91F1
:100A20000F91FF90EF90DF90CF900C9498047F92FD
:100A30008F929F92AF92BF92CF92DF92EF92FF92EE
:100A40000F931F93CF93DF938C016A017B01722E6A
:100A50009A01AB01C701B6010E94640D882319F009
:100A600068E471E027C046015701E894B7F82FEF1A
:100A70003FEF4FE75FE7C501B4010E94640D8111AC
:100A80000DC02FEF3FEF4FE75FE7C501B4010E94B4
:100A90004A0B18161CF46CE471E00CC02FEF3FEF0A
:100AA0004FE75FE4C701B6010E94A20C181694F448
:100AB00060E571E0C801DF91CF911F910F91FF9028
:100AC000EF90DF90CF90BF90AF909F908F907F90EE
:100AD0000C9483042FEF3FEF4FE75FECC701B601A3
:100AE0000E944A0B87FDE4CF20E030E0A901C70156
:100AF000B6010E944A0B87FF0AC06DE2C8010E943E
:100B00009201EC01F7FAF094F7F8F09402C0C0E01B
:100B1000D0E0B12C60E070E080E09FE37B1441F016
:100B200020E030E040E251E40E944F0BB394F6CF56
:100B3000A70196010E94DE0A6B017C010E94C10B95
:100B40004B015C012AE0AB01BC01C8010E94980482
:100B5000C80FD91F7720C1F1C501B4010E94F00B65
:100B60009B01AC01C701B6010E94DD0A6B017C014B
:100B70006EE2C8010E949201C80FD91F20E030E048
:100B800040E251E4C701B6010E94A70C4B015C0191
:100B90000E94C10B6B01E12CF12C2AE0B701A601E8
:100BA000C8010E949804C80FD91FC701B6010E944E
:100BB000F00B9B01AC01C501B4010E94DD0A6B0181
:100BC0007C017A947110DACFCE01DF91CF911F9121
:100BD0000F91FF90EF90DF90CF90BF90AF909F90DC
:100BE0008F907F9008951F920F920FB60F9211244D
:100BF0002F933F938F939F93AF93BF9380916B01FC
:100C000090916C01A0916D01B0916E0130916A01DB
:100C100023E0230F2D3720F40196A11DB11D05C03F
:100C200026E8230F0296A11DB11D20936A0180932F
:100C30006B0190936C01A0936D01B0936E01809154
:100C40006F0190917001A0917101B09172010196B4
:100C5000A11DB11D80936F0190937001A09371014C
:100C6000B0937201BF91AF919F918F913F912F915E
:100C70000F900FBE0F901F9018951F920F920FB6F6
:100C80000F9211242F933F934F935F936F937F9312
:100C90008F939F93AF93BF93EF93FF9383E791E07D
:100CA0000E940A02FF91EF91BF91AF919F918F91A6
:100CB0007F916F915F914F913F912F910F900FBE58
:100CC0000F901F9018951F920F920FB60F9211243C
:100CD0002F938F939F93EF93FF93E0918301F09174
:100CE00084018081E0918901F0918A0182FD12C026
:100CF000908180918C018F5F8F7320918D0182177D
:100D000051F0E0918C01F0E0ED58FE4F958F80930B
:100D10008C0101C08081FF91EF919F918F912F9164
:100D20000F900FBE0F901F901895109276011092A1
:100D3000750188EE93E0A0E0B0E080937701909396
:100D40007801A0937901B0937A0186E291E09093C3
:100D500074018093730185EC90E0909380018093FF
:100D60007F0184EC90E0909382018093810180EC7C
:100D700090E0909384018093830181EC90E09093C4
:100D800086018093850182EC90E0909388018093A6
:100D9000870186EC90E090938A01809389011092FC
:100DA0008C0110928D0110928E0110928F01109281
:100DB00015021092140280E491E090931302809344
:100DC000120287E0809316028FEF8093170288E06B
:100DD0008093180289E0809319028AE080931A02B6
:100DE0008BE080931B028CE080931C0210921D020A
:100DF00010921E0210921F021092200210922102E5
:100E000081E00E94410380E990E00E949E0EFC0177
:100E10009C0120573F4F68E371E04AE050E0718346
:100E20006083128213821482158257834683108650
:100E300011867296E217F30791F79093110280934F
:100E400010020895789484B5826084BD84B5816071
:100E500084BD85B5826085BD85B5816085BD809185
:100E60006E00816080936E001092810080918100FD
:100E700082608093810080918100816080938100F5
:100E8000809180008160809380008091B1008460B7
:100E90008093B1008091B00081608093B000809118
:100EA0007A00846080937A0080917A0082608093D7
:100EB0007A0080917A00816080937A0080917A0034
:100EC000806880937A001092C100E0918301F091D4
:100ED000840182E08083E0917F01F09180011082A3
:100EE000E0918101F09182018FEC808310928B015F
:100EF000E0918701F091880186E08083E09185018F
:100F0000F0918601808180618083E0918501F0917C
:100F10008601808188608083E0918501F09186015F
:100F2000808180688083E0918501F09186018081D5
:100F30008F7D808352E1E52E51E0F52E00E010E038
:100F400069E1C62ED12CF701B0807181F2E0EF0E7D
:100F5000F11CC0911002D0911102C00FD11FE88185
:100F6000F9810280F381E02D40E050E06B2DCE014D
:100F70000995B9861886E881F9810190F081E02D04
:100F8000CE010995882319F08885836088870E949F
:100F900086016A837B838C839D83E0911002F091AC
:100FA0001102E00FF11FD782C6820E5E1F4F00397B
:100FB000110549F682E00E94410364E571E082E197
:100FC00092E00E9483040E9461014B015C014CEDA0
:100FD000C42E45E0D42EE12CF12C0E946101DC01ED
:100FE000CB0188199909AA09BB09883E9340A1053C
:100FF000B10598F321E0C21AD108E108F10888EEA2
:10100000880E83E0981EA11CB11CC114D104E10418
:10101000F10419F781E00E943B038BE39FE1019704
:10102000F1F79924939492E0892E23E0C22ED12CDB
:1010300032E0E32EF12C01E010E0A12CB12CC091A4
:101040001002D0911102CA0DDB1D88858B7F888725
:10105000E881F9810190F081E02DCE010995782E8B
:10106000888586958170781651F00E9486016A8382
:101070007B838C839D8388858825888739C00E94DF
:1010800086012A813B814C815D811B012C01221A42
:10109000330A440A550A8E819F81A0E0B0E02816E9
:1010A00039064A065B0620F188858170781601F1C1
:1010B0000E9486016A837B838C839D838885892532
:1010C000846088870E9486014A845B846C847D8466
:1010D000DC01CB0184199509A609B7098E879F8782
:1010E000A88BB98B0E9486016A877B878C879D8736
:1010F00022E1A20EB11C80E9A816B10409F09FCF2D
:10110000C0911002D0911102FE01EC58FF4F808176
:10111000729680FD0DC0808180FD05C0109269012E
:101120001092680111C010936901009368010CC00E
:10113000808180FD05C0F0926901E092680104C0E1
:10114000D0926901C0926801809166019091670117
:101150008130910509F4A6C18230910509F4ADC131
:10116000892B09F0AFC184E090E00E942E0488230F
:1011700029F0109367010093660109C0CE59DF4F33
:10118000888180FF06C0F0926701E09266010E94AC
:10119000860180916801909169018130910509F47F
:1011A00093C034F4892B09F08DC1C0E0D0E060C059
:1011B0008230910509F4C1C0039709F426C182C1A8
:1011C000BE01C230D1050CF059C061507109072E23
:1011D000000C880B990B0E94F20B9B01AC0160E0A4
:1011E00070E080E291E40E94140D2B013C0177FA3B
:1011F000709477F87094BE0183E791E00E94E10457
:101200006DE571E083E791E00E94830422E0B30181
:10121000A20183E791E00E9417056FE571E083E783
:1012200091E00E94830420910801309109014091CE
:101230000A0150910B01C301B2010E94DE0A2B0189
:101240003C0120E030E0A9010E944A0B87FF29C041
:10125000412C512C320140920801509209016092B8
:101260000A0170920B012196C430D10509F42AC1FC
:10127000CE010E942E048823B1F3A2CF63507109DE
:10128000072E000C880B990B0E94F20B9B01AC01FE
:1012900060E070E080E291E40E94140D2B013C01BB
:1012A000AACF20E030E04AE754E4C301B2010E9433
:1012B000A20C181684F68AE9482E89EF582E89E781
:1012C000682E84E4782EC7CFC0E0D0E0CE010E9423
:1012D0002E04882371F080910601909107018C0FF4
:1012E0009D1F8130910509F001979093070180932C
:1012F00006012296C430D10549F781E090E00E94B2
:101300002E04882349F08091640190916501019732
:10131000909365018093640183E090E00E942E0425
:10132000882309F4CFC080916401909165010196F2
:101330009093650180936401C5C080E090E00E94B5
:101340002E04882389F08091040190910501019772
:10135000181619062CF0109307010093060104C01B
:10136000909305018093040182E090E00E942E0496
:10137000882389F080910401909105010196181647
:1013800019062CF4909305018093040104C0109376
:1013900007010093060181E090E00E942E0488235B
:1013A000B1F02DEC3CEC4CEC5DE3609100017091F0
:1013B000010180910201909103010E94DD0A609376
:1013C000000170930101809302019093030183E077
:1013D00090E00E942E04882309F474C02DEC3CECAC
:1013E0004CEC5DE36091000170910101809102017C
:1013F000909103010E94DE0A609300017093010145
:1014000080930201909303015DC080E090E00E9410
:101410002E04882389F080910401909105010197A1
:10142000181619062CF0109307010093060104C04A
:10143000909305018093040182E090E00E942E04C5
:10144000882389F080910401909105010196181676
:1014500019062CF4909305018093040104C01093A5
:10146000070100930601C1E0D0E0CE010E942E04E6
:10147000882399F080910601909107018C0F9D1FA0
:101480008230910531F00297909307018093060115
:1014900004C010930701009306012296C530D105C0
:1014A00089F0E3CF84E090E00E942E04882351F07D
:1014B000109267011092660105C0CE59DF4F8881F6
:1014C00080FFF6CF60E080E00E94E7036091680152
:1014D0007091690182E192E00E94E10460E082E0A3
:1014E0000E94E703609166017091670182E192E0DA
:1014F0000E94E10460E084E00E94E703609104013F
:101500007091050182E192E00E94E10460E086E0D2
:101510000E94E703409106015091070160E070E0EE
:101520002AE082E192E00E94980460E088E00E9454
:10153000E703609164017091650182E192E00E948D
:10154000E10461E080E00E94E703409108015091CE
:10155000090160910A0170910B0122E082E192E0A1
:101560000E9417050E949B0268CDA1E21A2EAA1BB9
:10157000BB1BFD010DC0AA1FBB1FEE1FFF1FA21743
:10158000B307E407F50720F0A21BB30BE40BF50B40
:10159000661F771F881F991F1A9469F760957095C9
:1015A000809590959B01AC01BD01CF010895EE0F90
:1015B000FF1F0590F491E02D09945058BB27AA27EE
:1015C0000E94F50A0C94680C0E945A0C38F00E9494
:1015D000610C20F039F49F3F19F426F40C94570C59
:1015E0000EF4E095E7FB0C94510CE92F0E94790C66
:1015F00058F3BA17620773078407950720F079F448
:10160000A6F50C949B0C0EF4E0950B2EBA2FA02D92
:101610000B01B90190010C01CA01A0011124FF279F
:10162000591B99F0593F50F4503E68F11A16F0409A
:10163000A22F232F342F4427585FF3CF4695379599
:101640002795A795F0405395C9F77EF41F16BA0B5E
:10165000620B730B840BBAF09150A1F0FF0FBB1F0C
:10166000661F771F881FC2F70EC0BA0F621F731F55
:10167000841F48F4879577956795B795F7959E3FB2
:1016800008F0B0CF9395880F08F09927EE0F979543
:10169000879508950E942D0C08F481E008950E941A
:1016A000630B0C94680C0E94610C58F00E945A0C59
:1016B00040F029F45F3F29F00C94510C51110C9427
:1016C0009C0C0C94570C0E94790C68F39923B1F38D
:1016D000552391F3951B550BBB27AA276217730758
:1016E000840738F09F5F5F4F220F331F441FAA1FEC
:1016F000A9F335D00E2E3AF0E0E832D091505040A8
:10170000E695001CCAF72BD0FE2F29D0660F771F55
:10171000881FBB1F261737074807AB07B0E809F03B
:10172000BB0B802DBF01FF2793585F4F3AF09E3FC0
:10173000510578F00C94510C0C949C0C5F3FE4F331
:10174000983ED4F3869577956795B795F7959F5F03
:10175000C9F7880F911D9695879597F90895E1E04F
:10176000660F771F881FBB1F621773078407BA07AE
:1017700020F0621B730B840BBA0BEE1F88F7E09509
:1017800008950E94810C88F09F5798F0B92F9927EF
:10179000B751B0F0E1F0660F771F881F991F1AF05C
:1017A000BA95C9F714C0B13091F00E949B0CB1E01A
:1017B00008950C949B0C672F782F8827B85F39F019
:1017C000B93FCCF3869577956795B395D9F73EF4F5
:1017D00090958095709561957F4F8F4F9F4F08959D
:1017E000E89409C097FB3EF49095809570956195BB
:1017F0007F4F8F4F9F4F9923A9F0F92F96E9BB2771
:101800009395F695879577956795B795F111F8CFEC
:10181000FAF4BB0F11F460FF1BC06F5F7F4F8F4F57
:101820009F4F16C0882311F096E911C0772321F04D
:101830009EE8872F762F05C0662371F096E8862FE5
:1018400070E060E02AF09A95660F771F881FDAF73C
:10185000880F9695879597F90895990F0008550F69
:10186000AA0BE0E8FEEF16161706E807F907C0F026
:1018700012161306E407F50798F0621B730B840B2E
:10188000950B39F40A2661F0232B242B252B21F408
:1018900008950A2609F4A140A6958FEF811D811DA8
:1018A000089597F99F6780E870E060E008959FEFE2
:1018B00080EC089500240A941616170618060906E7
:1018C000089500240A9412161306140605060895B6
:1018D000092E0394000C11F4882352F0BB0F40F43E
:1018E000BF2B11F460FF04C06F5F7F4F8F4F9F4F7E
:1018F000089557FD9058440F551F59F05F3F71F000
:101900004795880F97FB991F61F09F3F79F0879566
:101910000895121613061406551FF2CF4695F1DFEF
:1019200008C0161617061806991FF1CF869571057F
:10193000610508940895E894BB2766277727CB01B3
:1019400097F908950E942D0C08F48FEF08950E94D6
:10195000BA0C0C94680C0E945A0C38F00E94610C6E
:1019600020F0952311F00C94510C0C94570C112479
:101970000C949C0C0E94790C70F3959FC1F3950F09
:1019800050E0551F629FF001729FBB27F00DB11D03
:10199000639FAA27F00DB11DAA1F649F6627B00D93
:1019A000A11D661F829F2227B00DA11D621F739F7C
:1019B000B00DA11D621F839FA00D611D221F749F8A
:1019C0003327A00D611D231F849F600D211D822FD1
:1019D000762F6A2F11249F5750409AF0F1F08823F8
:1019E0004AF0EE0FFF1FBB1F661F771F881F915025
:1019F0005040A9F79E3F510580F00C94510C0C9477
:101A00009C0C5F3FE4F3983ED4F3869577956795F9
:101A1000B795F795E7959F5FC1F7FE2B880F911D4E
:101A20009695879597F90895FA01EE0FFF1F309666
:101A300021053105A1F16115710561F48038BFE31D
:101A40009B0749F168949038810561F08038BFEFB9
:101A50009B0741F099234AF5FF3FE1053105210538
:101A600019F1E8940894E795D901AA2329F4AB2F3A
:101A7000BE2FF85FD0F310C0FF5F70F4A695E0F7BB
:101A8000F73950F019F0FF3A38F49F779F930DD053
:101A90000F9007FC9058089546F00C94570C60E0A6
:101AA00070E080E89FE308954FE79F775F934F933F
:101AB0003F932F930E94140E2F913F914F915F916E
:101AC0000E94A70C0C94710D0E942D0C880B990B91
:101AD000089529F416F00C94510C0C949B0C0C9462
:101AE000570C0E94810CA8F39638A0F707F80F92C4
:101AF000E8942BE33AEA48EB5FE70E94BD0C0F92B3
:101B00000F920F924DB75EB70F920E945C0EE8E6FF
:101B1000F0E00E94A30D4F915F91EF91FF91E59549
:101B2000EE1FFF1F49F0FE57E0684427EE0F441FE9
:101B3000FA95E1F74195550B0E94D60D0F9007FEDF
:101B40000C94CA0D0895DF93CF931F930F93FF92C8
:101B5000EF92DF927B018C01689406C0DA2EEF01D0
:101B60000E94BA0CFE01E894A5912591359145910A
:101B70005591A6F3EF010E94F50AFE019701A80115
:101B8000DA9469F7DF90EF90FF900F911F91CF915A
:101B9000DF9108959B01AC0160E070E080E89FE375
:101BA0000C944F0B0C94510C0C94900E0E94810CD1
:101BB000D8F39923C9F3940F511DA3F391505040CA
:101BC00094F059F0882332F0660F771F881F9150E8
:101BD0005040C1F79E3F51052CF7880F911D9695F7
:101BE000879597F908955F3FACF0983E9CF0BB272E
:101BF000869577956795B79508F4B1609395C1F789
:101C0000BB0F58F711F460FFE8CF6F5F7F4F8F4F26
:101C10009F4FE3CF0C949C0C16F00C94900E0C94F8
:101C2000570C68940C94510C0E94810CA8F39923D2
:101C3000C1F3AEF3DF93CF931F930F93FF92C92F9E
:101C4000DD2788232AF02197660F771F881FDAF790
:101C500020E030E040E85FEB9FE3883920F0803EF1
:101C600038F021968F770E94DE0AE0E9F0E004C0A8
:101C70000E94DE0AEDEBF0E00E94A30D8B01BE0195
:101C8000EC01FB2E6F5771097595771F880B990B27
:101C90000E94F20B28E132E741E35FE30E94BA0CB5
:101CA000AF2D9801AE01FF900F911F91CF91DF9161
:101CB0000E94F50A0C94680CFA01DC01AA0FBB1F04
:101CC0009B01AC01BF5728F42227332744275078C3
:101CD00020C0B75190F4AB2F002446953795279537
:101CE000011CA395D2F3002071F0220F331F441F73
:101CF000B395DAF30ED00C94DD0A61307105A0E8DB
:101D00008A07B94630F49B01AC01662777278827FC
:101D10009078309621F02083318342835383089555
:101D20009F3F31F0915020F4879577956795B7954F
:101D3000880F911D9695879597F908950F931F9396
:101D4000CF93DF938230910510F482E090E0E09130
:101D50002C02F0912D0220E030E0A0E0B0E03097BE
:101D600019F1408151810281138148175907C8F048
:101D70008417950769F4109731F012960C93129717
:101D800013961C9327C000932C0210932D0222C09F
:101D90002115310519F04217530718F49A01BD01B6
:101DA000EF01DF01F801DBCF21153105F9F0281B28
:101DB000390B2430310580F48A819B8161157105CE
:101DC00021F0FB019383828304C090932D028093C2
:101DD0002C02FE01329644C0FE01E20FF31F8193F4
:101DE000919322503109398328833AC020912A02E5
:101DF00030912B02232B41F420910E0130910F01E1
:101E000030932B0220932A0220910C0130910D0176
:101E10002115310541F42DB73EB740911001509185
:101E20001101241B350BE0912A02F0912B02E217DD
:101E3000F307A0F42E1B3F0B2817390778F0AC01ED
:101E40004E5F5F4F2417350748F04E0F5F1F5093CA
:101E50002B0240932A028193919302C0E0E0F0E0CC
:101E6000CF01DF91CF911F910F910895CF93DF9311
:101E7000009709F481C0FC01329713821282A0916D
:101E80002C02B0912D02109781F420813181820FB4
:101E9000931F20912A0230912B022817390751F500
:101EA000F0932B02E0932A0267C0ED0120E030E0BE
:101EB000CE17DF0740F44A815B819E014115510531
:101EC000F1F0EA01F5CFD383C28340815181840FC1
:101ED000951FC817D90759F488819981840F951FD8
:101EE0000296918380838A819B81938382832115CB
:101EF000310529F4F0932D02E0932C023DC0E90155
:101F0000FB83EA8349915991C40FD51FEC17FD0754
:101F100061F480819181840F951F0296E901998374
:101F20008883828193819B838A83E0E0F0E012962C
:101F30008D919C911397009719F0FD01DC01F7CF6B
:101F40008D919C9111979D012E5F3F4F820F931FA2
:101F500020912A0230912B022817390769F4309713
:101F600029F410922D0210922C0202C013821282C8
:101F7000B0932B02A0932A02DF91CF91089581E0C4
:0C1F800090E0F8940C94C40FF894FFCF8C
:101F8C000000803F010001000000204100002E02F3
:101F9C002000020003000500060004000E000F00E4
:101FAC001000000000002C029901C3017902F40119
:101FBC00D201E60100000000070403040000000049
:101FCC00F90399010004FF036E616E00696E6600EF
:101FDC006F7666006D61696E2E6370700020000A6A
:021FEC000000F3
:00000001FF
