:100000000C9462000C948A000C948A000C948A0070
:100010000C948A000C948A000C948A000C948A0038
:100020000C948A000C948A000C948A000C948A0028
:100030000C948A000C948A000C948A000C948A0018
:100040000C94C9030C948A000C948A000C948A00C6
:100050000C948A000C948A000C948A000C948A00F8
:100060000C948A000C948A000000000023002600F3
:10007000290000000000240027002A0000000000E2
:10008000250028002B0004040404040404040202D4
:100090000202020203030303030301020408102007
:1000A0004080010204081020010204081020000012
:1000B0000008000201000003040700000000000027
:1000C00000002E0611241FBECFEFD8E0DEBFCDBF4B
:1000D00011E0A0E0B1E0E2E9FFE002C005900D927E
:1000E000A433B107D9F721E0A4E3B1E001C01D9228
:1000F000A536B207E1F710E0C2E6D0E004C02197D0
:10010000FE010E949B06C136D107C9F70E94130465
:100110000C94C7070C940000833081F028F48130E0
:1001200099F08230A1F008958730A9F08830B9F0B5
:100130008430D1F4809180008F7D03C08091800055
:100140008F7780938000089584B58F7702C084B53F
:100150008F7D84BD08958091B0008F7703C080911A
:10016000B0008F7D8093B00008951F93CF93DF93ED
:10017000282F30E0F901E255FF4F8491F901E6564E
:10018000FF4FD491F901EA57FF4FC491CC23C1F03E
:10019000162F81110E948C00EC2FF0E0EE0FFF1F54
:1001A000E458FF4FA591B4919FB7F894111104C082
:1001B0008C91D095D82302C0EC91DE2BDC939FBFAD
:1001C000DF91CF911F910895CF93DF9390E0FC01D1
:1001D000E656FF4F2491FC01EA57FF4F8491882394
:1001E00061F190E0880F991FFC01EE58FF4FC59117
:1001F000D491FC01E458FF4FA591B491611109C05D
:100200009FB7F8948881209582238883EC912E23D0
:100210000BC0623061F49FB7F8948881322F30951B
:1002200083238883EC912E2B2C939FBF06C08FB71E
:10023000F894E8812E2B28838FBFDF91CF9108950A
:100240003FB7F8948091410190914201A091430100
:10025000B091440126B5A89B05C02F3F19F0019627
:10026000A11DB11D3FBFBA2FA92F982F8827820F3C
:10027000911DA11DB11DBC01CD0142E0660F771F8C
:10028000881F991F4A95D1F708952FB7F894609168
:100290003D0170913E0180913F01909140012FBF3F
:1002A00008958F929F92AF92BF92CF92DF92EF927A
:1002B000FF920F931F93CF93DF93C0914701D0918B
:1002C00048018E01005B1F4FF801908190FF27C00D
:1002D0000E944501E0914501F09146012AEF2E9FD1
:1002E00060012F9FD00C11240D2C000CEE08FF088C
:1002F000C85BDF4F8A849B84AC84BD84AB01BC01A6
:10030000481959096A097B09C416D506E606F70695
:1003100070F080E0F801908190FD11C001C080E094
:1003200092FF0DC0109246011092450108C0CF0106
:100330000196909346018093450181E0EBCFDF91D8
:10034000CF911F910F91FF90EF90DF90CF90BF90D2
:10035000AF909F908F900895CF92DF92EF92FF928F
:100360000F931F93CF93DF936C017A018B01C0E051
:10037000D0E0CE15DF0581F0D8016D918D01D60159
:10038000ED91FC910190F081E02DC6010995892B3A
:1003900011F02196EECF7E01C701DF91CF911F9121
:1003A0000F91FF90EF90DF90CF900895CF93DF9360
:1003B000EC0160E08E810E94B50061E08E810E94B8
:1003C000B50060E08E810E94B5008BE891E0019756
:1003D000F1F7DF91CF910895CF92DF92EF92FF92E4
:1003E0000F931F93CF93DF936C017C0187E0E80E9E
:1003F000F11CC0E0D0E0062F10E0B8010C2E02C0C6
:10040000759567950A94E2F76170F70181917F0114
:100410000E94B5002196C430D10579F7C601DF915D
:10042000CF911F910F91FF90EF90DF90CF900C94A0
:10043000D601CF92DF92EF92FF920F931F93CF934B
:10044000DF93EC01F62E642F8C810E94B5008D8124
:100450008F3F19F060E00E94B5008F850F2D10E0EE
:1004600084FF25C06E0187E0C80ED11CE12CF12C61
:10047000B8010E2C02C0759567950A94E2F7617079
:10048000F60181916F010E94B500FFEFEF1AFF0A9C
:1004900088E0E816F10461F7CE01DF91CF911F915A
:1004A0000F91FF90EF90DF90CF900C94D601B801A0
:1004B00084E0759567958A95E1F7CE010E94EC017D
:1004C0006F2DCE01DF91CF911F910F91FF90EF9093
:1004D000DF90CF900C94EC0140E0682F89E491E02C
:1004E0000C941902CF93DF93823028F09091580139
:1004F00098609093580180935C0110925D0180E4B4
:1005000080935E0180E180935F0180E580936001CC
:1005100061E080914D010E94E40080914E018F3F87
:1005200019F061E00E94E40061E080914F010E94B7
:10053000E400C9E4D1E09E01295431408091580182
:1005400084FD03C084E090E002C088E090E0219642
:10055000281739072CF461E08E810E94E400EBCF6C
:100560008BE39DE00197F1F760E080914D010E94DF
:10057000B50060E080914F010E94B50080914E016E
:100580008F3F19F060E00E94B5008091580184FD12
:1005900020C063E089E491E00E94EC01CBE4D6E462
:1005A000CE010197F1F763E089E491E00E94EC014C
:1005B0002197F1F763E089E491E00E94EC0183E583
:1005C00092E00197F1F762E089E491E00E94EC018A
:1005D00015C080620E946C028BE496E40197F1F7EB
:1005E0008091580180620E946C0283E592E001973D
:1005F000F1F78091580180620E946C02809158014D
:1006000080620E946C0284E0809359018CE00E9419
:100610006C0281E00E946C028BE39FE10197F1F78D
:1006200082E080935A0186E0DF91CF910C946C02B6
:1006300041E00E94190281E090E00895089580E071
:1006400090E00895862F642F0C94E400CF93DF93FD
:10065000FC01218530E0F901E255FF4F8491F90159
:10066000E656FF4FD491F901EA57FF4FC491CC23CE
:1006700079F081110E948C00EC2FF0E0EE0FFF1F4B
:10068000E859FF4FA591B491EC91ED2381E009F475
:1006900080E08170DF91CF9108958F929F92AF9209
:1006A000BF920F931F93CF93DF93CDB7DEB7A19780
:1006B0000FB6F894DEBF0FBECDBF19A2423008F4CA
:1006C0004AE08E010F5D1F4F842E912CA12CB12C7E
:1006D000A50194010E947906E62FB901CA010150D3
:1006E0001109EA3014F4E05D01C0E95CD801EC9333
:1006F000232B242B252B61F70115110571F0F8012F
:1007000001900020E9F73197AF01401B510BB80170
:1007100089E491E00E94AC0102C080E090E0A196E3
:100720000FB6F894DEBF0FBECDBFDF91CF911F9102
:100730000F91BF90AF909F908F900895CF92DF92CE
:10074000EF92FF926C01990FEE08FF08F7FE16C0BA
:1007500041E06DE289E491E00E9419026627772763
:10076000CB016C197D098E099F094AE00E944D0357
:100770000196FF90EF90DF90CF9008954AE0C70177
:10078000B601FF90EF90DF90CF900C944D030E9444
:10079000C2071F920F920FB60F9211242F933F930F
:1007A0008F939F93AF93BF9380913D0190913E01B2
:1007B000A0913F01B091400130913C0123E0230F13
:1007C0002D3720F40196A11DB11D05C026E8230F89
:1007D0000296A11DB11D20933C0180933D01909391
:1007E0003E01A0933F01B09340018091410190915F
:1007F0004201A0914301B09144010196A11DB11D98
:100800008093410190934201A0934301B09344012E
:10081000BF91AF919F918F913F912F910F900FBEFC
:100820000F901F901895CF93DF9300D01F92CDB7F4
:10083000DEB7789484B5826084BD84B5816084BD60
:1008400085B5826085BD85B5816085BD80916E006E
:10085000816080936E00109281008091810082609F
:1008600080938100809181008160809381008091DC
:1008700080008160809380008091B10084608093CB
:10088000B1008091B00081608093B00080917A00C7
:10089000846080937A0080917A00826080937A00ED
:1008A00080917A00816080937A0080917A008068DC
:1008B00080937A001092C1006AE1E62E61E0F62E84
:1008C00000E010E079E1C72ED12CD701BC90119641
:1008D0007C91B2E0EB0EF11CE0914701F0914801F0
:1008E000E00FF11FFB83EA830190F081E02D02808D
:1008F000F381E02D40E050E06B2D8A819B810995CA
:10090000AA81BB811996BC92199718961C921897C8
:10091000ED91FC9111970190F081E02DCD010995A9
:10092000882329F0EA81FB818085836080870E948B
:100930004501AA81BB8112966D937D938D939C9303
:100940001597E0914701F0914801E00FF11FD78220
:10095000C6820E5E1F4F0039110509F0B6CF82E046
:100960000E94720248E050E06AE271E089E491E09E
:100970000E94AC010E9420014B015C015CEDC52E80
:1009800055E0D52EE12CF12C0E942001DC01CB0199
:1009900088199909AA09BB09883E9340A105B105A8
:1009A00098F3B1E0CB1AD108E108F108E8EE8E0E19
:1009B000E3E09E1EA11CB11CC114D104E104F104AA
:1009C00019F781E00E946C028BE39FE10197F1F738
:1009D0007724739492E0692E20E0C22E20E0D22E7C
:1009E00033E0A32EB12C02E010E0EE24E394F12CCE
:1009F00082E1882E912C2090470130904801280CEC
:100A0000391C3B822A82D10118968C9118978B7FD2
:100A100018968C931897ED91FC910190F081E02D40
:100A2000C10109958983EA81FB8180858695817062
:100A30002980281689F00E944501AA81BB8112965F
:100A40006D937D938D939C93159718968C91189721
:100A5000862518968C9349C00E944501EA81FB8146
:100A600022813381448155811B012C01221A330AD2
:100A7000440A550A86819781A0E0B0E0281639061D
:100A80004A065B0690F1808581703980381669F1DD
:100A90000E944501AA81BB8112966D937D938D932F
:100AA0009C93159718968C911897872584601896B3
:100AB0008C930E944501EA81FB8122853385448520
:100AC0005585DC01CB01821B930BA40BB50B8687EC
:100AD0009787A08BB18B0E944501AA81BB811A9692
:100AE0006D937D938D939C931D97B2E18B0E911C1A
:100AF000E0E98E16910409F07ECF209047013090F6
:100B000048013B822A82F101EC58FF4F80817296A6
:100B100080FD0DC0808180FD05C010923B011092C8
:100B20003A0111C0F0923B01E0923A010CC0808181
:100B300080FD05C010933B0100933A0104C0B092C0
:100B40003B01A0923A0180913801909139018130A6
:100B5000910529F18230910599F1892BC1F50E9407
:100B60005101882329F0F0923901E09238010CC03C
:100B70008A819B818E599F4FDC018C9180FF27C019
:100B800010933901009338010E94450160933401AC
:100B900070933501809336019093370118C00E94FD
:100BA00051018823A1F0109239011092380110925E
:100BB000340110923501109236011092370107C0AE
:100BC000EA81FB81EE59FF4F808180FFECCFE1E0AD
:100BD00080915C018111E0E0E195F0E0E75BFE4F80
:100BE000848980680E946C0280913A0190913B0157
:100BF0000E949E03E1E080915C018111E0E0E195BB
:100C0000F0E0E75BFE4F84898E5F80680E946C0293
:100C100060913401709135018091360190913701D6
:100C20004AE00E944D03E0915C01E23010F4E15093
:100C300001C0E1E0F0E0E75BFE4F848980680E943C
:100C40006C0280913801909139010E949E03C11479
:100C5000D10409F4CDCE0E940000CACE10924C01FE
:100C600010924B0182E191E090934A0180934901F7
:100C700087E080934D018FEF80934E0188E0809351
:100C80004F0189E0809350018AE0809351018BE00D
:100C9000809352018CE08093530110925401109282
:100CA000550110925601109257011092580181E09F
:100CB0000E94720280E990E00E94A106FC019C0162
:100CC00020573F4F6AE071E04AE050E07183608353
:100CD00012821382148215825783468310861186EE
:100CE0007296E217F30791F79093480180934701BA
:100CF0000895A1E21A2EAA1BBB1BFD010DC0AA1F5D
:100D0000BB1FEE1FFF1FA217B307E407F50720F074
:100D1000A21BB30BE40BF50B661F771F881F991FEF
:100D20001A9469F760957095809590959B01AC0138
:100D3000BD01CF010895EE0FFF1F0590F491E02D46
:100D400009940F931F93CF93DF938230910510F492
:100D500082E090E0E0916301F091640120E030E0F6
:100D6000A0E0B0E0309719F14081518102811381F8
:100D700048175907C8F08417950769F4109731F0A0
:100D800012960C93129713961C9327C0009363013D
:100D90001093640122C02115310519F04217530741
:100DA00018F49A01BD01EF01DF01F801DBCF211535
:100DB0003105F9F0281B390B2430310580F48A8184
:100DC0009B816115710521F0FB019383828304C02F
:100DD0009093640180936301FE01329644C0FE014A
:100DE000E20FF31F819391932250310939832883B5
:100DF0003AC02091610130916201232B41F420918E
:100E0000020130910301309362012093610120912E
:100E10000001309101012115310541F42DB73EB794
:100E20004091040150910501241B350BE0916101B3
:100E3000F0916201E217F307A0F42E1B3F0B281775
:100E4000390778F0AC014E5F5F4F2417350748F043
:100E50004E0F5F1F50936201409361018193919304
:100E600002C0E0E0F0E0CF01DF91CF911F910F9140
:100E70000895CF93DF93009709F481C0FC01329766
:100E800013821282A0916301B0916401109781F4E2
:100E900020813181820F931F209161013091620185
:100EA0002817390751F5F0936201E093610167C09B
:100EB000ED0120E030E0CE17DF0740F44A815B818E
:100EC0009E0141155105F1F0EA01F5CFD383C283AC
:100ED00040815181840F951FC817D90759F4888123
:100EE0009981840F951F0296918380838A819B81CB
:100EF000938382832115310529F4F0936401E093F3
:100F000063013DC0E901FB83EA8349915991C40F14
:100F1000D51FEC17FD0761F480819181840F951F27
:100F20000296E90199838883828193819B838A83D6
:100F3000E0E0F0E012968D919C911397009719F0E4
:100F4000FD01DC01F7CF8D919C9111979D012E5FE2
:100F50003F4F820F931F209161013091620128174A
:100F6000390769F4309729F41092640110926301F3
:100F700002C013821282B0936201A0936101DF91DB
:100F8000CF91089581E090E0F8940C94C707F8940D
:020F9000FFCF91
:100F9200000065012000000000002603220300007B
:100FA20000001803AC011F031E0305000600020027
:100FB200030004000E000F0010006D61696E2E63C5
:040FC200707000004B
:00000001FF
